{
  "_format": "hh-sol-artifact-1",
  "contractName": "ArbitrageBalancer",
  "sourceName": "contracts/contracts/ArbitrageBalancer.sol",
  "abi": [
    {
      "inputs": [
        {
          "internalType": "address",
          "name": "_vault",
          "type": "address"
        }
      ],
      "stateMutability": "nonpayable",
      "type": "constructor"
    },
    {
      "inputs": [],
      "name": "ReentrancyGuardReentrantCall",
      "type": "error"
    },
    {
      "anonymous": false,
      "inputs": [
        {
          "indexed": true,
          "internalType": "address",
          "name": "token",
          "type": "address"
        },
        {
          "indexed": false,
          "internalType": "uint256",
          "name": "loanAmount",
          "type": "uint256"
        },
        {
          "indexed": false,
          "internalType": "int256",
          "name": "netProfit",
          "type": "int256"
        }
      ],
      "name": "FlashLoanExecuted",
      "type": "event"
    },
    {
      "inputs": [],
      "name": "owner",
      "outputs": [
        {
          "internalType": "address",
          "name": "",
          "type": "address"
        }
      ],
      "stateMutability": "view",
      "type": "function"
    },
    {
      "inputs": [
        {
          "internalType": "address[]",
          "name": "tokens",
          "type": "address[]"
        },
        {
          "internalType": "uint256[]",
          "name": "amounts",
          "type": "uint256[]"
        },
        {
          "internalType": "uint256[]",
          "name": "feeAmounts",
          "type": "uint256[]"
        },
        {
          "internalType": "bytes",
          "name": "userData",
          "type": "bytes"
        }
      ],
      "name": "receiveFlashLoan",
      "outputs": [],
      "stateMutability": "nonpayable",
      "type": "function"
    },
    {
      "inputs": [
        {
          "internalType": "address",
          "name": "token",
          "type": "address"
        },
        {
          "internalType": "uint256",
          "name": "amount",
          "type": "uint256"
        },
        {
          "internalType": "bytes",
          "name": "userData",
          "type": "bytes"
        }
      ],
      "name": "startFlashloan",
      "outputs": [],
      "stateMutability": "nonpayable",
      "type": "function"
    },
    {
      "inputs": [],
      "name": "vault",
      "outputs": [
        {
          "internalType": "contract IVault",
          "name": "",
          "type": "address"
        }
      ],
      "stateMutability": "view",
      "type": "function"
    },
    {
      "inputs": [
        {
          "internalType": "address",
          "name": "tokenAddress",
          "type": "address"
        }
      ],
      "name": "withdraw",
      "outputs": [],
      "stateMutability": "nonpayable",
      "type": "function"
    }
  ],
  "bytecode": "0x60c06040523480156200001157600080fd5b506040516200203138038062002031833981810160405281019062000037919062000118565b60016000819055503373ffffffffffffffffffffffffffffffffffffffff1660808173ffffffffffffffffffffffffffffffffffffffff16815250508073ffffffffffffffffffffffffffffffffffffffff1660a08173ffffffffffffffffffffffffffffffffffffffff1681525050506200014a565b600080fd5b600073ffffffffffffffffffffffffffffffffffffffff82169050919050565b6000620000e082620000b3565b9050919050565b620000f281620000d3565b8114620000fe57600080fd5b50565b6000815190506200011281620000e7565b92915050565b600060208284031215620001315762000130620000ae565b5b6000620001418482850162000101565b91505092915050565b60805160a051611e91620001a0600039600081816104470152818161050e01528181610c150152610dc301526000818160ee01528181610224015281816102ad015281816104e20152610ccd0152611e916000f3fe608060405234801561001057600080fd5b50600436106100575760003560e01c806351cff8d91461005c5780638298a90d146100785780638da5cb5b14610094578063f04f2707146100b2578063fbfa77cf146100ce575b600080fd5b61007660048036038101906100719190610ea7565b6100ec565b005b610092600480360381019061008d9190610f6f565b6102ab565b005b61009c6104e0565b6040516100a99190610ff2565b60405180910390f35b6100cc60048036038101906100c791906110b9565b610504565b005b6100d6610dc1565b6040516100e39190611201565b60405180910390f35b7f000000000000000000000000000000000000000000000000000000000000000073ffffffffffffffffffffffffffffffffffffffff163373ffffffffffffffffffffffffffffffffffffffff161461017a576040517f08c379a000000000000000000000000000000000000000000000000000000000815260040161017190611279565b60405180910390fd5b600081905060008173ffffffffffffffffffffffffffffffffffffffff166370a08231306040518263ffffffff1660e01b81526004016101ba9190610ff2565b602060405180830381865afa1580156101d7573d6000803e3d6000fd5b505050506040513d601f19601f820116820180604052508101906101fb91906112ae565b905060008111156102a6578173ffffffffffffffffffffffffffffffffffffffff1663a9059cbb7f0000000000000000000000000000000000000000000000000000000000000000836040518363ffffffff1660e01b81526004016102619291906112ea565b6020604051808303816000875af1158015610280573d6000803e3d6000fd5b505050506040513d601f19601f820116820180604052508101906102a4919061134b565b505b505050565b7f000000000000000000000000000000000000000000000000000000000000000073ffffffffffffffffffffffffffffffffffffffff163373ffffffffffffffffffffffffffffffffffffffff1614610339576040517f08c379a000000000000000000000000000000000000000000000000000000000815260040161033090611279565b60405180910390fd5b6000600167ffffffffffffffff81111561035657610355611378565b5b6040519080825280602002602001820160405280156103845781602001602082028036833780820191505090505b509050848160008151811061039c5761039b6113a7565b5b602002602001019073ffffffffffffffffffffffffffffffffffffffff16908173ffffffffffffffffffffffffffffffffffffffff16815250506000600167ffffffffffffffff8111156103f3576103f2611378565b5b6040519080825280602002602001820160405280156104215781602001602082028036833780820191505090505b5090508481600081518110610439576104386113a7565b5b6020026020010181815250507f000000000000000000000000000000000000000000000000000000000000000073ffffffffffffffffffffffffffffffffffffffff16635c38449e30848488886040518663ffffffff1660e01b81526004016104a69594939291906115b0565b600060405180830381600087803b1580156104c057600080fd5b505af11580156104d4573d6000803e3d6000fd5b50505050505050505050565b7f000000000000000000000000000000000000000000000000000000000000000081565b61050c610de5565b7f000000000000000000000000000000000000000000000000000000000000000073ffffffffffffffffffffffffffffffffffffffff163373ffffffffffffffffffffffffffffffffffffffff161461059a576040517f08c379a000000000000000000000000000000000000000000000000000000000815260040161059190611658565b60405180910390fd5b600188889050146105e0576040517f08c379a00000000000000000000000000000000000000000000000000000000081526004016105d7906116c4565b60405180910390fd5b60008060008060008087878101906105f89190611912565b955095509550955095509550600073ffffffffffffffffffffffffffffffffffffffff168673ffffffffffffffffffffffffffffffffffffffff161415801561066e5750600073ffffffffffffffffffffffffffffffffffffffff168573ffffffffffffffffffffffffffffffffffffffff1614155b80156106a75750600073ffffffffffffffffffffffffffffffffffffffff168473ffffffffffffffffffffffffffffffffffffffff1614155b6106e6576040517f08c379a00000000000000000000000000000000000000000000000000000000081526004016106dd90611a23565b60405180910390fd5b600283511480156106f8575060028251145b610737576040517f08c379a000000000000000000000000000000000000000000000000000000000815260040161072e90611a8f565b60405180910390fd5b600073ffffffffffffffffffffffffffffffffffffffff1683600081518110610763576107626113a7565b5b602002602001015173ffffffffffffffffffffffffffffffffffffffff16141580156107d75750600073ffffffffffffffffffffffffffffffffffffffff16836001815181106107b6576107b56113a7565b5b602002602001015173ffffffffffffffffffffffffffffffffffffffff1614155b610816576040517f08c379a000000000000000000000000000000000000000000000000000000000815260040161080d90611afb565b60405180910390fd5b60008e8e600081811061082c5761082b6113a7565b5b90506020020160208101906108419190610ea7565b905060008d8d6000818110610859576108586113a7565b5b90506020020135905060008c8c6000818110610878576108776113a7565b5b9050602002013590506000818361088f9190611b4a565b90508373ffffffffffffffffffffffffffffffffffffffff1663095ea7b3886000815181106108c1576108c06113a7565b5b6020026020010151856040518363ffffffff1660e01b81526004016108e79291906112ea565b6020604051808303816000875af1158015610906573d6000803e3d6000fd5b505050506040513d601f19601f8201168201806040525081019061092a919061134b565b50600087600081518110610941576109406113a7565b5b602002602001015173ffffffffffffffffffffffffffffffffffffffff166338ed17398560018a60008151811061097b5761097a6113a7565b5b602002602001015130426040518663ffffffff1660e01b81526004016109a5959493929190611bb9565b6000604051808303816000875af11580156109c4573d6000803e3d6000fd5b505050506040513d6000823e3d601f19601f820116820180604052508101906109ed9190611cd6565b905060008160018351610a009190611d1f565b81518110610a1157610a106113a7565b5b602002602001015190508a73ffffffffffffffffffffffffffffffffffffffff1663095ea7b38a600181518110610a4b57610a4a6113a7565b5b6020026020010151836040518363ffffffff1660e01b8152600401610a719291906112ea565b6020604051808303816000875af1158015610a90573d6000803e3d6000fd5b505050506040513d601f19601f82011682018060405250810190610ab4919061134b565b5060008784610ac39190611b4a565b905060008a600181518110610adb57610ada6113a7565b5b602002602001015173ffffffffffffffffffffffffffffffffffffffff166338ed173984848d600181518110610b1457610b136113a7565b5b602002602001015130426040518663ffffffff1660e01b8152600401610b3e959493929190611d53565b6000604051808303816000875af1158015610b5d573d6000803e3d6000fd5b505050506040513d6000823e3d601f19601f82011682018060405250810190610b869190611cd6565b905060008160018351610b999190611d1f565b81518110610baa57610ba96113a7565b5b6020026020010151905085811015610bf7576040517f08c379a0000000000000000000000000000000000000000000000000000000008152600401610bee90611df9565b60405180910390fd5b8873ffffffffffffffffffffffffffffffffffffffff1663a9059cbb7f0000000000000000000000000000000000000000000000000000000000000000886040518363ffffffff1660e01b8152600401610c529291906112ea565b6020604051808303816000875af1158015610c71573d6000803e3d6000fd5b505050506040513d601f19601f82011682018060405250810190610c95919061134b565b5060008682610ca49190611d1f565b90506000811115610d4f578973ffffffffffffffffffffffffffffffffffffffff1663a9059cbb7f0000000000000000000000000000000000000000000000000000000000000000836040518363ffffffff1660e01b8152600401610d0a9291906112ea565b6020604051808303816000875af1158015610d29573d6000803e3d6000fd5b505050506040513d601f19601f82011682018060405250810190610d4d919061134b565b505b8973ffffffffffffffffffffffffffffffffffffffff167f1736d858cebb9f1fc945933505f6898d6f81e41ee20cfb09e7031c9a817240c68a83604051610d97929190611e32565b60405180910390a250505050505050505050505050505050610db7610e2b565b5050505050505050565b7f000000000000000000000000000000000000000000000000000000000000000081565b600260005403610e21576040517f3ee5aeb500000000000000000000000000000000000000000000000000000000815260040160405180910390fd5b6002600081905550565b6001600081905550565b6000604051905090565b600080fd5b600080fd5b600073ffffffffffffffffffffffffffffffffffffffff82169050919050565b6000610e7482610e49565b9050919050565b610e8481610e69565b8114610e8f57600080fd5b50565b600081359050610ea181610e7b565b92915050565b600060208284031215610ebd57610ebc610e3f565b5b6000610ecb84828501610e92565b91505092915050565b6000819050919050565b610ee781610ed4565b8114610ef257600080fd5b50565b600081359050610f0481610ede565b92915050565b600080fd5b600080fd5b600080fd5b60008083601f840112610f2f57610f2e610f0a565b5b8235905067ffffffffffffffff811115610f4c57610f4b610f0f565b5b602083019150836001820283011115610f6857610f67610f14565b5b9250929050565b60008060008060608587031215610f8957610f88610e3f565b5b6000610f9787828801610e92565b9450506020610fa887828801610ef5565b935050604085013567ffffffffffffffff811115610fc957610fc8610e44565b5b610fd587828801610f19565b925092505092959194509250565b610fec81610e69565b82525050565b60006020820190506110076000830184610fe3565b92915050565b60008083601f84011261102357611022610f0a565b5b8235905067ffffffffffffffff8111156110405761103f610f0f565b5b60208301915083602082028301111561105c5761105b610f14565b5b9250929050565b60008083601f84011261107957611078610f0a565b5b8235905067ffffffffffffffff81111561109657611095610f0f565b5b6020830191508360208202830111156110b2576110b1610f14565b5b9250929050565b6000806000806000806000806080898b0312156110d9576110d8610e3f565b5b600089013567ffffffffffffffff8111156110f7576110f6610e44565b5b6111038b828c0161100d565b9850985050602089013567ffffffffffffffff81111561112657611125610e44565b5b6111328b828c01611063565b9650965050604089013567ffffffffffffffff81111561115557611154610e44565b5b6111618b828c01611063565b9450945050606089013567ffffffffffffffff81111561118457611183610e44565b5b6111908b828c01610f19565b92509250509295985092959890939650565b6000819050919050565b60006111c76111c26111bd84610e49565b6111a2565b610e49565b9050919050565b60006111d9826111ac565b9050919050565b60006111eb826111ce565b9050919050565b6111fb816111e0565b82525050565b600060208201905061121660008301846111f2565b92915050565b600082825260208201905092915050565b7f6f6e6c79206f776e657200000000000000000000000000000000000000000000600082015250565b6000611263600a8361121c565b915061126e8261122d565b602082019050919050565b6000602082019050818103600083015261129281611256565b9050919050565b6000815190506112a881610ede565b92915050565b6000602082840312156112c4576112c3610e3f565b5b60006112d284828501611299565b91505092915050565b6112e481610ed4565b82525050565b60006040820190506112ff6000830185610fe3565b61130c60208301846112db565b9392505050565b60008115159050919050565b61132881611313565b811461133357600080fd5b50565b6000815190506113458161131f565b92915050565b60006020828403121561136157611360610e3f565b5b600061136f84828501611336565b91505092915050565b7f4e487b7100000000000000000000000000000000000000000000000000000000600052604160045260246000fd5b7f4e487b7100000000000000000000000000000000000000000000000000000000600052603260045260246000fd5b600081519050919050565b600082825260208201905092915050565b6000819050602082019050919050565b61140b81610e69565b82525050565b600061141d8383611402565b60208301905092915050565b6000602082019050919050565b6000611441826113d6565b61144b81856113e1565b9350611456836113f2565b8060005b8381101561148757815161146e8882611411565b975061147983611429565b92505060018101905061145a565b5085935050505092915050565b600081519050919050565b600082825260208201905092915050565b6000819050602082019050919050565b6114c981610ed4565b82525050565b60006114db83836114c0565b60208301905092915050565b6000602082019050919050565b60006114ff82611494565b611509818561149f565b9350611514836114b0565b8060005b8381101561154557815161152c88826114cf565b9750611537836114e7565b925050600181019050611518565b5085935050505092915050565b600082825260208201905092915050565b82818337600083830152505050565b6000601f19601f8301169050919050565b600061158f8385611552565b935061159c838584611563565b6115a583611572565b840190509392505050565b60006080820190506115c56000830188610fe3565b81810360208301526115d78187611436565b905081810360408301526115eb81866114f4565b90508181036060830152611600818486611583565b90509695505050505050565b7f6f6e6c79207661756c7400000000000000000000000000000000000000000000600082015250565b6000611642600a8361121c565b915061164d8261160c565b602082019050919050565b6000602082019050818103600083015261167181611635565b9050919050565b7f6f6e6c792073696e676c6520746f6b656e20666c617368206c6f616e73000000600082015250565b60006116ae601d8361121c565b91506116b982611678565b602082019050919050565b600060208201905081810360008301526116dd816116a1565b9050919050565b60006116ef82610e49565b9050919050565b6116ff816116e4565b811461170a57600080fd5b50565b60008135905061171c816116f6565b92915050565b61172b82611572565b810181811067ffffffffffffffff8211171561174a57611749611378565b5b80604052505050565b600061175d610e35565b90506117698282611722565b919050565b600067ffffffffffffffff82111561178957611788611378565b5b602082029050602081019050919050565b60006117ad6117a88461176e565b611753565b905080838252602082019050602084028301858111156117d0576117cf610f14565b5b835b818110156117f957806117e58882610e92565b8452602084019350506020810190506117d2565b5050509392505050565b600082601f83011261181857611817610f0a565b5b813561182884826020860161179a565b91505092915050565b600067ffffffffffffffff82111561184c5761184b611378565b5b602082029050602081019050919050565b600061187061186b84611831565b611753565b9050808382526020820190506020840283018581111561189357611892610f14565b5b835b818110156118da57803567ffffffffffffffff8111156118b8576118b7610f0a565b5b8086016118c58982611803565b85526020850194505050602081019050611895565b5050509392505050565b600082601f8301126118f9576118f8610f0a565b5b813561190984826020860161185d565b91505092915050565b60008060008060008060c0878903121561192f5761192e610e3f565b5b600061193d89828a0161170d565b965050602061194e89828a0161170d565b955050604061195f89828a0161170d565b945050606087013567ffffffffffffffff8111156119805761197f610e44565b5b61198c89828a01611803565b935050608087013567ffffffffffffffff8111156119ad576119ac610e44565b5b6119b989828a016118e4565b92505060a06119ca89828a01610ef5565b9150509295509295509295565b7f496e76616c696420746f6b656e20616464726573730000000000000000000000600082015250565b6000611a0d60158361121c565b9150611a18826119d7565b602082019050919050565b60006020820190508181036000830152611a3c81611a00565b9050919050565b7f496e76616c696420726f75746572206f722070617468206c656e677468000000600082015250565b6000611a79601d8361121c565b9150611a8482611a43565b602082019050919050565b60006020820190508181036000830152611aa881611a6c565b9050919050565b7f496e76616c696420726f75746572206164647265737300000000000000000000600082015250565b6000611ae560168361121c565b9150611af082611aaf565b602082019050919050565b60006020820190508181036000830152611b1481611ad8565b9050919050565b7f4e487b7100000000000000000000000000000000000000000000000000000000600052601160045260246000fd5b6000611b5582610ed4565b9150611b6083610ed4565b9250828201905080821115611b7857611b77611b1b565b5b92915050565b6000819050919050565b6000611ba3611b9e611b9984611b7e565b6111a2565b610ed4565b9050919050565b611bb381611b88565b82525050565b600060a082019050611bce60008301886112db565b611bdb6020830187611baa565b8181036040830152611bed8186611436565b9050611bfc6060830185610fe3565b611c0960808301846112db565b9695505050505050565b600067ffffffffffffffff821115611c2e57611c2d611378565b5b602082029050602081019050919050565b6000611c52611c4d84611c13565b611753565b90508083825260208201905060208402830185811115611c7557611c74610f14565b5b835b81811015611c9e5780611c8a8882611299565b845260208401935050602081019050611c77565b5050509392505050565b600082601f830112611cbd57611cbc610f0a565b5b8151611ccd848260208601611c3f565b91505092915050565b600060208284031215611cec57611ceb610e3f565b5b600082015167ffffffffffffffff811115611d0a57611d09610e44565b5b611d1684828501611ca8565b91505092915050565b6000611d2a82610ed4565b9150611d3583610ed4565b9250828203905081811115611d4d57611d4c611b1b565b5b92915050565b600060a082019050611d6860008301886112db565b611d7560208301876112db565b8181036040830152611d878186611436565b9050611d966060830185610fe3565b611da360808301846112db565b9695505050505050565b7f4e6f742070726f66697461626c65000000000000000000000000000000000000600082015250565b6000611de3600e8361121c565b9150611dee82611dad565b602082019050919050565b60006020820190508181036000830152611e1281611dd6565b9050919050565b6000819050919050565b611e2c81611e19565b82525050565b6000604082019050611e4760008301856112db565b611e546020830184611e23565b939250505056fea2646970667358221220e7262116a838888f9f8417f570e6b112879dca294f8d6579288562eac381423b64736f6c63430008140033",
  "linkReferences": {},
  "deployedLinkReferences": {}
}