{"contracts/contracts/MockVault.sol":{"MockVault":{"abi":[{"inputs":[{"internalType":"address","name":"recipient","type":"address"},{"internalType":"address[]","name":"tokens","type":"address[]"},{"internalType":"uint256[]","name":"amounts","type":"uint256[]"},{"internalType":"bytes","name":"userData","type":"bytes"}],"name":"flashLoan","outputs":[],"stateMutability":"nonpayable","type":"function"}],"evm":{"bytecode":{"linkReferences":{},"object":"608060405234801561001057600080fd5b506108d8806100206000396000f3fe608060405234801561001057600080fd5b506004361061002b5760003560e01c80635c38449e14610030575b600080fd5b61004a60048036038101906100459190610371565b61004c565b005b60005b8686905081101561012c5786868281811061006d5761006c61043a565b5b90506020020160208101906100829190610469565b73ffffffffffffffffffffffffffffffffffffffff1663a9059cbb898787858181106100b1576100b061043a565b5b905060200201356040518363ffffffff1660e01b81526004016100d59291906104be565b6020604051808303816000875af11580156100f4573d6000803e3d6000fd5b505050506040513d601f19601f82011682018060405250810190610118919061051f565b5080806101249061057b565b91505061004f565b508673ffffffffffffffffffffffffffffffffffffffff1663f04f2707878787878b8b905067ffffffffffffffff81111561016a576101696105c3565b5b6040519080825280602002602001820160405280156101985781602001602082028036833780820191505090505b5088886040518863ffffffff1660e01b81526004016101bd979695949392919061083b565b600060405180830381600087803b1580156101d757600080fd5b505af11580156101eb573d6000803e3d6000fd5b5050505050505050505050565b600080fd5b600080fd5b600073ffffffffffffffffffffffffffffffffffffffff82169050919050565b600061022d82610202565b9050919050565b61023d81610222565b811461024857600080fd5b50565b60008135905061025a81610234565b92915050565b600080fd5b600080fd5b600080fd5b60008083601f84011261028557610284610260565b5b8235905067ffffffffffffffff8111156102a2576102a1610265565b5b6020830191508360208202830111156102be576102bd61026a565b5b9250929050565b60008083601f8401126102db576102da610260565b5b8235905067ffffffffffffffff8111156102f8576102f7610265565b5b6020830191508360208202830111156103145761031361026a565b5b9250929050565b60008083601f84011261033157610330610260565b5b8235905067ffffffffffffffff81111561034e5761034d610265565b5b60208301915083600182028301111561036a5761036961026a565b5b9250929050565b60008060008060008060006080888a0312156103905761038f6101f8565b5b600061039e8a828b0161024b565b975050602088013567ffffffffffffffff8111156103bf576103be6101fd565b5b6103cb8a828b0161026f565b9650965050604088013567ffffffffffffffff8111156103ee576103ed6101fd565b5b6103fa8a828b016102c5565b9450945050606088013567ffffffffffffffff81111561041d5761041c6101fd565b5b6104298a828b0161031b565b925092505092959891949750929550565b7f4e487b7100000000000000000000000000000000000000000000000000000000600052603260045260246000fd5b60006020828403121561047f5761047e6101f8565b5b600061048d8482850161024b565b91505092915050565b61049f81610222565b82525050565b6000819050919050565b6104b8816104a5565b82525050565b60006040820190506104d36000830185610496565b6104e060208301846104af565b9392505050565b60008115159050919050565b6104fc816104e7565b811461050757600080fd5b50565b600081519050610519816104f3565b92915050565b600060208284031215610535576105346101f8565b5b60006105438482850161050a565b91505092915050565b7f4e487b7100000000000000000000000000000000000000000000000000000000600052601160045260246000fd5b6000610586826104a5565b91507fffffffffffffffffffffffffffffffffffffffffffffffffffffffffffffffff82036105b8576105b761054c565b5b600182019050919050565b7f4e487b7100000000000000000000000000000000000000000000000000000000600052604160045260246000fd5b600082825260208201905092915050565b6000819050919050565b61061681610222565b82525050565b6000610628838361060d565b60208301905092915050565b6000610643602084018461024b565b905092915050565b6000602082019050919050565b600061066483856105f2565b935061066f82610603565b8060005b858110156106a8576106858284610634565b61068f888261061c565b975061069a8361064b565b925050600181019050610673565b5085925050509392505050565b600082825260208201905092915050565b600080fd5b82818337505050565b60006106e083856106b5565b93507f07ffffffffffffffffffffffffffffffffffffffffffffffffffffffffffffff831115610713576107126106c6565b5b6020830292506107248385846106cb565b82840190509392505050565b600081519050919050565b6000819050602082019050919050565b610754816104a5565b82525050565b6000610766838361074b565b60208301905092915050565b6000602082019050919050565b600061078a82610730565b61079481856106b5565b935061079f8361073b565b8060005b838110156107d05781516107b7888261075a565b97506107c283610772565b9250506001810190506107a3565b5085935050505092915050565b600082825260208201905092915050565b82818337600083830152505050565b6000601f19601f8301169050919050565b600061081a83856107dd565b93506108278385846107ee565b610830836107fd565b840190509392505050565b6000608082019050818103600083015261085681898b610658565b9050818103602083015261086b8187896106d4565b9050818103604083015261087f818661077f565b9050818103606083015261089481848661080e565b90509897505050505050505056fea264697066735822122097dee7e0f4b4b3b201baa9ad1c823bf77c127906cbeb83fa7ceb28023cd42cb364736f6c63430008140033","opcodes":"PUSH1 0x80 PUSH1 0x40 MSTORE CALLVALUE DUP1 ISZERO PUSH2 0x10 JUMPI PUSH1 0x0 DUP1 REVERT JUMPDEST POP PUSH2 0x8D8 DUP1 PUSH2 0x20 PUSH1 0x0 CODECOPY PUSH1 0x0 RETURN INVALID PUSH1 0x80 PUSH1 0x40 MSTORE CALLVALUE DUP1 ISZERO PUSH2 0x10 JUMPI PUSH1 0x0 DUP1 REVERT JUMPDEST POP PUSH1 0x4 CALLDATASIZE LT PUSH2 0x2B JUMPI PUSH1 0x0 CALLDATALOAD PUSH1 0xE0 SHR DUP1 PUSH4 0x5C38449E EQ PUSH2 0x30 JUMPI JUMPDEST PUSH1 0x0 DUP1 REVERT JUMPDEST PUSH2 0x4A PUSH1 0x4 DUP1 CALLDATASIZE SUB DUP2 ADD SWAP1 PUSH2 0x45 SWAP2 SWAP1 PUSH2 0x371 JUMP JUMPDEST PUSH2 0x4C JUMP JUMPDEST STOP JUMPDEST PUSH1 0x0 JUMPDEST DUP7 DUP7 SWAP1 POP DUP2 LT ISZERO PUSH2 0x12C JUMPI DUP7 DUP7 DUP3 DUP2 DUP2 LT PUSH2 0x6D JUMPI PUSH2 0x6C PUSH2 0x43A JUMP JUMPDEST JUMPDEST SWAP1 POP PUSH1 0x20 MUL ADD PUSH1 0x20 DUP2 ADD SWAP1 PUSH2 0x82 SWAP2 SWAP1 PUSH2 0x469 JUMP JUMPDEST PUSH20 0xFFFFFFFFFFFFFFFFFFFFFFFFFFFFFFFFFFFFFFFF AND PUSH4 0xA9059CBB DUP10 DUP8 DUP8 DUP6 DUP2 DUP2 LT PUSH2 0xB1 JUMPI PUSH2 0xB0 PUSH2 0x43A JUMP JUMPDEST JUMPDEST SWAP1 POP PUSH1 0x20 MUL ADD CALLDATALOAD PUSH1 0x40 MLOAD DUP4 PUSH4 0xFFFFFFFF AND PUSH1 0xE0 SHL DUP2 MSTORE PUSH1 0x4 ADD PUSH2 0xD5 SWAP3 SWAP2 SWAP1 PUSH2 0x4BE JUMP JUMPDEST PUSH1 0x20 PUSH1 0x40 MLOAD DUP1 DUP4 SUB DUP2 PUSH1 0x0 DUP8 GAS CALL ISZERO DUP1 ISZERO PUSH2 0xF4 JUMPI RETURNDATASIZE PUSH1 0x0 DUP1 RETURNDATACOPY RETURNDATASIZE PUSH1 0x0 REVERT JUMPDEST POP POP POP POP PUSH1 0x40 MLOAD RETURNDATASIZE PUSH1 0x1F NOT PUSH1 0x1F DUP3 ADD AND DUP3 ADD DUP1 PUSH1 0x40 MSTORE POP DUP2 ADD SWAP1 PUSH2 0x118 SWAP2 SWAP1 PUSH2 0x51F JUMP JUMPDEST POP DUP1 DUP1 PUSH2 0x124 SWAP1 PUSH2 0x57B JUMP JUMPDEST SWAP2 POP POP PUSH2 0x4F JUMP JUMPDEST POP DUP7 PUSH20 0xFFFFFFFFFFFFFFFFFFFFFFFFFFFFFFFFFFFFFFFF AND PUSH4 0xF04F2707 DUP8 DUP8 DUP8 DUP8 DUP12 DUP12 SWAP1 POP PUSH8 0xFFFFFFFFFFFFFFFF DUP2 GT ISZERO PUSH2 0x16A JUMPI PUSH2 0x169 PUSH2 0x5C3 JUMP JUMPDEST JUMPDEST PUSH1 0x40 MLOAD SWAP1 DUP1 DUP3 MSTORE DUP1 PUSH1 0x20 MUL PUSH1 0x20 ADD DUP3 ADD PUSH1 0x40 MSTORE DUP1 ISZERO PUSH2 0x198 JUMPI DUP2 PUSH1 0x20 ADD PUSH1 0x20 DUP3 MUL DUP1 CALLDATASIZE DUP4 CALLDATACOPY DUP1 DUP3 ADD SWAP2 POP POP SWAP1 POP JUMPDEST POP DUP9 DUP9 PUSH1 0x40 MLOAD DUP9 PUSH4 0xFFFFFFFF AND PUSH1 0xE0 SHL DUP2 MSTORE PUSH1 0x4 ADD PUSH2 0x1BD SWAP8 SWAP7 SWAP6 SWAP5 SWAP4 SWAP3 SWAP2 SWAP1 PUSH2 0x83B JUMP JUMPDEST PUSH1 0x0 PUSH1 0x40 MLOAD DUP1 DUP4 SUB DUP2 PUSH1 0x0 DUP8 DUP1 EXTCODESIZE ISZERO DUP1 ISZERO PUSH2 0x1D7 JUMPI PUSH1 0x0 DUP1 REVERT JUMPDEST POP GAS CALL ISZERO DUP1 ISZERO PUSH2 0x1EB JUMPI RETURNDATASIZE PUSH1 0x0 DUP1 RETURNDATACOPY RETURNDATASIZE PUSH1 0x0 REVERT JUMPDEST POP POP POP POP POP POP POP POP POP POP POP JUMP JUMPDEST PUSH1 0x0 DUP1 REVERT JUMPDEST PUSH1 0x0 DUP1 REVERT JUMPDEST PUSH1 0x0 PUSH20 0xFFFFFFFFFFFFFFFFFFFFFFFFFFFFFFFFFFFFFFFF DUP3 AND SWAP1 POP SWAP2 SWAP1 POP JUMP JUMPDEST PUSH1 0x0 PUSH2 0x22D DUP3 PUSH2 0x202 JUMP JUMPDEST SWAP1 POP SWAP2 SWAP1 POP JUMP JUMPDEST PUSH2 0x23D DUP2 PUSH2 0x222 JUMP JUMPDEST DUP2 EQ PUSH2 0x248 JUMPI PUSH1 0x0 DUP1 REVERT JUMPDEST POP JUMP JUMPDEST PUSH1 0x0 DUP2 CALLDATALOAD SWAP1 POP PUSH2 0x25A DUP2 PUSH2 0x234 JUMP JUMPDEST SWAP3 SWAP2 POP POP JUMP JUMPDEST PUSH1 0x0 DUP1 REVERT JUMPDEST PUSH1 0x0 DUP1 REVERT JUMPDEST PUSH1 0x0 DUP1 REVERT JUMPDEST PUSH1 0x0 DUP1 DUP4 PUSH1 0x1F DUP5 ADD SLT PUSH2 0x285 JUMPI PUSH2 0x284 PUSH2 0x260 JUMP JUMPDEST JUMPDEST DUP3 CALLDATALOAD SWAP1 POP PUSH8 0xFFFFFFFFFFFFFFFF DUP2 GT ISZERO PUSH2 0x2A2 JUMPI PUSH2 0x2A1 PUSH2 0x265 JUMP JUMPDEST JUMPDEST PUSH1 0x20 DUP4 ADD SWAP2 POP DUP4 PUSH1 0x20 DUP3 MUL DUP4 ADD GT ISZERO PUSH2 0x2BE JUMPI PUSH2 0x2BD PUSH2 0x26A JUMP JUMPDEST JUMPDEST SWAP3 POP SWAP3 SWAP1 POP JUMP JUMPDEST PUSH1 0x0 DUP1 DUP4 PUSH1 0x1F DUP5 ADD SLT PUSH2 0x2DB JUMPI PUSH2 0x2DA PUSH2 0x260 JUMP JUMPDEST JUMPDEST DUP3 CALLDATALOAD SWAP1 POP PUSH8 0xFFFFFFFFFFFFFFFF DUP2 GT ISZERO PUSH2 0x2F8 JUMPI PUSH2 0x2F7 PUSH2 0x265 JUMP JUMPDEST JUMPDEST PUSH1 0x20 DUP4 ADD SWAP2 POP DUP4 PUSH1 0x20 DUP3 MUL DUP4 ADD GT ISZERO PUSH2 0x314 JUMPI PUSH2 0x313 PUSH2 0x26A JUMP JUMPDEST JUMPDEST SWAP3 POP SWAP3 SWAP1 POP JUMP JUMPDEST PUSH1 0x0 DUP1 DUP4 PUSH1 0x1F DUP5 ADD SLT PUSH2 0x331 JUMPI PUSH2 0x330 PUSH2 0x260 JUMP JUMPDEST JUMPDEST DUP3 CALLDATALOAD SWAP1 POP PUSH8 0xFFFFFFFFFFFFFFFF DUP2 GT ISZERO PUSH2 0x34E JUMPI PUSH2 0x34D PUSH2 0x265 JUMP JUMPDEST JUMPDEST PUSH1 0x20 DUP4 ADD SWAP2 POP DUP4 PUSH1 0x1 DUP3 MUL DUP4 ADD GT ISZERO PUSH2 0x36A JUMPI PUSH2 0x369 PUSH2 0x26A JUMP JUMPDEST JUMPDEST SWAP3 POP SWAP3 SWAP1 POP JUMP JUMPDEST PUSH1 0x0 DUP1 PUSH1 0x0 DUP1 PUSH1 0x0 DUP1 PUSH1 0x0 PUSH1 0x80 DUP9 DUP11 SUB SLT ISZERO PUSH2 0x390 JUMPI PUSH2 0x38F PUSH2 0x1F8 JUMP JUMPDEST JUMPDEST PUSH1 0x0 PUSH2 0x39E DUP11 DUP3 DUP12 ADD PUSH2 0x24B JUMP JUMPDEST SWAP8 POP POP PUSH1 0x20 DUP9 ADD CALLDATALOAD PUSH8 0xFFFFFFFFFFFFFFFF DUP2 GT ISZERO PUSH2 0x3BF JUMPI PUSH2 0x3BE PUSH2 0x1FD JUMP JUMPDEST JUMPDEST PUSH2 0x3CB DUP11 DUP3 DUP12 ADD PUSH2 0x26F JUMP JUMPDEST SWAP7 POP SWAP7 POP POP PUSH1 0x40 DUP9 ADD CALLDATALOAD PUSH8 0xFFFFFFFFFFFFFFFF DUP2 GT ISZERO PUSH2 0x3EE JUMPI PUSH2 0x3ED PUSH2 0x1FD JUMP JUMPDEST JUMPDEST PUSH2 0x3FA DUP11 DUP3 DUP12 ADD PUSH2 0x2C5 JUMP JUMPDEST SWAP5 POP SWAP5 POP POP PUSH1 0x60 DUP9 ADD CALLDATALOAD PUSH8 0xFFFFFFFFFFFFFFFF DUP2 GT ISZERO PUSH2 0x41D JUMPI PUSH2 0x41C PUSH2 0x1FD JUMP JUMPDEST JUMPDEST PUSH2 0x429 DUP11 DUP3 DUP12 ADD PUSH2 0x31B JUMP JUMPDEST SWAP3 POP SWAP3 POP POP SWAP3 SWAP6 SWAP9 SWAP2 SWAP5 SWAP8 POP SWAP3 SWAP6 POP JUMP JUMPDEST PUSH32 0x4E487B7100000000000000000000000000000000000000000000000000000000 PUSH1 0x0 MSTORE PUSH1 0x32 PUSH1 0x4 MSTORE PUSH1 0x24 PUSH1 0x0 REVERT JUMPDEST PUSH1 0x0 PUSH1 0x20 DUP3 DUP5 SUB SLT ISZERO PUSH2 0x47F JUMPI PUSH2 0x47E PUSH2 0x1F8 JUMP JUMPDEST JUMPDEST PUSH1 0x0 PUSH2 0x48D DUP5 DUP3 DUP6 ADD PUSH2 0x24B JUMP JUMPDEST SWAP2 POP POP SWAP3 SWAP2 POP POP JUMP JUMPDEST PUSH2 0x49F DUP2 PUSH2 0x222 JUMP JUMPDEST DUP3 MSTORE POP POP JUMP JUMPDEST PUSH1 0x0 DUP2 SWAP1 POP SWAP2 SWAP1 POP JUMP JUMPDEST PUSH2 0x4B8 DUP2 PUSH2 0x4A5 JUMP JUMPDEST DUP3 MSTORE POP POP JUMP JUMPDEST PUSH1 0x0 PUSH1 0x40 DUP3 ADD SWAP1 POP PUSH2 0x4D3 PUSH1 0x0 DUP4 ADD DUP6 PUSH2 0x496 JUMP JUMPDEST PUSH2 0x4E0 PUSH1 0x20 DUP4 ADD DUP5 PUSH2 0x4AF JUMP JUMPDEST SWAP4 SWAP3 POP POP POP JUMP JUMPDEST PUSH1 0x0 DUP2 ISZERO ISZERO SWAP1 POP SWAP2 SWAP1 POP JUMP JUMPDEST PUSH2 0x4FC DUP2 PUSH2 0x4E7 JUMP JUMPDEST DUP2 EQ PUSH2 0x507 JUMPI PUSH1 0x0 DUP1 REVERT JUMPDEST POP JUMP JUMPDEST PUSH1 0x0 DUP2 MLOAD SWAP1 POP PUSH2 0x519 DUP2 PUSH2 0x4F3 JUMP JUMPDEST SWAP3 SWAP2 POP POP JUMP JUMPDEST PUSH1 0x0 PUSH1 0x20 DUP3 DUP5 SUB SLT ISZERO PUSH2 0x535 JUMPI PUSH2 0x534 PUSH2 0x1F8 JUMP JUMPDEST JUMPDEST PUSH1 0x0 PUSH2 0x543 DUP5 DUP3 DUP6 ADD PUSH2 0x50A JUMP JUMPDEST SWAP2 POP POP SWAP3 SWAP2 POP POP JUMP JUMPDEST PUSH32 0x4E487B7100000000000000000000000000000000000000000000000000000000 PUSH1 0x0 MSTORE PUSH1 0x11 PUSH1 0x4 MSTORE PUSH1 0x24 PUSH1 0x0 REVERT JUMPDEST PUSH1 0x0 PUSH2 0x586 DUP3 PUSH2 0x4A5 JUMP JUMPDEST SWAP2 POP PUSH32 0xFFFFFFFFFFFFFFFFFFFFFFFFFFFFFFFFFFFFFFFFFFFFFFFFFFFFFFFFFFFFFFFF DUP3 SUB PUSH2 0x5B8 JUMPI PUSH2 0x5B7 PUSH2 0x54C JUMP JUMPDEST JUMPDEST PUSH1 0x1 DUP3 ADD SWAP1 POP SWAP2 SWAP1 POP JUMP JUMPDEST PUSH32 0x4E487B7100000000000000000000000000000000000000000000000000000000 PUSH1 0x0 MSTORE PUSH1 0x41 PUSH1 0x4 MSTORE PUSH1 0x24 PUSH1 0x0 REVERT JUMPDEST PUSH1 0x0 DUP3 DUP3 MSTORE PUSH1 0x20 DUP3 ADD SWAP1 POP SWAP3 SWAP2 POP POP JUMP JUMPDEST PUSH1 0x0 DUP2 SWAP1 POP SWAP2 SWAP1 POP JUMP JUMPDEST PUSH2 0x616 DUP2 PUSH2 0x222 JUMP JUMPDEST DUP3 MSTORE POP POP JUMP JUMPDEST PUSH1 0x0 PUSH2 0x628 DUP4 DUP4 PUSH2 0x60D JUMP JUMPDEST PUSH1 0x20 DUP4 ADD SWAP1 POP SWAP3 SWAP2 POP POP JUMP JUMPDEST PUSH1 0x0 PUSH2 0x643 PUSH1 0x20 DUP5 ADD DUP5 PUSH2 0x24B JUMP JUMPDEST SWAP1 POP SWAP3 SWAP2 POP POP JUMP JUMPDEST PUSH1 0x0 PUSH1 0x20 DUP3 ADD SWAP1 POP SWAP2 SWAP1 POP JUMP JUMPDEST PUSH1 0x0 PUSH2 0x664 DUP4 DUP6 PUSH2 0x5F2 JUMP JUMPDEST SWAP4 POP PUSH2 0x66F DUP3 PUSH2 0x603 JUMP JUMPDEST DUP1 PUSH1 0x0 JUMPDEST DUP6 DUP2 LT ISZERO PUSH2 0x6A8 JUMPI PUSH2 0x685 DUP3 DUP5 PUSH2 0x634 JUMP JUMPDEST PUSH2 0x68F DUP9 DUP3 PUSH2 0x61C JUMP JUMPDEST SWAP8 POP PUSH2 0x69A DUP4 PUSH2 0x64B JUMP JUMPDEST SWAP3 POP POP PUSH1 0x1 DUP2 ADD SWAP1 POP PUSH2 0x673 JUMP JUMPDEST POP DUP6 SWAP3 POP POP POP SWAP4 SWAP3 POP POP POP JUMP JUMPDEST PUSH1 0x0 DUP3 DUP3 MSTORE PUSH1 0x20 DUP3 ADD SWAP1 POP SWAP3 SWAP2 POP POP JUMP JUMPDEST PUSH1 0x0 DUP1 REVERT JUMPDEST DUP3 DUP2 DUP4 CALLDATACOPY POP POP POP JUMP JUMPDEST PUSH1 0x0 PUSH2 0x6E0 DUP4 DUP6 PUSH2 0x6B5 JUMP JUMPDEST SWAP4 POP PUSH32 0x7FFFFFFFFFFFFFFFFFFFFFFFFFFFFFFFFFFFFFFFFFFFFFFFFFFFFFFFFFFFFFF DUP4 GT ISZERO PUSH2 0x713 JUMPI PUSH2 0x712 PUSH2 0x6C6 JUMP JUMPDEST JUMPDEST PUSH1 0x20 DUP4 MUL SWAP3 POP PUSH2 0x724 DUP4 DUP6 DUP5 PUSH2 0x6CB JUMP JUMPDEST DUP3 DUP5 ADD SWAP1 POP SWAP4 SWAP3 POP POP POP JUMP JUMPDEST PUSH1 0x0 DUP2 MLOAD SWAP1 POP SWAP2 SWAP1 POP JUMP JUMPDEST PUSH1 0x0 DUP2 SWAP1 POP PUSH1 0x20 DUP3 ADD SWAP1 POP SWAP2 SWAP1 POP JUMP JUMPDEST PUSH2 0x754 DUP2 PUSH2 0x4A5 JUMP JUMPDEST DUP3 MSTORE POP POP JUMP JUMPDEST PUSH1 0x0 PUSH2 0x766 DUP4 DUP4 PUSH2 0x74B JUMP JUMPDEST PUSH1 0x20 DUP4 ADD SWAP1 POP SWAP3 SWAP2 POP POP JUMP JUMPDEST PUSH1 0x0 PUSH1 0x20 DUP3 ADD SWAP1 POP SWAP2 SWAP1 POP JUMP JUMPDEST PUSH1 0x0 PUSH2 0x78A DUP3 PUSH2 0x730 JUMP JUMPDEST PUSH2 0x794 DUP2 DUP6 PUSH2 0x6B5 JUMP JUMPDEST SWAP4 POP PUSH2 0x79F DUP4 PUSH2 0x73B JUMP JUMPDEST DUP1 PUSH1 0x0 JUMPDEST DUP4 DUP2 LT ISZERO PUSH2 0x7D0 JUMPI DUP2 MLOAD PUSH2 0x7B7 DUP9 DUP3 PUSH2 0x75A JUMP JUMPDEST SWAP8 POP PUSH2 0x7C2 DUP4 PUSH2 0x772 JUMP JUMPDEST SWAP3 POP POP PUSH1 0x1 DUP2 ADD SWAP1 POP PUSH2 0x7A3 JUMP JUMPDEST POP DUP6 SWAP4 POP POP POP POP SWAP3 SWAP2 POP POP JUMP JUMPDEST PUSH1 0x0 DUP3 DUP3 MSTORE PUSH1 0x20 DUP3 ADD SWAP1 POP SWAP3 SWAP2 POP POP JUMP JUMPDEST DUP3 DUP2 DUP4 CALLDATACOPY PUSH1 0x0 DUP4 DUP4 ADD MSTORE POP POP POP JUMP JUMPDEST PUSH1 0x0 PUSH1 0x1F NOT PUSH1 0x1F DUP4 ADD AND SWAP1 POP SWAP2 SWAP1 POP JUMP JUMPDEST PUSH1 0x0 PUSH2 0x81A DUP4 DUP6 PUSH2 0x7DD JUMP JUMPDEST SWAP4 POP PUSH2 0x827 DUP4 DUP6 DUP5 PUSH2 0x7EE JUMP JUMPDEST PUSH2 0x830 DUP4 PUSH2 0x7FD JUMP JUMPDEST DUP5 ADD SWAP1 POP SWAP4 SWAP3 POP POP POP JUMP JUMPDEST PUSH1 0x0 PUSH1 0x80 DUP3 ADD SWAP1 POP DUP2 DUP2 SUB PUSH1 0x0 DUP4 ADD MSTORE PUSH2 0x856 DUP2 DUP10 DUP12 PUSH2 0x658 JUMP JUMPDEST SWAP1 POP DUP2 DUP2 SUB PUSH1 0x20 DUP4 ADD MSTORE PUSH2 0x86B DUP2 DUP8 DUP10 PUSH2 0x6D4 JUMP JUMPDEST SWAP1 POP DUP2 DUP2 SUB PUSH1 0x40 DUP4 ADD MSTORE PUSH2 0x87F DUP2 DUP7 PUSH2 0x77F JUMP JUMPDEST SWAP1 POP DUP2 DUP2 SUB PUSH1 0x60 DUP4 ADD MSTORE PUSH2 0x894 DUP2 DUP5 DUP7 PUSH2 0x80E JUMP JUMPDEST SWAP1 POP SWAP9 SWAP8 POP POP POP POP POP POP POP POP JUMP INVALID LOG2 PUSH5 0x6970667358 0x22 SLT KECCAK256 SWAP8 0xDE 0xE7 0xE0 DELEGATECALL 0xB4 0xB3 0xB2 ADD 0xBA 0xA9 0xAD SHR DUP3 EXTCODESIZE 0xF7 PUSH29 0x127906CBEB83FA7CEB28023CD42CB364736F6C63430008140033000000 "},"methodIdentifiers":{"flashLoan(address,address[],uint256[],bytes)":"5c38449e"}}}}}