{"contracts/contracts/MockRouter.sol":{"MockRouter":{"abi":[{"inputs":[],"name":"WETH","outputs":[{"internalType":"address","name":"","type":"address"}],"stateMutability":"pure","type":"function"},{"inputs":[{"internalType":"address","name":"","type":"address"},{"internalType":"address","name":"","type":"address"},{"internalType":"uint256","name":"","type":"uint256"},{"internalType":"uint256","name":"","type":"uint256"},{"internalType":"uint256","name":"","type":"uint256"},{"internalType":"uint256","name":"","type":"uint256"},{"internalType":"address","name":"","type":"address"},{"internalType":"uint256","name":"","type":"uint256"}],"name":"addLiquidity","outputs":[{"internalType":"uint256","name":"","type":"uint256"},{"internalType":"uint256","name":"","type":"uint256"},{"internalType":"uint256","name":"","type":"uint256"}],"stateMutability":"pure","type":"function"},{"inputs":[{"internalType":"address","name":"","type":"address"},{"internalType":"uint256","name":"","type":"uint256"},{"internalType":"uint256","name":"","type":"uint256"},{"internalType":"uint256","name":"","type":"uint256"},{"internalType":"address","name":"","type":"address"},{"internalType":"uint256","name":"","type":"uint256"}],"name":"addLiquidityETH","outputs":[{"internalType":"uint256","name":"","type":"uint256"},{"internalType":"uint256","name":"","type":"uint256"},{"internalType":"uint256","name":"","type":"uint256"}],"stateMutability":"payable","type":"function"},{"inputs":[],"name":"factory","outputs":[{"internalType":"address","name":"","type":"address"}],"stateMutability":"pure","type":"function"},{"inputs":[{"internalType":"uint256","name":"","type":"uint256"},{"internalType":"uint256","name":"","type":"uint256"},{"internalType":"uint256","name":"","type":"uint256"}],"name":"getAmountIn","outputs":[{"internalType":"uint256","name":"","type":"uint256"}],"stateMutability":"pure","type":"function"},{"inputs":[{"internalType":"uint256","name":"","type":"uint256"},{"internalType":"uint256","name":"","type":"uint256"},{"internalType":"uint256","name":"","type":"uint256"}],"name":"getAmountOut","outputs":[{"internalType":"uint256","name":"","type":"uint256"}],"stateMutability":"pure","type":"function"},{"inputs":[{"internalType":"uint256","name":"","type":"uint256"},{"internalType":"address[]","name":"","type":"address[]"}],"name":"getAmountsIn","outputs":[{"internalType":"uint256[]","name":"","type":"uint256[]"}],"stateMutability":"pure","type":"function"},{"inputs":[{"internalType":"uint256","name":"amountIn","type":"uint256"},{"internalType":"address[]","name":"path","type":"address[]"}],"name":"getAmountsOut","outputs":[{"internalType":"uint256[]","name":"amounts","type":"uint256[]"}],"stateMutability":"view","type":"function"},{"inputs":[{"internalType":"uint256","name":"","type":"uint256"},{"internalType":"uint256","name":"","type":"uint256"},{"internalType":"uint256","name":"","type":"uint256"}],"name":"quote","outputs":[{"internalType":"uint256","name":"","type":"uint256"}],"stateMutability":"pure","type":"function"},{"inputs":[{"internalType":"address","name":"","type":"address"},{"internalType":"address","name":"","type":"address"},{"internalType":"uint256","name":"","type":"uint256"},{"internalType":"uint256","name":"","type":"uint256"},{"internalType":"uint256","name":"","type":"uint256"},{"internalType":"address","name":"","type":"address"},{"internalType":"uint256","name":"","type":"uint256"}],"name":"removeLiquidity","outputs":[{"internalType":"uint256","name":"","type":"uint256"},{"internalType":"uint256","name":"","type":"uint256"}],"stateMutability":"pure","type":"function"},{"inputs":[{"internalType":"address","name":"","type":"address"},{"internalType":"uint256","name":"","type":"uint256"},{"internalType":"uint256","name":"","type":"uint256"},{"internalType":"uint256","name":"","type":"uint256"},{"internalType":"address","name":"","type":"address"},{"internalType":"uint256","name":"","type":"uint256"}],"name":"removeLiquidityETH","outputs":[{"internalType":"uint256","name":"","type":"uint256"},{"internalType":"uint256","name":"","type":"uint256"}],"stateMutability":"pure","type":"function"},{"inputs":[{"internalType":"address","name":"","type":"address"},{"internalType":"uint256","name":"","type":"uint256"},{"internalType":"uint256","name":"","type":"uint256"},{"internalType":"uint256","name":"","type":"uint256"},{"internalType":"address","name":"","type":"address"},{"internalType":"uint256","name":"","type":"uint256"}],"name":"removeLiquidityETHSupportingFeeOnTransferTokens","outputs":[{"internalType":"uint256","name":"","type":"uint256"}],"stateMutability":"pure","type":"function"},{"inputs":[{"internalType":"address","name":"","type":"address"},{"internalType":"uint256","name":"","type":"uint256"},{"internalType":"uint256","name":"","type":"uint256"},{"internalType":"uint256","name":"","type":"uint256"},{"internalType":"address","name":"","type":"address"},{"internalType":"uint256","name":"","type":"uint256"},{"internalType":"bool","name":"","type":"bool"},{"internalType":"uint8","name":"","type":"uint8"},{"internalType":"bytes32","name":"","type":"bytes32"},{"internalType":"bytes32","name":"","type":"bytes32"}],"name":"removeLiquidityETHWithPermit","outputs":[{"internalType":"uint256","name":"","type":"uint256"},{"internalType":"uint256","name":"","type":"uint256"}],"stateMutability":"pure","type":"function"},{"inputs":[{"internalType":"address","name":"","type":"address"},{"internalType":"uint256","name":"","type":"uint256"},{"internalType":"uint256","name":"","type":"uint256"},{"internalType":"uint256","name":"","type":"uint256"},{"internalType":"address","name":"","type":"address"},{"internalType":"uint256","name":"","type":"uint256"},{"internalType":"bool","name":"","type":"bool"},{"internalType":"uint8","name":"","type":"uint8"},{"internalType":"bytes32","name":"","type":"bytes32"},{"internalType":"bytes32","name":"","type":"bytes32"}],"name":"removeLiquidityETHWithPermitSupportingFeeOnTransferTokens","outputs":[{"internalType":"uint256","name":"","type":"uint256"}],"stateMutability":"pure","type":"function"},{"inputs":[{"internalType":"address","name":"","type":"address"},{"internalType":"address","name":"","type":"address"},{"internalType":"uint256","name":"","type":"uint256"},{"internalType":"uint256","name":"","type":"uint256"},{"internalType":"uint256","name":"","type":"uint256"},{"internalType":"address","name":"","type":"address"},{"internalType":"uint256","name":"","type":"uint256"},{"internalType":"bool","name":"","type":"bool"},{"internalType":"uint8","name":"","type":"uint8"},{"internalType":"bytes32","name":"","type":"bytes32"},{"internalType":"bytes32","name":"","type":"bytes32"}],"name":"removeLiquidityWithPermit","outputs":[{"internalType":"uint256","name":"","type":"uint256"},{"internalType":"uint256","name":"","type":"uint256"}],"stateMutability":"pure","type":"function"},{"inputs":[{"internalType":"address[]","name":"path","type":"address[]"},{"internalType":"uint256","name":"amountIn","type":"uint256"},{"internalType":"uint256","name":"amountOut","type":"uint256"}],"name":"setAmountOut","outputs":[],"stateMutability":"nonpayable","type":"function"},{"inputs":[{"internalType":"uint256","name":"","type":"uint256"},{"internalType":"address[]","name":"","type":"address[]"},{"internalType":"address","name":"","type":"address"},{"internalType":"uint256","name":"","type":"uint256"}],"name":"swapETHForExactTokens","outputs":[{"internalType":"uint256[]","name":"","type":"uint256[]"}],"stateMutability":"payable","type":"function"},{"inputs":[{"internalType":"uint256","name":"","type":"uint256"},{"internalType":"address[]","name":"","type":"address[]"},{"internalType":"address","name":"","type":"address"},{"internalType":"uint256","name":"","type":"uint256"}],"name":"swapExactETHForTokens","outputs":[{"internalType":"uint256[]","name":"","type":"uint256[]"}],"stateMutability":"payable","type":"function"},{"inputs":[{"internalType":"uint256","name":"","type":"uint256"},{"internalType":"address[]","name":"","type":"address[]"},{"internalType":"address","name":"","type":"address"},{"internalType":"uint256","name":"","type":"uint256"}],"name":"swapExactETHForTokensSupportingFeeOnTransferTokens","outputs":[],"stateMutability":"payable","type":"function"},{"inputs":[{"internalType":"uint256","name":"","type":"uint256"},{"internalType":"uint256","name":"","type":"uint256"},{"internalType":"address[]","name":"","type":"address[]"},{"internalType":"address","name":"","type":"address"},{"internalType":"uint256","name":"","type":"uint256"}],"name":"swapExactTokensForETH","outputs":[{"internalType":"uint256[]","name":"","type":"uint256[]"}],"stateMutability":"pure","type":"function"},{"inputs":[{"internalType":"uint256","name":"","type":"uint256"},{"internalType":"uint256","name":"","type":"uint256"},{"internalType":"address[]","name":"","type":"address[]"},{"internalType":"address","name":"","type":"address"},{"internalType":"uint256","name":"","type":"uint256"}],"name":"swapExactTokensForETHSupportingFeeOnTransferTokens","outputs":[],"stateMutability":"pure","type":"function"},{"inputs":[{"internalType":"uint256","name":"amountIn","type":"uint256"},{"internalType":"uint256","name":"amountOutMin","type":"uint256"},{"internalType":"address[]","name":"path","type":"address[]"},{"internalType":"address","name":"to","type":"address"},{"internalType":"uint256","name":"deadline","type":"uint256"}],"name":"swapExactTokensForTokens","outputs":[{"internalType":"uint256[]","name":"amounts","type":"uint256[]"}],"stateMutability":"nonpayable","type":"function"},{"inputs":[{"internalType":"uint256","name":"","type":"uint256"},{"internalType":"uint256","name":"","type":"uint256"},{"internalType":"address[]","name":"","type":"address[]"},{"internalType":"address","name":"","type":"address"},{"internalType":"uint256","name":"","type":"uint256"}],"name":"swapExactTokensForTokensSupportingFeeOnTransferTokens","outputs":[],"stateMutability":"pure","type":"function"},{"inputs":[{"internalType":"uint256","name":"","type":"uint256"},{"internalType":"uint256","name":"","type":"uint256"},{"internalType":"address[]","name":"","type":"address[]"},{"internalType":"address","name":"","type":"address"},{"internalType":"uint256","name":"","type":"uint256"}],"name":"swapTokensForExactETH","outputs":[{"internalType":"uint256[]","name":"","type":"uint256[]"}],"stateMutability":"pure","type":"function"},{"inputs":[{"internalType":"uint256","name":"","type":"uint256"},{"internalType":"uint256","name":"","type":"uint256"},{"internalType":"address[]","name":"","type":"address[]"},{"internalType":"address","name":"","type":"address"},{"internalType":"uint256","name":"","type":"uint256"}],"name":"swapTokensForExactTokens","outputs":[{"internalType":"uint256[]","name":"","type":"uint256[]"}],"stateMutability":"pure","type":"function"}],"evm":{"bytecode":{"linkReferences":{},"object":"608060405234801561001057600080fd5b50611cb7806100206000396000f3fe6080604052600436106101665760003560e01c806385f8c259116100d1578063baa2abde1161008a578063ded9382a11610064578063ded9382a146105e1578063e8e337001461061f578063f305d7191461065e578063fb3bdb411461069057610166565b8063baa2abde1461053b578063c45a015514610579578063d06ca61f146105a457610166565b806385f8c259146104005780638803dbee1461043d578063ad5c46481461047a578063ad615dec146104a5578063af2979eb146104e2578063b6f9de951461051f57610166565b80634a25d94a116101235780634a25d94a146102db5780635b0d5984146103185780635c11d7951461035557806372fd499d1461037e578063791ac947146103a75780637ff36ab5146103d057610166565b806302751cec1461016b578063054d50d4146101a957806318cbafe5146101e65780631f00ca74146102235780632195995c1461026057806338ed17391461029e575b600080fd5b34801561017757600080fd5b50610192600480360381019061018d9190611030565b6106c0565b6040516101a09291906110cc565b60405180910390f35b3480156101b557600080fd5b506101d060048036038101906101cb91906110f5565b6106fe565b6040516101dd9190611148565b60405180910390f35b3480156101f257600080fd5b5061020d600480360381019061020891906111c8565b61073b565b60405161021a9190611320565b60405180910390f35b34801561022f57600080fd5b5061024a60048036038101906102459190611342565b610778565b6040516102579190611320565b60405180910390f35b34801561026c57600080fd5b5061028760048036038101906102829190611449565b6107b5565b6040516102959291906110cc565b60405180910390f35b3480156102aa57600080fd5b506102c560048036038101906102c091906111c8565b6107f3565b6040516102d29190611320565b60405180910390f35b3480156102e757600080fd5b5061030260048036038101906102fd91906111c8565b610ad7565b60405161030f9190611320565b60405180910390f35b34801561032457600080fd5b5061033f600480360381019061033a919061153d565b610b14565b60405161034c9190611148565b60405180910390f35b34801561036157600080fd5b5061037c600480360381019061037791906111c8565b610b51565b005b34801561038a57600080fd5b506103a560048036038101906103a0919061161c565b610b8c565b005b3480156103b357600080fd5b506103ce60048036038101906103c991906111c8565b610bd3565b005b6103ea60048036038101906103e59190611690565b610c0e565b6040516103f79190611320565b60405180910390f35b34801561040c57600080fd5b50610427600480360381019061042291906110f5565b610c4b565b6040516104349190611148565b60405180910390f35b34801561044957600080fd5b50610464600480360381019061045f91906111c8565b610c88565b6040516104719190611320565b60405180910390f35b34801561048657600080fd5b5061048f610cc5565b60405161049c9190611727565b60405180910390f35b3480156104b157600080fd5b506104cc60048036038101906104c791906110f5565b610cca565b6040516104d99190611148565b60405180910390f35b3480156104ee57600080fd5b5061050960048036038101906105049190611030565b610d07565b6040516105169190611148565b60405180910390f35b61053960048036038101906105349190611690565b610d44565b005b34801561054757600080fd5b50610562600480360381019061055d9190611742565b610d7f565b6040516105709291906110cc565b60405180910390f35b34801561058557600080fd5b5061058e610dbd565b60405161059b9190611727565b60405180910390f35b3480156105b057600080fd5b506105cb60048036038101906105c69190611342565b610dc2565b6040516105d89190611320565b60405180910390f35b3480156105ed57600080fd5b506106086004803603810190610603919061153d565b610e97565b6040516106169291906110cc565b60405180910390f35b34801561062b57600080fd5b50610646600480360381019061064191906117e4565b610ed5565b6040516106559392919061189a565b60405180910390f35b61067860048036038101906106739190611030565b610f15565b6040516106879392919061189a565b60405180910390f35b6106aa60048036038101906106a59190611690565b610f55565b6040516106b79190611320565b60405180910390f35b6000806040517f08c379a00000000000000000000000000000000000000000000000000000000081526004016106f59061192e565b60405180910390fd5b60006040517f08c379a00000000000000000000000000000000000000000000000000000000081526004016107329061192e565b60405180910390fd5b60606040517f08c379a000000000000000000000000000000000000000000000000000000000815260040161076f9061192e565b60405180910390fd5b60606040517f08c379a00000000000000000000000000000000000000000000000000000000081526004016107ac9061192e565b60405180910390fd5b6000806040517f08c379a00000000000000000000000000000000000000000000000000000000081526004016107ea9061192e565b60405180910390fd5b60608484905067ffffffffffffffff8111156108125761081161194e565b5b6040519080825280602002602001820160405280156108405781602001602082028036833780820191505090505b50905086816000815181106108585761085761197d565b5b60200260200101818152505060008086868a60405160200161087c93929190611a8a565b60405160208183030381529060405280519060200120815260200190815260200160002054816001815181106108b5576108b461197d565b5b60200260200101818152505085816001815181106108d6576108d561197d565b5b6020026020010151101561091f576040517f08c379a000000000000000000000000000000000000000000000000000000000815260040161091690611b26565b60405180910390fd5b81421115610962576040517f08c379a000000000000000000000000000000000000000000000000000000000815260040161095990611b92565b60405180910390fd5b848460008181106109765761097561197d565b5b905060200201602081019061098b9190611bb2565b73ffffffffffffffffffffffffffffffffffffffff166323b872dd33308a6040518463ffffffff1660e01b81526004016109c793929190611bdf565b6020604051808303816000875af11580156109e6573d6000803e3d6000fd5b505050506040513d601f19601f82011682018060405250810190610a0a9190611c2b565b5084846001818110610a1f57610a1e61197d565b5b9050602002016020810190610a349190611bb2565b73ffffffffffffffffffffffffffffffffffffffff1663a9059cbb8483600181518110610a6457610a6361197d565b5b60200260200101516040518363ffffffff1660e01b8152600401610a89929190611c58565b6020604051808303816000875af1158015610aa8573d6000803e3d6000fd5b505050506040513d601f19601f82011682018060405250810190610acc9190611c2b565b509695505050505050565b60606040517f08c379a0000000000000000000000000000000000000000000000000000000008152600401610b0b9061192e565b60405180910390fd5b60006040517f08c379a0000000000000000000000000000000000000000000000000000000008152600401610b489061192e565b60405180910390fd5b6040517f08c379a0000000000000000000000000000000000000000000000000000000008152600401610b839061192e565b60405180910390fd5b80600080868686604051602001610ba593929190611a8a565b6040516020818303038152906040528051906020012081526020019081526020016000208190555050505050565b6040517f08c379a0000000000000000000000000000000000000000000000000000000008152600401610c059061192e565b60405180910390fd5b60606040517f08c379a0000000000000000000000000000000000000000000000000000000008152600401610c429061192e565b60405180910390fd5b60006040517f08c379a0000000000000000000000000000000000000000000000000000000008152600401610c7f9061192e565b60405180910390fd5b60606040517f08c379a0000000000000000000000000000000000000000000000000000000008152600401610cbc9061192e565b60405180910390fd5b600090565b60006040517f08c379a0000000000000000000000000000000000000000000000000000000008152600401610cfe9061192e565b60405180910390fd5b60006040517f08c379a0000000000000000000000000000000000000000000000000000000008152600401610d3b9061192e565b60405180910390fd5b6040517f08c379a0000000000000000000000000000000000000000000000000000000008152600401610d769061192e565b60405180910390fd5b6000806040517f08c379a0000000000000000000000000000000000000000000000000000000008152600401610db49061192e565b60405180910390fd5b600090565b60608282905067ffffffffffffffff811115610de157610de061194e565b5b604051908082528060200260200182016040528015610e0f5781602001602082028036833780820191505090505b5090508381600081518110610e2757610e2661197d565b5b602002602001018181525050600080848487604051602001610e4b93929190611a8a565b6040516020818303038152906040528051906020012081526020019081526020016000205481600181518110610e8457610e8361197d565b5b6020026020010181815250509392505050565b6000806040517f08c379a0000000000000000000000000000000000000000000000000000000008152600401610ecc9061192e565b60405180910390fd5b60008060006040517f08c379a0000000000000000000000000000000000000000000000000000000008152600401610f0c9061192e565b60405180910390fd5b60008060006040517f08c379a0000000000000000000000000000000000000000000000000000000008152600401610f4c9061192e565b60405180910390fd5b60606040517f08c379a0000000000000000000000000000000000000000000000000000000008152600401610f899061192e565b60405180910390fd5b600080fd5b600080fd5b600073ffffffffffffffffffffffffffffffffffffffff82169050919050565b6000610fc782610f9c565b9050919050565b610fd781610fbc565b8114610fe257600080fd5b50565b600081359050610ff481610fce565b92915050565b6000819050919050565b61100d81610ffa565b811461101857600080fd5b50565b60008135905061102a81611004565b92915050565b60008060008060008060c0878903121561104d5761104c610f92565b5b600061105b89828a01610fe5565b965050602061106c89828a0161101b565b955050604061107d89828a0161101b565b945050606061108e89828a0161101b565b935050608061109f89828a01610fe5565b92505060a06110b089828a0161101b565b9150509295509295509295565b6110c681610ffa565b82525050565b60006040820190506110e160008301856110bd565b6110ee60208301846110bd565b9392505050565b60008060006060848603121561110e5761110d610f92565b5b600061111c8682870161101b565b935050602061112d8682870161101b565b925050604061113e8682870161101b565b9150509250925092565b600060208201905061115d60008301846110bd565b92915050565b600080fd5b600080fd5b600080fd5b60008083601f84011261118857611187611163565b5b8235905067ffffffffffffffff8111156111a5576111a4611168565b5b6020830191508360208202830111156111c1576111c061116d565b5b9250929050565b60008060008060008060a087890312156111e5576111e4610f92565b5b60006111f389828a0161101b565b965050602061120489828a0161101b565b955050604087013567ffffffffffffffff81111561122557611224610f97565b5b61123189828a01611172565b9450945050606061124489828a01610fe5565b925050608061125589828a0161101b565b9150509295509295509295565b600081519050919050565b600082825260208201905092915050565b6000819050602082019050919050565b61129781610ffa565b82525050565b60006112a9838361128e565b60208301905092915050565b6000602082019050919050565b60006112cd82611262565b6112d7818561126d565b93506112e28361127e565b8060005b838110156113135781516112fa888261129d565b9750611305836112b5565b9250506001810190506112e6565b5085935050505092915050565b6000602082019050818103600083015261133a81846112c2565b905092915050565b60008060006040848603121561135b5761135a610f92565b5b60006113698682870161101b565b935050602084013567ffffffffffffffff81111561138a57611389610f97565b5b61139686828701611172565b92509250509250925092565b60008115159050919050565b6113b7816113a2565b81146113c257600080fd5b50565b6000813590506113d4816113ae565b92915050565b600060ff82169050919050565b6113f0816113da565b81146113fb57600080fd5b50565b60008135905061140d816113e7565b92915050565b6000819050919050565b61142681611413565b811461143157600080fd5b50565b6000813590506114438161141d565b92915050565b60008060008060008060008060008060006101608c8e03121561146f5761146e610f92565b5b600061147d8e828f01610fe5565b9b5050602061148e8e828f01610fe5565b9a5050604061149f8e828f0161101b565b99505060606114b08e828f0161101b565b98505060806114c18e828f0161101b565b97505060a06114d28e828f01610fe5565b96505060c06114e38e828f0161101b565b95505060e06114f48e828f016113c5565b9450506101006115068e828f016113fe565b9350506101206115188e828f01611434565b92505061014061152a8e828f01611434565b9150509295989b509295989b9093969950565b6000806000806000806000806000806101408b8d03121561156157611560610f92565b5b600061156f8d828e01610fe5565b9a505060206115808d828e0161101b565b99505060406115918d828e0161101b565b98505060606115a28d828e0161101b565b97505060806115b38d828e01610fe5565b96505060a06115c48d828e0161101b565b95505060c06115d58d828e016113c5565b94505060e06115e68d828e016113fe565b9350506101006115f88d828e01611434565b92505061012061160a8d828e01611434565b9150509295989b9194979a5092959850565b6000806000806060858703121561163657611635610f92565b5b600085013567ffffffffffffffff81111561165457611653610f97565b5b61166087828801611172565b945094505060206116738782880161101b565b92505060406116848782880161101b565b91505092959194509250565b6000806000806000608086880312156116ac576116ab610f92565b5b60006116ba8882890161101b565b955050602086013567ffffffffffffffff8111156116db576116da610f97565b5b6116e788828901611172565b945094505060406116fa88828901610fe5565b925050606061170b8882890161101b565b9150509295509295909350565b61172181610fbc565b82525050565b600060208201905061173c6000830184611718565b92915050565b600080600080600080600060e0888a03121561176157611760610f92565b5b600061176f8a828b01610fe5565b97505060206117808a828b01610fe5565b96505060406117918a828b0161101b565b95505060606117a28a828b0161101b565b94505060806117b38a828b0161101b565b93505060a06117c48a828b01610fe5565b92505060c06117d58a828b0161101b565b91505092959891949750929550565b600080600080600080600080610100898b03121561180557611804610f92565b5b60006118138b828c01610fe5565b98505060206118248b828c01610fe5565b97505060406118358b828c0161101b565b96505060606118468b828c0161101b565b95505060806118578b828c0161101b565b94505060a06118688b828c0161101b565b93505060c06118798b828c01610fe5565b92505060e061188a8b828c0161101b565b9150509295985092959890939650565b60006060820190506118af60008301866110bd565b6118bc60208301856110bd565b6118c960408301846110bd565b949350505050565b600082825260208201905092915050565b7f4e6f7420696d706c656d656e7465640000000000000000000000000000000000600082015250565b6000611918600f836118d1565b9150611923826118e2565b602082019050919050565b600060208201905081810360008301526119478161190b565b9050919050565b7f4e487b7100000000000000000000000000000000000000000000000000000000600052604160045260246000fd5b7f4e487b7100000000000000000000000000000000000000000000000000000000600052603260045260246000fd5b600081905092915050565b6000819050919050565b6119ca81610fbc565b82525050565b60006119dc83836119c1565b60208301905092915050565b60006119f76020840184610fe5565b905092915050565b6000602082019050919050565b6000611a1883856119ac565b9350611a23826119b7565b8060005b85811015611a5c57611a3982846119e8565b611a4388826119d0565b9750611a4e836119ff565b925050600181019050611a27565b5085925050509392505050565b6000819050919050565b611a84611a7f82610ffa565b611a69565b82525050565b6000611a97828587611a0c565b9150611aa38284611a73565b602082019150819050949350505050565b7f4d6f636b526f757465723a20494e53554646494349454e545f4f55545055545f60008201527f414d4f554e540000000000000000000000000000000000000000000000000000602082015250565b6000611b106026836118d1565b9150611b1b82611ab4565b604082019050919050565b60006020820190508181036000830152611b3f81611b03565b9050919050565b7f4d6f636b526f757465723a204558504952454400000000000000000000000000600082015250565b6000611b7c6013836118d1565b9150611b8782611b46565b602082019050919050565b60006020820190508181036000830152611bab81611b6f565b9050919050565b600060208284031215611bc857611bc7610f92565b5b6000611bd684828501610fe5565b91505092915050565b6000606082019050611bf46000830186611718565b611c016020830185611718565b611c0e60408301846110bd565b949350505050565b600081519050611c25816113ae565b92915050565b600060208284031215611c4157611c40610f92565b5b6000611c4f84828501611c16565b91505092915050565b6000604082019050611c6d6000830185611718565b611c7a60208301846110bd565b939250505056fea2646970667358221220cbd7f65fc4ff620bcc1dbe48e2859f7272cae603ae556e0fe63aa264aea0029c64736f6c63430008140033","opcodes":"PUSH1 0x80 PUSH1 0x40 MSTORE CALLVALUE DUP1 ISZERO PUSH2 0x10 JUMPI PUSH1 0x0 DUP1 REVERT JUMPDEST POP PUSH2 0x1CB7 DUP1 PUSH2 0x20 PUSH1 0x0 CODECOPY PUSH1 0x0 RETURN INVALID PUSH1 0x80 PUSH1 0x40 MSTORE PUSH1 0x4 CALLDATASIZE LT PUSH2 0x166 JUMPI PUSH1 0x0 CALLDATALOAD PUSH1 0xE0 SHR DUP1 PUSH4 0x85F8C259 GT PUSH2 0xD1 JUMPI DUP1 PUSH4 0xBAA2ABDE GT PUSH2 0x8A JUMPI DUP1 PUSH4 0xDED9382A GT PUSH2 0x64 JUMPI DUP1 PUSH4 0xDED9382A EQ PUSH2 0x5E1 JUMPI DUP1 PUSH4 0xE8E33700 EQ PUSH2 0x61F JUMPI DUP1 PUSH4 0xF305D719 EQ PUSH2 0x65E JUMPI DUP1 PUSH4 0xFB3BDB41 EQ PUSH2 0x690 JUMPI PUSH2 0x166 JUMP JUMPDEST DUP1 PUSH4 0xBAA2ABDE EQ PUSH2 0x53B JUMPI DUP1 PUSH4 0xC45A0155 EQ PUSH2 0x579 JUMPI DUP1 PUSH4 0xD06CA61F EQ PUSH2 0x5A4 JUMPI PUSH2 0x166 JUMP JUMPDEST DUP1 PUSH4 0x85F8C259 EQ PUSH2 0x400 JUMPI DUP1 PUSH4 0x8803DBEE EQ PUSH2 0x43D JUMPI DUP1 PUSH4 0xAD5C4648 EQ PUSH2 0x47A JUMPI DUP1 PUSH4 0xAD615DEC EQ PUSH2 0x4A5 JUMPI DUP1 PUSH4 0xAF2979EB EQ PUSH2 0x4E2 JUMPI DUP1 PUSH4 0xB6F9DE95 EQ PUSH2 0x51F JUMPI PUSH2 0x166 JUMP JUMPDEST DUP1 PUSH4 0x4A25D94A GT PUSH2 0x123 JUMPI DUP1 PUSH4 0x4A25D94A EQ PUSH2 0x2DB JUMPI DUP1 PUSH4 0x5B0D5984 EQ PUSH2 0x318 JUMPI DUP1 PUSH4 0x5C11D795 EQ PUSH2 0x355 JUMPI DUP1 PUSH4 0x72FD499D EQ PUSH2 0x37E JUMPI DUP1 PUSH4 0x791AC947 EQ PUSH2 0x3A7 JUMPI DUP1 PUSH4 0x7FF36AB5 EQ PUSH2 0x3D0 JUMPI PUSH2 0x166 JUMP JUMPDEST DUP1 PUSH4 0x2751CEC EQ PUSH2 0x16B JUMPI DUP1 PUSH4 0x54D50D4 EQ PUSH2 0x1A9 JUMPI DUP1 PUSH4 0x18CBAFE5 EQ PUSH2 0x1E6 JUMPI DUP1 PUSH4 0x1F00CA74 EQ PUSH2 0x223 JUMPI DUP1 PUSH4 0x2195995C EQ PUSH2 0x260 JUMPI DUP1 PUSH4 0x38ED1739 EQ PUSH2 0x29E JUMPI JUMPDEST PUSH1 0x0 DUP1 REVERT JUMPDEST CALLVALUE DUP1 ISZERO PUSH2 0x177 JUMPI PUSH1 0x0 DUP1 REVERT JUMPDEST POP PUSH2 0x192 PUSH1 0x4 DUP1 CALLDATASIZE SUB DUP2 ADD SWAP1 PUSH2 0x18D SWAP2 SWAP1 PUSH2 0x1030 JUMP JUMPDEST PUSH2 0x6C0 JUMP JUMPDEST PUSH1 0x40 MLOAD PUSH2 0x1A0 SWAP3 SWAP2 SWAP1 PUSH2 0x10CC JUMP JUMPDEST PUSH1 0x40 MLOAD DUP1 SWAP2 SUB SWAP1 RETURN JUMPDEST CALLVALUE DUP1 ISZERO PUSH2 0x1B5 JUMPI PUSH1 0x0 DUP1 REVERT JUMPDEST POP PUSH2 0x1D0 PUSH1 0x4 DUP1 CALLDATASIZE SUB DUP2 ADD SWAP1 PUSH2 0x1CB SWAP2 SWAP1 PUSH2 0x10F5 JUMP JUMPDEST PUSH2 0x6FE JUMP JUMPDEST PUSH1 0x40 MLOAD PUSH2 0x1DD SWAP2 SWAP1 PUSH2 0x1148 JUMP JUMPDEST PUSH1 0x40 MLOAD DUP1 SWAP2 SUB SWAP1 RETURN JUMPDEST CALLVALUE DUP1 ISZERO PUSH2 0x1F2 JUMPI PUSH1 0x0 DUP1 REVERT JUMPDEST POP PUSH2 0x20D PUSH1 0x4 DUP1 CALLDATASIZE SUB DUP2 ADD SWAP1 PUSH2 0x208 SWAP2 SWAP1 PUSH2 0x11C8 JUMP JUMPDEST PUSH2 0x73B JUMP JUMPDEST PUSH1 0x40 MLOAD PUSH2 0x21A SWAP2 SWAP1 PUSH2 0x1320 JUMP JUMPDEST PUSH1 0x40 MLOAD DUP1 SWAP2 SUB SWAP1 RETURN JUMPDEST CALLVALUE DUP1 ISZERO PUSH2 0x22F JUMPI PUSH1 0x0 DUP1 REVERT JUMPDEST POP PUSH2 0x24A PUSH1 0x4 DUP1 CALLDATASIZE SUB DUP2 ADD SWAP1 PUSH2 0x245 SWAP2 SWAP1 PUSH2 0x1342 JUMP JUMPDEST PUSH2 0x778 JUMP JUMPDEST PUSH1 0x40 MLOAD PUSH2 0x257 SWAP2 SWAP1 PUSH2 0x1320 JUMP JUMPDEST PUSH1 0x40 MLOAD DUP1 SWAP2 SUB SWAP1 RETURN JUMPDEST CALLVALUE DUP1 ISZERO PUSH2 0x26C JUMPI PUSH1 0x0 DUP1 REVERT JUMPDEST POP PUSH2 0x287 PUSH1 0x4 DUP1 CALLDATASIZE SUB DUP2 ADD SWAP1 PUSH2 0x282 SWAP2 SWAP1 PUSH2 0x1449 JUMP JUMPDEST PUSH2 0x7B5 JUMP JUMPDEST PUSH1 0x40 MLOAD PUSH2 0x295 SWAP3 SWAP2 SWAP1 PUSH2 0x10CC JUMP JUMPDEST PUSH1 0x40 MLOAD DUP1 SWAP2 SUB SWAP1 RETURN JUMPDEST CALLVALUE DUP1 ISZERO PUSH2 0x2AA JUMPI PUSH1 0x0 DUP1 REVERT JUMPDEST POP PUSH2 0x2C5 PUSH1 0x4 DUP1 CALLDATASIZE SUB DUP2 ADD SWAP1 PUSH2 0x2C0 SWAP2 SWAP1 PUSH2 0x11C8 JUMP JUMPDEST PUSH2 0x7F3 JUMP JUMPDEST PUSH1 0x40 MLOAD PUSH2 0x2D2 SWAP2 SWAP1 PUSH2 0x1320 JUMP JUMPDEST PUSH1 0x40 MLOAD DUP1 SWAP2 SUB SWAP1 RETURN JUMPDEST CALLVALUE DUP1 ISZERO PUSH2 0x2E7 JUMPI PUSH1 0x0 DUP1 REVERT JUMPDEST POP PUSH2 0x302 PUSH1 0x4 DUP1 CALLDATASIZE SUB DUP2 ADD SWAP1 PUSH2 0x2FD SWAP2 SWAP1 PUSH2 0x11C8 JUMP JUMPDEST PUSH2 0xAD7 JUMP JUMPDEST PUSH1 0x40 MLOAD PUSH2 0x30F SWAP2 SWAP1 PUSH2 0x1320 JUMP JUMPDEST PUSH1 0x40 MLOAD DUP1 SWAP2 SUB SWAP1 RETURN JUMPDEST CALLVALUE DUP1 ISZERO PUSH2 0x324 JUMPI PUSH1 0x0 DUP1 REVERT JUMPDEST POP PUSH2 0x33F PUSH1 0x4 DUP1 CALLDATASIZE SUB DUP2 ADD SWAP1 PUSH2 0x33A SWAP2 SWAP1 PUSH2 0x153D JUMP JUMPDEST PUSH2 0xB14 JUMP JUMPDEST PUSH1 0x40 MLOAD PUSH2 0x34C SWAP2 SWAP1 PUSH2 0x1148 JUMP JUMPDEST PUSH1 0x40 MLOAD DUP1 SWAP2 SUB SWAP1 RETURN JUMPDEST CALLVALUE DUP1 ISZERO PUSH2 0x361 JUMPI PUSH1 0x0 DUP1 REVERT JUMPDEST POP PUSH2 0x37C PUSH1 0x4 DUP1 CALLDATASIZE SUB DUP2 ADD SWAP1 PUSH2 0x377 SWAP2 SWAP1 PUSH2 0x11C8 JUMP JUMPDEST PUSH2 0xB51 JUMP JUMPDEST STOP JUMPDEST CALLVALUE DUP1 ISZERO PUSH2 0x38A JUMPI PUSH1 0x0 DUP1 REVERT JUMPDEST POP PUSH2 0x3A5 PUSH1 0x4 DUP1 CALLDATASIZE SUB DUP2 ADD SWAP1 PUSH2 0x3A0 SWAP2 SWAP1 PUSH2 0x161C JUMP JUMPDEST PUSH2 0xB8C JUMP JUMPDEST STOP JUMPDEST CALLVALUE DUP1 ISZERO PUSH2 0x3B3 JUMPI PUSH1 0x0 DUP1 REVERT JUMPDEST POP PUSH2 0x3CE PUSH1 0x4 DUP1 CALLDATASIZE SUB DUP2 ADD SWAP1 PUSH2 0x3C9 SWAP2 SWAP1 PUSH2 0x11C8 JUMP JUMPDEST PUSH2 0xBD3 JUMP JUMPDEST STOP JUMPDEST PUSH2 0x3EA PUSH1 0x4 DUP1 CALLDATASIZE SUB DUP2 ADD SWAP1 PUSH2 0x3E5 SWAP2 SWAP1 PUSH2 0x1690 JUMP JUMPDEST PUSH2 0xC0E JUMP JUMPDEST PUSH1 0x40 MLOAD PUSH2 0x3F7 SWAP2 SWAP1 PUSH2 0x1320 JUMP JUMPDEST PUSH1 0x40 MLOAD DUP1 SWAP2 SUB SWAP1 RETURN JUMPDEST CALLVALUE DUP1 ISZERO PUSH2 0x40C JUMPI PUSH1 0x0 DUP1 REVERT JUMPDEST POP PUSH2 0x427 PUSH1 0x4 DUP1 CALLDATASIZE SUB DUP2 ADD SWAP1 PUSH2 0x422 SWAP2 SWAP1 PUSH2 0x10F5 JUMP JUMPDEST PUSH2 0xC4B JUMP JUMPDEST PUSH1 0x40 MLOAD PUSH2 0x434 SWAP2 SWAP1 PUSH2 0x1148 JUMP JUMPDEST PUSH1 0x40 MLOAD DUP1 SWAP2 SUB SWAP1 RETURN JUMPDEST CALLVALUE DUP1 ISZERO PUSH2 0x449 JUMPI PUSH1 0x0 DUP1 REVERT JUMPDEST POP PUSH2 0x464 PUSH1 0x4 DUP1 CALLDATASIZE SUB DUP2 ADD SWAP1 PUSH2 0x45F SWAP2 SWAP1 PUSH2 0x11C8 JUMP JUMPDEST PUSH2 0xC88 JUMP JUMPDEST PUSH1 0x40 MLOAD PUSH2 0x471 SWAP2 SWAP1 PUSH2 0x1320 JUMP JUMPDEST PUSH1 0x40 MLOAD DUP1 SWAP2 SUB SWAP1 RETURN JUMPDEST CALLVALUE DUP1 ISZERO PUSH2 0x486 JUMPI PUSH1 0x0 DUP1 REVERT JUMPDEST POP PUSH2 0x48F PUSH2 0xCC5 JUMP JUMPDEST PUSH1 0x40 MLOAD PUSH2 0x49C SWAP2 SWAP1 PUSH2 0x1727 JUMP JUMPDEST PUSH1 0x40 MLOAD DUP1 SWAP2 SUB SWAP1 RETURN JUMPDEST CALLVALUE DUP1 ISZERO PUSH2 0x4B1 JUMPI PUSH1 0x0 DUP1 REVERT JUMPDEST POP PUSH2 0x4CC PUSH1 0x4 DUP1 CALLDATASIZE SUB DUP2 ADD SWAP1 PUSH2 0x4C7 SWAP2 SWAP1 PUSH2 0x10F5 JUMP JUMPDEST PUSH2 0xCCA JUMP JUMPDEST PUSH1 0x40 MLOAD PUSH2 0x4D9 SWAP2 SWAP1 PUSH2 0x1148 JUMP JUMPDEST PUSH1 0x40 MLOAD DUP1 SWAP2 SUB SWAP1 RETURN JUMPDEST CALLVALUE DUP1 ISZERO PUSH2 0x4EE JUMPI PUSH1 0x0 DUP1 REVERT JUMPDEST POP PUSH2 0x509 PUSH1 0x4 DUP1 CALLDATASIZE SUB DUP2 ADD SWAP1 PUSH2 0x504 SWAP2 SWAP1 PUSH2 0x1030 JUMP JUMPDEST PUSH2 0xD07 JUMP JUMPDEST PUSH1 0x40 MLOAD PUSH2 0x516 SWAP2 SWAP1 PUSH2 0x1148 JUMP JUMPDEST PUSH1 0x40 MLOAD DUP1 SWAP2 SUB SWAP1 RETURN JUMPDEST PUSH2 0x539 PUSH1 0x4 DUP1 CALLDATASIZE SUB DUP2 ADD SWAP1 PUSH2 0x534 SWAP2 SWAP1 PUSH2 0x1690 JUMP JUMPDEST PUSH2 0xD44 JUMP JUMPDEST STOP JUMPDEST CALLVALUE DUP1 ISZERO PUSH2 0x547 JUMPI PUSH1 0x0 DUP1 REVERT JUMPDEST POP PUSH2 0x562 PUSH1 0x4 DUP1 CALLDATASIZE SUB DUP2 ADD SWAP1 PUSH2 0x55D SWAP2 SWAP1 PUSH2 0x1742 JUMP JUMPDEST PUSH2 0xD7F JUMP JUMPDEST PUSH1 0x40 MLOAD PUSH2 0x570 SWAP3 SWAP2 SWAP1 PUSH2 0x10CC JUMP JUMPDEST PUSH1 0x40 MLOAD DUP1 SWAP2 SUB SWAP1 RETURN JUMPDEST CALLVALUE DUP1 ISZERO PUSH2 0x585 JUMPI PUSH1 0x0 DUP1 REVERT JUMPDEST POP PUSH2 0x58E PUSH2 0xDBD JUMP JUMPDEST PUSH1 0x40 MLOAD PUSH2 0x59B SWAP2 SWAP1 PUSH2 0x1727 JUMP JUMPDEST PUSH1 0x40 MLOAD DUP1 SWAP2 SUB SWAP1 RETURN JUMPDEST CALLVALUE DUP1 ISZERO PUSH2 0x5B0 JUMPI PUSH1 0x0 DUP1 REVERT JUMPDEST POP PUSH2 0x5CB PUSH1 0x4 DUP1 CALLDATASIZE SUB DUP2 ADD SWAP1 PUSH2 0x5C6 SWAP2 SWAP1 PUSH2 0x1342 JUMP JUMPDEST PUSH2 0xDC2 JUMP JUMPDEST PUSH1 0x40 MLOAD PUSH2 0x5D8 SWAP2 SWAP1 PUSH2 0x1320 JUMP JUMPDEST PUSH1 0x40 MLOAD DUP1 SWAP2 SUB SWAP1 RETURN JUMPDEST CALLVALUE DUP1 ISZERO PUSH2 0x5ED JUMPI PUSH1 0x0 DUP1 REVERT JUMPDEST POP PUSH2 0x608 PUSH1 0x4 DUP1 CALLDATASIZE SUB DUP2 ADD SWAP1 PUSH2 0x603 SWAP2 SWAP1 PUSH2 0x153D JUMP JUMPDEST PUSH2 0xE97 JUMP JUMPDEST PUSH1 0x40 MLOAD PUSH2 0x616 SWAP3 SWAP2 SWAP1 PUSH2 0x10CC JUMP JUMPDEST PUSH1 0x40 MLOAD DUP1 SWAP2 SUB SWAP1 RETURN JUMPDEST CALLVALUE DUP1 ISZERO PUSH2 0x62B JUMPI PUSH1 0x0 DUP1 REVERT JUMPDEST POP PUSH2 0x646 PUSH1 0x4 DUP1 CALLDATASIZE SUB DUP2 ADD SWAP1 PUSH2 0x641 SWAP2 SWAP1 PUSH2 0x17E4 JUMP JUMPDEST PUSH2 0xED5 JUMP JUMPDEST PUSH1 0x40 MLOAD PUSH2 0x655 SWAP4 SWAP3 SWAP2 SWAP1 PUSH2 0x189A JUMP JUMPDEST PUSH1 0x40 MLOAD DUP1 SWAP2 SUB SWAP1 RETURN JUMPDEST PUSH2 0x678 PUSH1 0x4 DUP1 CALLDATASIZE SUB DUP2 ADD SWAP1 PUSH2 0x673 SWAP2 SWAP1 PUSH2 0x1030 JUMP JUMPDEST PUSH2 0xF15 JUMP JUMPDEST PUSH1 0x40 MLOAD PUSH2 0x687 SWAP4 SWAP3 SWAP2 SWAP1 PUSH2 0x189A JUMP JUMPDEST PUSH1 0x40 MLOAD DUP1 SWAP2 SUB SWAP1 RETURN JUMPDEST PUSH2 0x6AA PUSH1 0x4 DUP1 CALLDATASIZE SUB DUP2 ADD SWAP1 PUSH2 0x6A5 SWAP2 SWAP1 PUSH2 0x1690 JUMP JUMPDEST PUSH2 0xF55 JUMP JUMPDEST PUSH1 0x40 MLOAD PUSH2 0x6B7 SWAP2 SWAP1 PUSH2 0x1320 JUMP JUMPDEST PUSH1 0x40 MLOAD DUP1 SWAP2 SUB SWAP1 RETURN JUMPDEST PUSH1 0x0 DUP1 PUSH1 0x40 MLOAD PUSH32 0x8C379A000000000000000000000000000000000000000000000000000000000 DUP2 MSTORE PUSH1 0x4 ADD PUSH2 0x6F5 SWAP1 PUSH2 0x192E JUMP JUMPDEST PUSH1 0x40 MLOAD DUP1 SWAP2 SUB SWAP1 REVERT JUMPDEST PUSH1 0x0 PUSH1 0x40 MLOAD PUSH32 0x8C379A000000000000000000000000000000000000000000000000000000000 DUP2 MSTORE PUSH1 0x4 ADD PUSH2 0x732 SWAP1 PUSH2 0x192E JUMP JUMPDEST PUSH1 0x40 MLOAD DUP1 SWAP2 SUB SWAP1 REVERT JUMPDEST PUSH1 0x60 PUSH1 0x40 MLOAD PUSH32 0x8C379A000000000000000000000000000000000000000000000000000000000 DUP2 MSTORE PUSH1 0x4 ADD PUSH2 0x76F SWAP1 PUSH2 0x192E JUMP JUMPDEST PUSH1 0x40 MLOAD DUP1 SWAP2 SUB SWAP1 REVERT JUMPDEST PUSH1 0x60 PUSH1 0x40 MLOAD PUSH32 0x8C379A000000000000000000000000000000000000000000000000000000000 DUP2 MSTORE PUSH1 0x4 ADD PUSH2 0x7AC SWAP1 PUSH2 0x192E JUMP JUMPDEST PUSH1 0x40 MLOAD DUP1 SWAP2 SUB SWAP1 REVERT JUMPDEST PUSH1 0x0 DUP1 PUSH1 0x40 MLOAD PUSH32 0x8C379A000000000000000000000000000000000000000000000000000000000 DUP2 MSTORE PUSH1 0x4 ADD PUSH2 0x7EA SWAP1 PUSH2 0x192E JUMP JUMPDEST PUSH1 0x40 MLOAD DUP1 SWAP2 SUB SWAP1 REVERT JUMPDEST PUSH1 0x60 DUP5 DUP5 SWAP1 POP PUSH8 0xFFFFFFFFFFFFFFFF DUP2 GT ISZERO PUSH2 0x812 JUMPI PUSH2 0x811 PUSH2 0x194E JUMP JUMPDEST JUMPDEST PUSH1 0x40 MLOAD SWAP1 DUP1 DUP3 MSTORE DUP1 PUSH1 0x20 MUL PUSH1 0x20 ADD DUP3 ADD PUSH1 0x40 MSTORE DUP1 ISZERO PUSH2 0x840 JUMPI DUP2 PUSH1 0x20 ADD PUSH1 0x20 DUP3 MUL DUP1 CALLDATASIZE DUP4 CALLDATACOPY DUP1 DUP3 ADD SWAP2 POP POP SWAP1 POP JUMPDEST POP SWAP1 POP DUP7 DUP2 PUSH1 0x0 DUP2 MLOAD DUP2 LT PUSH2 0x858 JUMPI PUSH2 0x857 PUSH2 0x197D JUMP JUMPDEST JUMPDEST PUSH1 0x20 MUL PUSH1 0x20 ADD ADD DUP2 DUP2 MSTORE POP POP PUSH1 0x0 DUP1 DUP7 DUP7 DUP11 PUSH1 0x40 MLOAD PUSH1 0x20 ADD PUSH2 0x87C SWAP4 SWAP3 SWAP2 SWAP1 PUSH2 0x1A8A JUMP JUMPDEST PUSH1 0x40 MLOAD PUSH1 0x20 DUP2 DUP4 SUB SUB DUP2 MSTORE SWAP1 PUSH1 0x40 MSTORE DUP1 MLOAD SWAP1 PUSH1 0x20 ADD KECCAK256 DUP2 MSTORE PUSH1 0x20 ADD SWAP1 DUP2 MSTORE PUSH1 0x20 ADD PUSH1 0x0 KECCAK256 SLOAD DUP2 PUSH1 0x1 DUP2 MLOAD DUP2 LT PUSH2 0x8B5 JUMPI PUSH2 0x8B4 PUSH2 0x197D JUMP JUMPDEST JUMPDEST PUSH1 0x20 MUL PUSH1 0x20 ADD ADD DUP2 DUP2 MSTORE POP POP DUP6 DUP2 PUSH1 0x1 DUP2 MLOAD DUP2 LT PUSH2 0x8D6 JUMPI PUSH2 0x8D5 PUSH2 0x197D JUMP JUMPDEST JUMPDEST PUSH1 0x20 MUL PUSH1 0x20 ADD ADD MLOAD LT ISZERO PUSH2 0x91F JUMPI PUSH1 0x40 MLOAD PUSH32 0x8C379A000000000000000000000000000000000000000000000000000000000 DUP2 MSTORE PUSH1 0x4 ADD PUSH2 0x916 SWAP1 PUSH2 0x1B26 JUMP JUMPDEST PUSH1 0x40 MLOAD DUP1 SWAP2 SUB SWAP1 REVERT JUMPDEST DUP2 TIMESTAMP GT ISZERO PUSH2 0x962 JUMPI PUSH1 0x40 MLOAD PUSH32 0x8C379A000000000000000000000000000000000000000000000000000000000 DUP2 MSTORE PUSH1 0x4 ADD PUSH2 0x959 SWAP1 PUSH2 0x1B92 JUMP JUMPDEST PUSH1 0x40 MLOAD DUP1 SWAP2 SUB SWAP1 REVERT JUMPDEST DUP5 DUP5 PUSH1 0x0 DUP2 DUP2 LT PUSH2 0x976 JUMPI PUSH2 0x975 PUSH2 0x197D JUMP JUMPDEST JUMPDEST SWAP1 POP PUSH1 0x20 MUL ADD PUSH1 0x20 DUP2 ADD SWAP1 PUSH2 0x98B SWAP2 SWAP1 PUSH2 0x1BB2 JUMP JUMPDEST PUSH20 0xFFFFFFFFFFFFFFFFFFFFFFFFFFFFFFFFFFFFFFFF AND PUSH4 0x23B872DD CALLER ADDRESS DUP11 PUSH1 0x40 MLOAD DUP5 PUSH4 0xFFFFFFFF AND PUSH1 0xE0 SHL DUP2 MSTORE PUSH1 0x4 ADD PUSH2 0x9C7 SWAP4 SWAP3 SWAP2 SWAP1 PUSH2 0x1BDF JUMP JUMPDEST PUSH1 0x20 PUSH1 0x40 MLOAD DUP1 DUP4 SUB DUP2 PUSH1 0x0 DUP8 GAS CALL ISZERO DUP1 ISZERO PUSH2 0x9E6 JUMPI RETURNDATASIZE PUSH1 0x0 DUP1 RETURNDATACOPY RETURNDATASIZE PUSH1 0x0 REVERT JUMPDEST POP POP POP POP PUSH1 0x40 MLOAD RETURNDATASIZE PUSH1 0x1F NOT PUSH1 0x1F DUP3 ADD AND DUP3 ADD DUP1 PUSH1 0x40 MSTORE POP DUP2 ADD SWAP1 PUSH2 0xA0A SWAP2 SWAP1 PUSH2 0x1C2B JUMP JUMPDEST POP DUP5 DUP5 PUSH1 0x1 DUP2 DUP2 LT PUSH2 0xA1F JUMPI PUSH2 0xA1E PUSH2 0x197D JUMP JUMPDEST JUMPDEST SWAP1 POP PUSH1 0x20 MUL ADD PUSH1 0x20 DUP2 ADD SWAP1 PUSH2 0xA34 SWAP2 SWAP1 PUSH2 0x1BB2 JUMP JUMPDEST PUSH20 0xFFFFFFFFFFFFFFFFFFFFFFFFFFFFFFFFFFFFFFFF AND PUSH4 0xA9059CBB DUP5 DUP4 PUSH1 0x1 DUP2 MLOAD DUP2 LT PUSH2 0xA64 JUMPI PUSH2 0xA63 PUSH2 0x197D JUMP JUMPDEST JUMPDEST PUSH1 0x20 MUL PUSH1 0x20 ADD ADD MLOAD PUSH1 0x40 MLOAD DUP4 PUSH4 0xFFFFFFFF AND PUSH1 0xE0 SHL DUP2 MSTORE PUSH1 0x4 ADD PUSH2 0xA89 SWAP3 SWAP2 SWAP1 PUSH2 0x1C58 JUMP JUMPDEST PUSH1 0x20 PUSH1 0x40 MLOAD DUP1 DUP4 SUB DUP2 PUSH1 0x0 DUP8 GAS CALL ISZERO DUP1 ISZERO PUSH2 0xAA8 JUMPI RETURNDATASIZE PUSH1 0x0 DUP1 RETURNDATACOPY RETURNDATASIZE PUSH1 0x0 REVERT JUMPDEST POP POP POP POP PUSH1 0x40 MLOAD RETURNDATASIZE PUSH1 0x1F NOT PUSH1 0x1F DUP3 ADD AND DUP3 ADD DUP1 PUSH1 0x40 MSTORE POP DUP2 ADD SWAP1 PUSH2 0xACC SWAP2 SWAP1 PUSH2 0x1C2B JUMP JUMPDEST POP SWAP7 SWAP6 POP POP POP POP POP POP JUMP JUMPDEST PUSH1 0x60 PUSH1 0x40 MLOAD PUSH32 0x8C379A000000000000000000000000000000000000000000000000000000000 DUP2 MSTORE PUSH1 0x4 ADD PUSH2 0xB0B SWAP1 PUSH2 0x192E JUMP JUMPDEST PUSH1 0x40 MLOAD DUP1 SWAP2 SUB SWAP1 REVERT JUMPDEST PUSH1 0x0 PUSH1 0x40 MLOAD PUSH32 0x8C379A000000000000000000000000000000000000000000000000000000000 DUP2 MSTORE PUSH1 0x4 ADD PUSH2 0xB48 SWAP1 PUSH2 0x192E JUMP JUMPDEST PUSH1 0x40 MLOAD DUP1 SWAP2 SUB SWAP1 REVERT JUMPDEST PUSH1 0x40 MLOAD PUSH32 0x8C379A000000000000000000000000000000000000000000000000000000000 DUP2 MSTORE PUSH1 0x4 ADD PUSH2 0xB83 SWAP1 PUSH2 0x192E JUMP JUMPDEST PUSH1 0x40 MLOAD DUP1 SWAP2 SUB SWAP1 REVERT JUMPDEST DUP1 PUSH1 0x0 DUP1 DUP7 DUP7 DUP7 PUSH1 0x40 MLOAD PUSH1 0x20 ADD PUSH2 0xBA5 SWAP4 SWAP3 SWAP2 SWAP1 PUSH2 0x1A8A JUMP JUMPDEST PUSH1 0x40 MLOAD PUSH1 0x20 DUP2 DUP4 SUB SUB DUP2 MSTORE SWAP1 PUSH1 0x40 MSTORE DUP1 MLOAD SWAP1 PUSH1 0x20 ADD KECCAK256 DUP2 MSTORE PUSH1 0x20 ADD SWAP1 DUP2 MSTORE PUSH1 0x20 ADD PUSH1 0x0 KECCAK256 DUP2 SWAP1 SSTORE POP POP POP POP POP JUMP JUMPDEST PUSH1 0x40 MLOAD PUSH32 0x8C379A000000000000000000000000000000000000000000000000000000000 DUP2 MSTORE PUSH1 0x4 ADD PUSH2 0xC05 SWAP1 PUSH2 0x192E JUMP JUMPDEST PUSH1 0x40 MLOAD DUP1 SWAP2 SUB SWAP1 REVERT JUMPDEST PUSH1 0x60 PUSH1 0x40 MLOAD PUSH32 0x8C379A000000000000000000000000000000000000000000000000000000000 DUP2 MSTORE PUSH1 0x4 ADD PUSH2 0xC42 SWAP1 PUSH2 0x192E JUMP JUMPDEST PUSH1 0x40 MLOAD DUP1 SWAP2 SUB SWAP1 REVERT JUMPDEST PUSH1 0x0 PUSH1 0x40 MLOAD PUSH32 0x8C379A000000000000000000000000000000000000000000000000000000000 DUP2 MSTORE PUSH1 0x4 ADD PUSH2 0xC7F SWAP1 PUSH2 0x192E JUMP JUMPDEST PUSH1 0x40 MLOAD DUP1 SWAP2 SUB SWAP1 REVERT JUMPDEST PUSH1 0x60 PUSH1 0x40 MLOAD PUSH32 0x8C379A000000000000000000000000000000000000000000000000000000000 DUP2 MSTORE PUSH1 0x4 ADD PUSH2 0xCBC SWAP1 PUSH2 0x192E JUMP JUMPDEST PUSH1 0x40 MLOAD DUP1 SWAP2 SUB SWAP1 REVERT JUMPDEST PUSH1 0x0 SWAP1 JUMP JUMPDEST PUSH1 0x0 PUSH1 0x40 MLOAD PUSH32 0x8C379A000000000000000000000000000000000000000000000000000000000 DUP2 MSTORE PUSH1 0x4 ADD PUSH2 0xCFE SWAP1 PUSH2 0x192E JUMP JUMPDEST PUSH1 0x40 MLOAD DUP1 SWAP2 SUB SWAP1 REVERT JUMPDEST PUSH1 0x0 PUSH1 0x40 MLOAD PUSH32 0x8C379A000000000000000000000000000000000000000000000000000000000 DUP2 MSTORE PUSH1 0x4 ADD PUSH2 0xD3B SWAP1 PUSH2 0x192E JUMP JUMPDEST PUSH1 0x40 MLOAD DUP1 SWAP2 SUB SWAP1 REVERT JUMPDEST PUSH1 0x40 MLOAD PUSH32 0x8C379A000000000000000000000000000000000000000000000000000000000 DUP2 MSTORE PUSH1 0x4 ADD PUSH2 0xD76 SWAP1 PUSH2 0x192E JUMP JUMPDEST PUSH1 0x40 MLOAD DUP1 SWAP2 SUB SWAP1 REVERT JUMPDEST PUSH1 0x0 DUP1 PUSH1 0x40 MLOAD PUSH32 0x8C379A000000000000000000000000000000000000000000000000000000000 DUP2 MSTORE PUSH1 0x4 ADD PUSH2 0xDB4 SWAP1 PUSH2 0x192E JUMP JUMPDEST PUSH1 0x40 MLOAD DUP1 SWAP2 SUB SWAP1 REVERT JUMPDEST PUSH1 0x0 SWAP1 JUMP JUMPDEST PUSH1 0x60 DUP3 DUP3 SWAP1 POP PUSH8 0xFFFFFFFFFFFFFFFF DUP2 GT ISZERO PUSH2 0xDE1 JUMPI PUSH2 0xDE0 PUSH2 0x194E JUMP JUMPDEST JUMPDEST PUSH1 0x40 MLOAD SWAP1 DUP1 DUP3 MSTORE DUP1 PUSH1 0x20 MUL PUSH1 0x20 ADD DUP3 ADD PUSH1 0x40 MSTORE DUP1 ISZERO PUSH2 0xE0F JUMPI DUP2 PUSH1 0x20 ADD PUSH1 0x20 DUP3 MUL DUP1 CALLDATASIZE DUP4 CALLDATACOPY DUP1 DUP3 ADD SWAP2 POP POP SWAP1 POP JUMPDEST POP SWAP1 POP DUP4 DUP2 PUSH1 0x0 DUP2 MLOAD DUP2 LT PUSH2 0xE27 JUMPI PUSH2 0xE26 PUSH2 0x197D JUMP JUMPDEST JUMPDEST PUSH1 0x20 MUL PUSH1 0x20 ADD ADD DUP2 DUP2 MSTORE POP POP PUSH1 0x0 DUP1 DUP5 DUP5 DUP8 PUSH1 0x40 MLOAD PUSH1 0x20 ADD PUSH2 0xE4B SWAP4 SWAP3 SWAP2 SWAP1 PUSH2 0x1A8A JUMP JUMPDEST PUSH1 0x40 MLOAD PUSH1 0x20 DUP2 DUP4 SUB SUB DUP2 MSTORE SWAP1 PUSH1 0x40 MSTORE DUP1 MLOAD SWAP1 PUSH1 0x20 ADD KECCAK256 DUP2 MSTORE PUSH1 0x20 ADD SWAP1 DUP2 MSTORE PUSH1 0x20 ADD PUSH1 0x0 KECCAK256 SLOAD DUP2 PUSH1 0x1 DUP2 MLOAD DUP2 LT PUSH2 0xE84 JUMPI PUSH2 0xE83 PUSH2 0x197D JUMP JUMPDEST JUMPDEST PUSH1 0x20 MUL PUSH1 0x20 ADD ADD DUP2 DUP2 MSTORE POP POP SWAP4 SWAP3 POP POP POP JUMP JUMPDEST PUSH1 0x0 DUP1 PUSH1 0x40 MLOAD PUSH32 0x8C379A000000000000000000000000000000000000000000000000000000000 DUP2 MSTORE PUSH1 0x4 ADD PUSH2 0xECC SWAP1 PUSH2 0x192E JUMP JUMPDEST PUSH1 0x40 MLOAD DUP1 SWAP2 SUB SWAP1 REVERT JUMPDEST PUSH1 0x0 DUP1 PUSH1 0x0 PUSH1 0x40 MLOAD PUSH32 0x8C379A000000000000000000000000000000000000000000000000000000000 DUP2 MSTORE PUSH1 0x4 ADD PUSH2 0xF0C SWAP1 PUSH2 0x192E JUMP JUMPDEST PUSH1 0x40 MLOAD DUP1 SWAP2 SUB SWAP1 REVERT JUMPDEST PUSH1 0x0 DUP1 PUSH1 0x0 PUSH1 0x40 MLOAD PUSH32 0x8C379A000000000000000000000000000000000000000000000000000000000 DUP2 MSTORE PUSH1 0x4 ADD PUSH2 0xF4C SWAP1 PUSH2 0x192E JUMP JUMPDEST PUSH1 0x40 MLOAD DUP1 SWAP2 SUB SWAP1 REVERT JUMPDEST PUSH1 0x60 PUSH1 0x40 MLOAD PUSH32 0x8C379A000000000000000000000000000000000000000000000000000000000 DUP2 MSTORE PUSH1 0x4 ADD PUSH2 0xF89 SWAP1 PUSH2 0x192E JUMP JUMPDEST PUSH1 0x40 MLOAD DUP1 SWAP2 SUB SWAP1 REVERT JUMPDEST PUSH1 0x0 DUP1 REVERT JUMPDEST PUSH1 0x0 DUP1 REVERT JUMPDEST PUSH1 0x0 PUSH20 0xFFFFFFFFFFFFFFFFFFFFFFFFFFFFFFFFFFFFFFFF DUP3 AND SWAP1 POP SWAP2 SWAP1 POP JUMP JUMPDEST PUSH1 0x0 PUSH2 0xFC7 DUP3 PUSH2 0xF9C JUMP JUMPDEST SWAP1 POP SWAP2 SWAP1 POP JUMP JUMPDEST PUSH2 0xFD7 DUP2 PUSH2 0xFBC JUMP JUMPDEST DUP2 EQ PUSH2 0xFE2 JUMPI PUSH1 0x0 DUP1 REVERT JUMPDEST POP JUMP JUMPDEST PUSH1 0x0 DUP2 CALLDATALOAD SWAP1 POP PUSH2 0xFF4 DUP2 PUSH2 0xFCE JUMP JUMPDEST SWAP3 SWAP2 POP POP JUMP JUMPDEST PUSH1 0x0 DUP2 SWAP1 POP SWAP2 SWAP1 POP JUMP JUMPDEST PUSH2 0x100D DUP2 PUSH2 0xFFA JUMP JUMPDEST DUP2 EQ PUSH2 0x1018 JUMPI PUSH1 0x0 DUP1 REVERT JUMPDEST POP JUMP JUMPDEST PUSH1 0x0 DUP2 CALLDATALOAD SWAP1 POP PUSH2 0x102A DUP2 PUSH2 0x1004 JUMP JUMPDEST SWAP3 SWAP2 POP POP JUMP JUMPDEST PUSH1 0x0 DUP1 PUSH1 0x0 DUP1 PUSH1 0x0 DUP1 PUSH1 0xC0 DUP8 DUP10 SUB SLT ISZERO PUSH2 0x104D JUMPI PUSH2 0x104C PUSH2 0xF92 JUMP JUMPDEST JUMPDEST PUSH1 0x0 PUSH2 0x105B DUP10 DUP3 DUP11 ADD PUSH2 0xFE5 JUMP JUMPDEST SWAP7 POP POP PUSH1 0x20 PUSH2 0x106C DUP10 DUP3 DUP11 ADD PUSH2 0x101B JUMP JUMPDEST SWAP6 POP POP PUSH1 0x40 PUSH2 0x107D DUP10 DUP3 DUP11 ADD PUSH2 0x101B JUMP JUMPDEST SWAP5 POP POP PUSH1 0x60 PUSH2 0x108E DUP10 DUP3 DUP11 ADD PUSH2 0x101B JUMP JUMPDEST SWAP4 POP POP PUSH1 0x80 PUSH2 0x109F DUP10 DUP3 DUP11 ADD PUSH2 0xFE5 JUMP JUMPDEST SWAP3 POP POP PUSH1 0xA0 PUSH2 0x10B0 DUP10 DUP3 DUP11 ADD PUSH2 0x101B JUMP JUMPDEST SWAP2 POP POP SWAP3 SWAP6 POP SWAP3 SWAP6 POP SWAP3 SWAP6 JUMP JUMPDEST PUSH2 0x10C6 DUP2 PUSH2 0xFFA JUMP JUMPDEST DUP3 MSTORE POP POP JUMP JUMPDEST PUSH1 0x0 PUSH1 0x40 DUP3 ADD SWAP1 POP PUSH2 0x10E1 PUSH1 0x0 DUP4 ADD DUP6 PUSH2 0x10BD JUMP JUMPDEST PUSH2 0x10EE PUSH1 0x20 DUP4 ADD DUP5 PUSH2 0x10BD JUMP JUMPDEST SWAP4 SWAP3 POP POP POP JUMP JUMPDEST PUSH1 0x0 DUP1 PUSH1 0x0 PUSH1 0x60 DUP5 DUP7 SUB SLT ISZERO PUSH2 0x110E JUMPI PUSH2 0x110D PUSH2 0xF92 JUMP JUMPDEST JUMPDEST PUSH1 0x0 PUSH2 0x111C DUP7 DUP3 DUP8 ADD PUSH2 0x101B JUMP JUMPDEST SWAP4 POP POP PUSH1 0x20 PUSH2 0x112D DUP7 DUP3 DUP8 ADD PUSH2 0x101B JUMP JUMPDEST SWAP3 POP POP PUSH1 0x40 PUSH2 0x113E DUP7 DUP3 DUP8 ADD PUSH2 0x101B JUMP JUMPDEST SWAP2 POP POP SWAP3 POP SWAP3 POP SWAP3 JUMP JUMPDEST PUSH1 0x0 PUSH1 0x20 DUP3 ADD SWAP1 POP PUSH2 0x115D PUSH1 0x0 DUP4 ADD DUP5 PUSH2 0x10BD JUMP JUMPDEST SWAP3 SWAP2 POP POP JUMP JUMPDEST PUSH1 0x0 DUP1 REVERT JUMPDEST PUSH1 0x0 DUP1 REVERT JUMPDEST PUSH1 0x0 DUP1 REVERT JUMPDEST PUSH1 0x0 DUP1 DUP4 PUSH1 0x1F DUP5 ADD SLT PUSH2 0x1188 JUMPI PUSH2 0x1187 PUSH2 0x1163 JUMP JUMPDEST JUMPDEST DUP3 CALLDATALOAD SWAP1 POP PUSH8 0xFFFFFFFFFFFFFFFF DUP2 GT ISZERO PUSH2 0x11A5 JUMPI PUSH2 0x11A4 PUSH2 0x1168 JUMP JUMPDEST JUMPDEST PUSH1 0x20 DUP4 ADD SWAP2 POP DUP4 PUSH1 0x20 DUP3 MUL DUP4 ADD GT ISZERO PUSH2 0x11C1 JUMPI PUSH2 0x11C0 PUSH2 0x116D JUMP JUMPDEST JUMPDEST SWAP3 POP SWAP3 SWAP1 POP JUMP JUMPDEST PUSH1 0x0 DUP1 PUSH1 0x0 DUP1 PUSH1 0x0 DUP1 PUSH1 0xA0 DUP8 DUP10 SUB SLT ISZERO PUSH2 0x11E5 JUMPI PUSH2 0x11E4 PUSH2 0xF92 JUMP JUMPDEST JUMPDEST PUSH1 0x0 PUSH2 0x11F3 DUP10 DUP3 DUP11 ADD PUSH2 0x101B JUMP JUMPDEST SWAP7 POP POP PUSH1 0x20 PUSH2 0x1204 DUP10 DUP3 DUP11 ADD PUSH2 0x101B JUMP JUMPDEST SWAP6 POP POP PUSH1 0x40 DUP8 ADD CALLDATALOAD PUSH8 0xFFFFFFFFFFFFFFFF DUP2 GT ISZERO PUSH2 0x1225 JUMPI PUSH2 0x1224 PUSH2 0xF97 JUMP JUMPDEST JUMPDEST PUSH2 0x1231 DUP10 DUP3 DUP11 ADD PUSH2 0x1172 JUMP JUMPDEST SWAP5 POP SWAP5 POP POP PUSH1 0x60 PUSH2 0x1244 DUP10 DUP3 DUP11 ADD PUSH2 0xFE5 JUMP JUMPDEST SWAP3 POP POP PUSH1 0x80 PUSH2 0x1255 DUP10 DUP3 DUP11 ADD PUSH2 0x101B JUMP JUMPDEST SWAP2 POP POP SWAP3 SWAP6 POP SWAP3 SWAP6 POP SWAP3 SWAP6 JUMP JUMPDEST PUSH1 0x0 DUP2 MLOAD SWAP1 POP SWAP2 SWAP1 POP JUMP JUMPDEST PUSH1 0x0 DUP3 DUP3 MSTORE PUSH1 0x20 DUP3 ADD SWAP1 POP SWAP3 SWAP2 POP POP JUMP JUMPDEST PUSH1 0x0 DUP2 SWAP1 POP PUSH1 0x20 DUP3 ADD SWAP1 POP SWAP2 SWAP1 POP JUMP JUMPDEST PUSH2 0x1297 DUP2 PUSH2 0xFFA JUMP JUMPDEST DUP3 MSTORE POP POP JUMP JUMPDEST PUSH1 0x0 PUSH2 0x12A9 DUP4 DUP4 PUSH2 0x128E JUMP JUMPDEST PUSH1 0x20 DUP4 ADD SWAP1 POP SWAP3 SWAP2 POP POP JUMP JUMPDEST PUSH1 0x0 PUSH1 0x20 DUP3 ADD SWAP1 POP SWAP2 SWAP1 POP JUMP JUMPDEST PUSH1 0x0 PUSH2 0x12CD DUP3 PUSH2 0x1262 JUMP JUMPDEST PUSH2 0x12D7 DUP2 DUP6 PUSH2 0x126D JUMP JUMPDEST SWAP4 POP PUSH2 0x12E2 DUP4 PUSH2 0x127E JUMP JUMPDEST DUP1 PUSH1 0x0 JUMPDEST DUP4 DUP2 LT ISZERO PUSH2 0x1313 JUMPI DUP2 MLOAD PUSH2 0x12FA DUP9 DUP3 PUSH2 0x129D JUMP JUMPDEST SWAP8 POP PUSH2 0x1305 DUP4 PUSH2 0x12B5 JUMP JUMPDEST SWAP3 POP POP PUSH1 0x1 DUP2 ADD SWAP1 POP PUSH2 0x12E6 JUMP JUMPDEST POP DUP6 SWAP4 POP POP POP POP SWAP3 SWAP2 POP POP JUMP JUMPDEST PUSH1 0x0 PUSH1 0x20 DUP3 ADD SWAP1 POP DUP2 DUP2 SUB PUSH1 0x0 DUP4 ADD MSTORE PUSH2 0x133A DUP2 DUP5 PUSH2 0x12C2 JUMP JUMPDEST SWAP1 POP SWAP3 SWAP2 POP POP JUMP JUMPDEST PUSH1 0x0 DUP1 PUSH1 0x0 PUSH1 0x40 DUP5 DUP7 SUB SLT ISZERO PUSH2 0x135B JUMPI PUSH2 0x135A PUSH2 0xF92 JUMP JUMPDEST JUMPDEST PUSH1 0x0 PUSH2 0x1369 DUP7 DUP3 DUP8 ADD PUSH2 0x101B JUMP JUMPDEST SWAP4 POP POP PUSH1 0x20 DUP5 ADD CALLDATALOAD PUSH8 0xFFFFFFFFFFFFFFFF DUP2 GT ISZERO PUSH2 0x138A JUMPI PUSH2 0x1389 PUSH2 0xF97 JUMP JUMPDEST JUMPDEST PUSH2 0x1396 DUP7 DUP3 DUP8 ADD PUSH2 0x1172 JUMP JUMPDEST SWAP3 POP SWAP3 POP POP SWAP3 POP SWAP3 POP SWAP3 JUMP JUMPDEST PUSH1 0x0 DUP2 ISZERO ISZERO SWAP1 POP SWAP2 SWAP1 POP JUMP JUMPDEST PUSH2 0x13B7 DUP2 PUSH2 0x13A2 JUMP JUMPDEST DUP2 EQ PUSH2 0x13C2 JUMPI PUSH1 0x0 DUP1 REVERT JUMPDEST POP JUMP JUMPDEST PUSH1 0x0 DUP2 CALLDATALOAD SWAP1 POP PUSH2 0x13D4 DUP2 PUSH2 0x13AE JUMP JUMPDEST SWAP3 SWAP2 POP POP JUMP JUMPDEST PUSH1 0x0 PUSH1 0xFF DUP3 AND SWAP1 POP SWAP2 SWAP1 POP JUMP JUMPDEST PUSH2 0x13F0 DUP2 PUSH2 0x13DA JUMP JUMPDEST DUP2 EQ PUSH2 0x13FB JUMPI PUSH1 0x0 DUP1 REVERT JUMPDEST POP JUMP JUMPDEST PUSH1 0x0 DUP2 CALLDATALOAD SWAP1 POP PUSH2 0x140D DUP2 PUSH2 0x13E7 JUMP JUMPDEST SWAP3 SWAP2 POP POP JUMP JUMPDEST PUSH1 0x0 DUP2 SWAP1 POP SWAP2 SWAP1 POP JUMP JUMPDEST PUSH2 0x1426 DUP2 PUSH2 0x1413 JUMP JUMPDEST DUP2 EQ PUSH2 0x1431 JUMPI PUSH1 0x0 DUP1 REVERT JUMPDEST POP JUMP JUMPDEST PUSH1 0x0 DUP2 CALLDATALOAD SWAP1 POP PUSH2 0x1443 DUP2 PUSH2 0x141D JUMP JUMPDEST SWAP3 SWAP2 POP POP JUMP JUMPDEST PUSH1 0x0 DUP1 PUSH1 0x0 DUP1 PUSH1 0x0 DUP1 PUSH1 0x0 DUP1 PUSH1 0x0 DUP1 PUSH1 0x0 PUSH2 0x160 DUP13 DUP15 SUB SLT ISZERO PUSH2 0x146F JUMPI PUSH2 0x146E PUSH2 0xF92 JUMP JUMPDEST JUMPDEST PUSH1 0x0 PUSH2 0x147D DUP15 DUP3 DUP16 ADD PUSH2 0xFE5 JUMP JUMPDEST SWAP12 POP POP PUSH1 0x20 PUSH2 0x148E DUP15 DUP3 DUP16 ADD PUSH2 0xFE5 JUMP JUMPDEST SWAP11 POP POP PUSH1 0x40 PUSH2 0x149F DUP15 DUP3 DUP16 ADD PUSH2 0x101B JUMP JUMPDEST SWAP10 POP POP PUSH1 0x60 PUSH2 0x14B0 DUP15 DUP3 DUP16 ADD PUSH2 0x101B JUMP JUMPDEST SWAP9 POP POP PUSH1 0x80 PUSH2 0x14C1 DUP15 DUP3 DUP16 ADD PUSH2 0x101B JUMP JUMPDEST SWAP8 POP POP PUSH1 0xA0 PUSH2 0x14D2 DUP15 DUP3 DUP16 ADD PUSH2 0xFE5 JUMP JUMPDEST SWAP7 POP POP PUSH1 0xC0 PUSH2 0x14E3 DUP15 DUP3 DUP16 ADD PUSH2 0x101B JUMP JUMPDEST SWAP6 POP POP PUSH1 0xE0 PUSH2 0x14F4 DUP15 DUP3 DUP16 ADD PUSH2 0x13C5 JUMP JUMPDEST SWAP5 POP POP PUSH2 0x100 PUSH2 0x1506 DUP15 DUP3 DUP16 ADD PUSH2 0x13FE JUMP JUMPDEST SWAP4 POP POP PUSH2 0x120 PUSH2 0x1518 DUP15 DUP3 DUP16 ADD PUSH2 0x1434 JUMP JUMPDEST SWAP3 POP POP PUSH2 0x140 PUSH2 0x152A DUP15 DUP3 DUP16 ADD PUSH2 0x1434 JUMP JUMPDEST SWAP2 POP POP SWAP3 SWAP6 SWAP9 SWAP12 POP SWAP3 SWAP6 SWAP9 SWAP12 SWAP1 SWAP4 SWAP7 SWAP10 POP JUMP JUMPDEST PUSH1 0x0 DUP1 PUSH1 0x0 DUP1 PUSH1 0x0 DUP1 PUSH1 0x0 DUP1 PUSH1 0x0 DUP1 PUSH2 0x140 DUP12 DUP14 SUB SLT ISZERO PUSH2 0x1561 JUMPI PUSH2 0x1560 PUSH2 0xF92 JUMP JUMPDEST JUMPDEST PUSH1 0x0 PUSH2 0x156F DUP14 DUP3 DUP15 ADD PUSH2 0xFE5 JUMP JUMPDEST SWAP11 POP POP PUSH1 0x20 PUSH2 0x1580 DUP14 DUP3 DUP15 ADD PUSH2 0x101B JUMP JUMPDEST SWAP10 POP POP PUSH1 0x40 PUSH2 0x1591 DUP14 DUP3 DUP15 ADD PUSH2 0x101B JUMP JUMPDEST SWAP9 POP POP PUSH1 0x60 PUSH2 0x15A2 DUP14 DUP3 DUP15 ADD PUSH2 0x101B JUMP JUMPDEST SWAP8 POP POP PUSH1 0x80 PUSH2 0x15B3 DUP14 DUP3 DUP15 ADD PUSH2 0xFE5 JUMP JUMPDEST SWAP7 POP POP PUSH1 0xA0 PUSH2 0x15C4 DUP14 DUP3 DUP15 ADD PUSH2 0x101B JUMP JUMPDEST SWAP6 POP POP PUSH1 0xC0 PUSH2 0x15D5 DUP14 DUP3 DUP15 ADD PUSH2 0x13C5 JUMP JUMPDEST SWAP5 POP POP PUSH1 0xE0 PUSH2 0x15E6 DUP14 DUP3 DUP15 ADD PUSH2 0x13FE JUMP JUMPDEST SWAP4 POP POP PUSH2 0x100 PUSH2 0x15F8 DUP14 DUP3 DUP15 ADD PUSH2 0x1434 JUMP JUMPDEST SWAP3 POP POP PUSH2 0x120 PUSH2 0x160A DUP14 DUP3 DUP15 ADD PUSH2 0x1434 JUMP JUMPDEST SWAP2 POP POP SWAP3 SWAP6 SWAP9 SWAP12 SWAP2 SWAP5 SWAP8 SWAP11 POP SWAP3 SWAP6 SWAP9 POP JUMP JUMPDEST PUSH1 0x0 DUP1 PUSH1 0x0 DUP1 PUSH1 0x60 DUP6 DUP8 SUB SLT ISZERO PUSH2 0x1636 JUMPI PUSH2 0x1635 PUSH2 0xF92 JUMP JUMPDEST JUMPDEST PUSH1 0x0 DUP6 ADD CALLDATALOAD PUSH8 0xFFFFFFFFFFFFFFFF DUP2 GT ISZERO PUSH2 0x1654 JUMPI PUSH2 0x1653 PUSH2 0xF97 JUMP JUMPDEST JUMPDEST PUSH2 0x1660 DUP8 DUP3 DUP9 ADD PUSH2 0x1172 JUMP JUMPDEST SWAP5 POP SWAP5 POP POP PUSH1 0x20 PUSH2 0x1673 DUP8 DUP3 DUP9 ADD PUSH2 0x101B JUMP JUMPDEST SWAP3 POP POP PUSH1 0x40 PUSH2 0x1684 DUP8 DUP3 DUP9 ADD PUSH2 0x101B JUMP JUMPDEST SWAP2 POP POP SWAP3 SWAP6 SWAP2 SWAP5 POP SWAP3 POP JUMP JUMPDEST PUSH1 0x0 DUP1 PUSH1 0x0 DUP1 PUSH1 0x0 PUSH1 0x80 DUP7 DUP9 SUB SLT ISZERO PUSH2 0x16AC JUMPI PUSH2 0x16AB PUSH2 0xF92 JUMP JUMPDEST JUMPDEST PUSH1 0x0 PUSH2 0x16BA DUP9 DUP3 DUP10 ADD PUSH2 0x101B JUMP JUMPDEST SWAP6 POP POP PUSH1 0x20 DUP7 ADD CALLDATALOAD PUSH8 0xFFFFFFFFFFFFFFFF DUP2 GT ISZERO PUSH2 0x16DB JUMPI PUSH2 0x16DA PUSH2 0xF97 JUMP JUMPDEST JUMPDEST PUSH2 0x16E7 DUP9 DUP3 DUP10 ADD PUSH2 0x1172 JUMP JUMPDEST SWAP5 POP SWAP5 POP POP PUSH1 0x40 PUSH2 0x16FA DUP9 DUP3 DUP10 ADD PUSH2 0xFE5 JUMP JUMPDEST SWAP3 POP POP PUSH1 0x60 PUSH2 0x170B DUP9 DUP3 DUP10 ADD PUSH2 0x101B JUMP JUMPDEST SWAP2 POP POP SWAP3 SWAP6 POP SWAP3 SWAP6 SWAP1 SWAP4 POP JUMP JUMPDEST PUSH2 0x1721 DUP2 PUSH2 0xFBC JUMP JUMPDEST DUP3 MSTORE POP POP JUMP JUMPDEST PUSH1 0x0 PUSH1 0x20 DUP3 ADD SWAP1 POP PUSH2 0x173C PUSH1 0x0 DUP4 ADD DUP5 PUSH2 0x1718 JUMP JUMPDEST SWAP3 SWAP2 POP POP JUMP JUMPDEST PUSH1 0x0 DUP1 PUSH1 0x0 DUP1 PUSH1 0x0 DUP1 PUSH1 0x0 PUSH1 0xE0 DUP9 DUP11 SUB SLT ISZERO PUSH2 0x1761 JUMPI PUSH2 0x1760 PUSH2 0xF92 JUMP JUMPDEST JUMPDEST PUSH1 0x0 PUSH2 0x176F DUP11 DUP3 DUP12 ADD PUSH2 0xFE5 JUMP JUMPDEST SWAP8 POP POP PUSH1 0x20 PUSH2 0x1780 DUP11 DUP3 DUP12 ADD PUSH2 0xFE5 JUMP JUMPDEST SWAP7 POP POP PUSH1 0x40 PUSH2 0x1791 DUP11 DUP3 DUP12 ADD PUSH2 0x101B JUMP JUMPDEST SWAP6 POP POP PUSH1 0x60 PUSH2 0x17A2 DUP11 DUP3 DUP12 ADD PUSH2 0x101B JUMP JUMPDEST SWAP5 POP POP PUSH1 0x80 PUSH2 0x17B3 DUP11 DUP3 DUP12 ADD PUSH2 0x101B JUMP JUMPDEST SWAP4 POP POP PUSH1 0xA0 PUSH2 0x17C4 DUP11 DUP3 DUP12 ADD PUSH2 0xFE5 JUMP JUMPDEST SWAP3 POP POP PUSH1 0xC0 PUSH2 0x17D5 DUP11 DUP3 DUP12 ADD PUSH2 0x101B JUMP JUMPDEST SWAP2 POP POP SWAP3 SWAP6 SWAP9 SWAP2 SWAP5 SWAP8 POP SWAP3 SWAP6 POP JUMP JUMPDEST PUSH1 0x0 DUP1 PUSH1 0x0 DUP1 PUSH1 0x0 DUP1 PUSH1 0x0 DUP1 PUSH2 0x100 DUP10 DUP12 SUB SLT ISZERO PUSH2 0x1805 JUMPI PUSH2 0x1804 PUSH2 0xF92 JUMP JUMPDEST JUMPDEST PUSH1 0x0 PUSH2 0x1813 DUP12 DUP3 DUP13 ADD PUSH2 0xFE5 JUMP JUMPDEST SWAP9 POP POP PUSH1 0x20 PUSH2 0x1824 DUP12 DUP3 DUP13 ADD PUSH2 0xFE5 JUMP JUMPDEST SWAP8 POP POP PUSH1 0x40 PUSH2 0x1835 DUP12 DUP3 DUP13 ADD PUSH2 0x101B JUMP JUMPDEST SWAP7 POP POP PUSH1 0x60 PUSH2 0x1846 DUP12 DUP3 DUP13 ADD PUSH2 0x101B JUMP JUMPDEST SWAP6 POP POP PUSH1 0x80 PUSH2 0x1857 DUP12 DUP3 DUP13 ADD PUSH2 0x101B JUMP JUMPDEST SWAP5 POP POP PUSH1 0xA0 PUSH2 0x1868 DUP12 DUP3 DUP13 ADD PUSH2 0x101B JUMP JUMPDEST SWAP4 POP POP PUSH1 0xC0 PUSH2 0x1879 DUP12 DUP3 DUP13 ADD PUSH2 0xFE5 JUMP JUMPDEST SWAP3 POP POP PUSH1 0xE0 PUSH2 0x188A DUP12 DUP3 DUP13 ADD PUSH2 0x101B JUMP JUMPDEST SWAP2 POP POP SWAP3 SWAP6 SWAP9 POP SWAP3 SWAP6 SWAP9 SWAP1 SWAP4 SWAP7 POP JUMP JUMPDEST PUSH1 0x0 PUSH1 0x60 DUP3 ADD SWAP1 POP PUSH2 0x18AF PUSH1 0x0 DUP4 ADD DUP7 PUSH2 0x10BD JUMP JUMPDEST PUSH2 0x18BC PUSH1 0x20 DUP4 ADD DUP6 PUSH2 0x10BD JUMP JUMPDEST PUSH2 0x18C9 PUSH1 0x40 DUP4 ADD DUP5 PUSH2 0x10BD JUMP JUMPDEST SWAP5 SWAP4 POP POP POP POP JUMP JUMPDEST PUSH1 0x0 DUP3 DUP3 MSTORE PUSH1 0x20 DUP3 ADD SWAP1 POP SWAP3 SWAP2 POP POP JUMP JUMPDEST PUSH32 0x4E6F7420696D706C656D656E7465640000000000000000000000000000000000 PUSH1 0x0 DUP3 ADD MSTORE POP JUMP JUMPDEST PUSH1 0x0 PUSH2 0x1918 PUSH1 0xF DUP4 PUSH2 0x18D1 JUMP JUMPDEST SWAP2 POP PUSH2 0x1923 DUP3 PUSH2 0x18E2 JUMP JUMPDEST PUSH1 0x20 DUP3 ADD SWAP1 POP SWAP2 SWAP1 POP JUMP JUMPDEST PUSH1 0x0 PUSH1 0x20 DUP3 ADD SWAP1 POP DUP2 DUP2 SUB PUSH1 0x0 DUP4 ADD MSTORE PUSH2 0x1947 DUP2 PUSH2 0x190B JUMP JUMPDEST SWAP1 POP SWAP2 SWAP1 POP JUMP JUMPDEST PUSH32 0x4E487B7100000000000000000000000000000000000000000000000000000000 PUSH1 0x0 MSTORE PUSH1 0x41 PUSH1 0x4 MSTORE PUSH1 0x24 PUSH1 0x0 REVERT JUMPDEST PUSH32 0x4E487B7100000000000000000000000000000000000000000000000000000000 PUSH1 0x0 MSTORE PUSH1 0x32 PUSH1 0x4 MSTORE PUSH1 0x24 PUSH1 0x0 REVERT JUMPDEST PUSH1 0x0 DUP2 SWAP1 POP SWAP3 SWAP2 POP POP JUMP JUMPDEST PUSH1 0x0 DUP2 SWAP1 POP SWAP2 SWAP1 POP JUMP JUMPDEST PUSH2 0x19CA DUP2 PUSH2 0xFBC JUMP JUMPDEST DUP3 MSTORE POP POP JUMP JUMPDEST PUSH1 0x0 PUSH2 0x19DC DUP4 DUP4 PUSH2 0x19C1 JUMP JUMPDEST PUSH1 0x20 DUP4 ADD SWAP1 POP SWAP3 SWAP2 POP POP JUMP JUMPDEST PUSH1 0x0 PUSH2 0x19F7 PUSH1 0x20 DUP5 ADD DUP5 PUSH2 0xFE5 JUMP JUMPDEST SWAP1 POP SWAP3 SWAP2 POP POP JUMP JUMPDEST PUSH1 0x0 PUSH1 0x20 DUP3 ADD SWAP1 POP SWAP2 SWAP1 POP JUMP JUMPDEST PUSH1 0x0 PUSH2 0x1A18 DUP4 DUP6 PUSH2 0x19AC JUMP JUMPDEST SWAP4 POP PUSH2 0x1A23 DUP3 PUSH2 0x19B7 JUMP JUMPDEST DUP1 PUSH1 0x0 JUMPDEST DUP6 DUP2 LT ISZERO PUSH2 0x1A5C JUMPI PUSH2 0x1A39 DUP3 DUP5 PUSH2 0x19E8 JUMP JUMPDEST PUSH2 0x1A43 DUP9 DUP3 PUSH2 0x19D0 JUMP JUMPDEST SWAP8 POP PUSH2 0x1A4E DUP4 PUSH2 0x19FF JUMP JUMPDEST SWAP3 POP POP PUSH1 0x1 DUP2 ADD SWAP1 POP PUSH2 0x1A27 JUMP JUMPDEST POP DUP6 SWAP3 POP POP POP SWAP4 SWAP3 POP POP POP JUMP JUMPDEST PUSH1 0x0 DUP2 SWAP1 POP SWAP2 SWAP1 POP JUMP JUMPDEST PUSH2 0x1A84 PUSH2 0x1A7F DUP3 PUSH2 0xFFA JUMP JUMPDEST PUSH2 0x1A69 JUMP JUMPDEST DUP3 MSTORE POP POP JUMP JUMPDEST PUSH1 0x0 PUSH2 0x1A97 DUP3 DUP6 DUP8 PUSH2 0x1A0C JUMP JUMPDEST SWAP2 POP PUSH2 0x1AA3 DUP3 DUP5 PUSH2 0x1A73 JUMP JUMPDEST PUSH1 0x20 DUP3 ADD SWAP2 POP DUP2 SWAP1 POP SWAP5 SWAP4 POP POP POP POP JUMP JUMPDEST PUSH32 0x4D6F636B526F757465723A20494E53554646494349454E545F4F55545055545F PUSH1 0x0 DUP3 ADD MSTORE PUSH32 0x414D4F554E540000000000000000000000000000000000000000000000000000 PUSH1 0x20 DUP3 ADD MSTORE POP JUMP JUMPDEST PUSH1 0x0 PUSH2 0x1B10 PUSH1 0x26 DUP4 PUSH2 0x18D1 JUMP JUMPDEST SWAP2 POP PUSH2 0x1B1B DUP3 PUSH2 0x1AB4 JUMP JUMPDEST PUSH1 0x40 DUP3 ADD SWAP1 POP SWAP2 SWAP1 POP JUMP JUMPDEST PUSH1 0x0 PUSH1 0x20 DUP3 ADD SWAP1 POP DUP2 DUP2 SUB PUSH1 0x0 DUP4 ADD MSTORE PUSH2 0x1B3F DUP2 PUSH2 0x1B03 JUMP JUMPDEST SWAP1 POP SWAP2 SWAP1 POP JUMP JUMPDEST PUSH32 0x4D6F636B526F757465723A204558504952454400000000000000000000000000 PUSH1 0x0 DUP3 ADD MSTORE POP JUMP JUMPDEST PUSH1 0x0 PUSH2 0x1B7C PUSH1 0x13 DUP4 PUSH2 0x18D1 JUMP JUMPDEST SWAP2 POP PUSH2 0x1B87 DUP3 PUSH2 0x1B46 JUMP JUMPDEST PUSH1 0x20 DUP3 ADD SWAP1 POP SWAP2 SWAP1 POP JUMP JUMPDEST PUSH1 0x0 PUSH1 0x20 DUP3 ADD SWAP1 POP DUP2 DUP2 SUB PUSH1 0x0 DUP4 ADD MSTORE PUSH2 0x1BAB DUP2 PUSH2 0x1B6F JUMP JUMPDEST SWAP1 POP SWAP2 SWAP1 POP JUMP JUMPDEST PUSH1 0x0 PUSH1 0x20 DUP3 DUP5 SUB SLT ISZERO PUSH2 0x1BC8 JUMPI PUSH2 0x1BC7 PUSH2 0xF92 JUMP JUMPDEST JUMPDEST PUSH1 0x0 PUSH2 0x1BD6 DUP5 DUP3 DUP6 ADD PUSH2 0xFE5 JUMP JUMPDEST SWAP2 POP POP SWAP3 SWAP2 POP POP JUMP JUMPDEST PUSH1 0x0 PUSH1 0x60 DUP3 ADD SWAP1 POP PUSH2 0x1BF4 PUSH1 0x0 DUP4 ADD DUP7 PUSH2 0x1718 JUMP JUMPDEST PUSH2 0x1C01 PUSH1 0x20 DUP4 ADD DUP6 PUSH2 0x1718 JUMP JUMPDEST PUSH2 0x1C0E PUSH1 0x40 DUP4 ADD DUP5 PUSH2 0x10BD JUMP JUMPDEST SWAP5 SWAP4 POP POP POP POP JUMP JUMPDEST PUSH1 0x0 DUP2 MLOAD SWAP1 POP PUSH2 0x1C25 DUP2 PUSH2 0x13AE JUMP JUMPDEST SWAP3 SWAP2 POP POP JUMP JUMPDEST PUSH1 0x0 PUSH1 0x20 DUP3 DUP5 SUB SLT ISZERO PUSH2 0x1C41 JUMPI PUSH2 0x1C40 PUSH2 0xF92 JUMP JUMPDEST JUMPDEST PUSH1 0x0 PUSH2 0x1C4F DUP5 DUP3 DUP6 ADD PUSH2 0x1C16 JUMP JUMPDEST SWAP2 POP POP SWAP3 SWAP2 POP POP JUMP JUMPDEST PUSH1 0x0 PUSH1 0x40 DUP3 ADD SWAP1 POP PUSH2 0x1C6D PUSH1 0x0 DUP4 ADD DUP6 PUSH2 0x1718 JUMP JUMPDEST PUSH2 0x1C7A PUSH1 0x20 DUP4 ADD DUP5 PUSH2 0x10BD JUMP JUMPDEST SWAP4 SWAP3 POP POP POP JUMP INVALID LOG2 PUSH5 0x6970667358 0x22 SLT KECCAK256 0xCB 0xD7 0xF6 PUSH0 0xC4 SELFDESTRUCT PUSH3 0xBCC1D 0xBE BASEFEE 0xE2 DUP6 SWAP16 PUSH19 0x72CAE603AE556E0FE63AA264AEA0029C64736F PUSH13 0x63430008140033000000000000 "},"methodIdentifiers":{"WETH()":"ad5c4648","addLiquidity(address,address,uint256,uint256,uint256,uint256,address,uint256)":"e8e33700","addLiquidityETH(address,uint256,uint256,uint256,address,uint256)":"f305d719","factory()":"c45a0155","getAmountIn(uint256,uint256,uint256)":"85f8c259","getAmountOut(uint256,uint256,uint256)":"054d50d4","getAmountsIn(uint256,address[])":"1f00ca74","getAmountsOut(uint256,address[])":"d06ca61f","quote(uint256,uint256,uint256)":"ad615dec","removeLiquidity(address,address,uint256,uint256,uint256,address,uint256)":"baa2abde","removeLiquidityETH(address,uint256,uint256,uint256,address,uint256)":"02751cec","removeLiquidityETHSupportingFeeOnTransferTokens(address,uint256,uint256,uint256,address,uint256)":"af2979eb","removeLiquidityETHWithPermit(address,uint256,uint256,uint256,address,uint256,bool,uint8,bytes32,bytes32)":"ded9382a","removeLiquidityETHWithPermitSupportingFeeOnTransferTokens(address,uint256,uint256,uint256,address,uint256,bool,uint8,bytes32,bytes32)":"5b0d5984","removeLiquidityWithPermit(address,address,uint256,uint256,uint256,address,uint256,bool,uint8,bytes32,bytes32)":"2195995c","setAmountOut(address[],uint256,uint256)":"72fd499d","swapETHForExactTokens(uint256,address[],address,uint256)":"fb3bdb41","swapExactETHForTokens(uint256,address[],address,uint256)":"7ff36ab5","swapExactETHForTokensSupportingFeeOnTransferTokens(uint256,address[],address,uint256)":"b6f9de95","swapExactTokensForETH(uint256,uint256,address[],address,uint256)":"18cbafe5","swapExactTokensForETHSupportingFeeOnTransferTokens(uint256,uint256,address[],address,uint256)":"791ac947","swapExactTokensForTokens(uint256,uint256,address[],address,uint256)":"38ed1739","swapExactTokensForTokensSupportingFeeOnTransferTokens(uint256,uint256,address[],address,uint256)":"5c11d795","swapTokensForExactETH(uint256,uint256,address[],address,uint256)":"4a25d94a","swapTokensForExactTokens(uint256,uint256,address[],address,uint256)":"8803dbee"}}}}}