{
  "_format": "hh-sol-artifact-1",
  "contractName": "UniswapV2TwapOracle",
  "sourceName": "contracts/contracts/UniswapV2TwapOracle.sol",
  "abi": [
    {
      "inputs": [
        {
          "internalType": "address",
          "name": "_pair",
          "type": "address"
        }
      ],
      "stateMutability": "nonpayable",
      "type": "constructor"
    },
    {
      "inputs": [],
      "name": "blockTimestampLast",
      "outputs": [
        {
          "internalType": "uint32",
          "name": "",
          "type": "uint32"
        }
      ],
      "stateMutability": "view",
      "type": "function"
    },
    {
      "inputs": [
        {
          "internalType": "uint256",
          "name": "amountIn",
          "type": "uint256"
        }
      ],
      "name": "consult",
      "outputs": [
        {
          "internalType": "uint256",
          "name": "amountOut",
          "type": "uint256"
        }
      ],
      "stateMutability": "view",
      "type": "function"
    },
    {
      "inputs": [],
      "name": "owner",
      "outputs": [
        {
          "internalType": "address",
          "name": "",
          "type": "address"
        }
      ],
      "stateMutability": "view",
      "type": "function"
    },
    {
      "inputs": [],
      "name": "pair",
      "outputs": [
        {
          "internalType": "address",
          "name": "",
          "type": "address"
        }
      ],
      "stateMutability": "view",
      "type": "function"
    },
    {
      "inputs": [],
      "name": "priceCumulativeLast",
      "outputs": [
        {
          "internalType": "uint256",
          "name": "",
          "type": "uint256"
        }
      ],
      "stateMutability": "view",
      "type": "function"
    },
    {
      "inputs": [],
      "name": "update",
      "outputs": [],
      "stateMutability": "nonpayable",
      "type": "function"
    }
  ],
  "bytecode": "0x608060405234801561001057600080fd5b50604051610aa0380380610aa08339818101604052810190610032919061011c565b336000806101000a81548173ffffffffffffffffffffffffffffffffffffffff021916908373ffffffffffffffffffffffffffffffffffffffff16021790555080600160006101000a81548173ffffffffffffffffffffffffffffffffffffffff021916908373ffffffffffffffffffffffffffffffffffffffff16021790555050610149565b600080fd5b600073ffffffffffffffffffffffffffffffffffffffff82169050919050565b60006100e9826100be565b9050919050565b6100f9816100de565b811461010457600080fd5b50565b600081519050610116816100f0565b92915050565b600060208284031215610132576101316100b9565b5b600061014084828501610107565b91505092915050565b610948806101586000396000f3fe608060405234801561001057600080fd5b50600436106100625760003560e01c80632f43c1bc1461006757806361e25d83146100855780638da5cb5b146100b5578063a2e62045146100d3578063a8aa1b31146100dd578063c5700a02146100fb575b600080fd5b61006f610119565b60405161007c9190610542565b60405180910390f35b61009f600480360381019061009a919061058e565b61011f565b6040516100ac9190610542565b60405180910390f35b6100bd6102e3565b6040516100ca91906105fc565b60405180910390f35b6100db610307565b005b6100e56104ed565b6040516100f291906105fc565b60405180910390f35b610103610513565b6040516101109190610636565b60405180910390f35b60025481565b600080600160009054906101000a900473ffffffffffffffffffffffffffffffffffffffff1673ffffffffffffffffffffffffffffffffffffffff16635909c0d56040518163ffffffff1660e01b8152600401602060405180830381865afa15801561018f573d6000803e3d6000fd5b505050506040513d601f19601f820116820180604052508101906101b39190610666565b90506000600160009054906101000a900473ffffffffffffffffffffffffffffffffffffffff1673ffffffffffffffffffffffffffffffffffffffff16630902f1ac6040518163ffffffff1660e01b8152600401606060405180830381865afa158015610224573d6000803e3d6000fd5b505050506040513d601f19601f820116820180604052508101906102489190610705565b925050506000600360009054906101000a900463ffffffff168261026c9190610787565b905060008163ffffffff160361028857600093505050506102de565b60006002548461029891906107bf565b905060008263ffffffff16826102ae9190610822565b90506e01000000000000000000000000000087826102cc9190610853565b6102d69190610822565b955050505050505b919050565b60008054906101000a900473ffffffffffffffffffffffffffffffffffffffff1681565b60008054906101000a900473ffffffffffffffffffffffffffffffffffffffff1673ffffffffffffffffffffffffffffffffffffffff163373ffffffffffffffffffffffffffffffffffffffff1614610395576040517f08c379a000000000000000000000000000000000000000000000000000000000815260040161038c906108f2565b60405180910390fd5b6000600160009054906101000a900473ffffffffffffffffffffffffffffffffffffffff1673ffffffffffffffffffffffffffffffffffffffff16635909c0d56040518163ffffffff1660e01b8152600401602060405180830381865afa158015610404573d6000803e3d6000fd5b505050506040513d601f19601f820116820180604052508101906104289190610666565b90506000600160009054906101000a900473ffffffffffffffffffffffffffffffffffffffff1673ffffffffffffffffffffffffffffffffffffffff16630902f1ac6040518163ffffffff1660e01b8152600401606060405180830381865afa158015610499573d6000803e3d6000fd5b505050506040513d601f19601f820116820180604052508101906104bd9190610705565b925050508160028190555080600360006101000a81548163ffffffff021916908363ffffffff1602179055505050565b600160009054906101000a900473ffffffffffffffffffffffffffffffffffffffff1681565b600360009054906101000a900463ffffffff1681565b6000819050919050565b61053c81610529565b82525050565b60006020820190506105576000830184610533565b92915050565b600080fd5b61056b81610529565b811461057657600080fd5b50565b60008135905061058881610562565b92915050565b6000602082840312156105a4576105a361055d565b5b60006105b284828501610579565b91505092915050565b600073ffffffffffffffffffffffffffffffffffffffff82169050919050565b60006105e6826105bb565b9050919050565b6105f6816105db565b82525050565b600060208201905061061160008301846105ed565b92915050565b600063ffffffff82169050919050565b61063081610617565b82525050565b600060208201905061064b6000830184610627565b92915050565b60008151905061066081610562565b92915050565b60006020828403121561067c5761067b61055d565b5b600061068a84828501610651565b91505092915050565b60006dffffffffffffffffffffffffffff82169050919050565b6106b681610693565b81146106c157600080fd5b50565b6000815190506106d3816106ad565b92915050565b6106e281610617565b81146106ed57600080fd5b50565b6000815190506106ff816106d9565b92915050565b60008060006060848603121561071e5761071d61055d565b5b600061072c868287016106c4565b935050602061073d868287016106c4565b925050604061074e868287016106f0565b9150509250925092565b7f4e487b7100000000000000000000000000000000000000000000000000000000600052601160045260246000fd5b600061079282610617565b915061079d83610617565b9250828203905063ffffffff8111156107b9576107b8610758565b5b92915050565b60006107ca82610529565b91506107d583610529565b92508282039050818111156107ed576107ec610758565b5b92915050565b7f4e487b7100000000000000000000000000000000000000000000000000000000600052601260045260246000fd5b600061082d82610529565b915061083883610529565b925082610848576108476107f3565b5b828204905092915050565b600061085e82610529565b915061086983610529565b925082820261087781610529565b9150828204841483151761088e5761088d610758565b5b5092915050565b600082825260208201905092915050565b7f6f6e6c79206f776e657200000000000000000000000000000000000000000000600082015250565b60006108dc600a83610895565b91506108e7826108a6565b602082019050919050565b6000602082019050818103600083015261090b816108cf565b905091905056fea264697066735822122078b48623525a26439243e72e2510730a58508f107f8d33c75a59b6d78740c22d64736f6c63430008140033",
  "linkReferences": {},
  "deployedLinkReferences": {}
}