{"abi":[{"type":"constructor","inputs":[{"name":"initialOwner","type":"address","internalType":"address"}],"stateMutability":"nonpayable"},{"type":"function","name":"_executeSwaps","inputs":[{"name":"_swaps","type":"tuple[]","internalType":"struct Swap[]","components":[{"name":"router","type":"address","internalType":"address"},{"name":"tokenIn","type":"address","internalType":"address"},{"name":"tokenOut","type":"address","internalType":"address"},{"name":"dexType","type":"uint8","internalType":"enum DexType"},{"name":"amountIn","type":"uint256","internalType":"uint256"},{"name":"amountOut","type":"uint256","internalType":"uint256"},{"name":"fee","type":"uint24","internalType":"uint24"}]},{"name":"_initialAmount","type":"uint256","internalType":"uint256"}],"outputs":[],"stateMutability":"nonpayable"},{"type":"function","name":"owner","inputs":[],"outputs":[{"name":"","type":"address","internalType":"address"}],"stateMutability":"view"},{"type":"function","name":"renounceOwnership","inputs":[],"outputs":[],"stateMutability":"nonpayable"},{"type":"function","name":"transferOwnership","inputs":[{"name":"newOwner","type":"address","internalType":"address"}],"outputs":[],"stateMutability":"nonpayable"},{"type":"event","name":"OwnershipTransferred","inputs":[{"name":"previousOwner","type":"address","indexed":true,"internalType":"address"},{"name":"newOwner","type":"address","indexed":true,"internalType":"address"}],"anonymous":false},{"type":"event","name":"SwapAttempt","inputs":[{"name":"tokenIn","type":"address","indexed":true,"internalType":"address"},{"name":"tokenOut","type":"address","indexed":true,"internalType":"address"},{"name":"fee","type":"uint24","indexed":false,"internalType":"uint24"}],"anonymous":false},{"type":"event","name":"SwapSuccess","inputs":[{"name":"tokenIn","type":"address","indexed":true,"internalType":"address"},{"name":"tokenOut","type":"address","indexed":true,"internalType":"address"},{"name":"fee","type":"uint24","indexed":false,"internalType":"uint24"},{"name":"amountOut","type":"uint256","indexed":false,"internalType":"uint256"}],"anonymous":false},{"type":"error","name":"OwnableInvalidOwner","inputs":[{"name":"owner","type":"address","internalType":"address"}]},{"type":"error","name":"OwnableUnauthorizedAccount","inputs":[{"name":"account","type":"address","internalType":"address"}]},{"type":"error","name":"SwapFailed","inputs":[]}],"bytecode":{"object":"0x608060405234801561000f575f5ffd5b50604051610e43380380610e43833981810160405281019061003191906101d7565b805f73ffffffffffffffffffffffffffffffffffffffff168173ffffffffffffffffffffffffffffffffffffffff16036100a2575f6040517f1e4fbdf70000000000000000000000000000000000000000000000000000000081526004016100999190610211565b60405180910390fd5b6100b1816100b860201b60201c565b505061022a565b5f5f5f9054906101000a900473ffffffffffffffffffffffffffffffffffffffff169050815f5f6101000a81548173ffffffffffffffffffffffffffffffffffffffff021916908373ffffffffffffffffffffffffffffffffffffffff1602179055508173ffffffffffffffffffffffffffffffffffffffff168173ffffffffffffffffffffffffffffffffffffffff167f8be0079c531659141344cd1fd0a4f28419497f9722a3daafe3b4186f6b6457e060405160405180910390a35050565b5f5ffd5b5f73ffffffffffffffffffffffffffffffffffffffff82169050919050565b5f6101a68261017d565b9050919050565b6101b68161019c565b81146101c0575f5ffd5b50565b5f815190506101d1816101ad565b92915050565b5f602082840312156101ec576101eb610179565b5b5f6101f9848285016101c3565b91505092915050565b61020b8161019c565b82525050565b5f6020820190506102245f830184610202565b92915050565b610c0c806102375f395ff3fe608060405234801561000f575f5ffd5b506004361061004a575f3560e01c80635074ce8b1461004e578063715018a61461006a5780638da5cb5b14610074578063f2fde38b14610092575b5f5ffd5b610068600480360381019061006391906108e2565b6100ae565b005b61007261012e565b005b61007c610141565b604051610089919061094b565b60405180910390f35b6100ac60048036038101906100a79190610964565b610168565b005b5f8190505f5f90505b8351811015610128575f8482815181106100d4576100d361098f565b5b602002602001015190505f5f8260800151116100f057836100f6565b81608001515b9050610117825f0151836020015184604001518560c00151855f30426101ec565b9350505080806001019150506100b7565b50505050565b610136610414565b61013f5f61049b565b565b5f5f5f9054906101000a900473ffffffffffffffffffffffffffffffffffffffff16905090565b610170610414565b5f73ffffffffffffffffffffffffffffffffffffffff168173ffffffffffffffffffffffffffffffffffffffff16036101e0575f6040517f1e4fbdf70000000000000000000000000000000000000000000000000000000081526004016101d7919061094b565b60405180910390fd5b6101e98161049b565b50565b5f6101f8888a8761055c565b8673ffffffffffffffffffffffffffffffffffffffff168873ffffffffffffffffffffffffffffffffffffffff167f6abc1c618bf936356ebe25be6357ce151482b5bfe1e750b919637c2f782791998860405161025591906109cb565b60405180910390a38873ffffffffffffffffffffffffffffffffffffffff1663414bf3896040518061010001604052808b73ffffffffffffffffffffffffffffffffffffffff1681526020018a73ffffffffffffffffffffffffffffffffffffffff1681526020018962ffffff1681526020018673ffffffffffffffffffffffffffffffffffffffff1681526020018581526020018881526020018781526020015f73ffffffffffffffffffffffffffffffffffffffff168152506040518263ffffffff1660e01b815260040161032c9190610ac0565b6020604051808303815f875af192505050801561036757506040513d601f19601f820116820180604052508101906103649190610aee565b60015b61039d576040517f81ceff3000000000000000000000000000000000000000000000000000000000815260040160405180910390fd5b8773ffffffffffffffffffffffffffffffffffffffff168973ffffffffffffffffffffffffffffffffffffffff167f05d42d49d9977a7df1e51e4b685c2c92ef6561ae695c8cbeb188dd60804b665289846040516103fc929190610b28565b60405180910390a38091505098975050505050505050565b61041c6105dd565b73ffffffffffffffffffffffffffffffffffffffff1661043a610141565b73ffffffffffffffffffffffffffffffffffffffff16146104995761045d6105dd565b6040517f118cdaa7000000000000000000000000000000000000000000000000000000008152600401610490919061094b565b60405180910390fd5b565b5f5f5f9054906101000a900473ffffffffffffffffffffffffffffffffffffffff169050815f5f6101000a81548173ffffffffffffffffffffffffffffffffffffffff021916908373ffffffffffffffffffffffffffffffffffffffff1602179055508173ffffffffffffffffffffffffffffffffffffffff168173ffffffffffffffffffffffffffffffffffffffff167f8be0079c531659141344cd1fd0a4f28419497f9722a3daafe3b4186f6b6457e060405160405180910390a35050565b8273ffffffffffffffffffffffffffffffffffffffff1663095ea7b383836040518363ffffffff1660e01b8152600401610597929190610b4f565b6020604051808303815f875af11580156105b3573d5f5f3e3d5ffd5b505050506040513d601f19601f820116820180604052508101906105d79190610bab565b50505050565b5f33905090565b5f604051905090565b5f5ffd5b5f5ffd5b5f5ffd5b5f601f19601f8301169050919050565b7f4e487b71000000000000000000000000000000000000000000000000000000005f52604160045260245ffd5b61063f826105f9565b810181811067ffffffffffffffff8211171561065e5761065d610609565b5b80604052505050565b5f6106706105e4565b905061067c8282610636565b919050565b5f67ffffffffffffffff82111561069b5761069a610609565b5b602082029050602081019050919050565b5f5ffd5b5f5ffd5b5f73ffffffffffffffffffffffffffffffffffffffff82169050919050565b5f6106dd826106b4565b9050919050565b6106ed816106d3565b81146106f7575f5ffd5b50565b5f81359050610708816106e4565b92915050565b6001811061071a575f5ffd5b50565b5f8135905061072b8161070e565b92915050565b5f819050919050565b61074381610731565b811461074d575f5ffd5b50565b5f8135905061075e8161073a565b92915050565b5f62ffffff82169050919050565b61077b81610764565b8114610785575f5ffd5b50565b5f8135905061079681610772565b92915050565b5f60e082840312156107b1576107b06106b0565b5b6107bb60e0610667565b90505f6107ca848285016106fa565b5f8301525060206107dd848285016106fa565b60208301525060406107f1848285016106fa565b60408301525060606108058482850161071d565b606083015250608061081984828501610750565b60808301525060a061082d84828501610750565b60a08301525060c061084184828501610788565b60c08301525092915050565b5f61085f61085a84610681565b610667565b90508083825260208201905060e08402830185811115610882576108816106ac565b5b835b818110156108ab5780610897888261079c565b84526020840193505060e081019050610884565b5050509392505050565b5f82601f8301126108c9576108c86105f5565b5b81356108d984826020860161084d565b91505092915050565b5f5f604083850312156108f8576108f76105ed565b5b5f83013567ffffffffffffffff811115610915576109146105f1565b5b610921858286016108b5565b925050602061093285828601610750565b9150509250929050565b610945816106d3565b82525050565b5f60208201905061095e5f83018461093c565b92915050565b5f60208284031215610979576109786105ed565b5b5f610986848285016106fa565b91505092915050565b7f4e487b71000000000000000000000000000000000000000000000000000000005f52603260045260245ffd5b6109c581610764565b82525050565b5f6020820190506109de5f8301846109bc565b92915050565b6109ed816106d3565b82525050565b6109fc81610764565b82525050565b610a0b81610731565b82525050565b610a1a816106b4565b82525050565b61010082015f820151610a355f8501826109e4565b506020820151610a4860208501826109e4565b506040820151610a5b60408501826109f3565b506060820151610a6e60608501826109e4565b506080820151610a816080850182610a02565b5060a0820151610a9460a0850182610a02565b5060c0820151610aa760c0850182610a02565b5060e0820151610aba60e0850182610a11565b50505050565b5f61010082019050610ad45f830184610a20565b92915050565b5f81519050610ae88161073a565b92915050565b5f60208284031215610b0357610b026105ed565b5b5f610b1084828501610ada565b91505092915050565b610b2281610731565b82525050565b5f604082019050610b3b5f8301856109bc565b610b486020830184610b19565b9392505050565b5f604082019050610b625f83018561093c565b610b6f6020830184610b19565b9392505050565b5f8115159050919050565b610b8a81610b76565b8114610b94575f5ffd5b50565b5f81519050610ba581610b81565b92915050565b5f60208284031215610bc057610bbf6105ed565b5b5f610bcd84828501610b97565b9150509291505056fea26469706673582212209dc892329ffec89d6226a82eed55f429805b06f8585fd30e6f68bdafb06de29564736f6c634300081e0033","linkReferences":{}},"methodIdentifiers":{"_executeSwaps((address,address,address,uint8,uint256,uint256,uint24)[],uint256)":"5074ce8b","owner()":"8da5cb5b","renounceOwnership()":"715018a6","transferOwnership(address)":"f2fde38b"},"id":1}