{"abi":[{"type":"constructor","inputs":[{"name":"initialOwner","type":"address","internalType":"address"}],"stateMutability":"nonpayable"},{"type":"function","name":"_executeSwaps","inputs":[{"name":"_swaps","type":"tuple[]","internalType":"struct Swap[]","components":[{"name":"router","type":"address","internalType":"address"},{"name":"pools","type":"address[]","internalType":"address[]"},{"name":"tokenIn","type":"address","internalType":"address"},{"name":"tokenOut","type":"address","internalType":"address"},{"name":"dexType","type":"uint8","internalType":"enum DexType"},{"name":"amountIn","type":"uint256","internalType":"uint256"},{"name":"amountOut","type":"uint256","internalType":"uint256"},{"name":"factory","type":"address","internalType":"address"}]},{"name":"_initialAmount","type":"uint256","internalType":"uint256"}],"outputs":[],"stateMutability":"nonpayable"},{"type":"function","name":"owner","inputs":[],"outputs":[{"name":"","type":"address","internalType":"address"}],"stateMutability":"view"},{"type":"function","name":"renounceOwnership","inputs":[],"outputs":[],"stateMutability":"nonpayable"},{"type":"function","name":"transferOwnership","inputs":[{"name":"newOwner","type":"address","internalType":"address"}],"outputs":[],"stateMutability":"nonpayable"},{"type":"event","name":"OwnershipTransferred","inputs":[{"name":"previousOwner","type":"address","indexed":true,"internalType":"address"},{"name":"newOwner","type":"address","indexed":true,"internalType":"address"}],"anonymous":false},{"type":"event","name":"SwapAttempt","inputs":[{"name":"tokenIn","type":"address","indexed":true,"internalType":"address"},{"name":"tokenOut","type":"address","indexed":true,"internalType":"address"},{"name":"fee","type":"uint24","indexed":false,"internalType":"uint24"}],"anonymous":false},{"type":"event","name":"SwapSuccess","inputs":[{"name":"tokenIn","type":"address","indexed":true,"internalType":"address"},{"name":"tokenOut","type":"address","indexed":true,"internalType":"address"},{"name":"fee","type":"uint24","indexed":false,"internalType":"uint24"},{"name":"amountOut","type":"uint256","indexed":false,"internalType":"uint256"}],"anonymous":false},{"type":"error","name":"OwnableInvalidOwner","inputs":[{"name":"owner","type":"address","internalType":"address"}]},{"type":"error","name":"OwnableUnauthorizedAccount","inputs":[{"name":"account","type":"address","internalType":"address"}]},{"type":"error","name":"SwapFailed","inputs":[]}],"bytecode":{"object":"0x608060405234801561000f575f5ffd5b50604051611667380380611667833981810160405281019061003191906101d7565b805f73ffffffffffffffffffffffffffffffffffffffff168173ffffffffffffffffffffffffffffffffffffffff16036100a2575f6040517f1e4fbdf70000000000000000000000000000000000000000000000000000000081526004016100999190610211565b60405180910390fd5b6100b1816100b860201b60201c565b505061022a565b5f5f5f9054906101000a900473ffffffffffffffffffffffffffffffffffffffff169050815f5f6101000a81548173ffffffffffffffffffffffffffffffffffffffff021916908373ffffffffffffffffffffffffffffffffffffffff1602179055508173ffffffffffffffffffffffffffffffffffffffff168173ffffffffffffffffffffffffffffffffffffffff167f8be0079c531659141344cd1fd0a4f28419497f9722a3daafe3b4186f6b6457e060405160405180910390a35050565b5f5ffd5b5f73ffffffffffffffffffffffffffffffffffffffff82169050919050565b5f6101a68261017d565b9050919050565b6101b68161019c565b81146101c0575f5ffd5b50565b5f815190506101d1816101ad565b92915050565b5f602082840312156101ec576101eb610179565b5b5f6101f9848285016101c3565b91505092915050565b61020b8161019c565b82525050565b5f6020820190506102245f830184610202565b92915050565b611430806102375f395ff3fe608060405234801561000f575f5ffd5b506004361061004a575f3560e01c8063715018a61461004e5780638da5cb5b14610058578063c30f5a8b14610076578063f2fde38b14610092575b5f5ffd5b6100566100ae565b005b6100606100c1565b60405161006d9190610b74565b60405180910390f35b610090600480360381019061008b9190610f37565b6100e8565b005b6100ac60048036038101906100a79190610f91565b610256565b005b6100b66102da565b6100bf5f610361565b565b5f5f5f9054906101000a900473ffffffffffffffffffffffffffffffffffffffff16905090565b5f8190505f5f90505b8351811015610250575f84828151811061010e5761010d610fbc565b5b602002602001015190505f5f8260a001511161012a5783610130565b8160a001515b90505f600281111561014557610144610fe9565b5b8260800151600281111561015c5761015b610fe9565b5b148061019057506001600281111561017757610176610fe9565b5b8260800151600281111561018e5761018d610fe9565b5b145b156101d5576101ce825f015183602001515f815181106101b3576101b2610fbc565b5b602002602001015184604001518560600151855f3042610422565b9350610241565b6002808111156101e8576101e7610fe9565b5b826080015160028111156101ff576101fe610fe9565b5b036102405761023d825f015183602001515f8151811061022257610221610fbc565b5b602002602001015184604001518560600151855f30426106f4565b93505b5b505080806001019150506100f1565b50505050565b61025e6102da565b5f73ffffffffffffffffffffffffffffffffffffffff168173ffffffffffffffffffffffffffffffffffffffff16036102ce575f6040517f1e4fbdf70000000000000000000000000000000000000000000000000000000081526004016102c59190610b74565b60405180910390fd5b6102d781610361565b50565b6102e26109c6565b73ffffffffffffffffffffffffffffffffffffffff166103006100c1565b73ffffffffffffffffffffffffffffffffffffffff161461035f576103236109c6565b6040517f118cdaa70000000000000000000000000000000000000000000000000000000081526004016103569190610b74565b60405180910390fd5b565b5f5f5f9054906101000a900473ffffffffffffffffffffffffffffffffffffffff169050815f5f6101000a81548173ffffffffffffffffffffffffffffffffffffffff021916908373ffffffffffffffffffffffffffffffffffffffff1602179055508173ffffffffffffffffffffffffffffffffffffffff168173ffffffffffffffffffffffffffffffffffffffff167f8be0079c531659141344cd1fd0a4f28419497f9722a3daafe3b4186f6b6457e060405160405180910390a35050565b5f61042e878a876109cd565b5f8873ffffffffffffffffffffffffffffffffffffffff1663ddca3f436040518163ffffffff1660e01b8152600401602060405180830381865afa158015610478573d5f5f3e3d5ffd5b505050506040513d601f19601f8201168201806040525081019061049c919061104e565b90508673ffffffffffffffffffffffffffffffffffffffff168873ffffffffffffffffffffffffffffffffffffffff167f6abc1c618bf936356ebe25be6357ce151482b5bfe1e750b919637c2f78279199836040516104fb9190611088565b60405180910390a38973ffffffffffffffffffffffffffffffffffffffff1663414bf3896040518061010001604052808b73ffffffffffffffffffffffffffffffffffffffff1681526020018a73ffffffffffffffffffffffffffffffffffffffff1681526020018462ffffff1681526020018773ffffffffffffffffffffffffffffffffffffffff1681526020018681526020018981526020018881526020015f73ffffffffffffffffffffffffffffffffffffffff168152506040518263ffffffff1660e01b81526004016105d2919061117d565b6020604051808303815f875af192505050801561060d57506040513d601f19601f8201168201806040525081019061060a91906111ab565b60015b61067c573d805f811461063b576040519150601f19603f3d011682016040523d82523d5f602084013e610640565b606091505b5061064a81610a4e565b6040517f81ceff3000000000000000000000000000000000000000000000000000000000815260040160405180910390fd5b8773ffffffffffffffffffffffffffffffffffffffff168973ffffffffffffffffffffffffffffffffffffffff167f05d42d49d9977a7df1e51e4b685c2c92ef6561ae695c8cbeb188dd60804b665284846040516106db9291906111e5565b60405180910390a3809250505098975050505050505050565b5f610700878a876109cd565b5f8873ffffffffffffffffffffffffffffffffffffffff1663ddca3f436040518163ffffffff1660e01b8152600401602060405180830381865afa15801561074a573d5f5f3e3d5ffd5b505050506040513d601f19601f8201168201806040525081019061076e919061104e565b90508673ffffffffffffffffffffffffffffffffffffffff168873ffffffffffffffffffffffffffffffffffffffff167f6abc1c618bf936356ebe25be6357ce151482b5bfe1e750b919637c2f78279199836040516107cd9190611088565b60405180910390a38973ffffffffffffffffffffffffffffffffffffffff1663414bf3896040518061010001604052808b73ffffffffffffffffffffffffffffffffffffffff1681526020018a73ffffffffffffffffffffffffffffffffffffffff1681526020018462ffffff1681526020018773ffffffffffffffffffffffffffffffffffffffff1681526020018681526020018981526020018881526020015f73ffffffffffffffffffffffffffffffffffffffff168152506040518263ffffffff1660e01b81526004016108a491906112ac565b6020604051808303815f875af19250505080156108df57506040513d601f19601f820116820180604052508101906108dc91906111ab565b60015b61094e573d805f811461090d576040519150601f19603f3d011682016040523d82523d5f602084013e610912565b606091505b5061091c81610a4e565b6040517f81ceff3000000000000000000000000000000000000000000000000000000000815260040160405180910390fd5b8773ffffffffffffffffffffffffffffffffffffffff168973ffffffffffffffffffffffffffffffffffffffff167f05d42d49d9977a7df1e51e4b685c2c92ef6561ae695c8cbeb188dd60804b665284846040516109ad9291906111e5565b60405180910390a3809250505098975050505050505050565b5f33905090565b8273ffffffffffffffffffffffffffffffffffffffff1663095ea7b383836040518363ffffffff1660e01b8152600401610a089291906112c6565b6020604051808303815f875af1158015610a24573d5f5f3e3d5ffd5b505050506040513d601f19601f82011682018060405250810190610a489190611322565b50505050565b610ae481604051602401610a6291906113ad565b6040516020818303038152906040527f41304fac000000000000000000000000000000000000000000000000000000007bffffffffffffffffffffffffffffffffffffffffffffffffffffffff19166020820180517bffffffffffffffffffffffffffffffffffffffffffffffffffffffff8381831617835250505050610ae7565b50565b610afe81610af6610b01610b20565b63ffffffff16565b50565b5f6a636f6e736f6c652e6c6f6790505f5f835160208501845afa505050565b610b2b819050919050565b610b336113cd565b565b5f73ffffffffffffffffffffffffffffffffffffffff82169050919050565b5f610b5e82610b35565b9050919050565b610b6e81610b54565b82525050565b5f602082019050610b875f830184610b65565b92915050565b5f604051905090565b5f5ffd5b5f5ffd5b5f5ffd5b5f601f19601f8301169050919050565b7f4e487b71000000000000000000000000000000000000000000000000000000005f52604160045260245ffd5b610be882610ba2565b810181811067ffffffffffffffff82111715610c0757610c06610bb2565b5b80604052505050565b5f610c19610b8d565b9050610c258282610bdf565b919050565b5f67ffffffffffffffff821115610c4457610c43610bb2565b5b602082029050602081019050919050565b5f5ffd5b5f5ffd5b5f5ffd5b610c6a81610b54565b8114610c74575f5ffd5b50565b5f81359050610c8581610c61565b92915050565b5f67ffffffffffffffff821115610ca557610ca4610bb2565b5b602082029050602081019050919050565b5f610cc8610cc384610c8b565b610c10565b90508083825260208201905060208402830185811115610ceb57610cea610c55565b5b835b81811015610d145780610d008882610c77565b845260208401935050602081019050610ced565b5050509392505050565b5f82601f830112610d3257610d31610b9e565b5b8135610d42848260208601610cb6565b91505092915050565b60038110610d57575f5ffd5b50565b5f81359050610d6881610d4b565b92915050565b5f819050919050565b610d8081610d6e565b8114610d8a575f5ffd5b50565b5f81359050610d9b81610d77565b92915050565b5f6101008284031215610db757610db6610c59565b5b610dc2610100610c10565b90505f610dd184828501610c77565b5f83015250602082013567ffffffffffffffff811115610df457610df3610c5d565b5b610e0084828501610d1e565b6020830152506040610e1484828501610c77565b6040830152506060610e2884828501610c77565b6060830152506080610e3c84828501610d5a565b60808301525060a0610e5084828501610d8d565b60a08301525060c0610e6484828501610d8d565b60c08301525060e0610e7884828501610c77565b60e08301525092915050565b5f610e96610e9184610c2a565b610c10565b90508083825260208201905060208402830185811115610eb957610eb8610c55565b5b835b81811015610f0057803567ffffffffffffffff811115610ede57610edd610b9e565b5b808601610eeb8982610da1565b85526020850194505050602081019050610ebb565b5050509392505050565b5f82601f830112610f1e57610f1d610b9e565b5b8135610f2e848260208601610e84565b91505092915050565b5f5f60408385031215610f4d57610f4c610b96565b5b5f83013567ffffffffffffffff811115610f6a57610f69610b9a565b5b610f7685828601610f0a565b9250506020610f8785828601610d8d565b9150509250929050565b5f60208284031215610fa657610fa5610b96565b5b5f610fb384828501610c77565b91505092915050565b7f4e487b71000000000000000000000000000000000000000000000000000000005f52603260045260245ffd5b7f4e487b71000000000000000000000000000000000000000000000000000000005f52602160045260245ffd5b5f62ffffff82169050919050565b61102d81611016565b8114611037575f5ffd5b50565b5f8151905061104881611024565b92915050565b5f6020828403121561106357611062610b96565b5b5f6110708482850161103a565b91505092915050565b61108281611016565b82525050565b5f60208201905061109b5f830184611079565b92915050565b6110aa81610b54565b82525050565b6110b981611016565b82525050565b6110c881610d6e565b82525050565b6110d781610b35565b82525050565b61010082015f8201516110f25f8501826110a1565b50602082015161110560208501826110a1565b50604082015161111860408501826110b0565b50606082015161112b60608501826110a1565b50608082015161113e60808501826110bf565b5060a082015161115160a08501826110bf565b5060c082015161116460c08501826110bf565b5060e082015161117760e08501826110ce565b50505050565b5f610100820190506111915f8301846110dd565b92915050565b5f815190506111a581610d77565b92915050565b5f602082840312156111c0576111bf610b96565b5b5f6111cd84828501611197565b91505092915050565b6111df81610d6e565b82525050565b5f6040820190506111f85f830185611079565b61120560208301846111d6565b9392505050565b61010082015f8201516112215f8501826110a1565b50602082015161123460208501826110a1565b50604082015161124760408501826110b0565b50606082015161125a60608501826110a1565b50608082015161126d60808501826110bf565b5060a082015161128060a08501826110bf565b5060c082015161129360c08501826110bf565b5060e08201516112a660e08501826110ce565b50505050565b5f610100820190506112c05f83018461120c565b92915050565b5f6040820190506112d95f830185610b65565b6112e660208301846111d6565b9392505050565b5f8115159050919050565b611301816112ed565b811461130b575f5ffd5b50565b5f8151905061131c816112f8565b92915050565b5f6020828403121561133757611336610b96565b5b5f6113448482850161130e565b91505092915050565b5f81519050919050565b5f82825260208201905092915050565b8281835e5f83830152505050565b5f61137f8261134d565b6113898185611357565b9350611399818560208601611367565b6113a281610ba2565b840191505092915050565b5f6020820190508181035f8301526113c58184611375565b905092915050565b7f4e487b71000000000000000000000000000000000000000000000000000000005f52605160045260245ffdfea2646970667358221220cb78bbd5def0892449c18a72b55f08dc28df749b849372041fd803c0f3473a3664736f6c634300081e0033","linkReferences":{}},"methodIdentifiers":{"_executeSwaps((address,address[],address,address,uint8,uint256,uint256,address)[],uint256)":"c30f5a8b","owner()":"8da5cb5b","renounceOwnership()":"715018a6","transferOwnership(address)":"f2fde38b"},"id":1}