{"abi":[{"type":"function","name":"WETH","inputs":[],"outputs":[{"name":"","type":"address","internalType":"address"}],"stateMutability":"pure"},{"type":"function","name":"addLiquidity","inputs":[{"name":"tokenA","type":"address","internalType":"address"},{"name":"tokenB","type":"address","internalType":"address"},{"name":"amountADesired","type":"uint256","internalType":"uint256"},{"name":"amountBDesired","type":"uint256","internalType":"uint256"},{"name":"","type":"uint256","internalType":"uint256"},{"name":"","type":"uint256","internalType":"uint256"},{"name":"","type":"address","internalType":"address"},{"name":"","type":"uint256","internalType":"uint256"}],"outputs":[{"name":"","type":"uint256","internalType":"uint256"},{"name":"","type":"uint256","internalType":"uint256"},{"name":"","type":"uint256","internalType":"uint256"}],"stateMutability":"nonpayable"},{"type":"function","name":"addLiquidityETH","inputs":[{"name":"token","type":"address","internalType":"address"},{"name":"amountTokenDesired","type":"uint256","internalType":"uint256"},{"name":"amountTokenMin","type":"uint256","internalType":"uint256"},{"name":"amountETHMin","type":"uint256","internalType":"uint256"},{"name":"to","type":"address","internalType":"address"},{"name":"deadline","type":"uint256","internalType":"uint256"}],"outputs":[{"name":"","type":"uint256","internalType":"uint256"},{"name":"","type":"uint256","internalType":"uint256"},{"name":"","type":"uint256","internalType":"uint256"}],"stateMutability":"payable"},{"type":"function","name":"factory","inputs":[],"outputs":[{"name":"","type":"address","internalType":"address"}],"stateMutability":"pure"},{"type":"function","name":"getAmountIn","inputs":[{"name":"amountOut","type":"uint256","internalType":"uint256"},{"name":"reserveIn","type":"uint256","internalType":"uint256"},{"name":"reserveOut","type":"uint256","internalType":"uint256"}],"outputs":[{"name":"amountIn","type":"uint256","internalType":"uint256"}],"stateMutability":"pure"},{"type":"function","name":"getAmountOut","inputs":[{"name":"amountIn","type":"uint256","internalType":"uint256"},{"name":"reserveIn","type":"uint256","internalType":"uint256"},{"name":"reserveOut","type":"uint256","internalType":"uint256"}],"outputs":[{"name":"amountOut","type":"uint256","internalType":"uint256"}],"stateMutability":"pure"},{"type":"function","name":"getAmountsIn","inputs":[{"name":"amountOut","type":"uint256","internalType":"uint256"},{"name":"path","type":"address[]","internalType":"address[]"}],"outputs":[{"name":"amounts","type":"uint256[]","internalType":"uint256[]"}],"stateMutability":"view"},{"type":"function","name":"getAmountsOut","inputs":[{"name":"amountIn","type":"uint256","internalType":"uint256"},{"name":"path","type":"address[]","internalType":"address[]"}],"outputs":[{"name":"amounts","type":"uint256[]","internalType":"uint256[]"}],"stateMutability":"view"},{"type":"function","name":"quote","inputs":[{"name":"amountA","type":"uint256","internalType":"uint256"},{"name":"reserveA","type":"uint256","internalType":"uint256"},{"name":"reserveB","type":"uint256","internalType":"uint256"}],"outputs":[{"name":"amountB","type":"uint256","internalType":"uint256"}],"stateMutability":"pure"},{"type":"function","name":"removeLiquidity","inputs":[{"name":"tokenA","type":"address","internalType":"address"},{"name":"tokenB","type":"address","internalType":"address"},{"name":"liquidity","type":"uint256","internalType":"uint256"},{"name":"amountAMin","type":"uint256","internalType":"uint256"},{"name":"amountBMin","type":"uint256","internalType":"uint256"},{"name":"to","type":"address","internalType":"address"},{"name":"deadline","type":"uint256","internalType":"uint256"}],"outputs":[{"name":"","type":"uint256","internalType":"uint256"},{"name":"","type":"uint256","internalType":"uint256"}],"stateMutability":"nonpayable"},{"type":"function","name":"removeLiquidityETH","inputs":[{"name":"token","type":"address","internalType":"address"},{"name":"liquidity","type":"uint256","internalType":"uint256"},{"name":"amountTokenMin","type":"uint256","internalType":"uint256"},{"name":"amountETHMin","type":"uint256","internalType":"uint256"},{"name":"to","type":"address","internalType":"address"},{"name":"deadline","type":"uint256","internalType":"uint256"}],"outputs":[{"name":"","type":"uint256","internalType":"uint256"},{"name":"","type":"uint256","internalType":"uint256"}],"stateMutability":"nonpayable"},{"type":"function","name":"removeLiquidityETHWithPermit","inputs":[{"name":"token","type":"address","internalType":"address"},{"name":"liquidity","type":"uint256","internalType":"uint256"},{"name":"amountTokenMin","type":"uint256","internalType":"uint256"},{"name":"amountETHMin","type":"uint256","internalType":"uint256"},{"name":"to","type":"address","internalType":"address"},{"name":"deadline","type":"uint256","internalType":"uint256"},{"name":"approveMax","type":"bool","internalType":"bool"},{"name":"v","type":"uint8","internalType":"uint8"},{"name":"r","type":"bytes32","internalType":"bytes32"},{"name":"s","type":"bytes32","internalType":"bytes32"}],"outputs":[{"name":"","type":"uint256","internalType":"uint256"},{"name":"","type":"uint256","internalType":"uint256"}],"stateMutability":"nonpayable"},{"type":"function","name":"removeLiquidityWithPermit","inputs":[{"name":"tokenA","type":"address","internalType":"address"},{"name":"tokenB","type":"address","internalType":"address"},{"name":"liquidity","type":"uint256","internalType":"uint256"},{"name":"amountAMin","type":"uint256","internalType":"uint256"},{"name":"amountBMin","type":"uint256","internalType":"uint256"},{"name":"to","type":"address","internalType":"address"},{"name":"deadline","type":"uint256","internalType":"uint256"},{"name":"approveMax","type":"bool","internalType":"bool"},{"name":"v","type":"uint8","internalType":"uint8"},{"name":"r","type":"bytes32","internalType":"bytes32"},{"name":"s","type":"bytes32","internalType":"bytes32"}],"outputs":[{"name":"","type":"uint256","internalType":"uint256"},{"name":"","type":"uint256","internalType":"uint256"}],"stateMutability":"nonpayable"},{"type":"function","name":"reserves","inputs":[{"name":"","type":"address","internalType":"address"},{"name":"","type":"address","internalType":"address"}],"outputs":[{"name":"","type":"uint256","internalType":"uint256"}],"stateMutability":"view"},{"type":"function","name":"setAmountOut","inputs":[{"name":"path","type":"address[]","internalType":"address[]"},{"name":"amountIn","type":"uint256","internalType":"uint256"},{"name":"amountOut","type":"uint256","internalType":"uint256"}],"outputs":[],"stateMutability":"nonpayable"},{"type":"function","name":"swapETHForExactTokens","inputs":[{"name":"amountOut","type":"uint256","internalType":"uint256"},{"name":"path","type":"address[]","internalType":"address[]"},{"name":"to","type":"address","internalType":"address"},{"name":"deadline","type":"uint256","internalType":"uint256"}],"outputs":[{"name":"amounts","type":"uint256[]","internalType":"uint256[]"}],"stateMutability":"payable"},{"type":"function","name":"swapExactETHForTokens","inputs":[{"name":"amountOutMin","type":"uint256","internalType":"uint256"},{"name":"path","type":"address[]","internalType":"address[]"},{"name":"to","type":"address","internalType":"address"},{"name":"deadline","type":"uint256","internalType":"uint256"}],"outputs":[{"name":"amounts","type":"uint256[]","internalType":"uint256[]"}],"stateMutability":"payable"},{"type":"function","name":"swapExactTokensForETH","inputs":[{"name":"amountIn","type":"uint256","internalType":"uint256"},{"name":"amountOutMin","type":"uint256","internalType":"uint256"},{"name":"path","type":"address[]","internalType":"address[]"},{"name":"to","type":"address","internalType":"address"},{"name":"deadline","type":"uint256","internalType":"uint256"}],"outputs":[{"name":"amounts","type":"uint256[]","internalType":"uint256[]"}],"stateMutability":"nonpayable"},{"type":"function","name":"swapExactTokensForTokens","inputs":[{"name":"amountIn","type":"uint256","internalType":"uint256"},{"name":"amountOutMin","type":"uint256","internalType":"uint256"},{"name":"path","type":"address[]","internalType":"address[]"},{"name":"to","type":"address","internalType":"address"},{"name":"deadline","type":"uint256","internalType":"uint256"}],"outputs":[{"name":"amounts","type":"uint256[]","internalType":"uint256[]"}],"stateMutability":"nonpayable"},{"type":"function","name":"swapTokensForExactETH","inputs":[{"name":"amountOut","type":"uint256","internalType":"uint256"},{"name":"amountInMax","type":"uint256","internalType":"uint256"},{"name":"path","type":"address[]","internalType":"address[]"},{"name":"to","type":"address","internalType":"address"},{"name":"deadline","type":"uint256","internalType":"uint256"}],"outputs":[{"name":"amounts","type":"uint256[]","internalType":"uint256[]"}],"stateMutability":"nonpayable"},{"type":"function","name":"swapTokensForExactTokens","inputs":[{"name":"amountOut","type":"uint256","internalType":"uint256"},{"name":"amountInMax","type":"uint256","internalType":"uint256"},{"name":"path","type":"address[]","internalType":"address[]"},{"name":"to","type":"address","internalType":"address"},{"name":"deadline","type":"uint256","internalType":"uint256"}],"outputs":[{"name":"amounts","type":"uint256[]","internalType":"uint256[]"}],"stateMutability":"nonpayable"}],"bytecode":{"object":"0x6080604052348015600e575f5ffd5b506124398061001c5f395ff3fe608060405260043610610129575f3560e01c80638803dbee116100aa578063d06ca61f1161006e578063d06ca61f14610470578063ded9382a146104ac578063e8e33700146104e9578063ea4afc5414610527578063f305d71914610563578063fb3bdb411461059557610129565b80638803dbee14610367578063ad5c4648146103a3578063ad615dec146103cd578063baa2abde14610409578063c45a01551461044657610129565b806338ed1739116100f157806338ed17391461025b5780634a25d94a1461029757806372fd499d146102d35780637ff36ab5146102fb57806385f8c2591461032b57610129565b806302751cec1461012d578063054d50d41461016a57806318cbafe5146101a65780631f00ca74146101e25780632195995c1461021e575b5f5ffd5b348015610138575f5ffd5b50610153600480360381019061014e9190611427565b6105c5565b6040516101619291906114bf565b60405180910390f35b348015610175575f5ffd5b50610190600480360381019061018b91906114e6565b610602565b60405161019d9190611536565b60405180910390f35b3480156101b1575f5ffd5b506101cc60048036038101906101c791906115b0565b610623565b6040516101d991906116fd565b60405180910390f35b3480156101ed575f5ffd5b506102086004803603810190610203919061171d565b610660565b60405161021591906116fd565b60405180910390f35b348015610229575f5ffd5b50610244600480360381019061023f9190611818565b61097b565b6040516102529291906114bf565b60405180910390f35b348015610266575f5ffd5b50610281600480360381019061027c91906115b0565b6109b8565b60405161028e91906116fd565b60405180910390f35b3480156102a2575f5ffd5b506102bd60048036038101906102b891906115b0565b610c70565b6040516102ca91906116fd565b60405180910390f35b3480156102de575f5ffd5b506102f960048036038101906102f49190611905565b610cad565b005b61031560048036038101906103109190611976565b610cf2565b60405161032291906116fd565b60405180910390f35b348015610336575f5ffd5b50610351600480360381019061034c91906114e6565b610d2f565b60405161035e9190611536565b60405180910390f35b348015610372575f5ffd5b5061038d600480360381019061038891906115b0565b610d50565b60405161039a91906116fd565b60405180910390f35b3480156103ae575f5ffd5b506103b7610d8d565b6040516103c49190611a09565b60405180910390f35b3480156103d8575f5ffd5b506103f360048036038101906103ee91906114e6565b610da8565b6040516104009190611536565b60405180910390f35b348015610414575f5ffd5b5061042f600480360381019061042a9190611a22565b610dc9565b60405161043d9291906114bf565b60405180910390f35b348015610451575f5ffd5b5061045a610e06565b6040516104679190611a09565b60405180910390f35b34801561047b575f5ffd5b506104966004803603810190610491919061171d565b610e0f565b6040516104a391906116fd565b60405180910390f35b3480156104b7575f5ffd5b506104d260048036038101906104cd9190611abf565b61117b565b6040516104e09291906114bf565b60405180910390f35b3480156104f4575f5ffd5b5061050f600480360381019061050a9190611b98565b6111b8565b60405161051e93929190611c49565b60405180910390f35b348015610532575f5ffd5b5061054d60048036038101906105489190611c7e565b6112ee565b60405161055a9190611536565b60405180910390f35b61057d60048036038101906105789190611427565b61130e565b60405161058c93929190611c49565b60405180910390f35b6105af60048036038101906105aa9190611976565b61134c565b6040516105bc91906116fd565b60405180910390f35b5f5f6040517f08c379a00000000000000000000000000000000000000000000000000000000081526004016105f990611d16565b60405180910390fd5b5f8282856106109190611d61565b61061a9190611dcf565b90509392505050565b60606040517f08c379a000000000000000000000000000000000000000000000000000000000815260040161065790611d16565b60405180910390fd5b60608282905067ffffffffffffffff81111561067f5761067e611dff565b5b6040519080825280602002602001820160405280156106ad5781602001602082028036833780820191505090505b50905083816001858590506106c29190611e2c565b815181106106d3576106d2611e5f565b5b6020026020010181815250505f6001848490506106f09190611e2c565b90505b5f811115610973573073ffffffffffffffffffffffffffffffffffffffff166385f8c25983838151811061072a57610729611e5f565b5b602002602001015160015f88886001886107449190611e2c565b81811061075457610753611e5f565b5b90506020020160208101906107699190611e8c565b73ffffffffffffffffffffffffffffffffffffffff1673ffffffffffffffffffffffffffffffffffffffff1681526020019081526020015f205f8888878181106107b6576107b5611e5f565b5b90506020020160208101906107cb9190611e8c565b73ffffffffffffffffffffffffffffffffffffffff1673ffffffffffffffffffffffffffffffffffffffff1681526020019081526020015f205460015f89898881811061081b5761081a611e5f565b5b90506020020160208101906108309190611e8c565b73ffffffffffffffffffffffffffffffffffffffff1673ffffffffffffffffffffffffffffffffffffffff1681526020019081526020015f205f89896001896108799190611e2c565b81811061088957610888611e5f565b5b905060200201602081019061089e9190611e8c565b73ffffffffffffffffffffffffffffffffffffffff1673ffffffffffffffffffffffffffffffffffffffff1681526020019081526020015f20546040518463ffffffff1660e01b81526004016108f693929190611c49565b602060405180830381865afa158015610911573d5f5f3e3d5ffd5b505050506040513d601f19601f820116820180604052508101906109359190611ecb565b826001836109439190611e2c565b8151811061095457610953611e5f565b5b602002602001018181525050808061096b90611ef6565b9150506106f3565b509392505050565b5f5f6040517f08c379a00000000000000000000000000000000000000000000000000000000081526004016109af90611d16565b60405180910390fd5b60603073ffffffffffffffffffffffffffffffffffffffff1663d06ca61f8887876040518463ffffffff1660e01b81526004016109f793929190611fd9565b5f60405180830381865afa158015610a11573d5f5f3e3d5ffd5b505050506040513d5f823e3d601f19601f82011682018060405250810190610a399190612124565b9050858160018351610a4b9190611e2c565b81518110610a5c57610a5b611e5f565b5b60200260200101511015610aa5576040517f08c379a0000000000000000000000000000000000000000000000000000000008152600401610a9c906121db565b60405180910390fd5b81421115610ae8576040517f08c379a0000000000000000000000000000000000000000000000000000000008152600401610adf90612243565b60405180910390fd5b84845f818110610afb57610afa611e5f565b5b9050602002016020810190610b109190611e8c565b73ffffffffffffffffffffffffffffffffffffffff166323b872dd33308a6040518463ffffffff1660e01b8152600401610b4c93929190612261565b6020604051808303815f875af1158015610b68573d5f5f3e3d5ffd5b505050506040513d601f19601f82011682018060405250810190610b8c91906122aa565b508484600187879050610b9f9190611e2c565b818110610baf57610bae611e5f565b5b9050602002016020810190610bc49190611e8c565b73ffffffffffffffffffffffffffffffffffffffff1663a9059cbb848360018551610bef9190611e2c565b81518110610c0057610bff611e5f565b5b60200260200101516040518363ffffffff1660e01b8152600401610c259291906122d5565b6020604051808303815f875af1158015610c41573d5f5f3e3d5ffd5b505050506040513d601f19601f82011682018060405250810190610c6591906122aa565b509695505050505050565b60606040517f08c379a0000000000000000000000000000000000000000000000000000000008152600401610ca490611d16565b60405180910390fd5b805f5f868686604051602001610cc5939291906123a7565b6040516020818303038152906040528051906020012081526020019081526020015f208190555050505050565b60606040517f08c379a0000000000000000000000000000000000000000000000000000000008152600401610d2690611d16565b60405180910390fd5b5f818385610d3d9190611d61565b610d479190611dcf565b90509392505050565b60606040517f08c379a0000000000000000000000000000000000000000000000000000000008152600401610d8490611d16565b60405180910390fd5b5f73eeeeeeeeeeeeeeeeeeeeeeeeeeeeeeeeeeeeeeee905090565b5f828285610db69190611d61565b610dc09190611dcf565b90509392505050565b5f5f6040517f08c379a0000000000000000000000000000000000000000000000000000000008152600401610dfd90611d16565b60405180910390fd5b5f61dead905090565b60608282905067ffffffffffffffff811115610e2e57610e2d611dff565b5b604051908082528060200260200182016040528015610e5c5781602001602082028036833780820191505090505b50905083815f81518110610e7357610e72611e5f565b5b6020026020010181815250505f60015f85855f818110610e9657610e95611e5f565b5b9050602002016020810190610eab9190611e8c565b73ffffffffffffffffffffffffffffffffffffffff1673ffffffffffffffffffffffffffffffffffffffff1681526020019081526020015f205f85856001818110610ef957610ef8611e5f565b5b9050602002016020810190610f0e9190611e8c565b73ffffffffffffffffffffffffffffffffffffffff1673ffffffffffffffffffffffffffffffffffffffff1681526020019081526020015f205411156111185760015f84845f818110610f6457610f63611e5f565b5b9050602002016020810190610f799190611e8c565b73ffffffffffffffffffffffffffffffffffffffff1673ffffffffffffffffffffffffffffffffffffffff1681526020019081526020015f205f84846001818110610fc757610fc6611e5f565b5b9050602002016020810190610fdc9190611e8c565b73ffffffffffffffffffffffffffffffffffffffff1673ffffffffffffffffffffffffffffffffffffffff1681526020019081526020015f205460015f8585600181811061102d5761102c611e5f565b5b90506020020160208101906110429190611e8c565b73ffffffffffffffffffffffffffffffffffffffff1673ffffffffffffffffffffffffffffffffffffffff1681526020019081526020015f205f85855f81811061108f5761108e611e5f565b5b90506020020160208101906110a49190611e8c565b73ffffffffffffffffffffffffffffffffffffffff1673ffffffffffffffffffffffffffffffffffffffff1681526020019081526020015f2054856110e99190611d61565b6110f39190611dcf565b8160018151811061110757611106611e5f565b5b602002602001018181525050611174565b5f5f84848760405160200161112f939291906123a7565b6040516020818303038152906040528051906020012081526020019081526020015f20548160018151811061116757611166611e5f565b5b6020026020010181815250505b9392505050565b5f5f6040517f08c379a00000000000000000000000000000000000000000000000000000000081526004016111af90611d16565b60405180910390fd5b5f5f5f8860015f8d73ffffffffffffffffffffffffffffffffffffffff1673ffffffffffffffffffffffffffffffffffffffff1681526020019081526020015f205f8c73ffffffffffffffffffffffffffffffffffffffff1673ffffffffffffffffffffffffffffffffffffffff1681526020019081526020015f205f82825461124291906123d0565b925050819055508760015f8c73ffffffffffffffffffffffffffffffffffffffff1673ffffffffffffffffffffffffffffffffffffffff1681526020019081526020015f205f8d73ffffffffffffffffffffffffffffffffffffffff1673ffffffffffffffffffffffffffffffffffffffff1681526020019081526020015f205f8282546112d091906123d0565b9250508190555088885f925092509250985098509895505050505050565b6001602052815f5260405f20602052805f5260405f205f91509150505481565b5f5f5f6040517f08c379a000000000000000000000000000000000000000000000000000000000815260040161134390611d16565b60405180910390fd5b60606040517f08c379a000000000000000000000000000000000000000000000000000000000815260040161138090611d16565b60405180910390fd5b5f604051905090565b5f5ffd5b5f5ffd5b5f73ffffffffffffffffffffffffffffffffffffffff82169050919050565b5f6113c38261139a565b9050919050565b6113d3816113b9565b81146113dd575f5ffd5b50565b5f813590506113ee816113ca565b92915050565b5f819050919050565b611406816113f4565b8114611410575f5ffd5b50565b5f81359050611421816113fd565b92915050565b5f5f5f5f5f5f60c0878903121561144157611440611392565b5b5f61144e89828a016113e0565b965050602061145f89828a01611413565b955050604061147089828a01611413565b945050606061148189828a01611413565b935050608061149289828a016113e0565b92505060a06114a389828a01611413565b9150509295509295509295565b6114b9816113f4565b82525050565b5f6040820190506114d25f8301856114b0565b6114df60208301846114b0565b9392505050565b5f5f5f606084860312156114fd576114fc611392565b5b5f61150a86828701611413565b935050602061151b86828701611413565b925050604061152c86828701611413565b9150509250925092565b5f6020820190506115495f8301846114b0565b92915050565b5f5ffd5b5f5ffd5b5f5ffd5b5f5f83601f8401126115705761156f61154f565b5b8235905067ffffffffffffffff81111561158d5761158c611553565b5b6020830191508360208202830111156115a9576115a8611557565b5b9250929050565b5f5f5f5f5f5f60a087890312156115ca576115c9611392565b5b5f6115d789828a01611413565b96505060206115e889828a01611413565b955050604087013567ffffffffffffffff81111561160957611608611396565b5b61161589828a0161155b565b9450945050606061162889828a016113e0565b925050608061163989828a01611413565b9150509295509295509295565b5f81519050919050565b5f82825260208201905092915050565b5f819050602082019050919050565b611678816113f4565b82525050565b5f611689838361166f565b60208301905092915050565b5f602082019050919050565b5f6116ab82611646565b6116b58185611650565b93506116c083611660565b805f5b838110156116f05781516116d7888261167e565b97506116e283611695565b9250506001810190506116c3565b5085935050505092915050565b5f6020820190508181035f83015261171581846116a1565b905092915050565b5f5f5f6040848603121561173457611733611392565b5b5f61174186828701611413565b935050602084013567ffffffffffffffff81111561176257611761611396565b5b61176e8682870161155b565b92509250509250925092565b5f8115159050919050565b61178e8161177a565b8114611798575f5ffd5b50565b5f813590506117a981611785565b92915050565b5f60ff82169050919050565b6117c4816117af565b81146117ce575f5ffd5b50565b5f813590506117df816117bb565b92915050565b5f819050919050565b6117f7816117e5565b8114611801575f5ffd5b50565b5f81359050611812816117ee565b92915050565b5f5f5f5f5f5f5f5f5f5f5f6101608c8e03121561183857611837611392565b5b5f6118458e828f016113e0565b9b505060206118568e828f016113e0565b9a505060406118678e828f01611413565b99505060606118788e828f01611413565b98505060806118898e828f01611413565b97505060a061189a8e828f016113e0565b96505060c06118ab8e828f01611413565b95505060e06118bc8e828f0161179b565b9450506101006118ce8e828f016117d1565b9350506101206118e08e828f01611804565b9250506101406118f28e828f01611804565b9150509295989b509295989b9093969950565b5f5f5f5f6060858703121561191d5761191c611392565b5b5f85013567ffffffffffffffff81111561193a57611939611396565b5b6119468782880161155b565b9450945050602061195987828801611413565b925050604061196a87828801611413565b91505092959194509250565b5f5f5f5f5f6080868803121561198f5761198e611392565b5b5f61199c88828901611413565b955050602086013567ffffffffffffffff8111156119bd576119bc611396565b5b6119c98882890161155b565b945094505060406119dc888289016113e0565b92505060606119ed88828901611413565b9150509295509295909350565b611a03816113b9565b82525050565b5f602082019050611a1c5f8301846119fa565b92915050565b5f5f5f5f5f5f5f60e0888a031215611a3d57611a3c611392565b5b5f611a4a8a828b016113e0565b9750506020611a5b8a828b016113e0565b9650506040611a6c8a828b01611413565b9550506060611a7d8a828b01611413565b9450506080611a8e8a828b01611413565b93505060a0611a9f8a828b016113e0565b92505060c0611ab08a828b01611413565b91505092959891949750929550565b5f5f5f5f5f5f5f5f5f5f6101408b8d031215611ade57611add611392565b5b5f611aeb8d828e016113e0565b9a50506020611afc8d828e01611413565b9950506040611b0d8d828e01611413565b9850506060611b1e8d828e01611413565b9750506080611b2f8d828e016113e0565b96505060a0611b408d828e01611413565b95505060c0611b518d828e0161179b565b94505060e0611b628d828e016117d1565b935050610100611b748d828e01611804565b925050610120611b868d828e01611804565b9150509295989b9194979a5092959850565b5f5f5f5f5f5f5f5f610100898b031215611bb557611bb4611392565b5b5f611bc28b828c016113e0565b9850506020611bd38b828c016113e0565b9750506040611be48b828c01611413565b9650506060611bf58b828c01611413565b9550506080611c068b828c01611413565b94505060a0611c178b828c01611413565b93505060c0611c288b828c016113e0565b92505060e0611c398b828c01611413565b9150509295985092959890939650565b5f606082019050611c5c5f8301866114b0565b611c6960208301856114b0565b611c7660408301846114b0565b949350505050565b5f5f60408385031215611c9457611c93611392565b5b5f611ca1858286016113e0565b9250506020611cb2858286016113e0565b9150509250929050565b5f82825260208201905092915050565b7f4e6f7420696d706c656d656e74656400000000000000000000000000000000005f82015250565b5f611d00600f83611cbc565b9150611d0b82611ccc565b602082019050919050565b5f6020820190508181035f830152611d2d81611cf4565b9050919050565b7f4e487b71000000000000000000000000000000000000000000000000000000005f52601160045260245ffd5b5f611d6b826113f4565b9150611d76836113f4565b9250828202611d84816113f4565b91508282048414831517611d9b57611d9a611d34565b5b5092915050565b7f4e487b71000000000000000000000000000000000000000000000000000000005f52601260045260245ffd5b5f611dd9826113f4565b9150611de4836113f4565b925082611df457611df3611da2565b5b828204905092915050565b7f4e487b71000000000000000000000000000000000000000000000000000000005f52604160045260245ffd5b5f611e36826113f4565b9150611e41836113f4565b9250828203905081811115611e5957611e58611d34565b5b92915050565b7f4e487b71000000000000000000000000000000000000000000000000000000005f52603260045260245ffd5b5f60208284031215611ea157611ea0611392565b5b5f611eae848285016113e0565b91505092915050565b5f81519050611ec5816113fd565b92915050565b5f60208284031215611ee057611edf611392565b5b5f611eed84828501611eb7565b91505092915050565b5f611f00826113f4565b91505f8203611f1257611f11611d34565b5b600182039050919050565b5f82825260208201905092915050565b5f819050919050565b611f3f816113b9565b82525050565b5f611f508383611f36565b60208301905092915050565b5f611f6a60208401846113e0565b905092915050565b5f602082019050919050565b5f611f898385611f1d565b9350611f9482611f2d565b805f5b85811015611fcc57611fa98284611f5c565b611fb38882611f45565b9750611fbe83611f72565b925050600181019050611f97565b5085925050509392505050565b5f604082019050611fec5f8301866114b0565b8181036020830152611fff818486611f7e565b9050949350505050565b5f601f19601f8301169050919050565b61202282612009565b810181811067ffffffffffffffff8211171561204157612040611dff565b5b80604052505050565b5f612053611389565b905061205f8282612019565b919050565b5f67ffffffffffffffff82111561207e5761207d611dff565b5b602082029050602081019050919050565b5f6120a161209c84612064565b61204a565b905080838252602082019050602084028301858111156120c4576120c3611557565b5b835b818110156120ed57806120d98882611eb7565b8452602084019350506020810190506120c6565b5050509392505050565b5f82601f83011261210b5761210a61154f565b5b815161211b84826020860161208f565b91505092915050565b5f6020828403121561213957612138611392565b5b5f82015167ffffffffffffffff81111561215657612155611396565b5b612162848285016120f7565b91505092915050565b7f4d6f636b526f757465723a20494e53554646494349454e545f4f55545055545f5f8201527f414d4f554e540000000000000000000000000000000000000000000000000000602082015250565b5f6121c5602683611cbc565b91506121d08261216b565b604082019050919050565b5f6020820190508181035f8301526121f2816121b9565b9050919050565b7f4d6f636b526f757465723a2045585049524544000000000000000000000000005f82015250565b5f61222d601383611cbc565b9150612238826121f9565b602082019050919050565b5f6020820190508181035f83015261225a81612221565b9050919050565b5f6060820190506122745f8301866119fa565b61228160208301856119fa565b61228e60408301846114b0565b949350505050565b5f815190506122a481611785565b92915050565b5f602082840312156122bf576122be611392565b5b5f6122cc84828501612296565b91505092915050565b5f6040820190506122e85f8301856119fa565b6122f560208301846114b0565b9392505050565b5f81905092915050565b61230f816113b9565b82525050565b5f6123208383612306565b60208301905092915050565b5f61233783856122fc565b935061234282611f2d565b805f5b8581101561237a576123578284611f5c565b6123618882612315565b975061236c83611f72565b925050600181019050612345565b5085925050509392505050565b5f819050919050565b6123a161239c826113f4565b612387565b82525050565b5f6123b382858761232c565b91506123bf8284612390565b602082019150819050949350505050565b5f6123da826113f4565b91506123e5836113f4565b92508282019050808211156123fd576123fc611d34565b5b9291505056fea2646970667358221220d697eaad93d6411d18bced034c263eaf0d7958ddf02833505ee0c8f68aeb736d64736f6c634300081e0033","linkReferences":{}},"methodIdentifiers":{"WETH()":"ad5c4648","addLiquidity(address,address,uint256,uint256,uint256,uint256,address,uint256)":"e8e33700","addLiquidityETH(address,uint256,uint256,uint256,address,uint256)":"f305d719","factory()":"c45a0155","getAmountIn(uint256,uint256,uint256)":"85f8c259","getAmountOut(uint256,uint256,uint256)":"054d50d4","getAmountsIn(uint256,address[])":"1f00ca74","getAmountsOut(uint256,address[])":"d06ca61f","quote(uint256,uint256,uint256)":"ad615dec","removeLiquidity(address,address,uint256,uint256,uint256,address,uint256)":"baa2abde","removeLiquidityETH(address,uint256,uint256,uint256,address,uint256)":"02751cec","removeLiquidityETHWithPermit(address,uint256,uint256,uint256,address,uint256,bool,uint8,bytes32,bytes32)":"ded9382a","removeLiquidityWithPermit(address,address,uint256,uint256,uint256,address,uint256,bool,uint8,bytes32,bytes32)":"2195995c","reserves(address,address)":"ea4afc54","setAmountOut(address[],uint256,uint256)":"72fd499d","swapETHForExactTokens(uint256,address[],address,uint256)":"fb3bdb41","swapExactETHForTokens(uint256,address[],address,uint256)":"7ff36ab5","swapExactTokensForETH(uint256,uint256,address[],address,uint256)":"18cbafe5","swapExactTokensForTokens(uint256,uint256,address[],address,uint256)":"38ed1739","swapTokensForExactETH(uint256,uint256,address[],address,uint256)":"4a25d94a","swapTokensForExactTokens(uint256,uint256,address[],address,uint256)":"8803dbee"},"id":29}