{"abi":[{"type":"constructor","inputs":[{"name":"_owner","type":"address","internalType":"address"}],"stateMutability":"nonpayable"},{"type":"function","name":"ADDRESSES_PROVIDER","inputs":[],"outputs":[{"name":"","type":"address","internalType":"contract IPoolAddressesProvider"}],"stateMutability":"view"},{"type":"function","name":"LENDING_POOL","inputs":[],"outputs":[{"name":"","type":"address","internalType":"contract IPool"}],"stateMutability":"view"},{"type":"function","name":"POOL","inputs":[],"outputs":[{"name":"","type":"address","internalType":"contract IPool"}],"stateMutability":"view"},{"type":"function","name":"_executeSwaps","inputs":[{"name":"_swaps","type":"tuple[]","internalType":"struct Swap[]","components":[{"name":"router","type":"address","internalType":"address"},{"name":"tokenIn","type":"address","internalType":"address"},{"name":"tokenOut","type":"address","internalType":"address"},{"name":"dexType","type":"uint8","internalType":"enum DexType"},{"name":"amountIn","type":"uint256","internalType":"uint256"},{"name":"amountOut","type":"uint256","internalType":"uint256"},{"name":"fee","type":"uint24","internalType":"uint24"}]},{"name":"_initialAmount","type":"uint256","internalType":"uint256"}],"outputs":[],"stateMutability":"nonpayable"},{"type":"function","name":"executeArbitrage","inputs":[{"name":"asset","type":"address","internalType":"address"},{"name":"amount","type":"uint256","internalType":"uint256"},{"name":"_swaps","type":"tuple[]","internalType":"struct Swap[]","components":[{"name":"router","type":"address","internalType":"address"},{"name":"tokenIn","type":"address","internalType":"address"},{"name":"tokenOut","type":"address","internalType":"address"},{"name":"dexType","type":"uint8","internalType":"enum DexType"},{"name":"amountIn","type":"uint256","internalType":"uint256"},{"name":"amountOut","type":"uint256","internalType":"uint256"},{"name":"fee","type":"uint24","internalType":"uint24"}]}],"outputs":[],"stateMutability":"nonpayable"},{"type":"function","name":"executeOperation","inputs":[{"name":"asset","type":"address","internalType":"address"},{"name":"amount","type":"uint256","internalType":"uint256"},{"name":"premium","type":"uint256","internalType":"uint256"},{"name":"","type":"address","internalType":"address"},{"name":"params","type":"bytes","internalType":"bytes"}],"outputs":[{"name":"","type":"bool","internalType":"bool"}],"stateMutability":"nonpayable"},{"type":"function","name":"keeperFeeBps","inputs":[],"outputs":[{"name":"","type":"uint16","internalType":"uint16"}],"stateMutability":"view"},{"type":"function","name":"owner","inputs":[],"outputs":[{"name":"","type":"address","internalType":"address"}],"stateMutability":"view"},{"type":"function","name":"renounceOwnership","inputs":[],"outputs":[],"stateMutability":"nonpayable"},{"type":"function","name":"setKeeperFee","inputs":[{"name":"_fee","type":"uint16","internalType":"uint16"}],"outputs":[],"stateMutability":"nonpayable"},{"type":"function","name":"transferOwnership","inputs":[{"name":"newOwner","type":"address","internalType":"address"}],"outputs":[],"stateMutability":"nonpayable"},{"type":"function","name":"withdraw","inputs":[{"name":"_token","type":"address","internalType":"address"},{"name":"_to","type":"address","internalType":"address"}],"outputs":[],"stateMutability":"nonpayable"},{"type":"event","name":"OwnershipTransferred","inputs":[{"name":"previousOwner","type":"address","indexed":true,"internalType":"address"},{"name":"newOwner","type":"address","indexed":true,"internalType":"address"}],"anonymous":false},{"type":"event","name":"SwapAttempt","inputs":[{"name":"tokenIn","type":"address","indexed":true,"internalType":"address"},{"name":"tokenOut","type":"address","indexed":true,"internalType":"address"},{"name":"fee","type":"uint24","indexed":false,"internalType":"uint24"}],"anonymous":false},{"type":"event","name":"SwapSuccess","inputs":[{"name":"tokenIn","type":"address","indexed":true,"internalType":"address"},{"name":"tokenOut","type":"address","indexed":true,"internalType":"address"},{"name":"fee","type":"uint24","indexed":false,"internalType":"uint24"},{"name":"amountOut","type":"uint256","indexed":false,"internalType":"uint256"}],"anonymous":false},{"type":"error","name":"OwnableInvalidOwner","inputs":[{"name":"owner","type":"address","internalType":"address"}]},{"type":"error","name":"OwnableUnauthorizedAccount","inputs":[{"name":"account","type":"address","internalType":"address"}]},{"type":"error","name":"SwapFailed","inputs":[]}],"bytecode":{"object":"0x60806040526103e85f60146101000a81548161ffff021916908361ffff16021790555034801561002d575f5ffd5b50604051611dc2380380611dc2833981810160405281019061004f91906101f7565b80805f73ffffffffffffffffffffffffffffffffffffffff168173ffffffffffffffffffffffffffffffffffffffff16036100c1575f6040517f1e4fbdf70000000000000000000000000000000000000000000000000000000081526004016100b89190610231565b60405180910390fd5b6100d0816100d860201b60201c565b50505061024a565b5f5f5f9054906101000a900473ffffffffffffffffffffffffffffffffffffffff169050815f5f6101000a81548173ffffffffffffffffffffffffffffffffffffffff021916908373ffffffffffffffffffffffffffffffffffffffff1602179055508173ffffffffffffffffffffffffffffffffffffffff168173ffffffffffffffffffffffffffffffffffffffff167f8be0079c531659141344cd1fd0a4f28419497f9722a3daafe3b4186f6b6457e060405160405180910390a35050565b5f5ffd5b5f73ffffffffffffffffffffffffffffffffffffffff82169050919050565b5f6101c68261019d565b9050919050565b6101d6816101bc565b81146101e0575f5ffd5b50565b5f815190506101f1816101cd565b92915050565b5f6020828403121561020c5761020b610199565b5b5f610219848285016101e3565b91505092915050565b61022b816101bc565b82525050565b5f6020820190506102445f830184610222565b92915050565b611b6b806102575f395ff3fe608060405234801561000f575f5ffd5b50600436106100b2575f3560e01c80638da5cb5b1161006f5780638da5cb5b14610166578063ab89beba14610184578063b4dcfc77146101a0578063e4cf3549146101be578063f2fde38b146101da578063f940e385146101f6576100b2565b80630542975c146100b65780630eab7d63146100d45780631b11d0ff146100f25780635074ce8b14610122578063715018a61461013e5780637535d24614610148575b5f5ffd5b6100be610212565b6040516100cb9190610d4f565b60405180910390f35b6100dc610299565b6040516100e99190610d84565b60405180910390f35b61010c60048036038101906101079190610e7d565b6102ac565b6040516101199190610f2d565b60405180910390f35b61013c6004803603810190610137919061119e565b61041a565b005b61014661049a565b005b6101506104ad565b60405161015d9190611218565b60405180910390f35b61016e6104c8565b60405161017b9190611240565b60405180910390f35b61019e60048036038101906101999190611259565b6104ef565b005b6101a86105dd565b6040516101b59190611218565b60405180910390f35b6101d860048036038101906101d391906112ef565b6105f5565b005b6101f460048036038101906101ef919061131a565b61061c565b005b610210600480360381019061020b9190611345565b6106a0565b005b5f73794a61358d6845594f94dc1db02a252b5b4814ad73ffffffffffffffffffffffffffffffffffffffff16630542975c6040518163ffffffff1660e01b8152600401602060405180830381865afa158015610270573d5f5f3e3d5ffd5b505050506040513d601f19601f8201168201806040525081019061029491906113be565b905090565b5f60149054906101000a900461ffff1681565b5f73794a61358d6845594f94dc1db02a252b5b4814ad73ffffffffffffffffffffffffffffffffffffffff163373ffffffffffffffffffffffffffffffffffffffff161461032f576040517f08c379a000000000000000000000000000000000000000000000000000000000815260040161032690611443565b60405180910390fd5b5f838381019061033f9190611461565b905061034b818861041a565b5f878973ffffffffffffffffffffffffffffffffffffffff166370a08231306040518263ffffffff1660e01b81526004016103869190611240565b602060405180830381865afa1580156103a1573d5f5f3e3d5ffd5b505050506040513d601f19601f820116820180604052508101906103c591906114bc565b6103cf9190611514565b90506103db818a61079f565b5f87896103e89190611547565b90506104098a73794a61358d6845594f94dc1db02a252b5b4814ad836108dd565b600193505050509695505050505050565b5f8190505f5f90505b8351811015610494575f8482815181106104405761043f61157a565b5b602002602001015190505f5f82608001511161045c5783610462565b81608001515b9050610483825f0151836020015184604001518560c00151855f304261095e565b935050508080600101915050610423565b50505050565b6104a2610b86565b6104ab5f610c0d565b565b5f73794a61358d6845594f94dc1db02a252b5b4814ad905090565b5f5f5f9054906101000a900473ffffffffffffffffffffffffffffffffffffffff16905090565b5f815111610532576040517f08c379a0000000000000000000000000000000000000000000000000000000008152600401610529906115f1565b60405180910390fd5b5f8160405160200161054491906117e3565b604051602081830303815290604052905073794a61358d6845594f94dc1db02a252b5b4814ad73ffffffffffffffffffffffffffffffffffffffff166342b0b77c308686855f6040518663ffffffff1660e01b81526004016105aa9594939291906118ab565b5f604051808303815f87803b1580156105c1575f5ffd5b505af11580156105d3573d5f5f3e3d5ffd5b5050505050505050565b73794a61358d6845594f94dc1db02a252b5b4814ad81565b6105fd610b86565b805f60146101000a81548161ffff021916908361ffff16021790555050565b610624610b86565b5f73ffffffffffffffffffffffffffffffffffffffff168173ffffffffffffffffffffffffffffffffffffffff1603610694575f6040517f1e4fbdf700000000000000000000000000000000000000000000000000000000815260040161068b9190611240565b60405180910390fd5b61069d81610c0d565b50565b6106a8610b86565b8173ffffffffffffffffffffffffffffffffffffffff1663a9059cbb828473ffffffffffffffffffffffffffffffffffffffff166370a08231306040518263ffffffff1660e01b81526004016106fe9190611240565b602060405180830381865afa158015610719573d5f5f3e3d5ffd5b505050506040513d601f19601f8201168201806040525081019061073d91906114bc565b6040518363ffffffff1660e01b815260040161075a929190611903565b6020604051808303815f875af1158015610776573d5f5f3e3d5ffd5b505050506040513d601f19601f8201168201806040525081019061079a9190611954565b505050565b5f6127105f60149054906101000a900461ffff1661ffff16846107c2919061197f565b6107cc91906119ed565b90508173ffffffffffffffffffffffffffffffffffffffff1663a9059cbb33836040518363ffffffff1660e01b8152600401610809929190611903565b6020604051808303815f875af1158015610825573d5f5f3e3d5ffd5b505050506040513d601f19601f820116820180604052508101906108499190611954565b508173ffffffffffffffffffffffffffffffffffffffff1663a9059cbb61086e6104c8565b838661087a9190611514565b6040518363ffffffff1660e01b8152600401610897929190611903565b6020604051808303815f875af11580156108b3573d5f5f3e3d5ffd5b505050506040513d601f19601f820116820180604052508101906108d79190611954565b50505050565b8273ffffffffffffffffffffffffffffffffffffffff1663095ea7b383836040518363ffffffff1660e01b8152600401610918929190611903565b6020604051808303815f875af1158015610934573d5f5f3e3d5ffd5b505050506040513d601f19601f820116820180604052508101906109589190611954565b50505050565b5f61096a888a876108dd565b8673ffffffffffffffffffffffffffffffffffffffff168873ffffffffffffffffffffffffffffffffffffffff167f6abc1c618bf936356ebe25be6357ce151482b5bfe1e750b919637c2f78279199886040516109c79190611a2c565b60405180910390a38873ffffffffffffffffffffffffffffffffffffffff1663414bf3896040518061010001604052808b73ffffffffffffffffffffffffffffffffffffffff1681526020018a73ffffffffffffffffffffffffffffffffffffffff1681526020018962ffffff1681526020018673ffffffffffffffffffffffffffffffffffffffff1681526020018581526020018881526020018781526020015f73ffffffffffffffffffffffffffffffffffffffff168152506040518263ffffffff1660e01b8152600401610a9e9190611af4565b6020604051808303815f875af1925050508015610ad957506040513d601f19601f82011682018060405250810190610ad691906114bc565b60015b610b0f576040517f81ceff3000000000000000000000000000000000000000000000000000000000815260040160405180910390fd5b8773ffffffffffffffffffffffffffffffffffffffff168973ffffffffffffffffffffffffffffffffffffffff167f05d42d49d9977a7df1e51e4b685c2c92ef6561ae695c8cbeb188dd60804b66528984604051610b6e929190611b0e565b60405180910390a38091505098975050505050505050565b610b8e610cce565b73ffffffffffffffffffffffffffffffffffffffff16610bac6104c8565b73ffffffffffffffffffffffffffffffffffffffff1614610c0b57610bcf610cce565b6040517f118cdaa7000000000000000000000000000000000000000000000000000000008152600401610c029190611240565b60405180910390fd5b565b5f5f5f9054906101000a900473ffffffffffffffffffffffffffffffffffffffff169050815f5f6101000a81548173ffffffffffffffffffffffffffffffffffffffff021916908373ffffffffffffffffffffffffffffffffffffffff1602179055508173ffffffffffffffffffffffffffffffffffffffff168173ffffffffffffffffffffffffffffffffffffffff167f8be0079c531659141344cd1fd0a4f28419497f9722a3daafe3b4186f6b6457e060405160405180910390a35050565b5f33905090565b5f73ffffffffffffffffffffffffffffffffffffffff82169050919050565b5f819050919050565b5f610d17610d12610d0d84610cd5565b610cf4565b610cd5565b9050919050565b5f610d2882610cfd565b9050919050565b5f610d3982610d1e565b9050919050565b610d4981610d2f565b82525050565b5f602082019050610d625f830184610d40565b92915050565b5f61ffff82169050919050565b610d7e81610d68565b82525050565b5f602082019050610d975f830184610d75565b92915050565b5f604051905090565b5f5ffd5b5f5ffd5b5f610db882610cd5565b9050919050565b610dc881610dae565b8114610dd2575f5ffd5b50565b5f81359050610de381610dbf565b92915050565b5f819050919050565b610dfb81610de9565b8114610e05575f5ffd5b50565b5f81359050610e1681610df2565b92915050565b5f5ffd5b5f5ffd5b5f5ffd5b5f5f83601f840112610e3d57610e3c610e1c565b5b8235905067ffffffffffffffff811115610e5a57610e59610e20565b5b602083019150836001820283011115610e7657610e75610e24565b5b9250929050565b5f5f5f5f5f5f60a08789031215610e9757610e96610da6565b5b5f610ea489828a01610dd5565b9650506020610eb589828a01610e08565b9550506040610ec689828a01610e08565b9450506060610ed789828a01610dd5565b935050608087013567ffffffffffffffff811115610ef857610ef7610daa565b5b610f0489828a01610e28565b92509250509295509295509295565b5f8115159050919050565b610f2781610f13565b82525050565b5f602082019050610f405f830184610f1e565b92915050565b5f601f19601f8301169050919050565b7f4e487b71000000000000000000000000000000000000000000000000000000005f52604160045260245ffd5b610f8c82610f46565b810181811067ffffffffffffffff82111715610fab57610faa610f56565b5b80604052505050565b5f610fbd610d9d565b9050610fc98282610f83565b919050565b5f67ffffffffffffffff821115610fe857610fe7610f56565b5b602082029050602081019050919050565b5f5ffd5b60018110611009575f5ffd5b50565b5f8135905061101a81610ffd565b92915050565b5f62ffffff82169050919050565b61103781611020565b8114611041575f5ffd5b50565b5f813590506110528161102e565b92915050565b5f60e0828403121561106d5761106c610ff9565b5b61107760e0610fb4565b90505f61108684828501610dd5565b5f83015250602061109984828501610dd5565b60208301525060406110ad84828501610dd5565b60408301525060606110c18482850161100c565b60608301525060806110d584828501610e08565b60808301525060a06110e984828501610e08565b60a08301525060c06110fd84828501611044565b60c08301525092915050565b5f61111b61111684610fce565b610fb4565b90508083825260208201905060e0840283018581111561113e5761113d610e24565b5b835b8181101561116757806111538882611058565b84526020840193505060e081019050611140565b5050509392505050565b5f82601f83011261118557611184610e1c565b5b8135611195848260208601611109565b91505092915050565b5f5f604083850312156111b4576111b3610da6565b5b5f83013567ffffffffffffffff8111156111d1576111d0610daa565b5b6111dd85828601611171565b92505060206111ee85828601610e08565b9150509250929050565b5f61120282610d1e565b9050919050565b611212816111f8565b82525050565b5f60208201905061122b5f830184611209565b92915050565b61123a81610dae565b82525050565b5f6020820190506112535f830184611231565b92915050565b5f5f5f606084860312156112705761126f610da6565b5b5f61127d86828701610dd5565b935050602061128e86828701610e08565b925050604084013567ffffffffffffffff8111156112af576112ae610daa565b5b6112bb86828701611171565b9150509250925092565b6112ce81610d68565b81146112d8575f5ffd5b50565b5f813590506112e9816112c5565b92915050565b5f6020828403121561130457611303610da6565b5b5f611311848285016112db565b91505092915050565b5f6020828403121561132f5761132e610da6565b5b5f61133c84828501610dd5565b91505092915050565b5f5f6040838503121561135b5761135a610da6565b5b5f61136885828601610dd5565b925050602061137985828601610dd5565b9150509250929050565b5f61138d82610dae565b9050919050565b61139d81611383565b81146113a7575f5ffd5b50565b5f815190506113b881611394565b92915050565b5f602082840312156113d3576113d2610da6565b5b5f6113e0848285016113aa565b91505092915050565b5f82825260208201905092915050565b7f4e6f6e2d6c656e64696e6720706f6f6c000000000000000000000000000000005f82015250565b5f61142d6010836113e9565b9150611438826113f9565b602082019050919050565b5f6020820190508181035f83015261145a81611421565b9050919050565b5f6020828403121561147657611475610da6565b5b5f82013567ffffffffffffffff81111561149357611492610daa565b5b61149f84828501611171565b91505092915050565b5f815190506114b681610df2565b92915050565b5f602082840312156114d1576114d0610da6565b5b5f6114de848285016114a8565b91505092915050565b7f4e487b71000000000000000000000000000000000000000000000000000000005f52601160045260245ffd5b5f61151e82610de9565b915061152983610de9565b9250828203905081811115611541576115406114e7565b5b92915050565b5f61155182610de9565b915061155c83610de9565b9250828201905080821115611574576115736114e7565b5b92915050565b7f4e487b71000000000000000000000000000000000000000000000000000000005f52603260045260245ffd5b7f4e6f2073776170730000000000000000000000000000000000000000000000005f82015250565b5f6115db6008836113e9565b91506115e6826115a7565b602082019050919050565b5f6020820190508181035f830152611608816115cf565b9050919050565b5f81519050919050565b5f82825260208201905092915050565b5f819050602082019050919050565b61164181610dae565b82525050565b7f4e487b71000000000000000000000000000000000000000000000000000000005f52602160045260245ffd5b6001811061168557611684611647565b5b50565b5f81905061169582611674565b919050565b5f6116a482611688565b9050919050565b6116b48161169a565b82525050565b6116c381610de9565b82525050565b6116d281611020565b82525050565b60e082015f8201516116ec5f850182611638565b5060208201516116ff6020850182611638565b5060408201516117126040850182611638565b50606082015161172560608501826116ab565b50608082015161173860808501826116ba565b5060a082015161174b60a08501826116ba565b5060c082015161175e60c08501826116c9565b50505050565b5f61176f83836116d8565b60e08301905092915050565b5f602082019050919050565b5f6117918261160f565b61179b8185611619565b93506117a683611629565b805f5b838110156117d65781516117bd8882611764565b97506117c88361177b565b9250506001810190506117a9565b5085935050505092915050565b5f6020820190508181035f8301526117fb8184611787565b905092915050565b61180c81610de9565b82525050565b5f81519050919050565b5f82825260208201905092915050565b8281835e5f83830152505050565b5f61184482611812565b61184e818561181c565b935061185e81856020860161182c565b61186781610f46565b840191505092915050565b5f819050919050565b5f61189561189061188b84611872565b610cf4565b610d68565b9050919050565b6118a58161187b565b82525050565b5f60a0820190506118be5f830188611231565b6118cb6020830187611231565b6118d86040830186611803565b81810360608301526118ea818561183a565b90506118f9608083018461189c565b9695505050505050565b5f6040820190506119165f830185611231565b6119236020830184611803565b9392505050565b61193381610f13565b811461193d575f5ffd5b50565b5f8151905061194e8161192a565b92915050565b5f6020828403121561196957611968610da6565b5b5f61197684828501611940565b91505092915050565b5f61198982610de9565b915061199483610de9565b92508282026119a281610de9565b915082820484148315176119b9576119b86114e7565b5b5092915050565b7f4e487b71000000000000000000000000000000000000000000000000000000005f52601260045260245ffd5b5f6119f782610de9565b9150611a0283610de9565b925082611a1257611a116119c0565b5b828204905092915050565b611a2681611020565b82525050565b5f602082019050611a3f5f830184611a1d565b92915050565b611a4e81610cd5565b82525050565b61010082015f820151611a695f850182611638565b506020820151611a7c6020850182611638565b506040820151611a8f60408501826116c9565b506060820151611aa26060850182611638565b506080820151611ab560808501826116ba565b5060a0820151611ac860a08501826116ba565b5060c0820151611adb60c08501826116ba565b5060e0820151611aee60e0850182611a45565b50505050565b5f61010082019050611b085f830184611a54565b92915050565b5f604082019050611b215f830185611a1d565b611b2e6020830184611803565b939250505056fea26469706673582212208bd52e7f99b3b25f9a20962432011a75284d0e303f879f7262dbd93f9bcc04bf64736f6c634300081e0033","linkReferences":{}},"methodIdentifiers":{"ADDRESSES_PROVIDER()":"0542975c","LENDING_POOL()":"b4dcfc77","POOL()":"7535d246","_executeSwaps((address,address,address,uint8,uint256,uint256,uint24)[],uint256)":"5074ce8b","executeArbitrage(address,uint256,(address,address,address,uint8,uint256,uint256,uint24)[])":"ab89beba","executeOperation(address,uint256,uint256,address,bytes)":"1b11d0ff","keeperFeeBps()":"0eab7d63","owner()":"8da5cb5b","renounceOwnership()":"715018a6","setKeeperFee(uint16)":"e4cf3549","transferOwnership(address)":"f2fde38b","withdraw(address,address)":"f940e385"},"id":0}