{"abi":[{"type":"constructor","inputs":[{"name":"_owner","type":"address","internalType":"address"},{"name":"_poolAddress","type":"address","internalType":"address"}],"stateMutability":"nonpayable"},{"type":"function","name":"ADDRESSES_PROVIDER","inputs":[],"outputs":[{"name":"","type":"address","internalType":"contract IPoolAddressesProvider"}],"stateMutability":"view"},{"type":"function","name":"LENDING_POOL","inputs":[],"outputs":[{"name":"","type":"address","internalType":"contract IPool"}],"stateMutability":"view"},{"type":"function","name":"POOL","inputs":[],"outputs":[{"name":"","type":"address","internalType":"contract IPool"}],"stateMutability":"view"},{"type":"function","name":"_executeSwaps","inputs":[{"name":"_swaps","type":"tuple[]","internalType":"struct Swap[]","components":[{"name":"router","type":"address","internalType":"address"},{"name":"pools","type":"address[]","internalType":"address[]"},{"name":"tokenIn","type":"address","internalType":"address"},{"name":"tokenOut","type":"address","internalType":"address"},{"name":"dexType","type":"uint8","internalType":"enum DexType"},{"name":"amountIn","type":"uint256","internalType":"uint256"},{"name":"amountOut","type":"uint256","internalType":"uint256"},{"name":"factory","type":"address","internalType":"address"}]},{"name":"_initialAmount","type":"uint256","internalType":"uint256"}],"outputs":[],"stateMutability":"nonpayable"},{"type":"function","name":"executeArbitrage","inputs":[{"name":"asset","type":"address","internalType":"address"},{"name":"amount","type":"uint256","internalType":"uint256"},{"name":"_swaps","type":"tuple[]","internalType":"struct Swap[]","components":[{"name":"router","type":"address","internalType":"address"},{"name":"pools","type":"address[]","internalType":"address[]"},{"name":"tokenIn","type":"address","internalType":"address"},{"name":"tokenOut","type":"address","internalType":"address"},{"name":"dexType","type":"uint8","internalType":"enum DexType"},{"name":"amountIn","type":"uint256","internalType":"uint256"},{"name":"amountOut","type":"uint256","internalType":"uint256"},{"name":"factory","type":"address","internalType":"address"}]}],"outputs":[],"stateMutability":"nonpayable"},{"type":"function","name":"executeOperation","inputs":[{"name":"asset","type":"address","internalType":"address"},{"name":"amount","type":"uint256","internalType":"uint256"},{"name":"premium","type":"uint256","internalType":"uint256"},{"name":"","type":"address","internalType":"address"},{"name":"params","type":"bytes","internalType":"bytes"}],"outputs":[{"name":"","type":"bool","internalType":"bool"}],"stateMutability":"nonpayable"},{"type":"function","name":"keeperFeeBps","inputs":[],"outputs":[{"name":"","type":"uint16","internalType":"uint16"}],"stateMutability":"view"},{"type":"function","name":"owner","inputs":[],"outputs":[{"name":"","type":"address","internalType":"address"}],"stateMutability":"view"},{"type":"function","name":"renounceOwnership","inputs":[],"outputs":[],"stateMutability":"nonpayable"},{"type":"function","name":"setKeeperFee","inputs":[{"name":"_fee","type":"uint16","internalType":"uint16"}],"outputs":[],"stateMutability":"nonpayable"},{"type":"function","name":"setPool","inputs":[{"name":"_newPool","type":"address","internalType":"address"}],"outputs":[],"stateMutability":"nonpayable"},{"type":"function","name":"transferOwnership","inputs":[{"name":"newOwner","type":"address","internalType":"address"}],"outputs":[],"stateMutability":"nonpayable"},{"type":"function","name":"withdraw","inputs":[{"name":"_token","type":"address","internalType":"address"},{"name":"_to","type":"address","internalType":"address"}],"outputs":[],"stateMutability":"nonpayable"},{"type":"event","name":"AerodromeSwapSuccess","inputs":[{"name":"tokenIn","type":"address","indexed":true,"internalType":"address"},{"name":"tokenOut","type":"address","indexed":true,"internalType":"address"},{"name":"amountOut","type":"uint256","indexed":false,"internalType":"uint256"}],"anonymous":false},{"type":"event","name":"OwnershipTransferred","inputs":[{"name":"previousOwner","type":"address","indexed":true,"internalType":"address"},{"name":"newOwner","type":"address","indexed":true,"internalType":"address"}],"anonymous":false},{"type":"event","name":"SwapAttempt","inputs":[{"name":"tokenIn","type":"address","indexed":true,"internalType":"address"},{"name":"tokenOut","type":"address","indexed":true,"internalType":"address"},{"name":"fee","type":"uint24","indexed":false,"internalType":"uint24"}],"anonymous":false},{"type":"event","name":"SwapSuccess","inputs":[{"name":"tokenIn","type":"address","indexed":true,"internalType":"address"},{"name":"tokenOut","type":"address","indexed":true,"internalType":"address"},{"name":"fee","type":"uint24","indexed":false,"internalType":"uint24"},{"name":"amountOut","type":"uint256","indexed":false,"internalType":"uint256"}],"anonymous":false},{"type":"error","name":"OwnableInvalidOwner","inputs":[{"name":"owner","type":"address","internalType":"address"}]},{"type":"error","name":"OwnableUnauthorizedAccount","inputs":[{"name":"account","type":"address","internalType":"address"}]},{"type":"error","name":"SwapFailed","inputs":[]}],"bytecode":{"object":"0x60806040526103e8600160146101000a81548161ffff021916908361ffff16021790555034801561002e575f5ffd5b50604051612aeb380380612aeb83398181016040528101906100509190610239565b81805f73ffffffffffffffffffffffffffffffffffffffff168173ffffffffffffffffffffffffffffffffffffffff16036100c2575f6040517f1e4fbdf70000000000000000000000000000000000000000000000000000000081526004016100b99190610286565b60405180910390fd5b6100d18161011a60201b60201c565b50508060015f6101000a81548173ffffffffffffffffffffffffffffffffffffffff021916908373ffffffffffffffffffffffffffffffffffffffff160217905550505061029f565b5f5f5f9054906101000a900473ffffffffffffffffffffffffffffffffffffffff169050815f5f6101000a81548173ffffffffffffffffffffffffffffffffffffffff021916908373ffffffffffffffffffffffffffffffffffffffff1602179055508173ffffffffffffffffffffffffffffffffffffffff168173ffffffffffffffffffffffffffffffffffffffff167f8be0079c531659141344cd1fd0a4f28419497f9722a3daafe3b4186f6b6457e060405160405180910390a35050565b5f5ffd5b5f73ffffffffffffffffffffffffffffffffffffffff82169050919050565b5f610208826101df565b9050919050565b610218816101fe565b8114610222575f5ffd5b50565b5f815190506102338161020f565b92915050565b5f5f6040838503121561024f5761024e6101db565b5b5f61025c85828601610225565b925050602061026d85828601610225565b9150509250929050565b610280816101fe565b82525050565b5f6020820190506102995f830184610277565b92915050565b61283f806102ac5f395ff3fe608060405234801561000f575f5ffd5b50600436106100cd575f3560e01c80637535d2461161008a578063c30f5a8b11610064578063c30f5a8b146101d9578063e4cf3549146101f5578063f2fde38b14610211578063f940e3851461022d576100cd565b80637535d2461461017f5780638da5cb5b1461019d578063b4dcfc77146101bb576100cd565b80630542975c146100d15780630eab7d63146100ef5780631b11d0ff1461010d578063293ef1db1461013d5780634437152a14610159578063715018a614610175575b5f5ffd5b6100d9610249565b6040516100e69190611433565b60405180910390f35b6100f76102dd565b6040516101049190611468565b60405180910390f35b61012760048036038101906101229190611561565b6102f1565b6040516101349190611611565b60405180910390f35b6101576004803603810190610152919061195e565b6104c5565b005b610173600480360381019061016e91906119ca565b6105c2565b005b61017d61060d565b005b610187610620565b6040516101949190611a15565b60405180910390f35b6101a5610648565b6040516101b29190611a3d565b60405180910390f35b6101c361066f565b6040516101d09190611a15565b60405180910390f35b6101f360048036038101906101ee9190611a56565b610694565b005b61020f600480360381019061020a9190611ada565b6108df565b005b61022b600480360381019061022691906119ca565b610907565b005b61024760048036038101906102429190611b05565b61098b565b005b5f60015f9054906101000a900473ffffffffffffffffffffffffffffffffffffffff1673ffffffffffffffffffffffffffffffffffffffff16630542975c6040518163ffffffff1660e01b8152600401602060405180830381865afa1580156102b4573d5f5f3e3d5ffd5b505050506040513d601f19601f820116820180604052508101906102d89190611b7e565b905090565b600160149054906101000a900461ffff1681565b5f60015f9054906101000a900473ffffffffffffffffffffffffffffffffffffffff1673ffffffffffffffffffffffffffffffffffffffff163373ffffffffffffffffffffffffffffffffffffffff1614610381576040517f08c379a000000000000000000000000000000000000000000000000000000000815260040161037890611c03565b60405180910390fd5b5f5f84848101906103929190611c5c565b915091506103a08189610694565b5f87896103ad9190611ce3565b90505f8a73ffffffffffffffffffffffffffffffffffffffff166370a08231306040518263ffffffff1660e01b81526004016103e99190611a3d565b602060405180830381865afa158015610404573d5f5f3e3d5ffd5b505050506040513d601f19601f820116820180604052508101906104289190611d2a565b905081811161046c576040517f08c379a000000000000000000000000000000000000000000000000000000000815260040161046390611d9f565b60405180910390fd5b5f82826104799190611dbd565b9050610486818d87610a8a565b6104b28c60015f9054906101000a900473ffffffffffffffffffffffffffffffffffffffff1685610bca565b6001955050505050509695505050505050565b5f815111610508576040517f08c379a00000000000000000000000000000000000000000000000000000000081526004016104ff90611e3a565b60405180910390fd5b5f338260405160200161051c9291906120f9565b604051602081830303815290604052905060015f9054906101000a900473ffffffffffffffffffffffffffffffffffffffff1673ffffffffffffffffffffffffffffffffffffffff166342b0b77c308686855f6040518663ffffffff1660e01b815260040161058f9594939291906121cf565b5f604051808303815f87803b1580156105a6575f5ffd5b505af11580156105b8573d5f5f3e3d5ffd5b5050505050505050565b6105ca610c4b565b8060015f6101000a81548173ffffffffffffffffffffffffffffffffffffffff021916908373ffffffffffffffffffffffffffffffffffffffff16021790555050565b610615610c4b565b61061e5f610cd2565b565b5f60015f9054906101000a900473ffffffffffffffffffffffffffffffffffffffff16905090565b5f5f5f9054906101000a900473ffffffffffffffffffffffffffffffffffffffff16905090565b60015f9054906101000a900473ffffffffffffffffffffffffffffffffffffffff1681565b5f8190505f5f90505b83518110156108d9575f8482815181106106ba576106b9612227565b5b602002602001015190505f5f8260a00151116106d657836106dc565b8160a001515b90505f60018111156106f1576106f0611f38565b5b8260800151600181111561070857610707611f38565b5b0361074d57610746825f015183602001515f8151811061072b5761072a612227565b5b602002602001015184604001518560600151855f3042610d93565b93506108ca565b6001808111156107605761075f611f38565b5b8260800151600181111561077757610776611f38565b5b036108c9575f82602001515167ffffffffffffffff81111561079c5761079b61163a565b5b6040519080825280602002602001820160405280156107d557816020015b6107c2611347565b8152602001906001900390816107ba5790505b5090505f5f90505b8360200151518110156108b35760405180608001604052805f8314610802575f610808565b85604001515b73ffffffffffffffffffffffffffffffffffffffff16815260200160018660200151516108359190611dbd565b8314610841575f610847565b85606001515b73ffffffffffffffffffffffffffffffffffffffff1681526020015f151581526020018560e0015173ffffffffffffffffffffffffffffffffffffffff1681525082828151811061089b5761089a612227565b5b602002602001018190525080806001019150506107dd565b506108c5835f015182845f3042611065565b9450505b5b5050808060010191505061069d565b50505050565b6108e7610c4b565b80600160146101000a81548161ffff021916908361ffff16021790555050565b61090f610c4b565b5f73ffffffffffffffffffffffffffffffffffffffff168173ffffffffffffffffffffffffffffffffffffffff160361097f575f6040517f1e4fbdf70000000000000000000000000000000000000000000000000000000081526004016109769190611a3d565b60405180910390fd5b61098881610cd2565b50565b610993610c4b565b8173ffffffffffffffffffffffffffffffffffffffff1663a9059cbb828473ffffffffffffffffffffffffffffffffffffffff166370a08231306040518263ffffffff1660e01b81526004016109e99190611a3d565b602060405180830381865afa158015610a04573d5f5f3e3d5ffd5b505050506040513d601f19601f82011682018060405250810190610a289190611d2a565b6040518363ffffffff1660e01b8152600401610a45929190612254565b6020604051808303815f875af1158015610a61573d5f5f3e3d5ffd5b505050506040513d601f19601f82011682018060405250810190610a8591906122a5565b505050565b5f612710600160149054906101000a900461ffff1661ffff1685610aae91906122d0565b610ab8919061233e565b90508273ffffffffffffffffffffffffffffffffffffffff1663a9059cbb83836040518363ffffffff1660e01b8152600401610af5929190612254565b6020604051808303815f875af1158015610b11573d5f5f3e3d5ffd5b505050506040513d601f19601f82011682018060405250810190610b3591906122a5565b508273ffffffffffffffffffffffffffffffffffffffff1663a9059cbb610b5a610648565b8387610b669190611dbd565b6040518363ffffffff1660e01b8152600401610b83929190612254565b6020604051808303815f875af1158015610b9f573d5f5f3e3d5ffd5b505050506040513d601f19601f82011682018060405250810190610bc391906122a5565b5050505050565b8273ffffffffffffffffffffffffffffffffffffffff1663095ea7b383836040518363ffffffff1660e01b8152600401610c05929190612254565b6020604051808303815f875af1158015610c21573d5f5f3e3d5ffd5b505050506040513d601f19601f82011682018060405250810190610c4591906122a5565b50505050565b610c53611263565b73ffffffffffffffffffffffffffffffffffffffff16610c71610648565b73ffffffffffffffffffffffffffffffffffffffff1614610cd057610c94611263565b6040517f118cdaa7000000000000000000000000000000000000000000000000000000008152600401610cc79190611a3d565b60405180910390fd5b565b5f5f5f9054906101000a900473ffffffffffffffffffffffffffffffffffffffff169050815f5f6101000a81548173ffffffffffffffffffffffffffffffffffffffff021916908373ffffffffffffffffffffffffffffffffffffffff1602179055508173ffffffffffffffffffffffffffffffffffffffff168173ffffffffffffffffffffffffffffffffffffffff167f8be0079c531659141344cd1fd0a4f28419497f9722a3daafe3b4186f6b6457e060405160405180910390a35050565b5f610d9f878a87610bca565b5f8873ffffffffffffffffffffffffffffffffffffffff1663ddca3f436040518163ffffffff1660e01b8152600401602060405180830381865afa158015610de9573d5f5f3e3d5ffd5b505050506040513d601f19601f82011682018060405250810190610e0d91906123a6565b90508673ffffffffffffffffffffffffffffffffffffffff168873ffffffffffffffffffffffffffffffffffffffff167f6abc1c618bf936356ebe25be6357ce151482b5bfe1e750b919637c2f7827919983604051610e6c91906123e0565b60405180910390a38973ffffffffffffffffffffffffffffffffffffffff1663414bf3896040518061010001604052808b73ffffffffffffffffffffffffffffffffffffffff1681526020018a73ffffffffffffffffffffffffffffffffffffffff1681526020018462ffffff1681526020018773ffffffffffffffffffffffffffffffffffffffff1681526020018681526020018981526020018881526020015f73ffffffffffffffffffffffffffffffffffffffff168152506040518263ffffffff1660e01b8152600401610f4391906124b7565b6020604051808303815f875af1925050508015610f7e57506040513d601f19601f82011682018060405250810190610f7b9190611d2a565b60015b610fed573d805f8114610fac576040519150601f19603f3d011682016040523d82523d5f602084013e610fb1565b606091505b50610fbb8161126a565b6040517f81ceff3000000000000000000000000000000000000000000000000000000000815260040160405180910390fd5b8773ffffffffffffffffffffffffffffffffffffffff168973ffffffffffffffffffffffffffffffffffffffff167f05d42d49d9977a7df1e51e4b685c2c92ef6561ae695c8cbeb188dd60804b6652848460405161104c9291906124d1565b60405180910390a3809250505098975050505050505050565b5f61108e865f8151811061107c5761107b612227565b5b60200260200101515f01518887610bca565b8673ffffffffffffffffffffffffffffffffffffffff1663cac88ea986868987876040518663ffffffff1660e01b81526004016110cf959493929190612602565b5f604051808303815f875af192505050801561110d57506040513d5f823e3d601f19601f8201168201806040525081019061110a919061271a565b60015b61117c573d805f811461113b576040519150601f19603f3d011682016040523d82523d5f602084013e611140565b606091505b5061114a8161126a565b6040517f81ceff3000000000000000000000000000000000000000000000000000000000815260040160405180910390fd5b5f816001835161118c9190611dbd565b8151811061119d5761119c612227565b5b6020026020010151905087600189516111b69190611dbd565b815181106111c7576111c6612227565b5b60200260200101516020015173ffffffffffffffffffffffffffffffffffffffff16885f815181106111fc576111fb612227565b5b60200260200101515f015173ffffffffffffffffffffffffffffffffffffffff167f7a6903074a55cd82eb2ebf76e43e159bc3636d53afe5364e5a86a844cce5c78a8360405161124c9190612761565b60405180910390a380925050509695505050505050565b5f33905090565b6113008160405160240161127e91906127bc565b6040516020818303038152906040527f41304fac000000000000000000000000000000000000000000000000000000007bffffffffffffffffffffffffffffffffffffffffffffffffffffffff19166020820180517bffffffffffffffffffffffffffffffffffffffffffffffffffffffff8381831617835250505050611303565b50565b61131a8161131261131d61133c565b63ffffffff16565b50565b5f6a636f6e736f6c652e6c6f6790505f5f835160208501845afa505050565b6113af819050919050565b60405180608001604052805f73ffffffffffffffffffffffffffffffffffffffff1681526020015f73ffffffffffffffffffffffffffffffffffffffff1681526020015f151581526020015f73ffffffffffffffffffffffffffffffffffffffff1681525090565b6113b76127dc565b565b5f73ffffffffffffffffffffffffffffffffffffffff82169050919050565b5f819050919050565b5f6113fb6113f66113f1846113b9565b6113d8565b6113b9565b9050919050565b5f61140c826113e1565b9050919050565b5f61141d82611402565b9050919050565b61142d81611413565b82525050565b5f6020820190506114465f830184611424565b92915050565b5f61ffff82169050919050565b6114628161144c565b82525050565b5f60208201905061147b5f830184611459565b92915050565b5f604051905090565b5f5ffd5b5f5ffd5b5f61149c826113b9565b9050919050565b6114ac81611492565b81146114b6575f5ffd5b50565b5f813590506114c7816114a3565b92915050565b5f819050919050565b6114df816114cd565b81146114e9575f5ffd5b50565b5f813590506114fa816114d6565b92915050565b5f5ffd5b5f5ffd5b5f5ffd5b5f5f83601f84011261152157611520611500565b5b8235905067ffffffffffffffff81111561153e5761153d611504565b5b60208301915083600182028301111561155a57611559611508565b5b9250929050565b5f5f5f5f5f5f60a0878903121561157b5761157a61148a565b5b5f61158889828a016114b9565b965050602061159989828a016114ec565b95505060406115aa89828a016114ec565b94505060606115bb89828a016114b9565b935050608087013567ffffffffffffffff8111156115dc576115db61148e565b5b6115e889828a0161150c565b92509250509295509295509295565b5f8115159050919050565b61160b816115f7565b82525050565b5f6020820190506116245f830184611602565b92915050565b5f601f19601f8301169050919050565b7f4e487b71000000000000000000000000000000000000000000000000000000005f52604160045260245ffd5b6116708261162a565b810181811067ffffffffffffffff8211171561168f5761168e61163a565b5b80604052505050565b5f6116a1611481565b90506116ad8282611667565b919050565b5f67ffffffffffffffff8211156116cc576116cb61163a565b5b602082029050602081019050919050565b5f5ffd5b5f5ffd5b5f67ffffffffffffffff8211156116ff576116fe61163a565b5b602082029050602081019050919050565b5f61172261171d846116e5565b611698565b9050808382526020820190506020840283018581111561174557611744611508565b5b835b8181101561176e578061175a88826114b9565b845260208401935050602081019050611747565b5050509392505050565b5f82601f83011261178c5761178b611500565b5b813561179c848260208601611710565b91505092915050565b600281106117b1575f5ffd5b50565b5f813590506117c2816117a5565b92915050565b5f61010082840312156117de576117dd6116dd565b5b6117e9610100611698565b90505f6117f8848285016114b9565b5f83015250602082013567ffffffffffffffff81111561181b5761181a6116e1565b5b61182784828501611778565b602083015250604061183b848285016114b9565b604083015250606061184f848285016114b9565b6060830152506080611863848285016117b4565b60808301525060a0611877848285016114ec565b60a08301525060c061188b848285016114ec565b60c08301525060e061189f848285016114b9565b60e08301525092915050565b5f6118bd6118b8846116b2565b611698565b905080838252602082019050602084028301858111156118e0576118df611508565b5b835b8181101561192757803567ffffffffffffffff81111561190557611904611500565b5b80860161191289826117c8565b855260208501945050506020810190506118e2565b5050509392505050565b5f82601f83011261194557611944611500565b5b81356119558482602086016118ab565b91505092915050565b5f5f5f606084860312156119755761197461148a565b5b5f611982868287016114b9565b9350506020611993868287016114ec565b925050604084013567ffffffffffffffff8111156119b4576119b361148e565b5b6119c086828701611931565b9150509250925092565b5f602082840312156119df576119de61148a565b5b5f6119ec848285016114b9565b91505092915050565b5f6119ff82611402565b9050919050565b611a0f816119f5565b82525050565b5f602082019050611a285f830184611a06565b92915050565b611a3781611492565b82525050565b5f602082019050611a505f830184611a2e565b92915050565b5f5f60408385031215611a6c57611a6b61148a565b5b5f83013567ffffffffffffffff811115611a8957611a8861148e565b5b611a9585828601611931565b9250506020611aa6858286016114ec565b9150509250929050565b611ab98161144c565b8114611ac3575f5ffd5b50565b5f81359050611ad481611ab0565b92915050565b5f60208284031215611aef57611aee61148a565b5b5f611afc84828501611ac6565b91505092915050565b5f5f60408385031215611b1b57611b1a61148a565b5b5f611b28858286016114b9565b9250506020611b39858286016114b9565b9150509250929050565b5f611b4d82611492565b9050919050565b611b5d81611b43565b8114611b67575f5ffd5b50565b5f81519050611b7881611b54565b92915050565b5f60208284031215611b9357611b9261148a565b5b5f611ba084828501611b6a565b91505092915050565b5f82825260208201905092915050565b7f4e6f6e2d6c656e64696e6720706f6f6c000000000000000000000000000000005f82015250565b5f611bed601083611ba9565b9150611bf882611bb9565b602082019050919050565b5f6020820190508181035f830152611c1a81611be1565b9050919050565b5f611c2b826113b9565b9050919050565b611c3b81611c21565b8114611c45575f5ffd5b50565b5f81359050611c5681611c32565b92915050565b5f5f60408385031215611c7257611c7161148a565b5b5f611c7f85828601611c48565b925050602083013567ffffffffffffffff811115611ca057611c9f61148e565b5b611cac85828601611931565b9150509250929050565b7f4e487b71000000000000000000000000000000000000000000000000000000005f52601160045260245ffd5b5f611ced826114cd565b9150611cf8836114cd565b9250828201905080821115611d1057611d0f611cb6565b5b92915050565b5f81519050611d24816114d6565b92915050565b5f60208284031215611d3f57611d3e61148a565b5b5f611d4c84828501611d16565b91505092915050565b7f4e6f2070726f666974206d6164650000000000000000000000000000000000005f82015250565b5f611d89600e83611ba9565b9150611d9482611d55565b602082019050919050565b5f6020820190508181035f830152611db681611d7d565b9050919050565b5f611dc7826114cd565b9150611dd2836114cd565b9250828203905081811115611dea57611de9611cb6565b5b92915050565b7f4e6f2073776170730000000000000000000000000000000000000000000000005f82015250565b5f611e24600883611ba9565b9150611e2f82611df0565b602082019050919050565b5f6020820190508181035f830152611e5181611e18565b9050919050565b5f81519050919050565b5f82825260208201905092915050565b5f819050602082019050919050565b611e8a81611492565b82525050565b5f81519050919050565b5f82825260208201905092915050565b5f819050602082019050919050565b5f611ec48383611e81565b60208301905092915050565b5f602082019050919050565b5f611ee682611e90565b611ef08185611e9a565b9350611efb83611eaa565b805f5b83811015611f2b578151611f128882611eb9565b9750611f1d83611ed0565b925050600181019050611efe565b5085935050505092915050565b7f4e487b71000000000000000000000000000000000000000000000000000000005f52602160045260245ffd5b60028110611f7657611f75611f38565b5b50565b5f819050611f8682611f65565b919050565b5f611f9582611f79565b9050919050565b611fa581611f8b565b82525050565b611fb4816114cd565b82525050565b5f61010083015f830151611fd05f860182611e81565b5060208301518482036020860152611fe88282611edc565b9150506040830151611ffd6040860182611e81565b5060608301516120106060860182611e81565b5060808301516120236080860182611f9c565b5060a083015161203660a0860182611fab565b5060c083015161204960c0860182611fab565b5060e083015161205c60e0860182611e81565b508091505092915050565b5f6120728383611fba565b905092915050565b5f602082019050919050565b5f61209082611e58565b61209a8185611e62565b9350836020820285016120ac85611e72565b805f5b858110156120e757848403895281516120c88582612067565b94506120d38361207a565b925060208a019950506001810190506120af565b50829750879550505050505092915050565b5f60408201905061210c5f830185611a2e565b818103602083015261211e8184612086565b90509392505050565b612130816114cd565b82525050565b5f81519050919050565b5f82825260208201905092915050565b8281835e5f83830152505050565b5f61216882612136565b6121728185612140565b9350612182818560208601612150565b61218b8161162a565b840191505092915050565b5f819050919050565b5f6121b96121b46121af84612196565b6113d8565b61144c565b9050919050565b6121c98161219f565b82525050565b5f60a0820190506121e25f830188611a2e565b6121ef6020830187611a2e565b6121fc6040830186612127565b818103606083015261220e818561215e565b905061221d60808301846121c0565b9695505050505050565b7f4e487b71000000000000000000000000000000000000000000000000000000005f52603260045260245ffd5b5f6040820190506122675f830185611a2e565b6122746020830184612127565b9392505050565b612284816115f7565b811461228e575f5ffd5b50565b5f8151905061229f8161227b565b92915050565b5f602082840312156122ba576122b961148a565b5b5f6122c784828501612291565b91505092915050565b5f6122da826114cd565b91506122e5836114cd565b92508282026122f3816114cd565b9150828204841483151761230a57612309611cb6565b5b5092915050565b7f4e487b71000000000000000000000000000000000000000000000000000000005f52601260045260245ffd5b5f612348826114cd565b9150612353836114cd565b92508261236357612362612311565b5b828204905092915050565b5f62ffffff82169050919050565b6123858161236e565b811461238f575f5ffd5b50565b5f815190506123a08161237c565b92915050565b5f602082840312156123bb576123ba61148a565b5b5f6123c884828501612392565b91505092915050565b6123da8161236e565b82525050565b5f6020820190506123f35f8301846123d1565b92915050565b6124028161236e565b82525050565b612411816113b9565b82525050565b61010082015f82015161242c5f850182611e81565b50602082015161243f6020850182611e81565b50604082015161245260408501826123f9565b5060608201516124656060850182611e81565b5060808201516124786080850182611fab565b5060a082015161248b60a0850182611fab565b5060c082015161249e60c0850182611fab565b5060e08201516124b160e0850182612408565b50505050565b5f610100820190506124cb5f830184612417565b92915050565b5f6040820190506124e45f8301856123d1565b6124f16020830184612127565b9392505050565b5f81519050919050565b5f82825260208201905092915050565b5f819050602082019050919050565b61252a816115f7565b82525050565b608082015f8201516125445f850182611e81565b5060208201516125576020850182611e81565b50604082015161256a6040850182612521565b50606082015161257d6060850182611e81565b50505050565b5f61258e8383612530565b60808301905092915050565b5f602082019050919050565b5f6125b0826124f8565b6125ba8185612502565b93506125c583612512565b805f5b838110156125f55781516125dc8882612583565b97506125e78361259a565b9250506001810190506125c8565b5085935050505092915050565b5f60a0820190506126155f830188612127565b6126226020830187612127565b818103604083015261263481866125a6565b90506126436060830185611a2e565b6126506080830184612127565b9695505050505050565b5f67ffffffffffffffff8211156126745761267361163a565b5b602082029050602081019050919050565b5f6126976126928461265a565b611698565b905080838252602082019050602084028301858111156126ba576126b9611508565b5b835b818110156126e357806126cf8882611d16565b8452602084019350506020810190506126bc565b5050509392505050565b5f82601f83011261270157612700611500565b5b8151612711848260208601612685565b91505092915050565b5f6020828403121561272f5761272e61148a565b5b5f82015167ffffffffffffffff81111561274c5761274b61148e565b5b612758848285016126ed565b91505092915050565b5f6020820190506127745f830184612127565b92915050565b5f81519050919050565b5f61278e8261277a565b6127988185611ba9565b93506127a8818560208601612150565b6127b18161162a565b840191505092915050565b5f6020820190508181035f8301526127d48184612784565b905092915050565b7f4e487b71000000000000000000000000000000000000000000000000000000005f52605160045260245ffdfea2646970667358221220d6799bdd2572bb6685503e728dd0c0389442c3eba5dac4728c5e1a68afe40b3c64736f6c634300081e0033","linkReferences":{}},"methodIdentifiers":{"ADDRESSES_PROVIDER()":"0542975c","LENDING_POOL()":"b4dcfc77","POOL()":"7535d246","_executeSwaps((address,address[],address,address,uint8,uint256,uint256,address)[],uint256)":"c30f5a8b","executeArbitrage(address,uint256,(address,address[],address,address,uint8,uint256,uint256,address)[])":"293ef1db","executeOperation(address,uint256,uint256,address,bytes)":"1b11d0ff","keeperFeeBps()":"0eab7d63","owner()":"8da5cb5b","renounceOwnership()":"715018a6","setKeeperFee(uint16)":"e4cf3549","setPool(address)":"4437152a","transferOwnership(address)":"f2fde38b","withdraw(address,address)":"f940e385"},"id":0}