{"abi":[{"type":"constructor","inputs":[{"name":"_owner","type":"address","internalType":"address"},{"name":"_poolAddress","type":"address","internalType":"address"}],"stateMutability":"nonpayable"},{"type":"function","name":"ADDRESSES_PROVIDER","inputs":[],"outputs":[{"name":"","type":"address","internalType":"contract IPoolAddressesProvider"}],"stateMutability":"view"},{"type":"function","name":"LENDING_POOL","inputs":[],"outputs":[{"name":"","type":"address","internalType":"contract IPool"}],"stateMutability":"view"},{"type":"function","name":"POOL","inputs":[],"outputs":[{"name":"","type":"address","internalType":"contract IPool"}],"stateMutability":"view"},{"type":"function","name":"_executeSwaps","inputs":[{"name":"_swaps","type":"tuple[]","internalType":"struct Swap[]","components":[{"name":"router","type":"address","internalType":"address"},{"name":"pools","type":"address[]","internalType":"address[]"},{"name":"tokenIn","type":"address","internalType":"address"},{"name":"tokenOut","type":"address","internalType":"address"},{"name":"dexType","type":"uint8","internalType":"enum DexType"},{"name":"amountIn","type":"uint256","internalType":"uint256"},{"name":"amountOut","type":"uint256","internalType":"uint256"},{"name":"factory","type":"address","internalType":"address"}]},{"name":"_initialAmount","type":"uint256","internalType":"uint256"}],"outputs":[],"stateMutability":"nonpayable"},{"type":"function","name":"executeArbitrage","inputs":[{"name":"asset","type":"address","internalType":"address"},{"name":"amount","type":"uint256","internalType":"uint256"},{"name":"_swaps","type":"tuple[]","internalType":"struct Swap[]","components":[{"name":"router","type":"address","internalType":"address"},{"name":"pools","type":"address[]","internalType":"address[]"},{"name":"tokenIn","type":"address","internalType":"address"},{"name":"tokenOut","type":"address","internalType":"address"},{"name":"dexType","type":"uint8","internalType":"enum DexType"},{"name":"amountIn","type":"uint256","internalType":"uint256"},{"name":"amountOut","type":"uint256","internalType":"uint256"},{"name":"factory","type":"address","internalType":"address"}]}],"outputs":[],"stateMutability":"nonpayable"},{"type":"function","name":"executeOperation","inputs":[{"name":"asset","type":"address","internalType":"address"},{"name":"amount","type":"uint256","internalType":"uint256"},{"name":"premium","type":"uint256","internalType":"uint256"},{"name":"","type":"address","internalType":"address"},{"name":"params","type":"bytes","internalType":"bytes"}],"outputs":[{"name":"","type":"bool","internalType":"bool"}],"stateMutability":"nonpayable"},{"type":"function","name":"keeperFeeBps","inputs":[],"outputs":[{"name":"","type":"uint16","internalType":"uint16"}],"stateMutability":"view"},{"type":"function","name":"owner","inputs":[],"outputs":[{"name":"","type":"address","internalType":"address"}],"stateMutability":"view"},{"type":"function","name":"renounceOwnership","inputs":[],"outputs":[],"stateMutability":"nonpayable"},{"type":"function","name":"setKeeperFee","inputs":[{"name":"_fee","type":"uint16","internalType":"uint16"}],"outputs":[],"stateMutability":"nonpayable"},{"type":"function","name":"setPool","inputs":[{"name":"_newPool","type":"address","internalType":"address"}],"outputs":[],"stateMutability":"nonpayable"},{"type":"function","name":"transferOwnership","inputs":[{"name":"newOwner","type":"address","internalType":"address"}],"outputs":[],"stateMutability":"nonpayable"},{"type":"function","name":"withdraw","inputs":[{"name":"_token","type":"address","internalType":"address"},{"name":"_to","type":"address","internalType":"address"}],"outputs":[],"stateMutability":"nonpayable"},{"type":"event","name":"OwnershipTransferred","inputs":[{"name":"previousOwner","type":"address","indexed":true,"internalType":"address"},{"name":"newOwner","type":"address","indexed":true,"internalType":"address"}],"anonymous":false},{"type":"event","name":"SwapAttempt","inputs":[{"name":"tokenIn","type":"address","indexed":true,"internalType":"address"},{"name":"tokenOut","type":"address","indexed":true,"internalType":"address"},{"name":"fee","type":"uint24","indexed":false,"internalType":"uint24"}],"anonymous":false},{"type":"event","name":"SwapSuccess","inputs":[{"name":"tokenIn","type":"address","indexed":true,"internalType":"address"},{"name":"tokenOut","type":"address","indexed":true,"internalType":"address"},{"name":"fee","type":"uint24","indexed":false,"internalType":"uint24"},{"name":"amountOut","type":"uint256","indexed":false,"internalType":"uint256"}],"anonymous":false},{"type":"error","name":"OwnableInvalidOwner","inputs":[{"name":"owner","type":"address","internalType":"address"}]},{"type":"error","name":"OwnableUnauthorizedAccount","inputs":[{"name":"account","type":"address","internalType":"address"}]},{"type":"error","name":"SwapFailed","inputs":[]}],"bytecode":{"object":"0x60806040526103e8600160146101000a81548161ffff021916908361ffff16021790555034801561002e575f5ffd5b506040516128c73803806128c783398181016040528101906100509190610239565b81805f73ffffffffffffffffffffffffffffffffffffffff168173ffffffffffffffffffffffffffffffffffffffff16036100c2575f6040517f1e4fbdf70000000000000000000000000000000000000000000000000000000081526004016100b99190610286565b60405180910390fd5b6100d18161011a60201b60201c565b50508060015f6101000a81548173ffffffffffffffffffffffffffffffffffffffff021916908373ffffffffffffffffffffffffffffffffffffffff160217905550505061029f565b5f5f5f9054906101000a900473ffffffffffffffffffffffffffffffffffffffff169050815f5f6101000a81548173ffffffffffffffffffffffffffffffffffffffff021916908373ffffffffffffffffffffffffffffffffffffffff1602179055508173ffffffffffffffffffffffffffffffffffffffff168173ffffffffffffffffffffffffffffffffffffffff167f8be0079c531659141344cd1fd0a4f28419497f9722a3daafe3b4186f6b6457e060405160405180910390a35050565b5f5ffd5b5f73ffffffffffffffffffffffffffffffffffffffff82169050919050565b5f610208826101df565b9050919050565b610218816101fe565b8114610222575f5ffd5b50565b5f815190506102338161020f565b92915050565b5f5f6040838503121561024f5761024e6101db565b5b5f61025c85828601610225565b925050602061026d85828601610225565b9150509250929050565b610280816101fe565b82525050565b5f6020820190506102995f830184610277565b92915050565b61261b806102ac5f395ff3fe608060405234801561000f575f5ffd5b50600436106100cd575f3560e01c80637535d2461161008a578063c30f5a8b11610064578063c30f5a8b146101d9578063e4cf3549146101f5578063f2fde38b14610211578063f940e3851461022d576100cd565b80637535d2461461017f5780638da5cb5b1461019d578063b4dcfc77146101bb576100cd565b80630542975c146100d15780630eab7d63146100ef5780631b11d0ff1461010d578063293ef1db1461013d5780634437152a14610159578063715018a614610175575b5f5ffd5b6100d9610249565b6040516100e691906113d7565b60405180910390f35b6100f76102dd565b604051610104919061140c565b60405180910390f35b61012760048036038101906101229190611505565b6102f1565b60405161013491906115b5565b60405180910390f35b61015760048036038101906101529190611902565b6104c5565b005b610173600480360381019061016e919061196e565b6105c2565b005b61017d61060d565b005b610187610620565b60405161019491906119b9565b60405180910390f35b6101a5610648565b6040516101b291906119e1565b60405180910390f35b6101c361066f565b6040516101d091906119b9565b60405180910390f35b6101f360048036038101906101ee91906119fa565b610694565b005b61020f600480360381019061020a9190611a7e565b610802565b005b61022b6004803603810190610226919061196e565b61082a565b005b61024760048036038101906102429190611aa9565b6108ae565b005b5f60015f9054906101000a900473ffffffffffffffffffffffffffffffffffffffff1673ffffffffffffffffffffffffffffffffffffffff16630542975c6040518163ffffffff1660e01b8152600401602060405180830381865afa1580156102b4573d5f5f3e3d5ffd5b505050506040513d601f19601f820116820180604052508101906102d89190611b22565b905090565b600160149054906101000a900461ffff1681565b5f60015f9054906101000a900473ffffffffffffffffffffffffffffffffffffffff1673ffffffffffffffffffffffffffffffffffffffff163373ffffffffffffffffffffffffffffffffffffffff1614610381576040517f08c379a000000000000000000000000000000000000000000000000000000000815260040161037890611ba7565b60405180910390fd5b5f5f84848101906103929190611c00565b915091506103a08189610694565b5f87896103ad9190611c87565b90505f8a73ffffffffffffffffffffffffffffffffffffffff166370a08231306040518263ffffffff1660e01b81526004016103e991906119e1565b602060405180830381865afa158015610404573d5f5f3e3d5ffd5b505050506040513d601f19601f820116820180604052508101906104289190611cce565b905081811161046c576040517f08c379a000000000000000000000000000000000000000000000000000000000815260040161046390611d43565b60405180910390fd5b5f82826104799190611d61565b9050610486818d876109b4565b6104b28c60015f9054906101000a900473ffffffffffffffffffffffffffffffffffffffff1685610b02565b6001955050505050509695505050505050565b5f815111610508576040517f08c379a00000000000000000000000000000000000000000000000000000000081526004016104ff90611dde565b60405180910390fd5b5f338260405160200161051c92919061209d565b604051602081830303815290604052905060015f9054906101000a900473ffffffffffffffffffffffffffffffffffffffff1673ffffffffffffffffffffffffffffffffffffffff166342b0b77c308686855f6040518663ffffffff1660e01b815260040161058f959493929190612173565b5f604051808303815f87803b1580156105a6575f5ffd5b505af11580156105b8573d5f5f3e3d5ffd5b5050505050505050565b6105ca610b83565b8060015f6101000a81548173ffffffffffffffffffffffffffffffffffffffff021916908373ffffffffffffffffffffffffffffffffffffffff16021790555050565b610615610b83565b61061e5f610c0a565b565b5f60015f9054906101000a900473ffffffffffffffffffffffffffffffffffffffff16905090565b5f5f5f9054906101000a900473ffffffffffffffffffffffffffffffffffffffff16905090565b60015f9054906101000a900473ffffffffffffffffffffffffffffffffffffffff1681565b5f8190505f5f90505b83518110156107fc575f8482815181106106ba576106b96121cb565b5b602002602001015190505f5f8260a00151116106d657836106dc565b8160a001515b90505f60028111156106f1576106f0611edc565b5b8260800151600281111561070857610707611edc565b5b148061073c57506001600281111561072357610722611edc565b5b8260800151600281111561073a57610739611edc565b5b145b156107815761077a825f015183602001515f8151811061075f5761075e6121cb565b5b602002602001015184604001518560600151855f3042610ccb565b93506107ed565b60028081111561079457610793611edc565b5b826080015160028111156107ab576107aa611edc565b5b036107ec576107e9825f015183602001515f815181106107ce576107cd6121cb565b5b602002602001015184604001518560600151855f3042610f9d565b93505b5b5050808060010191505061069d565b50505050565b61080a610b83565b80600160146101000a81548161ffff021916908361ffff16021790555050565b610832610b83565b5f73ffffffffffffffffffffffffffffffffffffffff168173ffffffffffffffffffffffffffffffffffffffff16036108a2575f6040517f1e4fbdf700000000000000000000000000000000000000000000000000000000815260040161089991906119e1565b60405180910390fd5b6108ab81610c0a565b50565b6108b6610b83565b8173ffffffffffffffffffffffffffffffffffffffff1663a9059cbb828473ffffffffffffffffffffffffffffffffffffffff166370a08231306040518263ffffffff1660e01b815260040161090c91906119e1565b602060405180830381865afa158015610927573d5f5f3e3d5ffd5b505050506040513d601f19601f8201168201806040525081019061094b9190611cce565b6040518363ffffffff1660e01b81526004016109689291906121f8565b6020604051808303815f875af1158015610984573d5f5f3e3d5ffd5b505050506040513d601f19601f820116820180604052508101906109a89190612249565b6109b0575f5ffd5b5050565b5f612710600160149054906101000a900461ffff1661ffff16856109d89190612274565b6109e291906122e2565b90508273ffffffffffffffffffffffffffffffffffffffff1663a9059cbb83836040518363ffffffff1660e01b8152600401610a1f9291906121f8565b6020604051808303815f875af1158015610a3b573d5f5f3e3d5ffd5b505050506040513d601f19601f82011682018060405250810190610a5f9190612249565b610a67575f5ffd5b8273ffffffffffffffffffffffffffffffffffffffff1663a9059cbb610a8b610648565b8387610a979190611d61565b6040518363ffffffff1660e01b8152600401610ab49291906121f8565b6020604051808303815f875af1158015610ad0573d5f5f3e3d5ffd5b505050506040513d601f19601f82011682018060405250810190610af49190612249565b610afc575f5ffd5b50505050565b8273ffffffffffffffffffffffffffffffffffffffff1663095ea7b383836040518363ffffffff1660e01b8152600401610b3d9291906121f8565b6020604051808303815f875af1158015610b59573d5f5f3e3d5ffd5b505050506040513d601f19601f82011682018060405250810190610b7d9190612249565b50505050565b610b8b61126f565b73ffffffffffffffffffffffffffffffffffffffff16610ba9610648565b73ffffffffffffffffffffffffffffffffffffffff1614610c0857610bcc61126f565b6040517f118cdaa7000000000000000000000000000000000000000000000000000000008152600401610bff91906119e1565b60405180910390fd5b565b5f5f5f9054906101000a900473ffffffffffffffffffffffffffffffffffffffff169050815f5f6101000a81548173ffffffffffffffffffffffffffffffffffffffff021916908373ffffffffffffffffffffffffffffffffffffffff1602179055508173ffffffffffffffffffffffffffffffffffffffff168173ffffffffffffffffffffffffffffffffffffffff167f8be0079c531659141344cd1fd0a4f28419497f9722a3daafe3b4186f6b6457e060405160405180910390a35050565b5f610cd7878a87610b02565b5f8873ffffffffffffffffffffffffffffffffffffffff1663ddca3f436040518163ffffffff1660e01b8152600401602060405180830381865afa158015610d21573d5f5f3e3d5ffd5b505050506040513d601f19601f82011682018060405250810190610d45919061234a565b90508673ffffffffffffffffffffffffffffffffffffffff168873ffffffffffffffffffffffffffffffffffffffff167f6abc1c618bf936356ebe25be6357ce151482b5bfe1e750b919637c2f7827919983604051610da49190612384565b60405180910390a38973ffffffffffffffffffffffffffffffffffffffff1663414bf3896040518061010001604052808b73ffffffffffffffffffffffffffffffffffffffff1681526020018a73ffffffffffffffffffffffffffffffffffffffff1681526020018462ffffff1681526020018773ffffffffffffffffffffffffffffffffffffffff1681526020018681526020018981526020018881526020015f73ffffffffffffffffffffffffffffffffffffffff168152506040518263ffffffff1660e01b8152600401610e7b919061245b565b6020604051808303815f875af1925050508015610eb657506040513d601f19601f82011682018060405250810190610eb39190611cce565b60015b610f25573d805f8114610ee4576040519150601f19603f3d011682016040523d82523d5f602084013e610ee9565b606091505b50610ef381611276565b6040517f81ceff3000000000000000000000000000000000000000000000000000000000815260040160405180910390fd5b8773ffffffffffffffffffffffffffffffffffffffff168973ffffffffffffffffffffffffffffffffffffffff167f05d42d49d9977a7df1e51e4b685c2c92ef6561ae695c8cbeb188dd60804b66528484604051610f84929190612475565b60405180910390a3809250505098975050505050505050565b5f610fa9878a87610b02565b5f8873ffffffffffffffffffffffffffffffffffffffff1663ddca3f436040518163ffffffff1660e01b8152600401602060405180830381865afa158015610ff3573d5f5f3e3d5ffd5b505050506040513d601f19601f82011682018060405250810190611017919061234a565b90508673ffffffffffffffffffffffffffffffffffffffff168873ffffffffffffffffffffffffffffffffffffffff167f6abc1c618bf936356ebe25be6357ce151482b5bfe1e750b919637c2f78279199836040516110769190612384565b60405180910390a38973ffffffffffffffffffffffffffffffffffffffff1663414bf3896040518061010001604052808b73ffffffffffffffffffffffffffffffffffffffff1681526020018a73ffffffffffffffffffffffffffffffffffffffff1681526020018462ffffff1681526020018773ffffffffffffffffffffffffffffffffffffffff1681526020018681526020018981526020018881526020015f73ffffffffffffffffffffffffffffffffffffffff168152506040518263ffffffff1660e01b815260040161114d919061253c565b6020604051808303815f875af192505050801561118857506040513d601f19601f820116820180604052508101906111859190611cce565b60015b6111f7573d805f81146111b6576040519150601f19603f3d011682016040523d82523d5f602084013e6111bb565b606091505b506111c581611276565b6040517f81ceff3000000000000000000000000000000000000000000000000000000000815260040160405180910390fd5b8773ffffffffffffffffffffffffffffffffffffffff168973ffffffffffffffffffffffffffffffffffffffff167f05d42d49d9977a7df1e51e4b685c2c92ef6561ae695c8cbeb188dd60804b66528484604051611256929190612475565b60405180910390a3809250505098975050505050505050565b5f33905090565b61130c8160405160240161128a9190612598565b6040516020818303038152906040527f41304fac000000000000000000000000000000000000000000000000000000007bffffffffffffffffffffffffffffffffffffffffffffffffffffffff19166020820180517bffffffffffffffffffffffffffffffffffffffffffffffffffffffff838183161783525050505061130f565b50565b6113268161131e611329611348565b63ffffffff16565b50565b5f6a636f6e736f6c652e6c6f6790505f5f835160208501845afa505050565b611353819050919050565b61135b6125b8565b565b5f73ffffffffffffffffffffffffffffffffffffffff82169050919050565b5f819050919050565b5f61139f61139a6113958461135d565b61137c565b61135d565b9050919050565b5f6113b082611385565b9050919050565b5f6113c1826113a6565b9050919050565b6113d1816113b7565b82525050565b5f6020820190506113ea5f8301846113c8565b92915050565b5f61ffff82169050919050565b611406816113f0565b82525050565b5f60208201905061141f5f8301846113fd565b92915050565b5f604051905090565b5f5ffd5b5f5ffd5b5f6114408261135d565b9050919050565b61145081611436565b811461145a575f5ffd5b50565b5f8135905061146b81611447565b92915050565b5f819050919050565b61148381611471565b811461148d575f5ffd5b50565b5f8135905061149e8161147a565b92915050565b5f5ffd5b5f5ffd5b5f5ffd5b5f5f83601f8401126114c5576114c46114a4565b5b8235905067ffffffffffffffff8111156114e2576114e16114a8565b5b6020830191508360018202830111156114fe576114fd6114ac565b5b9250929050565b5f5f5f5f5f5f60a0878903121561151f5761151e61142e565b5b5f61152c89828a0161145d565b965050602061153d89828a01611490565b955050604061154e89828a01611490565b945050606061155f89828a0161145d565b935050608087013567ffffffffffffffff8111156115805761157f611432565b5b61158c89828a016114b0565b92509250509295509295509295565b5f8115159050919050565b6115af8161159b565b82525050565b5f6020820190506115c85f8301846115a6565b92915050565b5f601f19601f8301169050919050565b7f4e487b71000000000000000000000000000000000000000000000000000000005f52604160045260245ffd5b611614826115ce565b810181811067ffffffffffffffff82111715611633576116326115de565b5b80604052505050565b5f611645611425565b9050611651828261160b565b919050565b5f67ffffffffffffffff8211156116705761166f6115de565b5b602082029050602081019050919050565b5f5ffd5b5f5ffd5b5f67ffffffffffffffff8211156116a3576116a26115de565b5b602082029050602081019050919050565b5f6116c66116c184611689565b61163c565b905080838252602082019050602084028301858111156116e9576116e86114ac565b5b835b8181101561171257806116fe888261145d565b8452602084019350506020810190506116eb565b5050509392505050565b5f82601f8301126117305761172f6114a4565b5b81356117408482602086016116b4565b91505092915050565b60038110611755575f5ffd5b50565b5f8135905061176681611749565b92915050565b5f610100828403121561178257611781611681565b5b61178d61010061163c565b90505f61179c8482850161145d565b5f83015250602082013567ffffffffffffffff8111156117bf576117be611685565b5b6117cb8482850161171c565b60208301525060406117df8482850161145d565b60408301525060606117f38482850161145d565b606083015250608061180784828501611758565b60808301525060a061181b84828501611490565b60a08301525060c061182f84828501611490565b60c08301525060e06118438482850161145d565b60e08301525092915050565b5f61186161185c84611656565b61163c565b90508083825260208201905060208402830185811115611884576118836114ac565b5b835b818110156118cb57803567ffffffffffffffff8111156118a9576118a86114a4565b5b8086016118b6898261176c565b85526020850194505050602081019050611886565b5050509392505050565b5f82601f8301126118e9576118e86114a4565b5b81356118f984826020860161184f565b91505092915050565b5f5f5f606084860312156119195761191861142e565b5b5f6119268682870161145d565b935050602061193786828701611490565b925050604084013567ffffffffffffffff81111561195857611957611432565b5b611964868287016118d5565b9150509250925092565b5f602082840312156119835761198261142e565b5b5f6119908482850161145d565b91505092915050565b5f6119a3826113a6565b9050919050565b6119b381611999565b82525050565b5f6020820190506119cc5f8301846119aa565b92915050565b6119db81611436565b82525050565b5f6020820190506119f45f8301846119d2565b92915050565b5f5f60408385031215611a1057611a0f61142e565b5b5f83013567ffffffffffffffff811115611a2d57611a2c611432565b5b611a39858286016118d5565b9250506020611a4a85828601611490565b9150509250929050565b611a5d816113f0565b8114611a67575f5ffd5b50565b5f81359050611a7881611a54565b92915050565b5f60208284031215611a9357611a9261142e565b5b5f611aa084828501611a6a565b91505092915050565b5f5f60408385031215611abf57611abe61142e565b5b5f611acc8582860161145d565b9250506020611add8582860161145d565b9150509250929050565b5f611af182611436565b9050919050565b611b0181611ae7565b8114611b0b575f5ffd5b50565b5f81519050611b1c81611af8565b92915050565b5f60208284031215611b3757611b3661142e565b5b5f611b4484828501611b0e565b91505092915050565b5f82825260208201905092915050565b7f4e6f6e2d6c656e64696e6720706f6f6c000000000000000000000000000000005f82015250565b5f611b91601083611b4d565b9150611b9c82611b5d565b602082019050919050565b5f6020820190508181035f830152611bbe81611b85565b9050919050565b5f611bcf8261135d565b9050919050565b611bdf81611bc5565b8114611be9575f5ffd5b50565b5f81359050611bfa81611bd6565b92915050565b5f5f60408385031215611c1657611c1561142e565b5b5f611c2385828601611bec565b925050602083013567ffffffffffffffff811115611c4457611c43611432565b5b611c50858286016118d5565b9150509250929050565b7f4e487b71000000000000000000000000000000000000000000000000000000005f52601160045260245ffd5b5f611c9182611471565b9150611c9c83611471565b9250828201905080821115611cb457611cb3611c5a565b5b92915050565b5f81519050611cc88161147a565b92915050565b5f60208284031215611ce357611ce261142e565b5b5f611cf084828501611cba565b91505092915050565b7f4e6f2070726f666974206d6164650000000000000000000000000000000000005f82015250565b5f611d2d600e83611b4d565b9150611d3882611cf9565b602082019050919050565b5f6020820190508181035f830152611d5a81611d21565b9050919050565b5f611d6b82611471565b9150611d7683611471565b9250828203905081811115611d8e57611d8d611c5a565b5b92915050565b7f4e6f2073776170730000000000000000000000000000000000000000000000005f82015250565b5f611dc8600883611b4d565b9150611dd382611d94565b602082019050919050565b5f6020820190508181035f830152611df581611dbc565b9050919050565b5f81519050919050565b5f82825260208201905092915050565b5f819050602082019050919050565b611e2e81611436565b82525050565b5f81519050919050565b5f82825260208201905092915050565b5f819050602082019050919050565b5f611e688383611e25565b60208301905092915050565b5f602082019050919050565b5f611e8a82611e34565b611e948185611e3e565b9350611e9f83611e4e565b805f5b83811015611ecf578151611eb68882611e5d565b9750611ec183611e74565b925050600181019050611ea2565b5085935050505092915050565b7f4e487b71000000000000000000000000000000000000000000000000000000005f52602160045260245ffd5b60038110611f1a57611f19611edc565b5b50565b5f819050611f2a82611f09565b919050565b5f611f3982611f1d565b9050919050565b611f4981611f2f565b82525050565b611f5881611471565b82525050565b5f61010083015f830151611f745f860182611e25565b5060208301518482036020860152611f8c8282611e80565b9150506040830151611fa16040860182611e25565b506060830151611fb46060860182611e25565b506080830151611fc76080860182611f40565b5060a0830151611fda60a0860182611f4f565b5060c0830151611fed60c0860182611f4f565b5060e083015161200060e0860182611e25565b508091505092915050565b5f6120168383611f5e565b905092915050565b5f602082019050919050565b5f61203482611dfc565b61203e8185611e06565b93508360208202850161205085611e16565b805f5b8581101561208b578484038952815161206c858261200b565b94506120778361201e565b925060208a01995050600181019050612053565b50829750879550505050505092915050565b5f6040820190506120b05f8301856119d2565b81810360208301526120c2818461202a565b90509392505050565b6120d481611471565b82525050565b5f81519050919050565b5f82825260208201905092915050565b8281835e5f83830152505050565b5f61210c826120da565b61211681856120e4565b93506121268185602086016120f4565b61212f816115ce565b840191505092915050565b5f819050919050565b5f61215d6121586121538461213a565b61137c565b6113f0565b9050919050565b61216d81612143565b82525050565b5f60a0820190506121865f8301886119d2565b61219360208301876119d2565b6121a060408301866120cb565b81810360608301526121b28185612102565b90506121c16080830184612164565b9695505050505050565b7f4e487b71000000000000000000000000000000000000000000000000000000005f52603260045260245ffd5b5f60408201905061220b5f8301856119d2565b61221860208301846120cb565b9392505050565b6122288161159b565b8114612232575f5ffd5b50565b5f815190506122438161221f565b92915050565b5f6020828403121561225e5761225d61142e565b5b5f61226b84828501612235565b91505092915050565b5f61227e82611471565b915061228983611471565b925082820261229781611471565b915082820484148315176122ae576122ad611c5a565b5b5092915050565b7f4e487b71000000000000000000000000000000000000000000000000000000005f52601260045260245ffd5b5f6122ec82611471565b91506122f783611471565b925082612307576123066122b5565b5b828204905092915050565b5f62ffffff82169050919050565b61232981612312565b8114612333575f5ffd5b50565b5f8151905061234481612320565b92915050565b5f6020828403121561235f5761235e61142e565b5b5f61236c84828501612336565b91505092915050565b61237e81612312565b82525050565b5f6020820190506123975f830184612375565b92915050565b6123a681612312565b82525050565b6123b58161135d565b82525050565b61010082015f8201516123d05f850182611e25565b5060208201516123e36020850182611e25565b5060408201516123f6604085018261239d565b5060608201516124096060850182611e25565b50608082015161241c6080850182611f4f565b5060a082015161242f60a0850182611f4f565b5060c082015161244260c0850182611f4f565b5060e082015161245560e08501826123ac565b50505050565b5f6101008201905061246f5f8301846123bb565b92915050565b5f6040820190506124885f830185612375565b61249560208301846120cb565b9392505050565b61010082015f8201516124b15f850182611e25565b5060208201516124c46020850182611e25565b5060408201516124d7604085018261239d565b5060608201516124ea6060850182611e25565b5060808201516124fd6080850182611f4f565b5060a082015161251060a0850182611f4f565b5060c082015161252360c0850182611f4f565b5060e082015161253660e08501826123ac565b50505050565b5f610100820190506125505f83018461249c565b92915050565b5f81519050919050565b5f61256a82612556565b6125748185611b4d565b93506125848185602086016120f4565b61258d816115ce565b840191505092915050565b5f6020820190508181035f8301526125b08184612560565b905092915050565b7f4e487b71000000000000000000000000000000000000000000000000000000005f52605160045260245ffdfea2646970667358221220f5e5619692eca787457a09910f0045df3d5ba4e84a5d0a93a5ab6dce9658bf3464736f6c634300081e0033","linkReferences":{}},"methodIdentifiers":{"ADDRESSES_PROVIDER()":"0542975c","LENDING_POOL()":"b4dcfc77","POOL()":"7535d246","_executeSwaps((address,address[],address,address,uint8,uint256,uint256,address)[],uint256)":"c30f5a8b","executeArbitrage(address,uint256,(address,address[],address,address,uint8,uint256,uint256,address)[])":"293ef1db","executeOperation(address,uint256,uint256,address,bytes)":"1b11d0ff","keeperFeeBps()":"0eab7d63","owner()":"8da5cb5b","renounceOwnership()":"715018a6","setKeeperFee(uint16)":"e4cf3549","setPool(address)":"4437152a","transferOwnership(address)":"f2fde38b","withdraw(address,address)":"f940e385"},"id":0}