{"abi":[{"type":"constructor","inputs":[{"name":"_pool","type":"address","internalType":"address"},{"name":"_multiSig","type":"address","internalType":"address"}],"stateMutability":"nonpayable"},{"type":"receive","stateMutability":"payable"},{"type":"function","name":"POOL","inputs":[],"outputs":[{"name":"","type":"address","internalType":"contract IPool"}],"stateMutability":"view"},{"type":"function","name":"changeMultiSig","inputs":[{"name":"_newMultiSig","type":"address","internalType":"address"}],"outputs":[],"stateMutability":"nonpayable"},{"type":"function","name":"executeArbitrage","inputs":[{"name":"_flashLoanToken","type":"address","internalType":"address"},{"name":"_flashLoanAmount","type":"uint256","internalType":"uint256"},{"name":"_swaps","type":"tuple[]","internalType":"struct AaveArbitrageV3.Swap[]","components":[{"name":"router","type":"address","internalType":"address"},{"name":"from","type":"address","internalType":"address"},{"name":"to","type":"address","internalType":"address"},{"name":"dex","type":"uint8","internalType":"enum AaveArbitrageV3.DexType"},{"name":"dexParams","type":"bytes","internalType":"bytes"}]}],"outputs":[],"stateMutability":"nonpayable"},{"type":"function","name":"executeOperation","inputs":[{"name":"assets","type":"address[]","internalType":"address[]"},{"name":"amounts","type":"uint256[]","internalType":"uint256[]"},{"name":"premiums","type":"uint256[]","internalType":"uint256[]"},{"name":"initiator","type":"address","internalType":"address"},{"name":"params","type":"bytes","internalType":"bytes"}],"outputs":[{"name":"","type":"bool","internalType":"bool"}],"stateMutability":"nonpayable"},{"type":"function","name":"multiSig","inputs":[],"outputs":[{"name":"","type":"address","internalType":"address"}],"stateMutability":"view"},{"type":"function","name":"pause","inputs":[],"outputs":[],"stateMutability":"nonpayable"},{"type":"function","name":"paused","inputs":[],"outputs":[{"name":"","type":"bool","internalType":"bool"}],"stateMutability":"view"},{"type":"function","name":"setRouter","inputs":[{"name":"_router","type":"address","internalType":"address"},{"name":"_isWhitelisted","type":"bool","internalType":"bool"}],"outputs":[],"stateMutability":"nonpayable"},{"type":"function","name":"unpause","inputs":[],"outputs":[],"stateMutability":"nonpayable"},{"type":"function","name":"whitelistedRouters","inputs":[{"name":"","type":"address","internalType":"address"}],"outputs":[{"name":"","type":"bool","internalType":"bool"}],"stateMutability":"view"},{"type":"function","name":"withdraw","inputs":[{"name":"_tokenAddress","type":"address","internalType":"address"}],"outputs":[],"stateMutability":"nonpayable"},{"type":"function","name":"withdrawETH","inputs":[],"outputs":[],"stateMutability":"nonpayable"},{"type":"event","name":"SwapFailed","inputs":[{"name":"router","type":"address","indexed":false,"internalType":"address"},{"name":"dex","type":"uint8","indexed":false,"internalType":"enum AaveArbitrageV3.DexType"},{"name":"tokenIn","type":"address","indexed":false,"internalType":"address"},{"name":"tokenOut","type":"address","indexed":false,"internalType":"address"},{"name":"reason","type":"string","indexed":false,"internalType":"string"}],"anonymous":false}],"bytecode":{"object":"0x60a034620000aa57601f62001f4438819003918201601f19168301916001600160401b03831184841017620000ae578084926040948552833981010312620000aa576200005a60206200005283620000c2565b9201620000c2565b6001600160a01b039182166080525f80546001600160a01b03191691909216179055604051611e6c9081620000d88239608051818181610254015281816106af015281816114780152611b910152f35b5f80fd5b634e487b7160e01b5f52604160045260245ffd5b51906001600160a01b0382168203620000aa5756fe6080604052600436101561001a575b3615610018575f80fd5b005b5f3560e01c8063059f3a2d146100d95780630f874a13146100d45780632902a0ca146100cf57806336e0004a146100ca5780633f4ba83a146100c557806351cff8d9146100c05780635c975abb146100bb5780637535d246146100b65780638456cb59146100b1578063920f5c84146100ac578063c3c64674146100a75763e086e5ec0361000e57610914565b61086a565b610791565b6106d3565b610665565b610623565b6104b9565b61043d565b6103ed565b610357565b6102eb565b610131565b73ffffffffffffffffffffffffffffffffffffffff8116036100fc57565b5f80fd5b9181601f840112156100fc5782359167ffffffffffffffff83116100fc576020808501948460051b0101116100fc57565b346100fc5760607ffffffffffffffffffffffffffffffffffffffffffffffffffffffffffffffffc3601126100fc5760043561016c816100de565b60443567ffffffffffffffff81116100fc5761018c903690600401610100565b905f9283916101a260ff845460a01c1615610986565b6101d26101ad610ac2565b926101b784610b09565b9073ffffffffffffffffffffffffffffffffffffffff169052565b6101da610ac2565b906024356101e783610b09565b5261023d6101f3610ac2565b91856101fe84610b09565b5261021160405197889260208401610bbe565b037fffffffffffffffffffffffffffffffffffffffffffffffffffffffffffffffe08101875286610a69565b73ffffffffffffffffffffffffffffffffffffffff7f00000000000000000000000000000000000000000000000000000000000000001691823b156102e75784906102ba604051978896879586947fab9c4b5d00000000000000000000000000000000000000000000000000000000865230923060048801610dc6565b03925af180156102e2576102cc575080f35b806102d96102df92610a18565b806103e3565b80f35b610e88565b8480fd5b346100fc5760207ffffffffffffffffffffffffffffffffffffffffffffffffffffffffffffffffc3601126100fc5773ffffffffffffffffffffffffffffffffffffffff60043561033b816100de565b165f526001602052602060ff60405f2054166040519015158152f35b346100fc5760207ffffffffffffffffffffffffffffffffffffffffffffffffffffffffffffffffc3601126100fc57600435610392816100de565b7fffffffffffffffffffffffff00000000000000000000000000000000000000005f549173ffffffffffffffffffffffffffffffffffffffff906103d98285163314611dd1565b169116175f555f80f35b5f9103126100fc57565b346100fc575f7ffffffffffffffffffffffffffffffffffffffffffffffffffffffffffffffffc3601126100fc57602073ffffffffffffffffffffffffffffffffffffffff5f5416604051908152f35b346100fc575f807ffffffffffffffffffffffffffffffffffffffffffffffffffffffffffffffffc3601126104b6577fffffffffffffffffffffff00ffffffffffffffffffffffffffffffffffffffff81546104b073ffffffffffffffffffffffffffffffffffffffff82163314611dd1565b16815580f35b80fd5b346100fc576020807ffffffffffffffffffffffffffffffffffffffffffffffffffffffffffffffffc3601126100fc576004356104f5816100de565b73ffffffffffffffffffffffffffffffffffffffff805f54169161051a833314611dd1565b6040517f70a0823100000000000000000000000000000000000000000000000000000000815230600482015291168382602481845afa9081156102e2576105be9385935f936105f4575b505f6040518096819582947fa9059cbb000000000000000000000000000000000000000000000000000000008452600484016020909392919373ffffffffffffffffffffffffffffffffffffffff60408201951681520152565b03925af180156102e2576105ce57005b8161001892903d106105ed575b6105e58183610a69565b810190611192565b503d6105db565b610615919350843d861161061c575b61060d8183610a69565b81019061126e565b915f610564565b503d610603565b346100fc575f7ffffffffffffffffffffffffffffffffffffffffffffffffffffffffffffffffc3601126100fc57602060ff5f5460a01c166040519015158152f35b346100fc575f7ffffffffffffffffffffffffffffffffffffffffffffffffffffffffffffffffc3601126100fc57602060405173ffffffffffffffffffffffffffffffffffffffff7f0000000000000000000000000000000000000000000000000000000000000000168152f35b346100fc575f807ffffffffffffffffffffffffffffffffffffffffffffffffffffffffffffffffc3601126104b657740100000000000000000000000000000000000000007fffffffffffffffffffffff00ffffffffffffffffffffffffffffffffffffffff825461075c73ffffffffffffffffffffffffffffffffffffffff82163314611dd1565b1617815580f35b9181601f840112156100fc5782359167ffffffffffffffff83116100fc57602083818601950101116100fc57565b346100fc5760a07ffffffffffffffffffffffffffffffffffffffffffffffffffffffffffffffffc3601126100fc5767ffffffffffffffff6004358181116100fc576107e1903690600401610100565b6024929192358281116100fc576107fc903690600401610100565b6044949194358481116100fc57610817903690600401610100565b916108236064356100de565b6084359586116100fc5761085c9661084261084a973690600401610763565b969095611452565b60405190151581529081906020820190565b0390f35b801515036100fc57565b346100fc5760407ffffffffffffffffffffffffffffffffffffffffffffffffffffffffffffffffc3601126100fc576004356108a5816100de565b602435906108b282610860565b73ffffffffffffffffffffffffffffffffffffffff906108d6825f54163314611dd1565b165f52600160205260405f209060ff7fffffffffffffffffffffffffffffffffffffffffffffffffffffffffffffff00835416911515161790555f80f35b346100fc575f807ffffffffffffffffffffffffffffffffffffffffffffffffffffffffffffffffc3601126104b6578080808073ffffffffffffffffffffffffffffffffffffffff81541661096a813314611dd1565b479082821561097d575bf1156102e25780f35b506108fc610974565b1561098d57565b60646040517f08c379a000000000000000000000000000000000000000000000000000000000815260206004820152601260248201527f436f6e74726163742069732070617573656400000000000000000000000000006044820152fd5b7f4e487b71000000000000000000000000000000000000000000000000000000005f52604160045260245ffd5b67ffffffffffffffff8111610a2c57604052565b6109eb565b60a0810190811067ffffffffffffffff821117610a2c57604052565b6040810190811067ffffffffffffffff821117610a2c57604052565b90601f7fffffffffffffffffffffffffffffffffffffffffffffffffffffffffffffffe0910116810190811067ffffffffffffffff821117610a2c57604052565b67ffffffffffffffff8111610a2c5760051b60200190565b60405190610acf82610a4d565b6001825260203681840137565b7f4e487b71000000000000000000000000000000000000000000000000000000005f52603260045260245ffd5b805115610b165760200190565b610adc565b8051821015610b165760209160051b010190565b359060028210156100fc57565b60021115610b4657565b7f4e487b71000000000000000000000000000000000000000000000000000000005f52602160045260245ffd5b906002821015610b465752565b601f82602094937fffffffffffffffffffffffffffffffffffffffffffffffffffffffffffffffe093818652868601375f8582860101520116010190565b916020818185018286525260409384810194808460051b83010195855f935b868510610bef57505050505050505090565b90919293949596977fffffffffffffffffffffffffffffffffffffffffffffffffffffffffffffffc082820301845288357fffffffffffffffffffffffffffffffffffffffffffffffffffffffffffffff61843603018112156100fc5783018035610c59816100de565b73ffffffffffffffffffffffffffffffffffffffff80911683528089830135610c81816100de565b168984015286820135610c93816100de565b1686830152610cb16060610ca8818401610b2f565b90840190610b73565b608090818101357fffffffffffffffffffffffffffffffffffffffffffffffffffffffffffffffe1823603018112156100fc57019088823592019267ffffffffffffffff83116100fc5782360384136100fc576001938a938493610d1d9360a080928201520191610b80565b9a019401950193929695949190610bdd565b9081518082526020808093019301915f5b828110610d4e575050505090565b835185529381019392810192600101610d40565b5f5b838110610d735750505f910152565b8181015183820152602001610d64565b907fffffffffffffffffffffffffffffffffffffffffffffffffffffffffffffffe0601f602093610dbf81518092818752878088019101610d62565b0116010190565b969593929060e0880173ffffffffffffffffffffffffffffffffffffffff8092168952602060e0818b01528451809252806101008b019501925f905b838210610e6f57505050505092610e5d610e3e610e6a94610e308560c0988c6040815f9d9a03910152610d2f565b908a820360608c0152610d2f565b73ffffffffffffffffffffffffffffffffffffffff9093166080890152565b86820360a0880152610d83565b930152565b8451811687529582019593820193600190910190610e02565b6040513d5f823e3d90fd5b15610e9a57565b60846040517f08c379a000000000000000000000000000000000000000000000000000000000815260206004820152602960248201527f4f6e6c7920746865204161766520706f6f6c2063616e2063616c6c207468697360448201527f2066756e6374696f6e00000000000000000000000000000000000000000000006064820152fd5b67ffffffffffffffff8111610a2c57601f017fffffffffffffffffffffffffffffffffffffffffffffffffffffffffffffffe01660200190565b9060209081838203126100fc57823567ffffffffffffffff938482116100fc57019080601f830112156100fc578135610f9081610aaa565b94604092610fa084519788610a69565b828752858088019360051b860101948186116100fc57868101935b868510610fcd57505050505050505090565b84358481116100fc57820160a091827fffffffffffffffffffffffffffffffffffffffffffffffffffffffffffffffe083870301126100fc5787519161101283610a31565b8a81013561101f816100de565b83528881013561102e816100de565b8b84015260609384820135611042816100de565b8a850152608094611054868401610b2f565b90850152810135908782116100fc57019185603f840112156100fc578a8301359361107e85610f1e565b9061108b8b519283610a69565b858252878b87870101116100fc575f8d8781988e8399018387013784010152820152815201940193610fbb565b9015610b165790565b356110cb816100de565b90565b7f4e487b71000000000000000000000000000000000000000000000000000000005f52601160045260245ffd5b7fffffffffffffffffffffffffffffffffffffffffffffffffffffffffffffffff81146111285760010190565b6110ce565b1561113457565b60646040517f08c379a000000000000000000000000000000000000000000000000000000000815260206004820152601660248201527f526f75746572206e6f742077686974656c6973746564000000000000000000006044820152fd5b908160209103126100fc57516110cb81610860565b908160209103126100fc57604051906020820182811067ffffffffffffffff821117610a2c576040525162ffffff811681036100fc57815290565b6040516111ee81610a4d565b60018152805f5b602080821015611210579060606020928285010152016111f5565b50505090565b9392610e6a905f9373ffffffffffffffffffffffffffffffffffffffff608094168752602087015283604087015260a0606087015260a0860190610d83565b6040519061126282610a4d565b600182525f6020830152565b908160209103126100fc575190565b9061129090604083526040830190610d83565b90602090818184039101528251908183528083019281808460051b8301019501935f915b8483106112c45750505050505090565b9091929394958480611300837fffffffffffffffffffffffffffffffffffffffffffffffffffffffffffffffe086600196030187528a51610d83565b98019301930191949392906112b4565b3d1561133a573d9061132182610f1e565b9161132f6040519384610a69565b82523d5f602084013e565b606090565b90916110cb949360a09373ffffffffffffffffffffffffffffffffffffffff92838092168552600160208601521660408401521660608201528160808201520190610d83565b9061139860209282815194859201610d62565b0190565b9060206110cb928181520190610d83565b9190820391821161112857565b9190820180921161112857565b156113ce57565b60846040517f08c379a000000000000000000000000000000000000000000000000000000000815260206004820152603460248201527f417262697472616765206661696c65643a206e6f7420656e6f7567682066756e60448201527f647320746f20726570617920746865206c6f616e0000000000000000000000006064820152fd5b92956114c59192979894959861149f73ffffffffffffffffffffffffffffffffffffffff7f0000000000000000000000000000000000000000000000000000000000000000163314610e93565b6114bd6114b86114b45f5460ff9060a01c1690565b1590565b610986565b810190610f58565b936114d086886110b8565b35976114e46114df84866110b8565b6110c1565b965f975b8751891015611aa7576114fb8989610b1b565b519061155461154f611548611524855173ffffffffffffffffffffffffffffffffffffffff1690565b73ffffffffffffffffffffffffffffffffffffffff165f52600160205260405f2090565b5460ff1690565b61112d565b60608201805161156381610b3c565b61156c81610b3c565b61159e575b5050604001516115989073ffffffffffffffffffffffffffffffffffffffff165b986110fb565b976114e8565b600190516115ab81610b3c565b6115b481610b3c565b146115c0575b80611571565b999897969594939291909a806020611660928d8f6115f2905173ffffffffffffffffffffffffffffffffffffffff1690565b5f73ffffffffffffffffffffffffffffffffffffffff6040518098819682957fa9059cbb000000000000000000000000000000000000000000000000000000008452600484016020909392919373ffffffffffffffffffffffffffffffffffffffff60408201951681520152565b0393165af19182156102e2578d92611a88575b5061169761168e6080840151602080825183010191016111a7565b5162ffffff1690565b61175a8d61172e6116bf604087015173ffffffffffffffffffffffffffffffffffffffff1690565b6040519485936020850191927fffffff0000000000000000000000000000000000000000000000000000000000602b947fffffffffffffffffffffffffffffffffffffffff000000000000000000000000809460601b16855260e81b16601484015260601b1660178201520190565b037fffffffffffffffffffffffffffffffffffffffffffffffffffffffffffffffe08101835282610a69565b6117796117656111e2565b9261172e6040519384923060208501611216565b61178282610b09565b5261178c81610b09565b506117d56117bc6117bc60406117a0611255565b95015173ffffffffffffffffffffffffffffffffffffffff1690565b73ffffffffffffffffffffffffffffffffffffffff1690565b6040517f70a082310000000000000000000000000000000000000000000000000000000081523060048201529290602090849060249082905afa9283156102e2578e905f94611a5b575b506117bc6117bc611844925173ffffffffffffffffffffffffffffffffffffffff1690565b91823b156100fc57611888925f92836040518096819582947f24856bc30000000000000000000000000000000000000000000000000000000084526004840161127d565b03925af19081611a48575b506119935761198f61172e61195d8e7f277844e3a654ec2e30084b12226f58e0931f046ea9d6f4a377db59ce14f2339b8f6118d46118cf611310565b611d1c565b926119248461191860406118fc855173ffffffffffffffffffffffffffffffffffffffff1690565b94015173ffffffffffffffffffffffffffffffffffffffff1690565b6040519485948561133f565b0390a16040517f556e69737761702056332073776170206661696c65643a20000000000000000060208201529283916038830190611385565b6040519182917f08c379a00000000000000000000000000000000000000000000000000000000083526004830161139c565b0390fd5b90919293949596979899506119c56117bc6117bc60408e015173ffffffffffffffffffffffffffffffffffffffff1690565b6040517f70a082310000000000000000000000000000000000000000000000000000000081523060048201529190602090839060249082905afa80156102e257611a2061159292604092611598955f91611a29575b506113ad565b9c9250506115ba565b611a42915060203d60201161061c5761060d8183610a69565b5f611a1a565b806102d9611a5592610a18565b5f611893565b6118449194506117bc611a7f6117bc9260203d60201161061c5761060d8183610a69565b9592505061181f565b611aa09060203d6020116105ed576105e58183610a69565b505f611673565b5090929650611ac291949850611ad09550611ac993976110b8565b35926110b8565b35906113ba565b91611ae46117bc6117bc6114df85856110b8565b6040517f70a082310000000000000000000000000000000000000000000000000000000080825230600483015260209590929091908690829060249082905afa9081156102e257611b409183915f91611cff575b5010156113c7565b611b536117bc6117bc6114df87876110b8565b6040517fa9059cbb0000000000000000000000000000000000000000000000000000000080825273ffffffffffffffffffffffffffffffffffffffff7f00000000000000000000000000000000000000000000000000000000000000001660048301526024820193909352908690829060449082905f905af180156102e257611ce2575b5084611bec6117bc6117bc6114df88886110b8565b604051938452306004850152839060249082905afa9182156102e2575f92611cc3575b5081611c20575b5050505050600190565b611c376117bc6117bc6114df611c8e9789976110b8565b905f611c57815473ffffffffffffffffffffffffffffffffffffffff1690565b60405192835273ffffffffffffffffffffffffffffffffffffffff1660048301526024820193909352938492839182906044820190565b03925af180156102e257611ca5575b808080611c16565b81611cbb92903d106105ed576105e58183610a69565b505f80611c9d565b611cdb919250853d871161061c5761060d8183610a69565b905f611c0f565b611cf890863d88116105ed576105e58183610a69565b505f611bd7565b611d169150883d8a1161061c5761060d8183610a69565b5f611b38565b6044815110611d97576004810151810190602081602484019303126100fc5760248101519067ffffffffffffffff82116100fc5701816043820112156100fc576024810151611d6a81610f1e565b92611d786040519485610a69565b818452604482840101116100fc576110cb916044602085019101610d62565b50604051611da481610a4d565b601081527f4e6f2072657665727420726561736f6e00000000000000000000000000000000602082015290565b15611dd857565b60646040517f08c379a000000000000000000000000000000000000000000000000000000000815260206004820152601060248201527f4e6f7420746865206d756c7469736967000000000000000000000000000000006044820152fdfea26469706673582212205991619d4f98944174f3939f1d1288b13d8ad12b949616cf3f12b349166aa9fc64736f6c63430008140033","linkReferences":{}},"methodIdentifiers":{"POOL()":"7535d246","changeMultiSig(address)":"2902a0ca","executeArbitrage(address,uint256,(address,address,address,uint8,bytes)[])":"059f3a2d","executeOperation(address[],uint256[],uint256[],address,bytes)":"920f5c84","multiSig()":"36e0004a","pause()":"8456cb59","paused()":"5c975abb","setRouter(address,bool)":"c3c64674","unpause()":"3f4ba83a","whitelistedRouters(address)":"0f874a13","withdraw(address)":"51cff8d9","withdrawETH()":"e086e5ec"},"id":1}