{"abi":[{"type":"constructor","inputs":[{"name":"_factory","type":"address","internalType":"address"}],"stateMutability":"nonpayable"},{"type":"function","name":"consult","inputs":[{"name":"tokenIn","type":"address","internalType":"address"},{"name":"amountIn","type":"uint256","internalType":"uint256"},{"name":"tokenOut","type":"address","internalType":"address"}],"outputs":[{"name":"amountOut","type":"uint256","internalType":"uint256"}],"stateMutability":"view"},{"type":"function","name":"factory","inputs":[],"outputs":[{"name":"","type":"address","internalType":"address"}],"stateMutability":"view"},{"type":"function","name":"pairObservations","inputs":[{"name":"","type":"address","internalType":"address"}],"outputs":[{"name":"blockTimestamp","type":"uint32","internalType":"uint32"},{"name":"price0Cumulative","type":"uint256","internalType":"uint256"},{"name":"price1Cumulative","type":"uint256","internalType":"uint256"}],"stateMutability":"view"},{"type":"function","name":"update","inputs":[{"name":"tokenA","type":"address","internalType":"address"},{"name":"tokenB","type":"address","internalType":"address"}],"outputs":[],"stateMutability":"nonpayable"}],"bytecode":{"object":"0x60a060405234801561000f575f5ffd5b50604051610ea1380380610ea1833981810160405281019061003191906100c9565b8073ffffffffffffffffffffffffffffffffffffffff1660808173ffffffffffffffffffffffffffffffffffffffff1681525050506100f4565b5f5ffd5b5f73ffffffffffffffffffffffffffffffffffffffff82169050919050565b5f6100988261006f565b9050919050565b6100a88161008e565b81146100b2575f5ffd5b50565b5f815190506100c38161009f565b92915050565b5f602082840312156100de576100dd61006b565b5b5f6100eb848285016100b5565b91505092915050565b608051610d8761011a5f395f81816101220152818161045001526104750152610d875ff3fe608060405234801561000f575f5ffd5b506004361061004a575f3560e01c8063402e1abf1461004e5780638c86f1e414610080578063c45a0155146100b0578063c640752d146100ce575b5f5ffd5b61006860048036038101906100639190610833565b6100ea565b60405161007793929190610894565b60405180910390f35b61009a600480360381019061009591906108f3565b61011e565b6040516100a79190610943565b60405180910390f35b6100b861044e565b6040516100c5919061096b565b60405180910390f35b6100e860048036038101906100e39190610984565b610472565b005b5f602052805f5260405f205f91509050805f015f9054906101000a900463ffffffff16908060010154908060020154905083565b5f5f7f000000000000000000000000000000000000000000000000000000000000000073ffffffffffffffffffffffffffffffffffffffff1663e6a4390586856040518363ffffffff1660e01b815260040161017b9291906109c2565b602060405180830381865afa158015610196573d5f5f3e3d5ffd5b505050506040513d601f19601f820116820180604052508101906101ba91906109fd565b90505f73ffffffffffffffffffffffffffffffffffffffff168173ffffffffffffffffffffffffffffffffffffffff160361022a576040517f08c379a000000000000000000000000000000000000000000000000000000000815260040161022190610a82565b60405180910390fd5b5f5f5f8373ffffffffffffffffffffffffffffffffffffffff1673ffffffffffffffffffffffffffffffffffffffff1681526020019081526020015f206040518060600160405290815f82015f9054906101000a900463ffffffff1663ffffffff1663ffffffff1681526020016001820154815260200160028201548152505090505f815f015163ffffffff16036102f7576040517f08c379a00000000000000000000000000000000000000000000000000000000081526004016102ee90610aea565b60405180910390fd5b5f5f8373ffffffffffffffffffffffffffffffffffffffff16630902f1ac6040518163ffffffff1660e01b8152600401606060405180830381865afa158015610342573d5f5f3e3d5ffd5b505050506040513d601f19601f820116820180604052508101906103669190610b75565b506dffffffffffffffffffffffffffff1691506dffffffffffffffffffffffffffff1691505f836020015190505f846040015190505f6103a68b8a610719565b5090508073ffffffffffffffffffffffffffffffffffffffff168b73ffffffffffffffffffffffffffffffffffffffff16036104105782856103e89190610bf2565b8a83866103f59190610bf2565b6103ff9190610c25565b6104099190610c93565b9750610440565b818461041c9190610bf2565b8a84876104299190610bf2565b6104339190610c25565b61043d9190610c93565b97505b505050505050509392505050565b7f000000000000000000000000000000000000000000000000000000000000000081565b5f7f000000000000000000000000000000000000000000000000000000000000000073ffffffffffffffffffffffffffffffffffffffff1663e6a4390584846040518363ffffffff1660e01b81526004016104ce9291906109c2565b602060405180830381865afa1580156104e9573d5f5f3e3d5ffd5b505050506040513d601f19601f8201168201806040525081019061050d91906109fd565b90505f73ffffffffffffffffffffffffffffffffffffffff168173ffffffffffffffffffffffffffffffffffffffff160361057d576040517f08c379a000000000000000000000000000000000000000000000000000000000815260040161057490610a82565b60405180910390fd5b5f5f8273ffffffffffffffffffffffffffffffffffffffff16630902f1ac6040518163ffffffff1660e01b8152600401606060405180830381865afa1580156105c8573d5f5f3e3d5ffd5b505050506040513d601f19601f820116820180604052508101906105ec9190610b75565b506dffffffffffffffffffffffffffff1691506dffffffffffffffffffffffffffff1691504263ffffffff165f5f8573ffffffffffffffffffffffffffffffffffffffff1673ffffffffffffffffffffffffffffffffffffffff1681526020019081526020015f205f015f9054906101000a900463ffffffff1663ffffffff160361067957505050610715565b60405180606001604052804263ffffffff168152602001838152602001828152505f5f8573ffffffffffffffffffffffffffffffffffffffff1673ffffffffffffffffffffffffffffffffffffffff1681526020019081526020015f205f820151815f015f6101000a81548163ffffffff021916908363ffffffff16021790555060208201518160010155604082015181600201559050505050505b5050565b5f5f8273ffffffffffffffffffffffffffffffffffffffff168473ffffffffffffffffffffffffffffffffffffffff1603610789576040517f08c379a000000000000000000000000000000000000000000000000000000000815260040161078090610d33565b60405180910390fd5b8273ffffffffffffffffffffffffffffffffffffffff168473ffffffffffffffffffffffffffffffffffffffff16106107c35782846107c6565b83835b80925081935050509250929050565b5f5ffd5b5f73ffffffffffffffffffffffffffffffffffffffff82169050919050565b5f610802826107d9565b9050919050565b610812816107f8565b811461081c575f5ffd5b50565b5f8135905061082d81610809565b92915050565b5f60208284031215610848576108476107d5565b5b5f6108558482850161081f565b91505092915050565b5f63ffffffff82169050919050565b6108768161085e565b82525050565b5f819050919050565b61088e8161087c565b82525050565b5f6060820190506108a75f83018661086d565b6108b46020830185610885565b6108c16040830184610885565b949350505050565b6108d28161087c565b81146108dc575f5ffd5b50565b5f813590506108ed816108c9565b92915050565b5f5f5f6060848603121561090a576109096107d5565b5b5f6109178682870161081f565b9350506020610928868287016108df565b92505060406109398682870161081f565b9150509250925092565b5f6020820190506109565f830184610885565b92915050565b610965816107f8565b82525050565b5f60208201905061097e5f83018461095c565b92915050565b5f5f6040838503121561099a576109996107d5565b5b5f6109a78582860161081f565b92505060206109b88582860161081f565b9150509250929050565b5f6040820190506109d55f83018561095c565b6109e2602083018461095c565b9392505050565b5f815190506109f781610809565b92915050565b5f60208284031215610a1257610a116107d5565b5b5f610a1f848285016109e9565b91505092915050565b5f82825260208201905092915050565b7f4f7261636c653a20504149525f4e4f545f464f554e44000000000000000000005f82015250565b5f610a6c601683610a28565b9150610a7782610a38565b602082019050919050565b5f6020820190508181035f830152610a9981610a60565b9050919050565b7f4f7261636c653a204e4f5f4f42534552564154494f4e000000000000000000005f82015250565b5f610ad4601683610a28565b9150610adf82610aa0565b602082019050919050565b5f6020820190508181035f830152610b0181610ac8565b9050919050565b5f6dffffffffffffffffffffffffffff82169050919050565b610b2a81610b08565b8114610b34575f5ffd5b50565b5f81519050610b4581610b21565b92915050565b610b548161085e565b8114610b5e575f5ffd5b50565b5f81519050610b6f81610b4b565b92915050565b5f5f5f60608486031215610b8c57610b8b6107d5565b5b5f610b9986828701610b37565b9350506020610baa86828701610b37565b9250506040610bbb86828701610b61565b9150509250925092565b7f4e487b71000000000000000000000000000000000000000000000000000000005f52601160045260245ffd5b5f610bfc8261087c565b9150610c078361087c565b9250828203905081811115610c1f57610c1e610bc5565b5b92915050565b5f610c2f8261087c565b9150610c3a8361087c565b9250828202610c488161087c565b91508282048414831517610c5f57610c5e610bc5565b5b5092915050565b7f4e487b71000000000000000000000000000000000000000000000000000000005f52601260045260245ffd5b5f610c9d8261087c565b9150610ca88361087c565b925082610cb857610cb7610c66565b5b828204905092915050565b7f556e697377617056324c6962726172793a204944454e544943414c5f414444525f8201527f4553534553000000000000000000000000000000000000000000000000000000602082015250565b5f610d1d602583610a28565b9150610d2882610cc3565b604082019050919050565b5f6020820190508181035f830152610d4a81610d11565b905091905056fea2646970667358221220a5110297e0a1b11f7dea80d419bd52dbbdcde611e2e458eb533991e77a79aa4f64736f6c634300081e0033","linkReferences":{}},"methodIdentifiers":{"consult(address,uint256,address)":"8c86f1e4","factory()":"c45a0155","pairObservations(address)":"402e1abf","update(address,address)":"c640752d"},"id":31}