{"abi":[{"type":"constructor","inputs":[{"name":"tokenA","type":"address","internalType":"address"},{"name":"tokenB","type":"address","internalType":"address"}],"stateMutability":"nonpayable"},{"type":"function","name":"DOMAIN_SEPARATOR","inputs":[],"outputs":[{"name":"","type":"bytes32","internalType":"bytes32"}],"stateMutability":"view"},{"type":"function","name":"MINIMUM_LIQUIDITY","inputs":[],"outputs":[{"name":"","type":"uint256","internalType":"uint256"}],"stateMutability":"pure"},{"type":"function","name":"PERMIT_TYPEHASH","inputs":[],"outputs":[{"name":"","type":"bytes32","internalType":"bytes32"}],"stateMutability":"pure"},{"type":"function","name":"allowance","inputs":[{"name":"owner","type":"address","internalType":"address"},{"name":"spender","type":"address","internalType":"address"}],"outputs":[{"name":"","type":"uint256","internalType":"uint256"}],"stateMutability":"view"},{"type":"function","name":"approve","inputs":[{"name":"spender","type":"address","internalType":"address"},{"name":"value","type":"uint256","internalType":"uint256"}],"outputs":[{"name":"","type":"bool","internalType":"bool"}],"stateMutability":"nonpayable"},{"type":"function","name":"balanceOf","inputs":[{"name":"owner","type":"address","internalType":"address"}],"outputs":[{"name":"","type":"uint256","internalType":"uint256"}],"stateMutability":"view"},{"type":"function","name":"burn","inputs":[{"name":"to","type":"address","internalType":"address"}],"outputs":[{"name":"amount0","type":"uint256","internalType":"uint256"},{"name":"amount1","type":"uint256","internalType":"uint256"}],"stateMutability":"nonpayable"},{"type":"function","name":"decimals","inputs":[],"outputs":[{"name":"","type":"uint8","internalType":"uint8"}],"stateMutability":"pure"},{"type":"function","name":"factory","inputs":[],"outputs":[{"name":"","type":"address","internalType":"address"}],"stateMutability":"view"},{"type":"function","name":"getReserves","inputs":[],"outputs":[{"name":"reserve0","type":"uint112","internalType":"uint112"},{"name":"reserve1","type":"uint112","internalType":"uint112"},{"name":"blockTimestampLast","type":"uint32","internalType":"uint32"}],"stateMutability":"view"},{"type":"function","name":"kLast","inputs":[],"outputs":[{"name":"","type":"uint256","internalType":"uint256"}],"stateMutability":"view"},{"type":"function","name":"mint","inputs":[{"name":"to","type":"address","internalType":"address"}],"outputs":[{"name":"liquidity","type":"uint256","internalType":"uint256"}],"stateMutability":"nonpayable"},{"type":"function","name":"name","inputs":[],"outputs":[{"name":"","type":"string","internalType":"string"}],"stateMutability":"pure"},{"type":"function","name":"nonces","inputs":[{"name":"owner","type":"address","internalType":"address"}],"outputs":[{"name":"","type":"uint256","internalType":"uint256"}],"stateMutability":"view"},{"type":"function","name":"permit","inputs":[{"name":"owner","type":"address","internalType":"address"},{"name":"spender","type":"address","internalType":"address"},{"name":"value","type":"uint256","internalType":"uint256"},{"name":"deadline","type":"uint256","internalType":"uint256"},{"name":"v","type":"uint8","internalType":"uint8"},{"name":"r","type":"bytes32","internalType":"bytes32"},{"name":"s","type":"bytes32","internalType":"bytes32"}],"outputs":[],"stateMutability":"nonpayable"},{"type":"function","name":"price0CumulativeLast","inputs":[],"outputs":[{"name":"","type":"uint256","internalType":"uint256"}],"stateMutability":"view"},{"type":"function","name":"price1CumulativeLast","inputs":[],"outputs":[{"name":"","type":"uint256","internalType":"uint256"}],"stateMutability":"view"},{"type":"function","name":"setCumulativePrices","inputs":[{"name":"_price0","type":"uint256","internalType":"uint256"},{"name":"_price1","type":"uint256","internalType":"uint256"}],"outputs":[],"stateMutability":"nonpayable"},{"type":"function","name":"skim","inputs":[{"name":"to","type":"address","internalType":"address"}],"outputs":[],"stateMutability":"nonpayable"},{"type":"function","name":"swap","inputs":[{"name":"amount0Out","type":"uint256","internalType":"uint256"},{"name":"amount1Out","type":"uint256","internalType":"uint256"},{"name":"to","type":"address","internalType":"address"},{"name":"data","type":"bytes","internalType":"bytes"}],"outputs":[],"stateMutability":"nonpayable"},{"type":"function","name":"symbol","inputs":[],"outputs":[{"name":"","type":"string","internalType":"string"}],"stateMutability":"pure"},{"type":"function","name":"sync","inputs":[],"outputs":[],"stateMutability":"nonpayable"},{"type":"function","name":"token0","inputs":[],"outputs":[{"name":"","type":"address","internalType":"address"}],"stateMutability":"view"},{"type":"function","name":"token1","inputs":[],"outputs":[{"name":"","type":"address","internalType":"address"}],"stateMutability":"view"},{"type":"function","name":"totalSupply","inputs":[],"outputs":[{"name":"","type":"uint256","internalType":"uint256"}],"stateMutability":"view"},{"type":"function","name":"transfer","inputs":[{"name":"to","type":"address","internalType":"address"},{"name":"value","type":"uint256","internalType":"uint256"}],"outputs":[{"name":"","type":"bool","internalType":"bool"}],"stateMutability":"nonpayable"},{"type":"function","name":"transferFrom","inputs":[{"name":"from","type":"address","internalType":"address"},{"name":"to","type":"address","internalType":"address"},{"name":"value","type":"uint256","internalType":"uint256"}],"outputs":[{"name":"","type":"bool","internalType":"bool"}],"stateMutability":"nonpayable"},{"type":"event","name":"Approval","inputs":[{"name":"owner","type":"address","indexed":true,"internalType":"address"},{"name":"spender","type":"address","indexed":true,"internalType":"address"},{"name":"value","type":"uint256","indexed":false,"internalType":"uint256"}],"anonymous":false},{"type":"event","name":"Burn","inputs":[{"name":"sender","type":"address","indexed":true,"internalType":"address"},{"name":"amount0","type":"uint256","indexed":false,"internalType":"uint256"},{"name":"amount1","type":"uint256","indexed":false,"internalType":"uint256"},{"name":"to","type":"address","indexed":true,"internalType":"address"}],"anonymous":false},{"type":"event","name":"Mint","inputs":[{"name":"sender","type":"address","indexed":true,"internalType":"address"},{"name":"amount0","type":"uint256","indexed":false,"internalType":"uint256"},{"name":"amount1","type":"uint256","indexed":false,"internalType":"uint256"}],"anonymous":false},{"type":"event","name":"Swap","inputs":[{"name":"sender","type":"address","indexed":true,"internalType":"address"},{"name":"amount0In","type":"uint256","indexed":false,"internalType":"uint256"},{"name":"amount1In","type":"uint256","indexed":false,"internalType":"uint256"},{"name":"amount0Out","type":"uint256","indexed":false,"internalType":"uint256"},{"name":"amount1Out","type":"uint256","indexed":false,"internalType":"uint256"},{"name":"to","type":"address","indexed":true,"internalType":"address"}],"anonymous":false},{"type":"event","name":"Sync","inputs":[{"name":"reserve0","type":"uint112","indexed":false,"internalType":"uint112"},{"name":"reserve1","type":"uint112","indexed":false,"internalType":"uint112"}],"anonymous":false},{"type":"event","name":"Transfer","inputs":[{"name":"from","type":"address","indexed":true,"internalType":"address"},{"name":"to","type":"address","indexed":true,"internalType":"address"},{"name":"value","type":"uint256","indexed":false,"internalType":"uint256"}],"anonymous":false}],"bytecode":{"object":"0x608060405234801561000f575f5ffd5b50604051610e3c380380610e3c83398181016040528101906100319190610116565b8160025f6101000a81548173ffffffffffffffffffffffffffffffffffffffff021916908373ffffffffffffffffffffffffffffffffffffffff1602179055508060035f6101000a81548173ffffffffffffffffffffffffffffffffffffffff021916908373ffffffffffffffffffffffffffffffffffffffff1602179055505050610154565b5f5ffd5b5f73ffffffffffffffffffffffffffffffffffffffff82169050919050565b5f6100e5826100bc565b9050919050565b6100f5816100db565b81146100ff575f5ffd5b50565b5f81519050610110816100ec565b92915050565b5f5f6040838503121561012c5761012b6100b8565b5b5f61013985828601610102565b925050602061014a85828601610102565b9150509250929050565b610cdb806101615f395ff3fe608060405234801561000f575f5ffd5b50600436106101a7575f3560e01c806370a08231116100f7578063bc25cf7711610095578063d21220a71161006f578063d21220a7146104d8578063d505accf146104f6578063dd62ed3e14610512578063fff6cae914610542576101a7565b8063bc25cf7714610482578063c45a01551461049e578063c67a02f3146104bc576101a7565b806389afcb44116100d157806389afcb44146103e557806395d89b4114610416578063a9059cbb14610434578063ba9a7a5614610464576101a7565b806370a08231146103675780637464fc3d146103975780637ecebe00146103b5576101a7565b806323b872dd116101645780633644e5151161013e5780633644e515146102dd5780635909c0d5146102fb5780635a3d5493146103195780636a62784214610337576101a7565b806323b872dd1461027157806330adf81f146102a1578063313ce567146102bf576101a7565b8063022c0d9f146101ab57806306fdde03146101c75780630902f1ac146101e5578063095ea7b3146102055780630dfe16811461023557806318160ddd14610253575b5f5ffd5b6101c560048036038101906101c091906107e1565b61054c565b005b6101cf610553565b6040516101dc91906108d5565b60405180910390f35b6101ed610590565b6040516101fc9392919061093b565b60405180910390f35b61021f600480360381019061021a9190610970565b6105aa565b60405161022c91906109c8565b60405180910390f35b61023d6105b5565b60405161024a91906109f0565b60405180910390f35b61025b6105dd565b6040516102689190610a18565b60405180910390f35b61028b60048036038101906102869190610a31565b6105e4565b60405161029891906109c8565b60405180910390f35b6102a96105f0565b6040516102b69190610a99565b60405180910390f35b6102c76105f9565b6040516102d49190610acd565b60405180910390f35b6102e5610601565b6040516102f29190610a99565b60405180910390f35b61030361060a565b6040516103109190610a18565b60405180910390f35b61032161060f565b60405161032e9190610a18565b60405180910390f35b610351600480360381019061034c9190610ae6565b610615565b60405161035e9190610a18565b60405180910390f35b610381600480360381019061037c9190610ae6565b61061e565b60405161038e9190610a18565b60405180910390f35b61039f610627565b6040516103ac9190610a18565b60405180910390f35b6103cf60048036038101906103ca9190610ae6565b61062e565b6040516103dc9190610a18565b60405180910390f35b6103ff60048036038101906103fa9190610ae6565b610637565b60405161040d929190610b11565b60405180910390f35b61041e610644565b60405161042b91906108d5565b60405180910390f35b61044e60048036038101906104499190610970565b610681565b60405161045b91906109c8565b60405180910390f35b61046c61068c565b6040516104799190610a18565b60405180910390f35b61049c60048036038101906104979190610ae6565b610693565b005b6104a6610696565b6040516104b391906109f0565b60405180910390f35b6104d660048036038101906104d19190610b38565b61069d565b005b6104e06106ae565b6040516104ed91906109f0565b60405180910390f35b610510600480360381019061050b9190610bca565b6106d6565b005b61052c60048036038101906105279190610c67565b6106df565b6040516105399190610a18565b60405180910390f35b61054a6106e9565b005b5050505050565b60606040518060400160405280600981526020017f4d6f636b20506169720000000000000000000000000000000000000000000000815250905090565b5f5f5f683635c9adc5dea000008042925092509250909192565b5f6001905092915050565b5f60025f9054906101000a900473ffffffffffffffffffffffffffffffffffffffff16905090565b5f5f905090565b5f600190509392505050565b5f5f5f1b905090565b5f6012905090565b5f5f5f1b905090565b5f5481565b60015481565b5f5f9050919050565b5f5f9050919050565b5f5f905090565b5f5f9050919050565b5f5f5f91505f9050915091565b60606040518060400160405280600281526020017f4d50000000000000000000000000000000000000000000000000000000000000815250905090565b5f6001905092915050565b5f5f905090565b50565b5f33905090565b815f81905550806001819055505050565b5f60035f9054906101000a900473ffffffffffffffffffffffffffffffffffffffff16905090565b50505050505050565b5f5f905092915050565b565b5f5ffd5b5f5ffd5b5f819050919050565b610705816106f3565b811461070f575f5ffd5b50565b5f81359050610720816106fc565b92915050565b5f73ffffffffffffffffffffffffffffffffffffffff82169050919050565b5f61074f82610726565b9050919050565b61075f81610745565b8114610769575f5ffd5b50565b5f8135905061077a81610756565b92915050565b5f5ffd5b5f5ffd5b5f5ffd5b5f5f83601f8401126107a1576107a0610780565b5b8235905067ffffffffffffffff8111156107be576107bd610784565b5b6020830191508360018202830111156107da576107d9610788565b5b9250929050565b5f5f5f5f5f608086880312156107fa576107f96106eb565b5b5f61080788828901610712565b955050602061081888828901610712565b94505060406108298882890161076c565b935050606086013567ffffffffffffffff81111561084a576108496106ef565b5b6108568882890161078c565b92509250509295509295909350565b5f81519050919050565b5f82825260208201905092915050565b8281835e5f83830152505050565b5f601f19601f8301169050919050565b5f6108a782610865565b6108b1818561086f565b93506108c181856020860161087f565b6108ca8161088d565b840191505092915050565b5f6020820190508181035f8301526108ed818461089d565b905092915050565b5f6dffffffffffffffffffffffffffff82169050919050565b610917816108f5565b82525050565b5f63ffffffff82169050919050565b6109358161091d565b82525050565b5f60608201905061094e5f83018661090e565b61095b602083018561090e565b610968604083018461092c565b949350505050565b5f5f60408385031215610986576109856106eb565b5b5f6109938582860161076c565b92505060206109a485828601610712565b9150509250929050565b5f8115159050919050565b6109c2816109ae565b82525050565b5f6020820190506109db5f8301846109b9565b92915050565b6109ea81610745565b82525050565b5f602082019050610a035f8301846109e1565b92915050565b610a12816106f3565b82525050565b5f602082019050610a2b5f830184610a09565b92915050565b5f5f5f60608486031215610a4857610a476106eb565b5b5f610a558682870161076c565b9350506020610a668682870161076c565b9250506040610a7786828701610712565b9150509250925092565b5f819050919050565b610a9381610a81565b82525050565b5f602082019050610aac5f830184610a8a565b92915050565b5f60ff82169050919050565b610ac781610ab2565b82525050565b5f602082019050610ae05f830184610abe565b92915050565b5f60208284031215610afb57610afa6106eb565b5b5f610b088482850161076c565b91505092915050565b5f604082019050610b245f830185610a09565b610b316020830184610a09565b9392505050565b5f5f60408385031215610b4e57610b4d6106eb565b5b5f610b5b85828601610712565b9250506020610b6c85828601610712565b9150509250929050565b610b7f81610ab2565b8114610b89575f5ffd5b50565b5f81359050610b9a81610b76565b92915050565b610ba981610a81565b8114610bb3575f5ffd5b50565b5f81359050610bc481610ba0565b92915050565b5f5f5f5f5f5f5f60e0888a031215610be557610be46106eb565b5b5f610bf28a828b0161076c565b9750506020610c038a828b0161076c565b9650506040610c148a828b01610712565b9550506060610c258a828b01610712565b9450506080610c368a828b01610b8c565b93505060a0610c478a828b01610bb6565b92505060c0610c588a828b01610bb6565b91505092959891949750929550565b5f5f60408385031215610c7d57610c7c6106eb565b5b5f610c8a8582860161076c565b9250506020610c9b8582860161076c565b915050925092905056fea2646970667358221220eb1cff40d99f5210393f88fd4b2f67213247c23624e3f86dc8af6cb347e7d5f964736f6c634300081e0033","linkReferences":{}},"methodIdentifiers":{"DOMAIN_SEPARATOR()":"3644e515","MINIMUM_LIQUIDITY()":"ba9a7a56","PERMIT_TYPEHASH()":"30adf81f","allowance(address,address)":"dd62ed3e","approve(address,uint256)":"095ea7b3","balanceOf(address)":"70a08231","burn(address)":"89afcb44","decimals()":"313ce567","factory()":"c45a0155","getReserves()":"0902f1ac","kLast()":"7464fc3d","mint(address)":"6a627842","name()":"06fdde03","nonces(address)":"7ecebe00","permit(address,address,uint256,uint256,uint8,bytes32,bytes32)":"d505accf","price0CumulativeLast()":"5909c0d5","price1CumulativeLast()":"5a3d5493","setCumulativePrices(uint256,uint256)":"c67a02f3","skim(address)":"bc25cf77","swap(uint256,uint256,address,bytes)":"022c0d9f","symbol()":"95d89b41","sync()":"fff6cae9","token0()":"0dfe1681","token1()":"d21220a7","totalSupply()":"18160ddd","transfer(address,uint256)":"a9059cbb","transferFrom(address,address,uint256)":"23b872dd"},"id":30}