{"abi":[{"type":"function","name":"flashLoan","inputs":[{"name":"recipient","type":"address","internalType":"address"},{"name":"tokens","type":"address[]","internalType":"address[]"},{"name":"amounts","type":"uint256[]","internalType":"uint256[]"},{"name":"userData","type":"bytes","internalType":"bytes"}],"outputs":[],"stateMutability":"nonpayable"}],"bytecode":{"object":"0x6080604052348015600e575f5ffd5b5061081d8061001c5f395ff3fe608060405234801561000f575f5ffd5b5060043610610029575f3560e01c80635c38449e1461002d575b5f5ffd5b61004760048036038101906100429190610356565b610049565b005b5f5f90505b868690508110156101225786868281811061006c5761006b61041a565b5b90506020020160208101906100819190610447565b73ffffffffffffffffffffffffffffffffffffffff1663a9059cbb898787858181106100b0576100af61041a565b5b905060200201356040518363ffffffff1660e01b81526004016100d4929190610499565b6020604051808303815f875af11580156100f0573d5f5f3e3d5ffd5b505050506040513d601f19601f8201168201806040525081019061011491906104f5565b50808060010191505061004e565b508673ffffffffffffffffffffffffffffffffffffffff1663f04f2707878787878b8b905067ffffffffffffffff8111156101605761015f610520565b5b60405190808252806020026020018201604052801561018e5781602001602082028036833780820191505090505b5088886040518863ffffffff1660e01b81526004016101b39796959493929190610782565b5f604051808303815f87803b1580156101ca575f5ffd5b505af11580156101dc573d5f5f3e3d5ffd5b5050505050505050505050565b5f5ffd5b5f5ffd5b5f73ffffffffffffffffffffffffffffffffffffffff82169050919050565b5f61021a826101f1565b9050919050565b61022a81610210565b8114610234575f5ffd5b50565b5f8135905061024581610221565b92915050565b5f5ffd5b5f5ffd5b5f5ffd5b5f5f83601f84011261026c5761026b61024b565b5b8235905067ffffffffffffffff8111156102895761028861024f565b5b6020830191508360208202830111156102a5576102a4610253565b5b9250929050565b5f5f83601f8401126102c1576102c061024b565b5b8235905067ffffffffffffffff8111156102de576102dd61024f565b5b6020830191508360208202830111156102fa576102f9610253565b5b9250929050565b5f5f83601f8401126103165761031561024b565b5b8235905067ffffffffffffffff8111156103335761033261024f565b5b60208301915083600182028301111561034f5761034e610253565b5b9250929050565b5f5f5f5f5f5f5f6080888a031215610371576103706101e9565b5b5f61037e8a828b01610237565b975050602088013567ffffffffffffffff81111561039f5761039e6101ed565b5b6103ab8a828b01610257565b9650965050604088013567ffffffffffffffff8111156103ce576103cd6101ed565b5b6103da8a828b016102ac565b9450945050606088013567ffffffffffffffff8111156103fd576103fc6101ed565b5b6104098a828b01610301565b925092505092959891949750929550565b7f4e487b71000000000000000000000000000000000000000000000000000000005f52603260045260245ffd5b5f6020828403121561045c5761045b6101e9565b5b5f61046984828501610237565b91505092915050565b61047b81610210565b82525050565b5f819050919050565b61049381610481565b82525050565b5f6040820190506104ac5f830185610472565b6104b9602083018461048a565b9392505050565b5f8115159050919050565b6104d4816104c0565b81146104de575f5ffd5b50565b5f815190506104ef816104cb565b92915050565b5f6020828403121561050a576105096101e9565b5b5f610517848285016104e1565b91505092915050565b7f4e487b71000000000000000000000000000000000000000000000000000000005f52604160045260245ffd5b5f82825260208201905092915050565b5f819050919050565b61056f81610210565b82525050565b5f6105808383610566565b60208301905092915050565b5f61059a6020840184610237565b905092915050565b5f602082019050919050565b5f6105b9838561054d565b93506105c48261055d565b805f5b858110156105fc576105d9828461058c565b6105e38882610575565b97506105ee836105a2565b9250506001810190506105c7565b5085925050509392505050565b5f82825260208201905092915050565b5f5ffd5b82818337505050565b5f6106318385610609565b93507f07ffffffffffffffffffffffffffffffffffffffffffffffffffffffffffffff83111561066457610663610619565b5b60208302925061067583858461061d565b82840190509392505050565b5f81519050919050565b5f819050602082019050919050565b6106a381610481565b82525050565b5f6106b4838361069a565b60208301905092915050565b5f602082019050919050565b5f6106d682610681565b6106e08185610609565b93506106eb8361068b565b805f5b8381101561071b57815161070288826106a9565b975061070d836106c0565b9250506001810190506106ee565b5085935050505092915050565b5f82825260208201905092915050565b828183375f83830152505050565b5f601f19601f8301169050919050565b5f6107618385610728565b935061076e838584610738565b61077783610746565b840190509392505050565b5f6080820190508181035f83015261079b81898b6105ae565b905081810360208301526107b0818789610626565b905081810360408301526107c481866106cc565b905081810360608301526107d9818486610756565b90509897505050505050505056fea26469706673582212203af63683352277628dd3a7405e8ef725c642306e147658a689bbd0169bd5e51364736f6c634300081e0033","linkReferences":{}},"methodIdentifiers":{"flashLoan(address,address[],uint256[],bytes)":"5c38449e"},"id":30}