{
  "_format": "hh-sol-artifact-1",
  "contractName": "MockRouter",
  "sourceName": "contracts/contracts/MockRouter.sol",
  "abi": [
    {
      "inputs": [],
      "name": "WETH",
      "outputs": [
        {
          "internalType": "address",
          "name": "",
          "type": "address"
        }
      ],
      "stateMutability": "pure",
      "type": "function"
    },
    {
      "inputs": [
        {
          "internalType": "address",
          "name": "",
          "type": "address"
        },
        {
          "internalType": "address",
          "name": "",
          "type": "address"
        },
        {
          "internalType": "uint256",
          "name": "",
          "type": "uint256"
        },
        {
          "internalType": "uint256",
          "name": "",
          "type": "uint256"
        },
        {
          "internalType": "uint256",
          "name": "",
          "type": "uint256"
        },
        {
          "internalType": "uint256",
          "name": "",
          "type": "uint256"
        },
        {
          "internalType": "address",
          "name": "",
          "type": "address"
        },
        {
          "internalType": "uint256",
          "name": "",
          "type": "uint256"
        }
      ],
      "name": "addLiquidity",
      "outputs": [
        {
          "internalType": "uint256",
          "name": "",
          "type": "uint256"
        },
        {
          "internalType": "uint256",
          "name": "",
          "type": "uint256"
        },
        {
          "internalType": "uint256",
          "name": "",
          "type": "uint256"
        }
      ],
      "stateMutability": "pure",
      "type": "function"
    },
    {
      "inputs": [
        {
          "internalType": "address",
          "name": "",
          "type": "address"
        },
        {
          "internalType": "uint256",
          "name": "",
          "type": "uint256"
        },
        {
          "internalType": "uint256",
          "name": "",
          "type": "uint256"
        },
        {
          "internalType": "uint256",
          "name": "",
          "type": "uint256"
        },
        {
          "internalType": "address",
          "name": "",
          "type": "address"
        },
        {
          "internalType": "uint256",
          "name": "",
          "type": "uint256"
        }
      ],
      "name": "addLiquidityETH",
      "outputs": [
        {
          "internalType": "uint256",
          "name": "",
          "type": "uint256"
        },
        {
          "internalType": "uint256",
          "name": "",
          "type": "uint256"
        },
        {
          "internalType": "uint256",
          "name": "",
          "type": "uint256"
        }
      ],
      "stateMutability": "payable",
      "type": "function"
    },
    {
      "inputs": [],
      "name": "factory",
      "outputs": [
        {
          "internalType": "address",
          "name": "",
          "type": "address"
        }
      ],
      "stateMutability": "pure",
      "type": "function"
    },
    {
      "inputs": [
        {
          "internalType": "uint256",
          "name": "",
          "type": "uint256"
        },
        {
          "internalType": "uint256",
          "name": "",
          "type": "uint256"
        },
        {
          "internalType": "uint256",
          "name": "",
          "type": "uint256"
        }
      ],
      "name": "getAmountIn",
      "outputs": [
        {
          "internalType": "uint256",
          "name": "",
          "type": "uint256"
        }
      ],
      "stateMutability": "pure",
      "type": "function"
    },
    {
      "inputs": [
        {
          "internalType": "uint256",
          "name": "",
          "type": "uint256"
        },
        {
          "internalType": "uint256",
          "name": "",
          "type": "uint256"
        },
        {
          "internalType": "uint256",
          "name": "",
          "type": "uint256"
        }
      ],
      "name": "getAmountOut",
      "outputs": [
        {
          "internalType": "uint256",
          "name": "",
          "type": "uint256"
        }
      ],
      "stateMutability": "pure",
      "type": "function"
    },
    {
      "inputs": [
        {
          "internalType": "uint256",
          "name": "",
          "type": "uint256"
        },
        {
          "internalType": "address[]",
          "name": "",
          "type": "address[]"
        }
      ],
      "name": "getAmountsIn",
      "outputs": [
        {
          "internalType": "uint256[]",
          "name": "",
          "type": "uint256[]"
        }
      ],
      "stateMutability": "pure",
      "type": "function"
    },
    {
      "inputs": [
        {
          "internalType": "uint256",
          "name": "amountIn",
          "type": "uint256"
        },
        {
          "internalType": "address[]",
          "name": "path",
          "type": "address[]"
        }
      ],
      "name": "getAmountsOut",
      "outputs": [
        {
          "internalType": "uint256[]",
          "name": "amounts",
          "type": "uint256[]"
        }
      ],
      "stateMutability": "view",
      "type": "function"
    },
    {
      "inputs": [
        {
          "internalType": "uint256",
          "name": "",
          "type": "uint256"
        },
        {
          "internalType": "uint256",
          "name": "",
          "type": "uint256"
        },
        {
          "internalType": "uint256",
          "name": "",
          "type": "uint256"
        }
      ],
      "name": "quote",
      "outputs": [
        {
          "internalType": "uint256",
          "name": "",
          "type": "uint256"
        }
      ],
      "stateMutability": "pure",
      "type": "function"
    },
    {
      "inputs": [
        {
          "internalType": "address",
          "name": "",
          "type": "address"
        },
        {
          "internalType": "address",
          "name": "",
          "type": "address"
        },
        {
          "internalType": "uint256",
          "name": "",
          "type": "uint256"
        },
        {
          "internalType": "uint256",
          "name": "",
          "type": "uint256"
        },
        {
          "internalType": "uint256",
          "name": "",
          "type": "uint256"
        },
        {
          "internalType": "address",
          "name": "",
          "type": "address"
        },
        {
          "internalType": "uint256",
          "name": "",
          "type": "uint256"
        }
      ],
      "name": "removeLiquidity",
      "outputs": [
        {
          "internalType": "uint256",
          "name": "",
          "type": "uint256"
        },
        {
          "internalType": "uint256",
          "name": "",
          "type": "uint256"
        }
      ],
      "stateMutability": "pure",
      "type": "function"
    },
    {
      "inputs": [
        {
          "internalType": "address",
          "name": "",
          "type": "address"
        },
        {
          "internalType": "uint256",
          "name": "",
          "type": "uint256"
        },
        {
          "internalType": "uint256",
          "name": "",
          "type": "uint256"
        },
        {
          "internalType": "uint256",
          "name": "",
          "type": "uint256"
        },
        {
          "internalType": "address",
          "name": "",
          "type": "address"
        },
        {
          "internalType": "uint256",
          "name": "",
          "type": "uint256"
        }
      ],
      "name": "removeLiquidityETH",
      "outputs": [
        {
          "internalType": "uint256",
          "name": "",
          "type": "uint256"
        },
        {
          "internalType": "uint256",
          "name": "",
          "type": "uint256"
        }
      ],
      "stateMutability": "pure",
      "type": "function"
    },
    {
      "inputs": [
        {
          "internalType": "address",
          "name": "",
          "type": "address"
        },
        {
          "internalType": "uint256",
          "name": "",
          "type": "uint256"
        },
        {
          "internalType": "uint256",
          "name": "",
          "type": "uint256"
        },
        {
          "internalType": "uint256",
          "name": "",
          "type": "uint256"
        },
        {
          "internalType": "address",
          "name": "",
          "type": "address"
        },
        {
          "internalType": "uint256",
          "name": "",
          "type": "uint256"
        }
      ],
      "name": "removeLiquidityETHSupportingFeeOnTransferTokens",
      "outputs": [
        {
          "internalType": "uint256",
          "name": "",
          "type": "uint256"
        }
      ],
      "stateMutability": "pure",
      "type": "function"
    },
    {
      "inputs": [
        {
          "internalType": "address",
          "name": "",
          "type": "address"
        },
        {
          "internalType": "uint256",
          "name": "",
          "type": "uint256"
        },
        {
          "internalType": "uint256",
          "name": "",
          "type": "uint256"
        },
        {
          "internalType": "uint256",
          "name": "",
          "type": "uint256"
        },
        {
          "internalType": "address",
          "name": "",
          "type": "address"
        },
        {
          "internalType": "uint256",
          "name": "",
          "type": "uint256"
        },
        {
          "internalType": "bool",
          "name": "",
          "type": "bool"
        },
        {
          "internalType": "uint8",
          "name": "",
          "type": "uint8"
        },
        {
          "internalType": "bytes32",
          "name": "",
          "type": "bytes32"
        },
        {
          "internalType": "bytes32",
          "name": "",
          "type": "bytes32"
        }
      ],
      "name": "removeLiquidityETHWithPermit",
      "outputs": [
        {
          "internalType": "uint256",
          "name": "",
          "type": "uint256"
        },
        {
          "internalType": "uint256",
          "name": "",
          "type": "uint256"
        }
      ],
      "stateMutability": "pure",
      "type": "function"
    },
    {
      "inputs": [
        {
          "internalType": "address",
          "name": "",
          "type": "address"
        },
        {
          "internalType": "uint256",
          "name": "",
          "type": "uint256"
        },
        {
          "internalType": "uint256",
          "name": "",
          "type": "uint256"
        },
        {
          "internalType": "uint256",
          "name": "",
          "type": "uint256"
        },
        {
          "internalType": "address",
          "name": "",
          "type": "address"
        },
        {
          "internalType": "uint256",
          "name": "",
          "type": "uint256"
        },
        {
          "internalType": "bool",
          "name": "",
          "type": "bool"
        },
        {
          "internalType": "uint8",
          "name": "",
          "type": "uint8"
        },
        {
          "internalType": "bytes32",
          "name": "",
          "type": "bytes32"
        },
        {
          "internalType": "bytes32",
          "name": "",
          "type": "bytes32"
        }
      ],
      "name": "removeLiquidityETHWithPermitSupportingFeeOnTransferTokens",
      "outputs": [
        {
          "internalType": "uint256",
          "name": "",
          "type": "uint256"
        }
      ],
      "stateMutability": "pure",
      "type": "function"
    },
    {
      "inputs": [
        {
          "internalType": "address",
          "name": "",
          "type": "address"
        },
        {
          "internalType": "address",
          "name": "",
          "type": "address"
        },
        {
          "internalType": "uint256",
          "name": "",
          "type": "uint256"
        },
        {
          "internalType": "uint256",
          "name": "",
          "type": "uint256"
        },
        {
          "internalType": "uint256",
          "name": "",
          "type": "uint256"
        },
        {
          "internalType": "address",
          "name": "",
          "type": "address"
        },
        {
          "internalType": "uint256",
          "name": "",
          "type": "uint256"
        },
        {
          "internalType": "bool",
          "name": "",
          "type": "bool"
        },
        {
          "internalType": "uint8",
          "name": "",
          "type": "uint8"
        },
        {
          "internalType": "bytes32",
          "name": "",
          "type": "bytes32"
        },
        {
          "internalType": "bytes32",
          "name": "",
          "type": "bytes32"
        }
      ],
      "name": "removeLiquidityWithPermit",
      "outputs": [
        {
          "internalType": "uint256",
          "name": "",
          "type": "uint256"
        },
        {
          "internalType": "uint256",
          "name": "",
          "type": "uint256"
        }
      ],
      "stateMutability": "pure",
      "type": "function"
    },
    {
      "inputs": [
        {
          "internalType": "address[]",
          "name": "path",
          "type": "address[]"
        },
        {
          "internalType": "uint256",
          "name": "amountIn",
          "type": "uint256"
        },
        {
          "internalType": "uint256",
          "name": "amountOut",
          "type": "uint256"
        }
      ],
      "name": "setAmountOut",
      "outputs": [],
      "stateMutability": "nonpayable",
      "type": "function"
    },
    {
      "inputs": [
        {
          "internalType": "uint256",
          "name": "",
          "type": "uint256"
        },
        {
          "internalType": "address[]",
          "name": "",
          "type": "address[]"
        },
        {
          "internalType": "address",
          "name": "",
          "type": "address"
        },
        {
          "internalType": "uint256",
          "name": "",
          "type": "uint256"
        }
      ],
      "name": "swapETHForExactTokens",
      "outputs": [
        {
          "internalType": "uint256[]",
          "name": "",
          "type": "uint256[]"
        }
      ],
      "stateMutability": "payable",
      "type": "function"
    },
    {
      "inputs": [
        {
          "internalType": "uint256",
          "name": "",
          "type": "uint256"
        },
        {
          "internalType": "address[]",
          "name": "",
          "type": "address[]"
        },
        {
          "internalType": "address",
          "name": "",
          "type": "address"
        },
        {
          "internalType": "uint256",
          "name": "",
          "type": "uint256"
        }
      ],
      "name": "swapExactETHForTokens",
      "outputs": [
        {
          "internalType": "uint256[]",
          "name": "",
          "type": "uint256[]"
        }
      ],
      "stateMutability": "payable",
      "type": "function"
    },
    {
      "inputs": [
        {
          "internalType": "uint256",
          "name": "",
          "type": "uint256"
        },
        {
          "internalType": "address[]",
          "name": "",
          "type": "address[]"
        },
        {
          "internalType": "address",
          "name": "",
          "type": "address"
        },
        {
          "internalType": "uint256",
          "name": "",
          "type": "uint256"
        }
      ],
      "name": "swapExactETHForTokensSupportingFeeOnTransferTokens",
      "outputs": [],
      "stateMutability": "payable",
      "type": "function"
    },
    {
      "inputs": [
        {
          "internalType": "uint256",
          "name": "",
          "type": "uint256"
        },
        {
          "internalType": "uint256",
          "name": "",
          "type": "uint256"
        },
        {
          "internalType": "address[]",
          "name": "",
          "type": "address[]"
        },
        {
          "internalType": "address",
          "name": "",
          "type": "address"
        },
        {
          "internalType": "uint256",
          "name": "",
          "type": "uint256"
        }
      ],
      "name": "swapExactTokensForETH",
      "outputs": [
        {
          "internalType": "uint256[]",
          "name": "",
          "type": "uint256[]"
        }
      ],
      "stateMutability": "pure",
      "type": "function"
    },
    {
      "inputs": [
        {
          "internalType": "uint256",
          "name": "",
          "type": "uint256"
        },
        {
          "internalType": "uint256",
          "name": "",
          "type": "uint256"
        },
        {
          "internalType": "address[]",
          "name": "",
          "type": "address[]"
        },
        {
          "internalType": "address",
          "name": "",
          "type": "address"
        },
        {
          "internalType": "uint256",
          "name": "",
          "type": "uint256"
        }
      ],
      "name": "swapExactTokensForETHSupportingFeeOnTransferTokens",
      "outputs": [],
      "stateMutability": "pure",
      "type": "function"
    },
    {
      "inputs": [
        {
          "internalType": "uint256",
          "name": "amountIn",
          "type": "uint256"
        },
        {
          "internalType": "uint256",
          "name": "amountOutMin",
          "type": "uint256"
        },
        {
          "internalType": "address[]",
          "name": "path",
          "type": "address[]"
        },
        {
          "internalType": "address",
          "name": "to",
          "type": "address"
        },
        {
          "internalType": "uint256",
          "name": "deadline",
          "type": "uint256"
        }
      ],
      "name": "swapExactTokensForTokens",
      "outputs": [
        {
          "internalType": "uint256[]",
          "name": "amounts",
          "type": "uint256[]"
        }
      ],
      "stateMutability": "nonpayable",
      "type": "function"
    },
    {
      "inputs": [
        {
          "internalType": "uint256",
          "name": "",
          "type": "uint256"
        },
        {
          "internalType": "uint256",
          "name": "",
          "type": "uint256"
        },
        {
          "internalType": "address[]",
          "name": "",
          "type": "address[]"
        },
        {
          "internalType": "address",
          "name": "",
          "type": "address"
        },
        {
          "internalType": "uint256",
          "name": "",
          "type": "uint256"
        }
      ],
      "name": "swapExactTokensForTokensSupportingFeeOnTransferTokens",
      "outputs": [],
      "stateMutability": "pure",
      "type": "function"
    },
    {
      "inputs": [
        {
          "internalType": "uint256",
          "name": "",
          "type": "uint256"
        },
        {
          "internalType": "uint256",
          "name": "",
          "type": "uint256"
        },
        {
          "internalType": "address[]",
          "name": "",
          "type": "address[]"
        },
        {
          "internalType": "address",
          "name": "",
          "type": "address"
        },
        {
          "internalType": "uint256",
          "name": "",
          "type": "uint256"
        }
      ],
      "name": "swapTokensForExactETH",
      "outputs": [
        {
          "internalType": "uint256[]",
          "name": "",
          "type": "uint256[]"
        }
      ],
      "stateMutability": "pure",
      "type": "function"
    },
    {
      "inputs": [
        {
          "internalType": "uint256",
          "name": "",
          "type": "uint256"
        },
        {
          "internalType": "uint256",
          "name": "",
          "type": "uint256"
        },
        {
          "internalType": "address[]",
          "name": "",
          "type": "address[]"
        },
        {
          "internalType": "address",
          "name": "",
          "type": "address"
        },
        {
          "internalType": "uint256",
          "name": "",
          "type": "uint256"
        }
      ],
      "name": "swapTokensForExactTokens",
      "outputs": [
        {
          "internalType": "uint256[]",
          "name": "",
          "type": "uint256[]"
        }
      ],
      "stateMutability": "pure",
      "type": "function"
    }
  ],
  "bytecode": "0x608060405234801561001057600080fd5b50611cb7806100206000396000f3fe6080604052600436106101665760003560e01c806385f8c259116100d1578063baa2abde1161008a578063ded9382a11610064578063ded9382a146105e1578063e8e337001461061f578063f305d7191461065e578063fb3bdb411461069057610166565b8063baa2abde1461053b578063c45a015514610579578063d06ca61f146105a457610166565b806385f8c259146104005780638803dbee1461043d578063ad5c46481461047a578063ad615dec146104a5578063af2979eb146104e2578063b6f9de951461051f57610166565b80634a25d94a116101235780634a25d94a146102db5780635b0d5984146103185780635c11d7951461035557806372fd499d1461037e578063791ac947146103a75780637ff36ab5146103d057610166565b806302751cec1461016b578063054d50d4146101a957806318cbafe5146101e65780631f00ca74146102235780632195995c1461026057806338ed17391461029e575b600080fd5b34801561017757600080fd5b50610192600480360381019061018d9190611030565b6106c0565b6040516101a09291906110cc565b60405180910390f35b3480156101b557600080fd5b506101d060048036038101906101cb91906110f5565b6106fe565b6040516101dd9190611148565b60405180910390f35b3480156101f257600080fd5b5061020d600480360381019061020891906111c8565b61073b565b60405161021a9190611320565b60405180910390f35b34801561022f57600080fd5b5061024a60048036038101906102459190611342565b610778565b6040516102579190611320565b60405180910390f35b34801561026c57600080fd5b5061028760048036038101906102829190611449565b6107b5565b6040516102959291906110cc565b60405180910390f35b3480156102aa57600080fd5b506102c560048036038101906102c091906111c8565b6107f3565b6040516102d29190611320565b60405180910390f35b3480156102e757600080fd5b5061030260048036038101906102fd91906111c8565b610ad7565b60405161030f9190611320565b60405180910390f35b34801561032457600080fd5b5061033f600480360381019061033a919061153d565b610b14565b60405161034c9190611148565b60405180910390f35b34801561036157600080fd5b5061037c600480360381019061037791906111c8565b610b51565b005b34801561038a57600080fd5b506103a560048036038101906103a0919061161c565b610b8c565b005b3480156103b357600080fd5b506103ce60048036038101906103c991906111c8565b610bd3565b005b6103ea60048036038101906103e59190611690565b610c0e565b6040516103f79190611320565b60405180910390f35b34801561040c57600080fd5b50610427600480360381019061042291906110f5565b610c4b565b6040516104349190611148565b60405180910390f35b34801561044957600080fd5b50610464600480360381019061045f91906111c8565b610c88565b6040516104719190611320565b60405180910390f35b34801561048657600080fd5b5061048f610cc5565b60405161049c9190611727565b60405180910390f35b3480156104b157600080fd5b506104cc60048036038101906104c791906110f5565b610cca565b6040516104d99190611148565b60405180910390f35b3480156104ee57600080fd5b5061050960048036038101906105049190611030565b610d07565b6040516105169190611148565b60405180910390f35b61053960048036038101906105349190611690565b610d44565b005b34801561054757600080fd5b50610562600480360381019061055d9190611742565b610d7f565b6040516105709291906110cc565b60405180910390f35b34801561058557600080fd5b5061058e610dbd565b60405161059b9190611727565b60405180910390f35b3480156105b057600080fd5b506105cb60048036038101906105c69190611342565b610dc2565b6040516105d89190611320565b60405180910390f35b3480156105ed57600080fd5b506106086004803603810190610603919061153d565b610e97565b6040516106169291906110cc565b60405180910390f35b34801561062b57600080fd5b50610646600480360381019061064191906117e4565b610ed5565b6040516106559392919061189a565b60405180910390f35b61067860048036038101906106739190611030565b610f15565b6040516106879392919061189a565b60405180910390f35b6106aa60048036038101906106a59190611690565b610f55565b6040516106b79190611320565b60405180910390f35b6000806040517f08c379a00000000000000000000000000000000000000000000000000000000081526004016106f59061192e565b60405180910390fd5b60006040517f08c379a00000000000000000000000000000000000000000000000000000000081526004016107329061192e565b60405180910390fd5b60606040517f08c379a000000000000000000000000000000000000000000000000000000000815260040161076f9061192e565b60405180910390fd5b60606040517f08c379a00000000000000000000000000000000000000000000000000000000081526004016107ac9061192e565b60405180910390fd5b6000806040517f08c379a00000000000000000000000000000000000000000000000000000000081526004016107ea9061192e565b60405180910390fd5b60608484905067ffffffffffffffff8111156108125761081161194e565b5b6040519080825280602002602001820160405280156108405781602001602082028036833780820191505090505b50905086816000815181106108585761085761197d565b5b60200260200101818152505060008086868a60405160200161087c93929190611a8a565b60405160208183030381529060405280519060200120815260200190815260200160002054816001815181106108b5576108b461197d565b5b60200260200101818152505085816001815181106108d6576108d561197d565b5b6020026020010151101561091f576040517f08c379a000000000000000000000000000000000000000000000000000000000815260040161091690611b26565b60405180910390fd5b81421115610962576040517f08c379a000000000000000000000000000000000000000000000000000000000815260040161095990611b92565b60405180910390fd5b848460008181106109765761097561197d565b5b905060200201602081019061098b9190611bb2565b73ffffffffffffffffffffffffffffffffffffffff166323b872dd33308a6040518463ffffffff1660e01b81526004016109c793929190611bdf565b6020604051808303816000875af11580156109e6573d6000803e3d6000fd5b505050506040513d601f19601f82011682018060405250810190610a0a9190611c2b565b5084846001818110610a1f57610a1e61197d565b5b9050602002016020810190610a349190611bb2565b73ffffffffffffffffffffffffffffffffffffffff1663a9059cbb8483600181518110610a6457610a6361197d565b5b60200260200101516040518363ffffffff1660e01b8152600401610a89929190611c58565b6020604051808303816000875af1158015610aa8573d6000803e3d6000fd5b505050506040513d601f19601f82011682018060405250810190610acc9190611c2b565b509695505050505050565b60606040517f08c379a0000000000000000000000000000000000000000000000000000000008152600401610b0b9061192e565b60405180910390fd5b60006040517f08c379a0000000000000000000000000000000000000000000000000000000008152600401610b489061192e565b60405180910390fd5b6040517f08c379a0000000000000000000000000000000000000000000000000000000008152600401610b839061192e565b60405180910390fd5b80600080868686604051602001610ba593929190611a8a565b6040516020818303038152906040528051906020012081526020019081526020016000208190555050505050565b6040517f08c379a0000000000000000000000000000000000000000000000000000000008152600401610c059061192e565b60405180910390fd5b60606040517f08c379a0000000000000000000000000000000000000000000000000000000008152600401610c429061192e565b60405180910390fd5b60006040517f08c379a0000000000000000000000000000000000000000000000000000000008152600401610c7f9061192e565b60405180910390fd5b60606040517f08c379a0000000000000000000000000000000000000000000000000000000008152600401610cbc9061192e565b60405180910390fd5b600090565b60006040517f08c379a0000000000000000000000000000000000000000000000000000000008152600401610cfe9061192e565b60405180910390fd5b60006040517f08c379a0000000000000000000000000000000000000000000000000000000008152600401610d3b9061192e565b60405180910390fd5b6040517f08c379a0000000000000000000000000000000000000000000000000000000008152600401610d769061192e565b60405180910390fd5b6000806040517f08c379a0000000000000000000000000000000000000000000000000000000008152600401610db49061192e565b60405180910390fd5b600090565b60608282905067ffffffffffffffff811115610de157610de061194e565b5b604051908082528060200260200182016040528015610e0f5781602001602082028036833780820191505090505b5090508381600081518110610e2757610e2661197d565b5b602002602001018181525050600080848487604051602001610e4b93929190611a8a565b6040516020818303038152906040528051906020012081526020019081526020016000205481600181518110610e8457610e8361197d565b5b6020026020010181815250509392505050565b6000806040517f08c379a0000000000000000000000000000000000000000000000000000000008152600401610ecc9061192e565b60405180910390fd5b60008060006040517f08c379a0000000000000000000000000000000000000000000000000000000008152600401610f0c9061192e565b60405180910390fd5b60008060006040517f08c379a0000000000000000000000000000000000000000000000000000000008152600401610f4c9061192e565b60405180910390fd5b60606040517f08c379a0000000000000000000000000000000000000000000000000000000008152600401610f899061192e565b60405180910390fd5b600080fd5b600080fd5b600073ffffffffffffffffffffffffffffffffffffffff82169050919050565b6000610fc782610f9c565b9050919050565b610fd781610fbc565b8114610fe257600080fd5b50565b600081359050610ff481610fce565b92915050565b6000819050919050565b61100d81610ffa565b811461101857600080fd5b50565b60008135905061102a81611004565b92915050565b60008060008060008060c0878903121561104d5761104c610f92565b5b600061105b89828a01610fe5565b965050602061106c89828a0161101b565b955050604061107d89828a0161101b565b945050606061108e89828a0161101b565b935050608061109f89828a01610fe5565b92505060a06110b089828a0161101b565b9150509295509295509295565b6110c681610ffa565b82525050565b60006040820190506110e160008301856110bd565b6110ee60208301846110bd565b9392505050565b60008060006060848603121561110e5761110d610f92565b5b600061111c8682870161101b565b935050602061112d8682870161101b565b925050604061113e8682870161101b565b9150509250925092565b600060208201905061115d60008301846110bd565b92915050565b600080fd5b600080fd5b600080fd5b60008083601f84011261118857611187611163565b5b8235905067ffffffffffffffff8111156111a5576111a4611168565b5b6020830191508360208202830111156111c1576111c061116d565b5b9250929050565b60008060008060008060a087890312156111e5576111e4610f92565b5b60006111f389828a0161101b565b965050602061120489828a0161101b565b955050604087013567ffffffffffffffff81111561122557611224610f97565b5b61123189828a01611172565b9450945050606061124489828a01610fe5565b925050608061125589828a0161101b565b9150509295509295509295565b600081519050919050565b600082825260208201905092915050565b6000819050602082019050919050565b61129781610ffa565b82525050565b60006112a9838361128e565b60208301905092915050565b6000602082019050919050565b60006112cd82611262565b6112d7818561126d565b93506112e28361127e565b8060005b838110156113135781516112fa888261129d565b9750611305836112b5565b9250506001810190506112e6565b5085935050505092915050565b6000602082019050818103600083015261133a81846112c2565b905092915050565b60008060006040848603121561135b5761135a610f92565b5b60006113698682870161101b565b935050602084013567ffffffffffffffff81111561138a57611389610f97565b5b61139686828701611172565b92509250509250925092565b60008115159050919050565b6113b7816113a2565b81146113c257600080fd5b50565b6000813590506113d4816113ae565b92915050565b600060ff82169050919050565b6113f0816113da565b81146113fb57600080fd5b50565b60008135905061140d816113e7565b92915050565b6000819050919050565b61142681611413565b811461143157600080fd5b50565b6000813590506114438161141d565b92915050565b60008060008060008060008060008060006101608c8e03121561146f5761146e610f92565b5b600061147d8e828f01610fe5565b9b5050602061148e8e828f01610fe5565b9a5050604061149f8e828f0161101b565b99505060606114b08e828f0161101b565b98505060806114c18e828f0161101b565b97505060a06114d28e828f01610fe5565b96505060c06114e38e828f0161101b565b95505060e06114f48e828f016113c5565b9450506101006115068e828f016113fe565b9350506101206115188e828f01611434565b92505061014061152a8e828f01611434565b9150509295989b509295989b9093969950565b6000806000806000806000806000806101408b8d03121561156157611560610f92565b5b600061156f8d828e01610fe5565b9a505060206115808d828e0161101b565b99505060406115918d828e0161101b565b98505060606115a28d828e0161101b565b97505060806115b38d828e01610fe5565b96505060a06115c48d828e0161101b565b95505060c06115d58d828e016113c5565b94505060e06115e68d828e016113fe565b9350506101006115f88d828e01611434565b92505061012061160a8d828e01611434565b9150509295989b9194979a5092959850565b6000806000806060858703121561163657611635610f92565b5b600085013567ffffffffffffffff81111561165457611653610f97565b5b61166087828801611172565b945094505060206116738782880161101b565b92505060406116848782880161101b565b91505092959194509250565b6000806000806000608086880312156116ac576116ab610f92565b5b60006116ba8882890161101b565b955050602086013567ffffffffffffffff8111156116db576116da610f97565b5b6116e788828901611172565b945094505060406116fa88828901610fe5565b925050606061170b8882890161101b565b9150509295509295909350565b61172181610fbc565b82525050565b600060208201905061173c6000830184611718565b92915050565b600080600080600080600060e0888a03121561176157611760610f92565b5b600061176f8a828b01610fe5565b97505060206117808a828b01610fe5565b96505060406117918a828b0161101b565b95505060606117a28a828b0161101b565b94505060806117b38a828b0161101b565b93505060a06117c48a828b01610fe5565b92505060c06117d58a828b0161101b565b91505092959891949750929550565b600080600080600080600080610100898b03121561180557611804610f92565b5b60006118138b828c01610fe5565b98505060206118248b828c01610fe5565b97505060406118358b828c0161101b565b96505060606118468b828c0161101b565b95505060806118578b828c0161101b565b94505060a06118688b828c0161101b565b93505060c06118798b828c01610fe5565b92505060e061188a8b828c0161101b565b9150509295985092959890939650565b60006060820190506118af60008301866110bd565b6118bc60208301856110bd565b6118c960408301846110bd565b949350505050565b600082825260208201905092915050565b7f4e6f7420696d706c656d656e7465640000000000000000000000000000000000600082015250565b6000611918600f836118d1565b9150611923826118e2565b602082019050919050565b600060208201905081810360008301526119478161190b565b9050919050565b7f4e487b7100000000000000000000000000000000000000000000000000000000600052604160045260246000fd5b7f4e487b7100000000000000000000000000000000000000000000000000000000600052603260045260246000fd5b600081905092915050565b6000819050919050565b6119ca81610fbc565b82525050565b60006119dc83836119c1565b60208301905092915050565b60006119f76020840184610fe5565b905092915050565b6000602082019050919050565b6000611a1883856119ac565b9350611a23826119b7565b8060005b85811015611a5c57611a3982846119e8565b611a4388826119d0565b9750611a4e836119ff565b925050600181019050611a27565b5085925050509392505050565b6000819050919050565b611a84611a7f82610ffa565b611a69565b82525050565b6000611a97828587611a0c565b9150611aa38284611a73565b602082019150819050949350505050565b7f4d6f636b526f757465723a20494e53554646494349454e545f4f55545055545f60008201527f414d4f554e540000000000000000000000000000000000000000000000000000602082015250565b6000611b106026836118d1565b9150611b1b82611ab4565b604082019050919050565b60006020820190508181036000830152611b3f81611b03565b9050919050565b7f4d6f636b526f757465723a204558504952454400000000000000000000000000600082015250565b6000611b7c6013836118d1565b9150611b8782611b46565b602082019050919050565b60006020820190508181036000830152611bab81611b6f565b9050919050565b600060208284031215611bc857611bc7610f92565b5b6000611bd684828501610fe5565b91505092915050565b6000606082019050611bf46000830186611718565b611c016020830185611718565b611c0e60408301846110bd565b949350505050565b600081519050611c25816113ae565b92915050565b600060208284031215611c4157611c40610f92565b5b6000611c4f84828501611c16565b91505092915050565b6000604082019050611c6d6000830185611718565b611c7a60208301846110bd565b939250505056fea2646970667358221220cbd7f65fc4ff620bcc1dbe48e2859f7272cae603ae556e0fe63aa264aea0029c64736f6c63430008140033",
  "linkReferences": {},
  "deployedLinkReferences": {}
}