{"abi":[{"type":"constructor","inputs":[{"name":"_vault","type":"address","internalType":"address"},{"name":"_twapOracle","type":"address","internalType":"address"}],"stateMutability":"nonpayable"},{"type":"function","name":"owner","inputs":[],"outputs":[{"name":"","type":"address","internalType":"address"}],"stateMutability":"view"},{"type":"function","name":"pause","inputs":[],"outputs":[],"stateMutability":"nonpayable"},{"type":"function","name":"paused","inputs":[],"outputs":[{"name":"","type":"bool","internalType":"bool"}],"stateMutability":"view"},{"type":"function","name":"receiveFlashLoan","inputs":[{"name":"tokens","type":"address[]","internalType":"address[]"},{"name":"amounts","type":"uint256[]","internalType":"uint256[]"},{"name":"feeAmounts","type":"uint256[]","internalType":"uint256[]"},{"name":"userData","type":"bytes","internalType":"bytes"}],"outputs":[],"stateMutability":"nonpayable"},{"type":"function","name":"startFlashloan","inputs":[{"name":"token","type":"address","internalType":"address"},{"name":"amount","type":"uint256","internalType":"uint256"},{"name":"userData","type":"bytes","internalType":"bytes"}],"outputs":[],"stateMutability":"nonpayable"},{"type":"function","name":"twapOracle","inputs":[],"outputs":[{"name":"","type":"address","internalType":"contract UniswapV2TwapOracle"}],"stateMutability":"view"},{"type":"function","name":"unpause","inputs":[],"outputs":[],"stateMutability":"nonpayable"},{"type":"function","name":"vault","inputs":[],"outputs":[{"name":"","type":"address","internalType":"contract IVault"}],"stateMutability":"view"},{"type":"function","name":"withdraw","inputs":[{"name":"tokenAddress","type":"address","internalType":"address"}],"outputs":[],"stateMutability":"nonpayable"},{"type":"event","name":"FlashLoanExecuted","inputs":[{"name":"token","type":"address","indexed":true,"internalType":"address"},{"name":"loanAmount","type":"uint256","indexed":false,"internalType":"uint256"},{"name":"netProfit","type":"int256","indexed":false,"internalType":"int256"}],"anonymous":false},{"type":"event","name":"Paused","inputs":[{"name":"account","type":"address","indexed":false,"internalType":"address"}],"anonymous":false},{"type":"event","name":"ProfitWithdrawal","inputs":[{"name":"token","type":"address","indexed":true,"internalType":"address"},{"name":"amount","type":"uint256","indexed":false,"internalType":"uint256"}],"anonymous":false},{"type":"event","name":"Unpaused","inputs":[{"name":"account","type":"address","indexed":false,"internalType":"address"}],"anonymous":false},{"type":"error","name":"EnforcedPause","inputs":[]},{"type":"error","name":"ExpectedPause","inputs":[]},{"type":"error","name":"ReentrancyGuardReentrantCall","inputs":[]}],"bytecode":{"object":"0x60e060405234801561000f575f5ffd5b506040516128f03803806128f083398181016040528101906100319190610188565b600161004f6100446100f860201b60201c565b61012160201b60201c565b5f01819055503373ffffffffffffffffffffffffffffffffffffffff1660808173ffffffffffffffffffffffffffffffffffffffff16815250508173ffffffffffffffffffffffffffffffffffffffff1660a08173ffffffffffffffffffffffffffffffffffffffff16815250508073ffffffffffffffffffffffffffffffffffffffff1660c08173ffffffffffffffffffffffffffffffffffffffff168152505050506101c6565b5f7f9b779b17422d0df92223018b32b4d1fa46e071723d6817e2486d003becc55f005f1b905090565b5f819050919050565b5f5ffd5b5f73ffffffffffffffffffffffffffffffffffffffff82169050919050565b5f6101578261012e565b9050919050565b6101678161014d565b8114610171575f5ffd5b50565b5f815190506101828161015e565b92915050565b5f5f6040838503121561019e5761019d61012a565b5b5f6101ab85828601610174565b92505060206101bc85828601610174565b9150509250929050565b60805160a05160c0516126b361023d5f395f8181610718015281816107ad0152610fe201525f81816105c6015281816109d901528181610b21015261132001525f81816101770152818161020f01528181610340015281816104280152818161065c015281816106f401526108c901526126b35ff3fe608060405234801561000f575f5ffd5b5060043610610091575f3560e01c80638456cb59116100645780638456cb59146100f55780638da5cb5b146100ff5780639043292a1461011d578063f04f27071461013b578063fbfa77cf1461015757610091565b80633f4ba83a1461009557806351cff8d91461009f5780635c975abb146100bb5780638298a90d146100d9575b5f5ffd5b61009d610175565b005b6100b960048036038101906100b491906114fe565b61020d565b005b6100c3610412565b6040516100d09190611543565b60405180910390f35b6100f360048036038101906100ee91906115f0565b610426565b005b6100fd61065a565b005b6101076106f2565b6040516101149190611670565b60405180910390f35b610125610716565b60405161013291906116e4565b60405180910390f35b610155600480360381019061015091906117a7565b61073a565b005b61015f6109d7565b60405161016c91906118ab565b60405180910390f35b7f000000000000000000000000000000000000000000000000000000000000000073ffffffffffffffffffffffffffffffffffffffff163373ffffffffffffffffffffffffffffffffffffffff1614610203576040517f08c379a00000000000000000000000000000000000000000000000000000000081526004016101fa90611944565b60405180910390fd5b61020b6109fb565b565b7f000000000000000000000000000000000000000000000000000000000000000073ffffffffffffffffffffffffffffffffffffffff163373ffffffffffffffffffffffffffffffffffffffff161461029b576040517f08c379a000000000000000000000000000000000000000000000000000000000815260040161029290611944565b60405180910390fd5b5f8190505f8173ffffffffffffffffffffffffffffffffffffffff166370a08231306040518263ffffffff1660e01b81526004016102d99190611670565b602060405180830381865afa1580156102f4573d5f5f3e3d5ffd5b505050506040513d601f19601f820116820180604052508101906103189190611976565b90505f81111561040d578173ffffffffffffffffffffffffffffffffffffffff1663a9059cbb7f0000000000000000000000000000000000000000000000000000000000000000836040518363ffffffff1660e01b815260040161037d9291906119b0565b6020604051808303815f875af1158015610399573d5f5f3e3d5ffd5b505050506040513d601f19601f820116820180604052508101906103bd9190611a01565b508273ffffffffffffffffffffffffffffffffffffffff167fd65d7b028c704b54bcbe20b09b06f59223a87a757489cba0ab12afbb79647239826040516104049190611a2c565b60405180910390a25b505050565b5f5f5f9054906101000a900460ff16905090565b7f000000000000000000000000000000000000000000000000000000000000000073ffffffffffffffffffffffffffffffffffffffff163373ffffffffffffffffffffffffffffffffffffffff16146104b4576040517f08c379a00000000000000000000000000000000000000000000000000000000081526004016104ab90611944565b60405180910390fd5b6104bc610a5b565b5f600167ffffffffffffffff8111156104d8576104d7611a45565b5b6040519080825280602002602001820160405280156105065781602001602082028036833780820191505090505b50905084815f8151811061051d5761051c611a72565b5b602002602001019073ffffffffffffffffffffffffffffffffffffffff16908173ffffffffffffffffffffffffffffffffffffffff16815250505f600167ffffffffffffffff81111561057357610572611a45565b5b6040519080825280602002602001820160405280156105a15781602001602082028036833780820191505090505b50905084815f815181106105b8576105b7611a72565b5b6020026020010181815250507f000000000000000000000000000000000000000000000000000000000000000073ffffffffffffffffffffffffffffffffffffffff16635c38449e30848488886040518663ffffffff1660e01b8152600401610625959493929190611c67565b5f604051808303815f87803b15801561063c575f5ffd5b505af115801561064e573d5f5f3e3d5ffd5b50505050505050505050565b7f000000000000000000000000000000000000000000000000000000000000000073ffffffffffffffffffffffffffffffffffffffff163373ffffffffffffffffffffffffffffffffffffffff16146106e8576040517f08c379a00000000000000000000000000000000000000000000000000000000081526004016106df90611944565b60405180910390fd5b6106f0610a9c565b565b7f000000000000000000000000000000000000000000000000000000000000000081565b7f000000000000000000000000000000000000000000000000000000000000000081565b610742610afd565b61074c8888610b1f565b5f828281019061075c9190611f9b565b905061076781610bf7565b5f5f61077589898989610de5565b915091505f6107848484610e3d565b9050610791848483610fd3565b5f61079d858385611114565b90505f8560c00151111561083b577f000000000000000000000000000000000000000000000000000000000000000073ffffffffffffffffffffffffffffffffffffffff1663c640752d865f015187602001516040518363ffffffff1660e01b815260040161080d929190611fe2565b5f604051808303815f87803b158015610824575f5ffd5b505af1158015610836573d5f5f3e3d5ffd5b505050505b61086d8d8d5f81811061085157610850611a72565b5b905060200201602081019061086691906114fe565b82856112bf565b5f838261087a9190612036565b90505f811115610948578d8d5f81811061089757610896611a72565b5b90506020020160208101906108ac91906114fe565b73ffffffffffffffffffffffffffffffffffffffff1663a9059cbb7f0000000000000000000000000000000000000000000000000000000000000000836040518363ffffffff1660e01b81526004016109069291906119b0565b6020604051808303815f875af1158015610922573d5f5f3e3d5ffd5b505050506040513d601f19601f820116820180604052508101906109469190611a01565b505b8d8d5f81811061095b5761095a611a72565b5b905060200201602081019061097091906114fe565b73ffffffffffffffffffffffffffffffffffffffff167f1736d858cebb9f1fc945933505f6898d6f81e41ee20cfb09e7031c9a817240c686836040516109b7929190612081565b60405180910390a25050505050506109cd6113a3565b5050505050505050565b7f000000000000000000000000000000000000000000000000000000000000000081565b610a036113bd565b5f5f5f6101000a81548160ff0219169083151502179055507f5db9ee0a495bf2e6ff9c91a7834c1ba4fdd244a5e8aa4e537bd38aeae4b073aa610a446113fd565b604051610a519190611670565b60405180910390a1565b610a63610412565b15610a9a576040517fd93c066500000000000000000000000000000000000000000000000000000000815260040160405180910390fd5b565b610aa4610a5b565b60015f5f6101000a81548160ff0219169083151502179055507f62e78cea01bee320cd4e420270b5ea74000d11b0c9f74754ebdbfc544b05a258610ae66113fd565b604051610af39190611670565b60405180910390a1565b610b05611404565b6002610b17610b12611445565b61146e565b5f0181905550565b7f000000000000000000000000000000000000000000000000000000000000000073ffffffffffffffffffffffffffffffffffffffff163373ffffffffffffffffffffffffffffffffffffffff1614610bad576040517f08c379a0000000000000000000000000000000000000000000000000000000008152600401610ba490612118565b60405180910390fd5b60018282905014610bf3576040517f08c379a0000000000000000000000000000000000000000000000000000000008152600401610bea906121a6565b60405180910390fd5b5050565b5f73ffffffffffffffffffffffffffffffffffffffff16815f015173ffffffffffffffffffffffffffffffffffffffff1614158015610c6657505f73ffffffffffffffffffffffffffffffffffffffff16816020015173ffffffffffffffffffffffffffffffffffffffff1614155b610ca5576040517f08c379a0000000000000000000000000000000000000000000000000000000008152600401610c9c9061220e565b60405180910390fd5b6002816040015151148015610d0457505f73ffffffffffffffffffffffffffffffffffffffff1681604001515f81518110610ce357610ce2611a72565b5b602002602001015173ffffffffffffffffffffffffffffffffffffffff1614155b8015610d5b57505f73ffffffffffffffffffffffffffffffffffffffff168160400151600181518110610d3a57610d39611a72565b5b602002602001015173ffffffffffffffffffffffffffffffffffffffff1614155b610d9a576040517f08c379a0000000000000000000000000000000000000000000000000000000008152600401610d9190612276565b60405180910390fd5b600281606001515114610de2576040517f08c379a0000000000000000000000000000000000000000000000000000000008152600401610dd9906122de565b60405180910390fd5b50565b5f5f5f86865f818110610dfb57610dfa611a72565b5b9050602002013590505f85855f818110610e1857610e17611a72565b5b905060200201359050818183610e2e91906122fc565b93509350505094509492505050565b5f825f015173ffffffffffffffffffffffffffffffffffffffff1663095ea7b384604001515f81518110610e7457610e73611a72565b5b6020026020010151846040518363ffffffff1660e01b8152600401610e9a9291906119b0565b6020604051808303815f875af1158015610eb6573d5f5f3e3d5ffd5b505050506040513d601f19601f82011682018060405250810190610eda9190611a01565b505f83604001515f81518110610ef357610ef2611a72565b5b602002602001015173ffffffffffffffffffffffffffffffffffffffff166338ed1739848660a0015187606001515f81518110610f3357610f32611a72565b5b602002602001015130426040518663ffffffff1660e01b8152600401610f5d95949392919061232f565b5f604051808303815f875af1158015610f78573d5f5f3e3d5ffd5b505050506040513d5f823e3d601f19601f82011682018060405250810190610fa09190612447565b90508060018251610fb19190612036565b81518110610fc257610fc1611a72565b5b602002602001015191505092915050565b5f8360c00151111561110f575f7f000000000000000000000000000000000000000000000000000000000000000073ffffffffffffffffffffffffffffffffffffffff16638c86f1e4855f01518587602001516040518463ffffffff1660e01b81526004016110449392919061248e565b602060405180830381865afa15801561105f573d5f5f3e3d5ffd5b505050506040513d601f19601f820116820180604052508101906110839190611976565b90505f81831161109e5782826110999190612036565b6110ab565b81836110aa9190612036565b5b90508460c0015182612710836110c191906124c3565b6110cb9190612531565b111561110c576040517f08c379a0000000000000000000000000000000000000000000000000000000008152600401611103906125d1565b60405180910390fd5b50505b505050565b5f836020015173ffffffffffffffffffffffffffffffffffffffff1663095ea7b3856040015160018151811061114d5761114c611a72565b5b6020026020010151856040518363ffffffff1660e01b81526004016111739291906119b0565b6020604051808303815f875af115801561118f573d5f5f3e3d5ffd5b505050506040513d601f19601f820116820180604052508101906111b39190611a01565b505f8460800151836111c591906122fc565b90505f85604001516001815181106111e0576111df611a72565b5b602002602001015173ffffffffffffffffffffffffffffffffffffffff166338ed17398684896060015160018151811061121d5761121c611a72565b5b602002602001015130426040518663ffffffff1660e01b815260040161124795949392919061232f565b5f604051808303815f875af1158015611262573d5f5f3e3d5ffd5b505050506040513d5f823e3d601f19601f8201168201806040525081019061128a9190612447565b9050806001825161129b9190612036565b815181106112ac576112ab611a72565b5b6020026020010151925050509392505050565b80821015611302576040517f08c379a00000000000000000000000000000000000000000000000000000000081526004016112f99061265f565b60405180910390fd5b8273ffffffffffffffffffffffffffffffffffffffff1663a9059cbb7f0000000000000000000000000000000000000000000000000000000000000000836040518363ffffffff1660e01b815260040161135d9291906119b0565b6020604051808303815f875af1158015611379573d5f5f3e3d5ffd5b505050506040513d601f19601f8201168201806040525081019061139d9190611a01565b50505050565b60016113b56113b0611445565b61146e565b5f0181905550565b6113c5610412565b6113fb576040517f8dfc202b00000000000000000000000000000000000000000000000000000000815260040160405180910390fd5b565b5f33905090565b61140c611477565b15611443576040517f3ee5aeb500000000000000000000000000000000000000000000000000000000815260040160405180910390fd5b565b5f7f9b779b17422d0df92223018b32b4d1fa46e071723d6817e2486d003becc55f005f1b905090565b5f819050919050565b5f600261148a611485611445565b61146e565b5f015414905090565b5f604051905090565b5f5ffd5b5f5ffd5b5f73ffffffffffffffffffffffffffffffffffffffff82169050919050565b5f6114cd826114a4565b9050919050565b6114dd816114c3565b81146114e7575f5ffd5b50565b5f813590506114f8816114d4565b92915050565b5f602082840312156115135761151261149c565b5b5f611520848285016114ea565b91505092915050565b5f8115159050919050565b61153d81611529565b82525050565b5f6020820190506115565f830184611534565b92915050565b5f819050919050565b61156e8161155c565b8114611578575f5ffd5b50565b5f8135905061158981611565565b92915050565b5f5ffd5b5f5ffd5b5f5ffd5b5f5f83601f8401126115b0576115af61158f565b5b8235905067ffffffffffffffff8111156115cd576115cc611593565b5b6020830191508360018202830111156115e9576115e8611597565b5b9250929050565b5f5f5f5f606085870312156116085761160761149c565b5b5f611615878288016114ea565b94505060206116268782880161157b565b935050604085013567ffffffffffffffff811115611647576116466114a0565b5b6116538782880161159b565b925092505092959194509250565b61166a816114c3565b82525050565b5f6020820190506116835f830184611661565b92915050565b5f819050919050565b5f6116ac6116a76116a2846114a4565b611689565b6114a4565b9050919050565b5f6116bd82611692565b9050919050565b5f6116ce826116b3565b9050919050565b6116de816116c4565b82525050565b5f6020820190506116f75f8301846116d5565b92915050565b5f5f83601f8401126117125761171161158f565b5b8235905067ffffffffffffffff81111561172f5761172e611593565b5b60208301915083602082028301111561174b5761174a611597565b5b9250929050565b5f5f83601f8401126117675761176661158f565b5b8235905067ffffffffffffffff81111561178457611783611593565b5b6020830191508360208202830111156117a05761179f611597565b5b9250929050565b5f5f5f5f5f5f5f5f6080898b0312156117c3576117c261149c565b5b5f89013567ffffffffffffffff8111156117e0576117df6114a0565b5b6117ec8b828c016116fd565b9850985050602089013567ffffffffffffffff81111561180f5761180e6114a0565b5b61181b8b828c01611752565b9650965050604089013567ffffffffffffffff81111561183e5761183d6114a0565b5b61184a8b828c01611752565b9450945050606089013567ffffffffffffffff81111561186d5761186c6114a0565b5b6118798b828c0161159b565b92509250509295985092959890939650565b5f611895826116b3565b9050919050565b6118a58161188b565b82525050565b5f6020820190506118be5f83018461189c565b92915050565b5f82825260208201905092915050565b7f4f6e6c79206f776e65722063616e2063616c6c20746869732066756e6374696f5f8201527f6e00000000000000000000000000000000000000000000000000000000000000602082015250565b5f61192e6021836118c4565b9150611939826118d4565b604082019050919050565b5f6020820190508181035f83015261195b81611922565b9050919050565b5f8151905061197081611565565b92915050565b5f6020828403121561198b5761198a61149c565b5b5f61199884828501611962565b91505092915050565b6119aa8161155c565b82525050565b5f6040820190506119c35f830185611661565b6119d060208301846119a1565b9392505050565b6119e081611529565b81146119ea575f5ffd5b50565b5f815190506119fb816119d7565b92915050565b5f60208284031215611a1657611a1561149c565b5b5f611a23848285016119ed565b91505092915050565b5f602082019050611a3f5f8301846119a1565b92915050565b7f4e487b71000000000000000000000000000000000000000000000000000000005f52604160045260245ffd5b7f4e487b71000000000000000000000000000000000000000000000000000000005f52603260045260245ffd5b5f81519050919050565b5f82825260208201905092915050565b5f819050602082019050919050565b611ad1816114c3565b82525050565b5f611ae28383611ac8565b60208301905092915050565b5f602082019050919050565b5f611b0482611a9f565b611b0e8185611aa9565b9350611b1983611ab9565b805f5b83811015611b49578151611b308882611ad7565b9750611b3b83611aee565b925050600181019050611b1c565b5085935050505092915050565b5f81519050919050565b5f82825260208201905092915050565b5f819050602082019050919050565b611b888161155c565b82525050565b5f611b998383611b7f565b60208301905092915050565b5f602082019050919050565b5f611bbb82611b56565b611bc58185611b60565b9350611bd083611b70565b805f5b83811015611c00578151611be78882611b8e565b9750611bf283611ba5565b925050600181019050611bd3565b5085935050505092915050565b5f82825260208201905092915050565b828183375f83830152505050565b5f601f19601f8301169050919050565b5f611c468385611c0d565b9350611c53838584611c1d565b611c5c83611c2b565b840190509392505050565b5f608082019050611c7a5f830188611661565b8181036020830152611c8c8187611afa565b90508181036040830152611ca08186611bb1565b90508181036060830152611cb5818486611c3b565b90509695505050505050565b5f5ffd5b611cce82611c2b565b810181811067ffffffffffffffff82111715611ced57611cec611a45565b5b80604052505050565b5f611cff611493565b9050611d0b8282611cc5565b919050565b5f5ffd5b5f67ffffffffffffffff821115611d2e57611d2d611a45565b5b602082029050602081019050919050565b5f611d51611d4c84611d14565b611cf6565b90508083825260208201905060208402830185811115611d7457611d73611597565b5b835b81811015611d9d5780611d8988826114ea565b845260208401935050602081019050611d76565b5050509392505050565b5f82601f830112611dbb57611dba61158f565b5b8135611dcb848260208601611d3f565b91505092915050565b5f67ffffffffffffffff821115611dee57611ded611a45565b5b602082029050602081019050919050565b5f611e11611e0c84611dd4565b611cf6565b90508083825260208201905060208402830185811115611e3457611e33611597565b5b835b81811015611e7b57803567ffffffffffffffff811115611e5957611e5861158f565b5b808601611e668982611da7565b85526020850194505050602081019050611e36565b5050509392505050565b5f82601f830112611e9957611e9861158f565b5b8135611ea9848260208601611dff565b91505092915050565b5f60e08284031215611ec757611ec6611cc1565b5b611ed160e0611cf6565b90505f611ee0848285016114ea565b5f830152506020611ef3848285016114ea565b602083015250604082013567ffffffffffffffff811115611f1757611f16611d10565b5b611f2384828501611da7565b604083015250606082013567ffffffffffffffff811115611f4757611f46611d10565b5b611f5384828501611e85565b6060830152506080611f678482850161157b565b60808301525060a0611f7b8482850161157b565b60a08301525060c0611f8f8482850161157b565b60c08301525092915050565b5f60208284031215611fb057611faf61149c565b5b5f82013567ffffffffffffffff811115611fcd57611fcc6114a0565b5b611fd984828501611eb2565b91505092915050565b5f604082019050611ff55f830185611661565b6120026020830184611661565b9392505050565b7f4e487b71000000000000000000000000000000000000000000000000000000005f52601160045260245ffd5b5f6120408261155c565b915061204b8361155c565b925082820390508181111561206357612062612009565b5b92915050565b5f819050919050565b61207b81612069565b82525050565b5f6040820190506120945f8301856119a1565b6120a16020830184612072565b9392505050565b7f4f6e6c792042616c616e636572205661756c742063616e2063616c6c207468695f8201527f732066756e6374696f6e00000000000000000000000000000000000000000000602082015250565b5f612102602a836118c4565b915061210d826120a8565b604082019050919050565b5f6020820190508181035f83015261212f816120f6565b9050919050565b7f5468697320636f6e7472616374206f6e6c792068616e646c65732073696e676c5f8201527f652d746f6b656e20666c617368206c6f616e7300000000000000000000000000602082015250565b5f6121906033836118c4565b915061219b82612136565b604082019050919050565b5f6020820190508181035f8301526121bd81612184565b9050919050565b7f496e76616c696420746f6b656e20616464726573732070726f766964656400005f82015250565b5f6121f8601e836118c4565b9150612203826121c4565b602082019050919050565b5f6020820190508181035f830152612225816121ec565b9050919050565b7f496e76616c696420726f7574657220636f6e66696775726174696f6e000000005f82015250565b5f612260601c836118c4565b915061226b8261222c565b602082019050919050565b5f6020820190508181035f83015261228d81612254565b9050919050565b7f496e76616c696420706174687320636f6e66696775726174696f6e00000000005f82015250565b5f6122c8601b836118c4565b91506122d382612294565b602082019050919050565b5f6020820190508181035f8301526122f5816122bc565b9050919050565b5f6123068261155c565b91506123118361155c565b925082820190508082111561232957612328612009565b5b92915050565b5f60a0820190506123425f8301886119a1565b61234f60208301876119a1565b81810360408301526123618186611afa565b90506123706060830185611661565b61237d60808301846119a1565b9695505050505050565b5f67ffffffffffffffff8211156123a1576123a0611a45565b5b602082029050602081019050919050565b5f6123c46123bf84612387565b611cf6565b905080838252602082019050602084028301858111156123e7576123e6611597565b5b835b8181101561241057806123fc8882611962565b8452602084019350506020810190506123e9565b5050509392505050565b5f82601f83011261242e5761242d61158f565b5b815161243e8482602086016123b2565b91505092915050565b5f6020828403121561245c5761245b61149c565b5b5f82015167ffffffffffffffff811115612479576124786114a0565b5b6124858482850161241a565b91505092915050565b5f6060820190506124a15f830186611661565b6124ae60208301856119a1565b6124bb6040830184611661565b949350505050565b5f6124cd8261155c565b91506124d88361155c565b92508282026124e68161155c565b915082820484148315176124fd576124fc612009565b5b5092915050565b7f4e487b71000000000000000000000000000000000000000000000000000000005f52601260045260245ffd5b5f61253b8261155c565b91506125468361155c565b92508261255657612555612504565b5b828204905092915050565b7f507269636520646576696174657320746f6f206d7563682066726f6d205457415f8201527f5000000000000000000000000000000000000000000000000000000000000000602082015250565b5f6125bb6021836118c4565b91506125c682612561565b604082019050919050565b5f6020820190508181035f8301526125e8816125af565b9050919050565b7f547261646520776173206e6f742070726f66697461626c6520616674657220665f8201527f6565730000000000000000000000000000000000000000000000000000000000602082015250565b5f6126496023836118c4565b9150612654826125ef565b604082019050919050565b5f6020820190508181035f8301526126768161263d565b905091905056fea26469706673582212209cceee56f51ccfe32a3a597257da69ecbfba00e39ad2030e859da62bd59c0b5064736f6c634300081e0033","linkReferences":{}},"methodIdentifiers":{"owner()":"8da5cb5b","pause()":"8456cb59","paused()":"5c975abb","receiveFlashLoan(address[],uint256[],uint256[],bytes)":"f04f2707","startFlashloan(address,uint256,bytes)":"8298a90d","twapOracle()":"9043292a","unpause()":"3f4ba83a","vault()":"fbfa77cf","withdraw(address)":"51cff8d9"},"id":27}