{
  "_format": "hh-sol-artifact-1",
  "contractName": "MockVault",
  "sourceName": "contracts/contracts/MockVault.sol",
  "abi": [
    {
      "inputs": [
        {
          "internalType": "address",
          "name": "recipient",
          "type": "address"
        },
        {
          "internalType": "address[]",
          "name": "tokens",
          "type": "address[]"
        },
        {
          "internalType": "uint256[]",
          "name": "amounts",
          "type": "uint256[]"
        },
        {
          "internalType": "bytes",
          "name": "userData",
          "type": "bytes"
        }
      ],
      "name": "flashLoan",
      "outputs": [],
      "stateMutability": "nonpayable",
      "type": "function"
    }
  ],
  "bytecode": "0x608060405234801561001057600080fd5b506108d8806100206000396000f3fe608060405234801561001057600080fd5b506004361061002b5760003560e01c80635c38449e14610030575b600080fd5b61004a60048036038101906100459190610371565b61004c565b005b60005b8686905081101561012c5786868281811061006d5761006c61043a565b5b90506020020160208101906100829190610469565b73ffffffffffffffffffffffffffffffffffffffff1663a9059cbb898787858181106100b1576100b061043a565b5b905060200201356040518363ffffffff1660e01b81526004016100d59291906104be565b6020604051808303816000875af11580156100f4573d6000803e3d6000fd5b505050506040513d601f19601f82011682018060405250810190610118919061051f565b5080806101249061057b565b91505061004f565b508673ffffffffffffffffffffffffffffffffffffffff1663f04f2707878787878b8b905067ffffffffffffffff81111561016a576101696105c3565b5b6040519080825280602002602001820160405280156101985781602001602082028036833780820191505090505b5088886040518863ffffffff1660e01b81526004016101bd979695949392919061083b565b600060405180830381600087803b1580156101d757600080fd5b505af11580156101eb573d6000803e3d6000fd5b5050505050505050505050565b600080fd5b600080fd5b600073ffffffffffffffffffffffffffffffffffffffff82169050919050565b600061022d82610202565b9050919050565b61023d81610222565b811461024857600080fd5b50565b60008135905061025a81610234565b92915050565b600080fd5b600080fd5b600080fd5b60008083601f84011261028557610284610260565b5b8235905067ffffffffffffffff8111156102a2576102a1610265565b5b6020830191508360208202830111156102be576102bd61026a565b5b9250929050565b60008083601f8401126102db576102da610260565b5b8235905067ffffffffffffffff8111156102f8576102f7610265565b5b6020830191508360208202830111156103145761031361026a565b5b9250929050565b60008083601f84011261033157610330610260565b5b8235905067ffffffffffffffff81111561034e5761034d610265565b5b60208301915083600182028301111561036a5761036961026a565b5b9250929050565b60008060008060008060006080888a0312156103905761038f6101f8565b5b600061039e8a828b0161024b565b975050602088013567ffffffffffffffff8111156103bf576103be6101fd565b5b6103cb8a828b0161026f565b9650965050604088013567ffffffffffffffff8111156103ee576103ed6101fd565b5b6103fa8a828b016102c5565b9450945050606088013567ffffffffffffffff81111561041d5761041c6101fd565b5b6104298a828b0161031b565b925092505092959891949750929550565b7f4e487b7100000000000000000000000000000000000000000000000000000000600052603260045260246000fd5b60006020828403121561047f5761047e6101f8565b5b600061048d8482850161024b565b91505092915050565b61049f81610222565b82525050565b6000819050919050565b6104b8816104a5565b82525050565b60006040820190506104d36000830185610496565b6104e060208301846104af565b9392505050565b60008115159050919050565b6104fc816104e7565b811461050757600080fd5b50565b600081519050610519816104f3565b92915050565b600060208284031215610535576105346101f8565b5b60006105438482850161050a565b91505092915050565b7f4e487b7100000000000000000000000000000000000000000000000000000000600052601160045260246000fd5b6000610586826104a5565b91507fffffffffffffffffffffffffffffffffffffffffffffffffffffffffffffffff82036105b8576105b761054c565b5b600182019050919050565b7f4e487b7100000000000000000000000000000000000000000000000000000000600052604160045260246000fd5b600082825260208201905092915050565b6000819050919050565b61061681610222565b82525050565b6000610628838361060d565b60208301905092915050565b6000610643602084018461024b565b905092915050565b6000602082019050919050565b600061066483856105f2565b935061066f82610603565b8060005b858110156106a8576106858284610634565b61068f888261061c565b975061069a8361064b565b925050600181019050610673565b5085925050509392505050565b600082825260208201905092915050565b600080fd5b82818337505050565b60006106e083856106b5565b93507f07ffffffffffffffffffffffffffffffffffffffffffffffffffffffffffffff831115610713576107126106c6565b5b6020830292506107248385846106cb565b82840190509392505050565b600081519050919050565b6000819050602082019050919050565b610754816104a5565b82525050565b6000610766838361074b565b60208301905092915050565b6000602082019050919050565b600061078a82610730565b61079481856106b5565b935061079f8361073b565b8060005b838110156107d05781516107b7888261075a565b97506107c283610772565b9250506001810190506107a3565b5085935050505092915050565b600082825260208201905092915050565b82818337600083830152505050565b6000601f19601f8301169050919050565b600061081a83856107dd565b93506108278385846107ee565b610830836107fd565b840190509392505050565b6000608082019050818103600083015261085681898b610658565b9050818103602083015261086b8187896106d4565b9050818103604083015261087f818661077f565b9050818103606083015261089481848661080e565b90509897505050505050505056fea264697066735822122097dee7e0f4b4b3b201baa9ad1c823bf77c127906cbeb83fa7ceb28023cd42cb364736f6c63430008140033",
  "linkReferences": {},
  "deployedLinkReferences": {}
}